:100200000C94010D0C94290D0C94290D0C94290DBE
:100210000C94290D0C94290D0C94290D0C94290D86
:100220000C94290D0C94290D0C94290D0C94290D76
:100230000C94290D0C94290D0C9451450C94F44503
:100240000C94290D0C9423450C94FD440C94290D19
:100250000C94290D0C94290D0C94290D0C94290D46
:100260000C94290D0C94D5440C94290D0C94290D53
:100270000C94290D0C94290D0C94290D0C94290D26
:100280000C94290D0C94290D0C94290D0C94290D16
:100290000C94290D0C94290D0C94290D0C94290D06
:1002A0003F202D204D656E750031202D2053657443
:1002B0002049502061646472657373004552524F47
:1002C00052202D20436F6D6D616E642062756666ED
:1002D0006572206F766572666C6F7721005472616B
:1002E0006E736D6974206661696C65642100496E86
:1002F00076616C696420706172616D65746572000D
:100300004D697373696E6720706172616D657465A4
:10031000720020616E64200056616C696420726115
:100320006E6765206973206265747765656E20006D
:10033000756E736574005345432061646472657320
:10034000732073657420746F3A2000505249206105
:100350006464726573732073657420746F3A20004F
:1003600043616E6E6F742061646472657373207490
:10037000686520636F6E74726F6C6C65722100200B
:100380006D696C6C697365636F6E6473005365743B
:10039000205B726561645F746D6F5F6D735D207467
:1003A0006F3A200053657420454F5320746F3A20F4
:1003B0000053657420454F492061737365727469F9
:1003C0006F6E3A2000496E74657266616365206DD8
:1003D0006F64652073657420746F3A2000417070FB
:1003E000656E64696E67206F6620454F54206368B0
:1003F000617261637465723A2000454F54207365E1
:100400007420746F204153434949206368617261CD
:10041000637465723A20004175746F206D6F646576
:100420003A20002020202020202020202761646402
:1004300072657373656420746F2074616C6B2062E5
:100440007574206E6F7468696E6720746F207361B5
:100450007927206572726F7273005741524E494E70
:10046000473A206175746F6D6F6465204F4E20634D
:10047000616E20636175736520736F6D65206465BF
:10048000766963657320746F2067656E6572617449
:1004900065004152343838204750494220636F6E1E
:1004A00074726F6C6C65722C207665722E20302E03
:1004B00035332E30332C2030382F30342F32303239
:1004C00035004152343838204750494220636F6E1E
:1004D00074726F6C6C65722C207665722E20302ED3
:1004E00035332E30332C2030382F30342F32303209
:1004F0003500526561645E4F4B004661696C65640E
:1005000020746F2073656E64205344430046616914
:100510006C656420746F2073656E64204C4C4F21B1
:10052000004661696C656420746F2073656E642099
:10053000756E6976657273616C204C4C4F2E004667
:1005400061696C656420746F2073656E64204C4F24
:10055000432100494643207369676E616C206173D3
:1005600073657274656420666F7220313530206D5A
:100570006963726F7365636F6E64730047726F7542
:1005800070207472696767657220636F6D706C6547
:100590007465642E004661696C656420746F207414
:1005A00072696767657220646576696365210052C8
:1005B00065736574204641494C45442E005365726D
:1005C00069616C20706F6C6C20636F6D706C65740A
:1005D00065642E004661696C656420746F207265E5
:1005E00074726965766520737461747573206279BD
:1005F00074652066726F6D20005D2066726F6D20DD
:1006000064657669636520617420616464726573F2
:10061000733A20005265636569766564207374617E
:100620007475732062797465205B002C00535251FD
:100630003A0053657269616C20706F6C6C206F6654
:1006400020616C6C206465766963657320726571E6
:100650007565737465642E2E2E0053657474696E0F
:1006600067732073617665642E004C4F4E3A20000C
:100670005D00205B002B2B00616464723A502044C3
:100680006973706C61792F73657420646576696332
:100690006520616464726573730A6175746F3A50A2
:1006A000204175746F6D61746963616C6C7920723F
:1006B0006571756573742074616C6B20616E642064
:1006C0007265616420726573706F6E73650A636C26
:1006D000723A502053656E642053656C656374658F
:1006E000642044657669636520436C65617220749B
:1006F0006F2063757272656E7420475049422061A5
:100700006464726573730A656F693A5020456E615F
:10071000626C652F64697361626C652061737365D7
:100720007274696F6E206F6620454F492073696748
:100730006E616C0A656F723A502053686F77206F54
:10074000722073657420656E64206F662072656325
:100750006569766520636861726163746572287388
:10076000290A656F733A5020537065636966792072
:1007700047504942207465726D696E6174696F6E8D
:10078000206368617261637465720A656F745F6388
:100790006861723A502053657420636861726163C6
:1007A00074657220746F20617070656E6420746F60
:1007B00020555342206F7574707574207768656E8C
:1007C00020454F5420656E61626C65640A656F74E4
:1007D0005F656E61626C653A5020456E61626C6562
:1007E0002F44697361626C6520617070656E646925
:1007F0006E672075736572207370656369666965DD
:10080000642063686172616374657220746F20553F
:100810005342206F7574707574206F6E20454F4978
:1008200020646574656374696F6E0A68656C703AFC
:10083000502054686973206D6573736167650A6938
:1008400066633A50204173736572742049464320B1
:100850007369676E616C20666F7220313530206D70
:100860006973636F7365636F6E6473202D206D61B0
:100870006B6520415234383820636F6E74726F6C30
:100880006C657220696E206368617267650A6C6CC2
:100890006F3A50204C6F63616C206C6F636B6F75A7
:1008A00074202D2064697361626C652066726F6EBE
:1008B000742070616E656C206F7065726174696F11
:1008C0006E206F6E20696E737472756D656E740A3A
:1008D0006C6F633A5020456E61626C652066726F82
:1008E0006E742070616E656C206F706572617469E2
:1008F0006F6E206F6E20696E737472756D656E74A5
:100900000A6C6F6E3A502050757420636F6E74726B
:100910006F6C6C657220696E206C697374656E2DE6
:100920006F6E6C79206D6F646520286C69737465D7
:100930006E20746F20616C6C2074726166666963EE
:10094000290A6D6F64653A50205365742074686598
:1009500020696E74657266616365206D6F646520E1
:1009600028313D636F6E74726F6C6C65722F303D11
:10097000646576696365290A726561643A5020523C
:1009800065616420646174612066726F6D20696EB8
:10099000737472756D656E740A726561645F746DEF
:1009A0006F5F6D733A5020526561642074696D65A4
:1009B0006F7574207370656369666965642062652C
:1009C000747765656E2031202D2033303030206DF6
:1009D000696C6C697365636F6E64730A7273743AE1
:1009E000502052657365742074686520636F6E745F
:1009F000726F6C6C65720A736176656366673A50F4
:100A0000205361766520636F6E66696772617469F1
:100A10006F6E0A73706F6C6C3A5020536572696127
:100A20006C20706F6C6C2074686520616464726502
:100A30007373656420686F7374206F7220616C6CCF
:100A400020696E737472756D656E74730A7372715A
:100A50003A502052657475726E20737461747573A8
:100A6000206F6620737271207369676E616C202835
:100A7000312D7372712061737365727465642F30E8
:100A80002D737271206E6F7420617373657274655B
:100A900064290A7374617475733A50205365742025
:100AA000746865207374617475732062797465204D
:100AB000746F2062652072657475726E6564206F54
:100AC0006E206265696E6720706F6C6C65642028AB
:100AD0006269742036203D205251532C20692E65C6
:100AE00020535251206173736572746564290A74CE
:100AF00072673A502053656E642074726967676547
:100B00007220746F2073656C65637465642064651E
:100B100076696365732028757020746F20313520E5
:100B2000616464726573736573290A7665723A50FD
:100B300020446973706C6179206669726D776172A7
:100B4000652076657273696F6E0A6173706F6C6C85
:100B50003A432053657269616C20706F6C6C206140
:100B60006C6C20696E737472756D656E7473202879
:100B7000616C6961733A202B2B73706F6C6C206110
:100B80006C6C290A64636C3A432053656E6420756B
:100B90006E6164647265737365642028616C6C298E
:100BA0002064657669636520636C65617220205BF3
:100BB000706F776572206F6E2072657365745D204B
:100BC00028697320746865207273743F290A64650C
:100BD0006661756C743A432053657420636F6E666A
:100BE000696775726174696F6E20746F20636F6ED0
:100BF00074726F6C6C65722064656661756C7420CC
:100C000073657474696E67730A69643A4320536844
:100C10006F7720696E746572666163652049442050
:100C2000696E666F726D6174696F6E202D207365D9
:100C30006520616C736F3A20276964206E616D6571
:100C4000273B202769642073657269616C273B200C
:100C500027696420766572737472270A6964206E4E
:100C6000616D653A432053686F772F536574207424
:100C70006865206E616D65206F6620746865206907
:100C80006E746572666163650A6964207365726972
:100C9000616C3A432053686F772F536574207468F2
:100CA000652073657269616C206E756D6265722076
:100CB0006F662074686520696E746572666163652D
:100CC0000A6964207665727374723A432053686FC0
:100CD000772F536574207468652076657273696F29
:100CE0006E20737472696E672073656E7420696E0E
:100CF000207265706C7920746F202B2B76657220C2
:100D0000652E672E2022475049422D5553422229F5
:100D10002E204D61782034372063686172732C2057
:100D2000657863657373207472756E63617465644E
:100D30002E0A69646E3A4320456E61626C652F44E9
:100D4000697361626C65207265706C7920746F20C4
:100D50002A69646E3F202864697361626C6564204F
:100D600062792064656661756C74290A6D616372CD
:100D70006F3A432052756E2061206D6163726F205F
:100D8000286966206D6163726F20737570706F7271
:100D90007420697320636F6D70696C6564290A66DD
:100DA0006E646C3A432046696E64206C6973746E9D
:100DB0006572730A70706F6C6C3A4320436F6E6497
:100DC000756374206120706172616C6C656C207059
:100DD0006F6C6C0A72656E3A43204173736572746E
:100DE000206F7220556E617373657274207468652C
:100DF0002052454E207369676E616C0A726570659A
:100E000061743A432052657065617420612067699E
:100E100076656E20636F6D6D616E6420616E642017
:100E200072657475726E20726573756C740A736581
:100E300063726561643A4320526561642066726F33
:100E40006D2061207365636F6E64617279206164E7
:100E500064726573730A73656373656E643A4320E5
:100E600053656E642064617461206F7220636F6DDE
:100E70006D616E6420746F2061207365636F6E64B2
:100E800061727920616464726573730A7365747644
:100E90007374723A4320444550524543415445448B
:100EA000202D2073656520696420766572737472E5
:100EB0000A7372716175746F3A43204175746F6D76
:100EC00061746963616C6C7920636F6E64756374BF
:100ED0002073657269616C20706F6C6C2077686537
:100EE0006E2053525120697320617373657274656B
:100EF000640A7463743A43205369676E616C2072AC
:100F0000656D6F74652064657669636520746F2014
:100F100074616B6520636F6E74726F6C0A746F6EB0
:100F20003A432050757420636F6E74726F6C6C65F9
:100F30007220696E2074616C6B2D6F6E6C79206D00
:100F40006F6465202873656E642064617461206F2E
:100F50006E6C79290A756E6C3A4320556E6C697314
:100F600074656E207468652047504942206275732D
:100F70000A756E743A4320556E74616C6B20746808
:100F800065204750494220627573766572626F73BF
:100F9000653A4320566572626F7365202868756DE7
:100FA000616E207265616461626C6529206D6F6499
:100FB000650A78646961673A432042757320646901
:100FC00061676E6F7374696373202873656520743D
:100FD000686520646F63290A0053656E64696E67F3
:100FE0002044434C206661696C656400536574203D
:100FF000454F5220746F3A2000506172616C6C65ED
:101000006C20706F6C6C20636F6D706C65746564C0
:101010002E0052454E3A200050524F4D3A20004F7C
:101020004646004F4E206275666665726564004FE5
:101030004E20756E627566666572656400544F4E2B
:101040003A20004D697373696E6720706172616D3B
:101050006574657273004D697373696E67207061A2
:1010600072616D6574657200537769746368656455
:1010700020746F20646576696365206D6F64652EEA
:1010800000207375636365656465642E0020666186
:10109000696C6564210053656E64696E6720544312
:1010A0005420746F206465766963652061742061E3
:1010B00064647265737320005468617420697320DE
:1010C0006D7920616464726573732120506C656171
:1010D00073652070726F766964652074686520613D
:1010E000646472657373206F6620612072656D6F32
:1010F0007465206465766963652E00446973616276
:101100006C656400496E76616C69643A20303D64B8
:10111000617461206275733B20313D636F6E747240
:101120006F6C206275730044494F380044494F3753
:101130000044494F360044494F350044494F34007C
:1011400044494F330044494F320044494F31004134
:10115000544E0052454E0053525100454F490044F1
:101160004156004E524644004E44414300494643D6
:10117000004152343838204750494220636F6E7422
:10118000726F6C6C65722C207665722E20302E3555
:10119000332E30332C2030382F30342F323032354C
:1011A0000053657269616C206E756D626572206DA9
:1011B000757374206E6F742065786365656420397B
:1011C000206368617261637465727321004C656E9F
:1011D000677468206F66206E616D65206D7573742D
:1011E000206E6F74206578636565642031352063F7
:1011F00068617261637465727321004C656E677417
:1012000068206F662076657273696F6E20737472E2
:10121000696E67206D757374206E6F7420657863D6
:101220006565642034382063686172616374657237
:101230007321005665725374723A200020776974E6
:10124000682073657269616C206E756D62657200ED
:1012500053656E64696E672049444E3A20004661CA
:10126000696C656420746F2073656E6420554E4C04
:10127000004661696C656420746F2073656E64203C
:10128000554E5400556E7265636F676E697A65647A
:1012900020636F6D6D616E64000A436F6D6D616EEA
:1012A000642061626F727465642E000A496E766113
:1012B0006C696420495020616464726573732066B0
:1012C0006F726D61742E00596F752077696C6C2098
:1012D0006E65656420746F207265626F6F74206E36
:1012E0006F772E000A495020416464726573732041
:1012F00077696C6C2062652073657420746F3A2086
:1013000000456E7465722074686520646573697247
:1013100065642049502061646472657373202830CD
:101320002E302E302E30206D65616E733A2075732D
:10133000652044484350293A20007669612044489A
:1013400043502E00436F6E6669677572656420496D
:101350005020416464726573733A20000A437572C9
:1013600072656E7420495020416464726573733AEB
:1013700020002D205352414D206C6566743A2000A8
:10138000454550524F4D206461746120736574204F
:10139000746F2064656661756C742E00435243203F
:1013A000636865636B206661696C65642E204572B5
:1013B0006173696E6720454550524F4D2E2E2E2E7B
:1013C00000454550524F4D2068617320646174613F
:1013D0002E002121204E6F2076616C6964204950D7
:1013E00020616464726573732061737369676E65ED
:1013F000642E20506C6561736520636865636B20A3
:10140000796F7572206E6574776F726B2073657477
:1014100074696E67732E004950204164647265736D
:10142000733A20004661696C656420746F207374A0
:101430006172742054435020736572766572004D5A
:101440006178696D756D206E756D626572206F666D
:1014500020636861726163746572732069732072BE
:1014600065616368656420696E206120636F6D6DDE
:10147000616E642074657874000053657475702023
:10148000636F6D706C6574652E005374617274695E
:101490006E672053657269616C204D656E752E2EE6
:1014A0002E005374617274696E67205765622073F1
:1014B0006572766572206F6E20706F72742038309E
:1014C0002E2E2E005374617274696E672050726FF5
:1014D0006C6F67697820544350207365727665722B
:1014E000206F6E20706F727420313233342E2E2EA6
:1014F0000057616974696E6720666F7220444843C3
:10150000502E2E2E005468652064657669636573DD
:1015100027732064656661756C742061646472650C
:10152000737320706F696E747320746F2047504915
:101530004220616464726573732000436F6E666954
:10154000677572696E6720616E642053746172748E
:10155000696E672047504942206275732E2E2E0017
:101560004D414320416464726573733A20004574B1
:101570006865726E657432475049422047617465F0
:101580007761792076312E31202841523438382045
:1015900076302E35332E3033290A00676574436D5B
:1015A000643A20636F6D6D616E64206E6F742061AC
:1015B0007661696C61626C6520696E20746869731C
:1015C000206D6F64652E00526573657420666169D5
:1015D0006C65642E00526573657474696E672E2E97
:1015E0002E004572726F72207768696C6520726593
:1015F00063656976696E6720646174612E00202DD1
:101600003E2063616E63656C6C6174696F6E20214E
:1016100000202D3E2063616E63656C6C6174696FA0
:101620006E202100202D3E20746F6F206D616E7939
:1016300020617267756D656E7473202120286F6E4E
:101640006520636861726163746572206F6E6C7986
:10165000290000202D3E204E6F20636F6D6D616E5E
:101660006420636F6465206D61746368696E6720D0
:101670002100202D3E20746F6F206D616E792061F6
:101680007267756D656E7473202120286F6E6520FA
:10169000636861726163746572206F6E6C79290092
:1016A000485454502F312E3120343034204E6F7432
:1016B00020466F756E640A002066726F6D20726539
:1016C0006D6F746520706F7274200053656E7420A6
:1016D0006461746120616E6420436C6F73696E672E
:1016E0002057656220636F6E6E656374696F6E204C
:1016F0006F6620736C6F74200022003A202200472E
:101700006F7420636F6D706C6574652072657175A0
:10171000657374206F6E20736C6F74200057656260
:1017200020636F6E6E656374696F6E206C696D699E
:101730007420726561636865642066726F6D2072E3
:10174000656D6F746520706F727420002066726F13
:101750006D2072656D6F746520706F727420004E1D
:1017600065772057656220636F6E6E656374696F7D
:101770006E20696E20736C6F7420002066726F6D2E
:101780002072656D6F746520706F72742000466FF3
:1017900072636520436C6F73696E672057656220C2
:1017A000636F6E6E656374696F6E206F6620736C15
:1017B0006F7420004950204164647265737320681F
:1017C0006173206265656E2061737369676E65641D
:1017D0003A200045746865726E6574206C696E6BA2
:1017E000206973204F4B206E6F770020506C65612D
:1017F000736520696E666F726D20796F75722063F4
:101800006C69656E74732100212120495020416468
:101810006472657373206368616E6765643A200063
:101820002069732077726F6E672E20506C6561732C
:101830006520636865636B2044484350210049502C
:101840002041646472657373200045746865726E2C
:101850006574206C696E6B206973204F4646003CAE
:101860002F703E003C703E495020416464726573A5
:10187000733A20003C68323E50726F6C6F67697833
:1018800020475049422045746865726E6574205344
:1018900065727665723C2F68323E003C2F703E00C8
:1018A0003C703E4E756D626572206F6620636F6E90
:1018B0006E656374696F6E733A20003C68313E4513
:1018C000746865726E65743247504942204761748E
:1018D000657761792076312E3120284152343838AD
:1018E0002076302E35332E3033290A3C2F68313E96
:1018F000003C21444F43545950452048544D4C3EE0
:101900000A3C68746D6C3E3C686561643E3C746979
:10191000746C653E45746865726E657432475049F3
:10192000423C2F7469746C653E3C7374796C653EFF
:10193000626F6479207B20666F6E742D66616D69BD
:101940006C793A20417269616C2C2073616E732D41
:1019500073657269663B207D3C2F7374796C653EBC
:101960003C2F686561643E3C626F64793E00485478
:1019700054502F312E3120323030204F4B0A436FDC
:101980006E74656E742D547970653A207465787440
:101990002F68746D6C0A436F6E6E656374696F6E49
:1019A0003A20636C6F73650A526566726573683AB4
:1019B00020350A0A00496E74657266616365206DA0
:1019C000697374616B652077697468206C696272F1
:1019D0006172792053657269616C53657269616CDB
:1019E0004D656E75436D64004E6F204D656E7520BC
:1019F000696E206D656D6F7279003E00000047478B
:101A0000414711241FBECFEFCDBFDFE3DEBF18E299
:101A1000A0E0B8E2EEEAFFEB02C005900D92A8311B
:101A2000B107D9F72BE2A8E1B8E201C01D92A53CAD
:101A3000B207E1F71CE0C0E0DDE004C02197FE0141
:101A40000E94AA5BCF3FD107C9F70E94BD480C9402
:101A50007E5D0C9400018F929F92AF92BF92CF92C5
:101A6000DF92EF92FF920F93CF93DF938091092A39
:101A7000882319F081FF0DC07894DF91CF910F91E9
:101A8000FF90EF90DF90CF90BF90AF909F908F909E
:101A9000089580FFF2CF80900B2A90900C2AA0909E
:101AA0000D2AB0900E2AC12CD12C7601E0E09401D1
:101AB000A501B601C701A0E00E94D45B91F121709D
:101AC00030E040E050E060E070E080E090E00E94B4
:101AD000D45BD1F0B0E0A0E0E03370F4AE2FA69577
:101AE000A695A69580E2A89FD0011124A05FBB4FC8
:101AF0008E2F8770A80FB11DCE2FD0E0CD5FD54DB2
:101B000088899C91892B8C939401A501B601C7010A
:101B100001E00E94B95B49015A016B017C01EF5F52
:101B2000C6CF80900F2A9090102AA090112AB090D2
:101B3000122AC12CD12C7601E0E29401A501B60154
:101B4000C701A0E00E94D45B09F497CF217030E078
:101B500040E050E060E070E080E090E00E94D45B04
:101B6000D1F0B0E0A0E0E03370F4AE2FA695A695DA
:101B7000A69580E2A89FD0011124A05FBB4F8E2FB5
:101B80008770A80FB11DCE2FD0E0CD5FD54D8889CD
:101B90009C91892B8C939401A501B601C70101E0AA
:101BA0000E94B95B49015A016B017C01EF5FC5CF0F
:101BB00000008093C4088091C30887FFFCCF809108
:101BC000C40808950F931F93CF93DF93EC018C010A
:101BD000060F171FC017D10729F088810E94D80D62
:101BE0008993F8CFDF91CF911F910F9108958F9234
:101BF0009F92AF92BF92CF92DF92EF92FF920F939C
:101C00001F93CF93DF93182FF92F8091092A8823F0
:101C100019F081FF12C0F8941093C008F093C10826
:101C2000DF91CF911F910F91FF90EF90DF90CF90B8
:101C3000BF90AF909F908F90089580FFEDCF8090E0
:101C40000B2A90900C2AA0900D2AB0900E2AC12C3D
:101C5000D12C7601E0E09401A501B601C701A0E016
:101C60000E94D45BA9F1217030E040E050E060E0D8
:101C700070E080E090E00E94D45BE9F0D0E0C0E04A
:101C8000E03370F4CE2FC695C695C69580E2C89F06
:101C9000E0011124C05FDB4F8E2F8770C80FD11D6C
:101CA0008E2F90E028818D5F954DDC0150962C930E
:101CB0008881887F88839401A501B601C70101E06E
:101CC0000E94B95B49015A016B017C01EF5FC3CFF0
:101CD00080900F2A9090102AA090112AB090122A7A
:101CE000C12CD12C7601E0E29401A501B601C70117
:101CF000A0E00E94D45B09F48FCF217030E040E077
:101D000050E060E070E080E090E00E94D45BE9F099
:101D1000D0E0C0E0E03370F4CE2FC695C695C695EE
:101D2000B0E2CB9FE0011124C05FDB4F8E2F8770A4
:101D3000C80FD11D8E2F90E028818D5F954DDC015D
:101D400050962C938881887F88839401A501B601E1
:101D5000C70101E00E94B95B49015A016B017C0196
:101D6000EF5FC2CFFC01BC01695A7F4F8FEF9FEF3D
:101D70002191322F3927232F22952F702327422F8D
:101D800050E0382FCA01982F88279295907F2827F6
:101D90003927CA01B5E0880F991FBA95E1F7822764
:101DA00093276E177F0721F70895E4E0FBE287E5AC
:101DB000DF011D928A95E9F782E0828381E08483C6
:101DC0008FEF858380EB94E081879287089520E3ED
:101DD000FC0120833296862F82958F706F706A3057
:101DE00030F4605D6293682F8111F5CF0895695CCE
:101DF000F9CFFC01818D928D08950895CF93DF93E3
:101E000090E0FC01E752F34020812F3F61F0FC019C
:101E1000E055F340E08130E2E39FF0011124FC5FE4
:101E2000613021F42183DF91CF9108958957934048
:101E3000EC01A881AF3F69F0CF014096A80FB92F00
:101E4000B11D9FB7F89422838C9188608C939FBFBB
:101E5000EACFB0E0A0E0F5CF90E0FC01E25AF34019
:101E6000E081EE2319F1E13021F000F1E630A8F035
:101E7000089589579340FC012081233008F02F5F9B
:101E80003091010A81E090E001C0880F2A95EAF7BD
:101E9000809583238093010A089580E1E89FF001F3
:101EA0001124E05AF54F81818F7E818308950F932D
:101EB0001F93CF93DF93C82FD0E0FE01E752F3408A
:101EC00000810F3FA1F0162F893210F40E942C0FD1
:101ED000FE01E055F340E08180E2E89FF00111242B
:101EE000FC5F8081802351F0111106C00683DF91D1
:101EF000CF911F910F9108950583F9CFC957D34012
:101F00008881309771F08F3F61F07096E80FF11D76
:101F10009FB7F8948081111107C0877F80839FBF8E
:101F2000E6CFF0E0E0E0F4CF8860F8CF0F931F93A6
:101F3000CF93082F10E0F801E752F340C081CF3F64
:101F400079F00E942C0FF801E055F340E08180E227
:101F5000E89FF0011124FC5F8085C82381E009F42B
:101F600080E0CF911F910F910895893210F40C9465
:101F7000570F0895EF92FF920F931F93CF93DF9324
:101F8000E82EF12CF701E957F34000810F3FD9F11A
:101F9000EB01182F61E00E94FE0E209751F460E0E3
:101FA000812FDF91CF911F910F91FF90EF900C94B3
:101FB000B50FCF3FD10511F461E0F2CFF701E25A3E
:101FC000F340E081E13039F010F0E63030F1C03814
:101FD000D10594F7E4CFE02FF0E0EE0FFF1F0330C0
:101FE000C8F0ED5DF54F0F5F8FB7F894C0838FBFDA
:101FF0008091010A21E030E001C0220F0A95EAF742
:10200000822B8093010ADF91CF911F910F91FF9056
:10201000EF900895E85DF54FE7CF80E1E89FF0018C
:102020001124E05AF54F8FB7F89494859487C587AB
:102030008FBF818180618183E6CF000000000000B6
:1020400000009C0127503109880F991F880F991FA4
:10205000820F931F0197F1F708956FB7F8942091BD
:10206000B6293091B7294091B8295091B92980916A
:10207000AA0A9091AB0A7091A60A70FF08C02F5F60
:102080003F4F4F4F5F4F8091AA0A9091AB0A6FBFAD
:10209000E92FFF27BC01A4E076956795AA95E1F7A3
:1020A000E60FF71FBC01B6E076956795BA95E1F7A4
:1020B000E61BF70B892F992786958695E81BF90B68
:1020C000A8EEB3E00E94575B6E0F7F1F811D911D2C
:1020D00008958F929F92AF92BF92CF92DF92EF922C
:1020E000FF924B015C010E942D106B017C01A8EE58
:1020F000B3E0A50194010E94575BC60ED71EE81EEF
:10210000F91EC616D706E806F90618F40E942D1027
:10211000F8CF0E942D106C157D058E059F05C8F324
:10212000FF90EF90DF90CF90BF90AF909F908F90F7
:1021300008952FB7F8946091B6297091B7298091CE
:10214000B8299091B9292FBF089521E0FC01848519
:10215000883008F020E0822F0895809132289091F5
:102160003328891B990B0895DC01ED91FC910190B6
:10217000F081E02D0994EF92FF920F931F93CF937C
:10218000DF938C017B01D0E0C0E0F701EC0FFD1F75
:102190006491662361F0D801ED91FC910190F0818A
:1021A000E02DC8010995892B11F02196EECFCE01C3
:1021B000DF91CF911F910F91FF90EF900895AF9213
:1021C000BF92CF92DF92EF92FF920F931F93CF9324
:1021D000DF936C017B018B01040F151FEB015E0186
:1021E000AE18BF08C017D10759F06991D601ED911B
:1021F000FC910190F081E02DC6010995892B79F7BA
:10220000C501DF91CF911F910F91FF90EF90DF906B
:10221000CF90BF90AF900895FC01508D418D252F38
:1022200030E0842F90E0821B930B541710F0CF9670
:10223000089501970895FC0196898789981761F0A0
:10224000A789AE0FBF2FB11D5D968C9197899F5FB7
:102250009F73978B90E008958FEF9FEF0895FC0197
:1022600096898789981731F08789E80FF11D858D48
:1022700090E008958FEF9FEF0895FC0196892789DC
:10228000892F90E0805C9F4F821B91098F73992763
:1022900008958AE49AE20E943D1121E0892B09F415
:1022A00020E0822F0895CF93DF93EC01E881F9813C
:1022B0000680F781E02D0995EC85FD8586818F7379
:1022C0008683EC85FD8585818F7585838F898E8BCF
:1022D0001D8ADF91CF910895AF92BF92CF92DF9286
:1022E000EF92FF920F931F93CF93DF93EC016A015C
:1022F0007B01A22E8D89882339F0E881F981068837
:10230000F789E02DCE0109950C8910E0BFB6F8944D
:1023100060E078E689E899E0A70196010E94165BE3
:1023200069017A018FEFC81AD80AE80AF80AF69408
:10233000E794D794C794EC85FD8586818D7F86834D
:10234000EC85FD85868186831D8AA09125110A2E44
:10235000000CBB0BA70196010E94625B20E034E0F9
:1023600040E050E00E94385BEC85FD85C20ED31E34
:10237000E41EF51EC086D186EC85FD85A782EC851E
:10238000FD858681806C8683EC85FD8585818068EE
:1023900085839091E2058B89809589237801EE0CE5
:1023A000FF1CF701E00FF11FEC0FFD1F9089892B37
:1023B0008093E2058685893218F462E00E94FE0E61
:1023C0000E0D1F1DC00FD11F61E08F850E94B50F3C
:1023D0008F85893218F461E00E94FE0EBFBEDF9146
:1023E000CF911F910F91FF90EF90DF90CF90BF9012
:1023F000AF900895FC01613019F4648B81E0089579
:10240000148A6623D9F380E00895DC0154961C9267
:10241000549754968C9154978230A0F4282F30E032
:10242000F901EE0FFF1FE20FF31FEA0FFB1F978565
:10243000961303C09685941749F08F5F54968C933A
:102440005497E7CF54961C9280E0089581E0089558
:10245000CF93DF93FC01908D818DC485D585981332
:1024600006C08D818F7D8D83DF91CF910895A18DE1
:10247000AE0FBF2FB11DA35ABF4F2C91818D90E09D
:1024800001968F739927818F80E48C83A485B5850D
:1024900012962C93908D818D9813E6CFA485B585E7
:1024A00015968C9115978F7D15968C93838D882327
:1024B000D9F2848D80931301138ED6CFDC011C9644
:1024C000ED91FC910FB607FE03C0258125FD04C0E8
:1024D000248125FD0C9428120895EF92FF920F930A
:1024E0001F93CF93DF93EC0181E08D8B988D898DC5
:1024F00098131CC0AC85BD8514968C91149785FFEC
:1025000015C012966C93AC85BD8580E414968C93AF
:10251000EC85FD8585818F7D858381E090E0DF916D
:10252000CF911F910F91FF90EF900895809111012D
:1025300080FF08C0809113018C8F8A8D80931301D6
:1025400081E08B8FF62E088D10E00F5F1F4F0F7309
:102550001127E02E898D8E1104C0CE010E945E12DB
:10256000F9CFE88DEC0FFD2FF11DE35AFF4FF082FC
:10257000088FEC85FD8585818062CECF682F8AE447
:102580009AE20C946D12CF93DF93FC0125892223EC
:10259000C9F0EC018091110180FF08C08091130106
:1025A000848F828D8093130181E0838FEC85FD857C
:1025B000858185FD03C0848186FD04C0CE010E9413
:1025C0005E12F4CFDF91CF91089580E090E0892BE7
:1025D00029F00E94491181110E94000080E090E0E2
:1025E000892B49F080E090E0892B29F00E940000BF
:1025F00081110E94000080E090E0892B49F080E08A
:1026000090E0892B29F00E94000081110E940000B7
:1026100080E090E0892B49F080E090E0892B29F060
:102620000E94000081110C940000089581E008953B
:102630000F9391E09093742810922D2860932B288B
:1026400070932C2840932A282093292810922E2812
:1026500010922F2800932828880F8093272893E032
:1026600024E080912A28882331F090937528809166
:1026700027288E7F09C080912928882341F0209344
:1026800075288091272881608093A70808C08091D1
:102690002A28811104C080912928882331F3809150
:1026A0002D288823E1F380912D288330D1F2809169
:1026B0002928882321F080912F280F910895909147
:1026C0002D2881E09130C9F780E0F7CFE0EAF8E00B
:1026D00091859066918792E0909375288093212848
:1026E00010922028089581E08093202810922128BC
:1026F00093E09093AA089091AB0891FF0BC01092C1
:102700002528F0E0E0E009958093242885E0809377
:1027100075280895109226288093232886E0F7CF05
:10272000E091332880913228E81730F4F0E0EC5C37
:10273000F74D808190E008958FEF9FEF089590917D
:102740003328809132282FEF3FEF981748F4E92F74
:10275000F0E0EC5CF74D208130E09F5F90933328F0
:10276000C9010895CF92DF92EF92FF920F931F93CA
:10277000CF93DF937C018A01EB016B01C40ED51E60
:10278000CC15DD0551F06991D701ED91FC910190D7
:10279000F081E02DC7010995F3CFC801DF91CF91FA
:1027A0001F910F91FF90EF90DF90CF9008952091AF
:1027B000B628203440F021E030E0FC01228333834E
:1027C00090E080E008958091B728E82FF0E0EA5883
:1027D000F74D60838F5F8093B7288093B62881E0A0
:1027E00090E00895CF93DF93EC018C819D81DC0113
:1027F000ED91FC910480F581E02D09952A853B85BA
:10280000009739F488859985821B930BDF91CF91CE
:102810000895821B930B97FFF9CF90E080E0F6CFED
:10282000CF93DF93DC011A964D915C9141155105D0
:1028300099F1EC018C819D816E817F81DC01ED91AC
:10284000FC910280F381E02D09952A853B85281BA8
:10285000390B2A873B87232BA9F0009799F030E0AA
:1028600020E04A855B852417350760F4EE81FF81FF
:10287000E20FF31FDF01A80FB91F4C9140832F5FB8
:102880003F4FEFCFEC81FD8182819381892B21F035
:1028900081E090E08A839B83DF91CF910895AF928E
:1028A000BF92CF92DF92EF92FF920F931F93CF933D
:1028B000DF938C016B015A017B01D0E0C0E0CA15A7
:1028C000DB05B9F1D8011A968D919C911B97892B44
:1028D00009F5A5014C1B5D0B18968D919C911997DC
:1028E00048175907B8F014968D919C91B6016C0F5A
:1028F0007D1FDC01ED91FC910280F381E02DDF91E1
:10290000CF911F910F91FF90EF90DF90CF90BF90EC
:10291000AF900994F70161917F01D801ED91FC918D
:102920000190F081E02DC8010995892B11F02196C5
:10293000C6CFCE01DF91CF911F910F91FF90EF9005
:10294000DF90CF90BF90AF900895FC01A681B78132
:10295000828593859C012F5F3F4F22873387A80F85
:10296000B91F6C9322853385808591852817390797
:1029700041F4CF010190F081E02D0680F781E02D38
:10298000099581E090E00895E0911C28F0911D28C0
:10299000808190911B28892B80830895E0911C28C9
:1029A000F0911D28908180911B2880958923808338
:1029B0000895AF92BF92CF92DF92EF92FF920F9362
:1029C0001F93CF93DF93CDB7DEB72897CDBFDEBF80
:1029D0008C017B016A018091022A8333E1F4580162
:1029E000A40EB51EA016B10609F46FC00E94CE1445
:1029F00080EF0E94D80D812F0E94D80D802F0E9459
:102A0000D80D0F5F1F4FF70181917F010E94D80DF4
:102A10000E94C414E7CF5B01A40EB51E8433C1F439
:102A20000E94CE1419830A838D2D80688B83CC82FB
:102A300064E070E0CE0101960E94E20DAE14BF0486
:102A400009F441C0F70181917F010E94D80DF6CFB2
:102A50000E94CE140F3F110509F028F419820A8351
:102A600084E08B830CC017FD17C019820A8333E002
:102A7000169507953A95E1F7007E0C600B8386E08A
:102A8000C816D10488F5F701DE011496EA15FB0596
:102A900099F081918D93FACFC80126E0969587959C
:102AA0002A95E1F7807E19830A830115104C10F4F2
:102AB0008461D7CF8C61D5CFB6016D5F7F4FCE01DA
:102AC00001960E94E20D0E94C414C6012896CDBF53
:102AD000DEBFDF91CF911F910F91FF90EF90DF90BC
:102AE000CF90BF90AF90089563E070E0CE01019663
:102AF0000E94E20DF70181917F010E94D80DAE1472
:102B0000BF04C1F7E0CFCF93DF931F92CDB7DEB7FD
:102B1000898341E050E0BE016F5F7F4F90E080E02D
:102B20000E94D9140F90DF91CF91089590E02091E9
:102B3000022A233339F40C96982F990F990F990F85
:102B400080E008954896F8CFDA01E0911E28F0E081
:102B5000FE2FEE27E60FF71F90E0982F8827A90198
:102B6000BD018E0F9F1F0C94D914CF93DF9300D01B
:102B7000CDB7DEB779836A8322E030E0AE014F5FE4
:102B80005F4F60E170E00E94A4150F900F90DF91FD
:102B9000CF910895CF93DF9300D0CDB7DEB779837F
:102BA0006A8322E030E0AE014F5F5F4F64E070E087
:102BB0000E94A4150F900F90DF91CF910895CF93AD
:102BC000DF931F92CDB7DEB720911E2830E0322F61
:102BD0002227260F371F90E0982F8827498341E04E
:102BE00050E0BE016F5F7F4F820F931F0E94D91488
:102BF0000F90DF91CF910895CF93DF931F92CDB7C0
:102C0000DEB76983DC01ED91FC910280F381E02D58
:102C100041E050E0BE016F5F7F4F09950F90DF915B
:102C2000CF910895CF93DF931F92CDB7DEB769831D
:102C3000DC01ED91FC910280F381E02D41E050E058
:102C4000BE016F5F7F4F09950F90DF91CF9108957F
:102C5000FC019485FB018485981303C081E09830C2
:102C600008F080E00895CF93DF931F92CDB7DEB7D1
:102C70006983DC01ED91FC910280F381E02D41E05C
:102C800050E0BE016F5F7F4F09950F90DF91CF91AC
:102C9000089544E050E0BC018FE090E00C94D9141A
:102CA00044E050E0BC0185E090E00C94D91444E08D
:102CB00050E0BC0181E090E00C94D914FC018485C3
:102CC00095850895DC01ED91FC91028CF38DE02D4A
:102CD000099460E08DE00E94570F61E087E20E9456
:102CE000570F61E086E20C94570FFC01828181113D
:102CF0000CC08381811109C08481811106C081E0EB
:102D00009581911103C080E0089581E00895FC0150
:102D100084899589089524E83DEFFC01208331835F
:102D2000FB014089518962897389FC014283538385
:102D30006483758308950C94D50E9091AB29E92F87
:102D4000F0E0E55DF64D80839F5F9093AB29089599
:102D5000FC01DB0112968D919C91139782839383E2
:102D600014964D915D916D917C9117974483558395
:102D70006683778318964D915D916D917C911B9739
:102D800040875187628773871C968C911C97848734
:102D90001D968D919C9185879687CF010895FC01A2
:102DA000658776870895DC01ED91FC9102A0F3A17F
:102DB000E02D099591E089270895862F089581E0F7
:102DC0008627089508950895CF92DF92EF92FF929B
:102DD0000F931F93CF93DF93282F30E08901000FCB
:102DE000111F000F111FE901D595C795E62FF0E0DF
:102DF0006F01CC0CDD1CCC0CDD1C7F01F594E7943D
:102E0000DF01D4E0AA0FBB1FDA95E1F7A0719C2D7A
:102E10009870A92B6470A62BBF0175956795759561
:102E200067956270A62BE295E170EA2B6C2D6078B5
:102E3000E62B9E2D9072E92B9E2D9074E92B9E2FF0
:102E40009095B90154E0660F771F5A95E1F76071CC
:102E5000502F5870652B8470682BD901B595A795B4
:102E6000B595A795A2706A2B22952170262B007824
:102E7000202B8C2F8072282BC0742C2B2E234130BA
:102E800079F0809144048923282B20934404DF9116
:102E9000CF911F910F91FF90EF90DF90CF90089509
:102EA000809140048923282B20934004F0CF40E0F8
:102EB0000C94E41660E280E20E94571768E270E02A
:102EC00080E090E00E94691060EA80E00E9457175D
:102ED00068E270E080E090E00E94691060E880E8BD
:102EE0000C9457172F923F924F925F926F927F925E
:102EF0008F929F92AF92BF92CF92DF92EF92FF920A
:102F00000F931F93CF93DF9300D000D0CDB7DEB7E0
:102F10001C016A838A010E9499104B015C012B01FC
:102F20003C018FEF481A580A680A780AC0900D2BA6
:102F3000D0900E2BF12CE12C84E10E94960F898316
:102F4000F80110821B821C82481859086A087B0805
:102F50004C145D046E047F0408F064C08091062B5D
:102F6000813099F18B819C81892B09F03FC064E00D
:102F700084E00E9457178FE00E94960F811144C091
:102F800064E00E945717FA81FF2341F08EE00E940F
:102F9000960F811103C081E0F8018083809168045D
:102FA0008095F101808362E082E00E9457178FE0F4
:102FB0000E94960F813069F562E080E00E94571709
:102FC00081E090E08B839C832DC082E10E94960F6C
:102FD000882321F199819111C5CF84E10E94960F38
:102FE000882309F4BFCF83E090E0ECCFEB81FC8134
:102FF000349709F4C0CF8B819C810697C1F20E945F
:1030000099102B013C01A0CFE4E0F0E0EB83FC83BE
:10301000F6CF86E090E08B839C83F1CFE2E0F0E096
:10302000EB83FC838B819C812496CDBFDEBFDF9137
:10303000CF911F910F91FF90EF90DF90CF90BF90B5
:10304000AF909F908F907F906F905F904F903F9048
:103050002F90089541E00C94E416E0E6F4E08FEF41
:10306000828388E0808B818B828B838B848B858BA2
:10307000868B878B08956EE186E00E942A1866E0B1
:1030800089EF0C9457177F928F929F92AF92BF92C5
:10309000CF92DF92EF92FF920F931F93CF93DF9324
:1030A000182F062F0E9499104B015C016F5F7F4F14
:1030B0008F4F9F4FC0900D2BD0900E2BF12CE12CF9
:1030C000D0E0C0E077247A941095681979098A09CC
:1030D0009B096C157D058E059F0508F069C08091E0
:1030E000062B813041F582E10E94960F811116C0B6
:1030F0000E943B1888E080935B2BC2E0D0E0CE01B9
:10310000DF91CF911F910F91FF90EF90DF90CF90C3
:10311000BF90AF909F908F907F90089584E10E9420
:10312000960F811108C00E943B1888E080935B2BAA
:10313000C3E0D0E0E4CF2097B1F481E10E94960F84
:10314000811130C080E10E94960FC7E0D0E081304D
:1031500049F570926104109364048091052B8111EC
:103160000FC068E010C0C730D10561F3C830D10589
:1031700081F3C930D10551F0CA30D10561F012C0D8
:1031800068E1002371F380E00E94571780E10E94FC
:10319000960F81110AC081E10E94960F813061F083
:1031A000CAE0D0E00E94991090CFC9E0D0E0FACFF9
:1031B000C130D10509F0A3CF8091052B811103C047
:1031C00068E088E004C068E188E10023C9F30E9458
:1031D00057178FEF8093610480936404C1E0D0E0BF
:1031E0008ECFFC0180819181FC01FF2790FD06C0FC
:1031F00080E094E1E82BF92B8081089580E093E151
:10320000F9CF0F931F93CF93DF9300D0CDB7DEB7E5
:103210008C0119821A82CE0101960E94F118F801E0
:10322000808381E090E089839A83CE0101960E9499
:10323000F118F8018183C8010F900F90DF91CF91B1
:103240001F910F910895FC01FF2790FD12C080E0AF
:1032500094E1E82BF92B60838FB7F8949DE923E084
:1032600094BF209300108FBF8091021081FDFCCF8E
:10327000089580E093E1EDCFBF92CF92DF92EF927D
:10328000FF920F931F93CF93DF9300D0CDB7DEB79C
:103290006C017C0102E010E0F701B1907F0109832D
:1032A0001A83CE0101960E94F118B81621F06B2DF9
:1032B000C8010E9423190F5F1F4F0935110561F7DF
:1032C000C6010E94B20E8C0119821A82CE010196AB
:1032D0000E94F118081729F0602F90E080E00E940A
:1032E000231981E090E089839A83CE0101960E94A0
:1032F000F118181781F0612F81E090E00F900F9086
:10330000DF91CF911F910F91FF90EF90DF90CF90C1
:10331000BF900C9423190F900F90DF91CF911F91C4
:103320000F91FF90EF90DF90CF90BF900895DC0158
:10333000ED91FC910488F589E02D23E030E00994BB
:1033400090E080E008950C949E5524E0FC012183D8
:1033500021E320830895DF92EF92FF920F931F9352
:10336000CF93DF9300D0CDB7DEB7FB01DC015696DB
:103370001D921C9257972281211109C0238121118E
:1033800006C02481211103C02581222359F1411552
:10339000510541F17A018F01FC01D08CCE010196DB
:1033A0000E94A51989819A810E94F70DA8014E5F9C
:1033B0005F4F24E030E06CE070E08D2D0E94A4159A
:1033C000B7018D2D0E94B5150E942B0D81E090E074
:1033D0000F900F90DF91CF911F910F91FF90EF9081
:1033E000DF90089580E0F3CFCF93C82FEEEFE80F82
:1033F000E83068F4F0E0E150F64E0C94AA5B181A3D
:10340000241A351A2E1A401A531A321A391A61EE32
:1034100081EA0E942A1861EA81EA0E9457176EE148
:1034200080E00E942A1860E280E00E94571708C0DE
:1034300060E880E80E9457176EE180E00E942A1839
:10344000C0935B2BCF9108956EE188E10E942A180A
:1034500068E188E10E94571760E8E6CF60E880E8FD
:103460000E9457170E943B18EBCF60E880E80E944B
:1034700057176EE188E10E942A1868E188E1D5CFEC
:103480006FEF80E00E942A1860E280E20E945717E6
:1034900061EE80E40E942A1860E480E40E945717DD
:1034A0000E942D18CDCF6EE180E00E942A18F8CF3F
:1034B00010925B2B6FEF80E00E942A180E942D185B
:1034C00088EC90E00E941D1081E08093062B86E03E
:1034D0000C94F4190E945A1710925B2B6FEF80E046
:1034E0000E942A180E942D1888EC90E00E941D105E
:1034F00082E08093062B81E00E94F4190E942D182F
:1035000061E080E00E94571786E990E00E941D105C
:1035100061E081E00C945717CF93C82F80915B2B0B
:10352000833019F083E00E94F41960E08C2F0E9430
:10353000431821E0019709F420E0822FCF910895EC
:103540008EE190E00E941D108FE30E948C1A882368
:1035500011F081E008958FE50E948C1A8111F9CF56
:1035600010925D2B08950C94A01A1F93CF93DF93B4
:103570008F3130F0D1E08D2FDF91CF911F910895E1
:103580006036C0F391E8960F97FFF4CF142FC62F43
:10359000D82F8FE30E948C1A8111ECCF8FE50E9407
:1035A0008C1A8111E7CF123099F480E48D0F0E94BC
:1035B0008C1AD82F8111DECFCF3F21F482E0809387
:1035C0005D2BD9CF8C2F0E948C1A8111D3CFF6CFCF
:1035D00080E28D0F0E948C1AD82F8111CBCFCF3F64
:1035E00011F481E0ECCF8C2F0E948C1A8823C9F350
:1035F000C1CFAF92BF92CF92DF92EF92FF920F9323
:103600001F93CF938C01E62E80910A2B813030F0EE
:10361000C1E0833020F0C0E0833009F0C2E0809147
:10362000062B8230C9F484E00E94F419680110E08E
:1036300000E0F12C570181E0A81AB1080E151F0512
:1036400014F5F60181916F019091052B992311F0EA
:10365000CC2321F060E006C089E0E6CF61E0A0164F
:10366000B106C1F70E9443180197E1F40F5F1F4FA5
:10367000E5CF60E08DE00E9443186091052B8AE061
:103680000FC087E013C0CC2369F080910A2B8230F1
:10369000A1F3833039F0813061F76091052B8DE023
:1036A0000E9443188091062B823059F7CF911F91C9
:1036B0000F91FF90EF90DF90CF90BF90AF900C9460
:1036C000F4198F929F92AF92BF92CF92DF92EF92B6
:1036D000FF920F931F93CF93DF9300D000D0CDB70D
:1036E000DEB76C01162F942E822E19821A821B824D
:1036F0009091402B092F07701C8210925C2B8091B7
:10370000052B81113BC0611104C011E0973009F015
:1037100010E08091062B823099F585E00E94F41923
:103720000E942D18A02EB12C80915C2B811134C0E9
:1037300084E10E94960F882379F1AE014C5F5F4FC0
:10374000612FCE0101960E9472177C0181E0E8167C
:10375000F10429F56981C6010E94B4101123B9F062
:103760008C81882309F453C08091042B8823D1F0E5
:1037700060910F2BC6010E94B41014C0182FC9CF3E
:103780000E943B1888E080935B2B11E0C9CF8981B0
:10379000992049F188123BC0EE24E394F12C8C81EE
:1037A0008111E2CF8091062B823009F045C00E9442
:1037B000F41980915C2B811110925C2B81E0EA94CA
:1037C000EF2809F480E02496CDBFDEBFDF91CF91D2
:1037D0001F910F91FF90EF90DF90CF90BF90AF902F
:1037E0009F908F900895073018F5F501E650F44E3C
:1037F0000C94AA5B181C151C041C071C011C0C1C37
:103800000F1C8D3021F48A818A3009F4C5CF8A815A
:103810008B8389818A8388CF8330C9F7BDCF83307A
:10382000B1F78A818A3099F78B818D3081F7B4CFD7
:103830008A3069F78A81F9CF87E0B9CF20E040E08C
:1038400060E081E69BE20C94611B80915B2B8930E8
:1038500039F487E00E94F4190E942D1881E0089540
:1038600080E008951092272980915B2B883029F4FD
:1038700087E00E94F41981E0089580E00895FB013B
:1038800001900020E9F73197AF01461B570BDC018F
:10389000ED91FC910280F381E02D09948F929F922B
:1038A000AF92BF92EF92FF920F931F93CF93DF934C
:1038B000CDB7DEB7A197CDBFDEBF7C01FA01CB014A
:1038C00019A2223008F42AE08E010F5D1F4F822ECC
:1038D000912CB12CA12CBF01A50194010E94165B73
:1038E000F901CA016A30F4F4605DD8016E938D016C
:1038F000232B242B252B79F790E080E0109721F0E3
:10390000BD01C7010E943F1CA196CDBFDEBFDF9164
:10391000CF911F910F91FF90EF90BF90AF909F902C
:103920008F900895695CE1CF462F50E070E060E031
:103930002AE00C944E1C8F929F92AF92BF92CF922E
:10394000DF92EF92FF920F931F93CF93DF937C014F
:103950008B014C0182E0880E911C5701E5E0AE0E10
:10396000B11CD0E0C0E0F40161914F01C8010E9498
:10397000941C6C016EE2C8010E94B4108C0D9D1D58
:10398000C80FD91F8A149B0471F7F7016581C8011C
:103990000E94941C8C0F9D1FDF91CF911F910F915E
:1039A000FF90EF90DF90CF90BF90AF909F908F905F
:1039B00008959C01CB01B9010C949B1CCF92DF921E
:1039C000EF92FF920F931F93CF93DF936B01770FCB
:1039D000EE08FF08F7FE1BC0EC016DE20E94B41078
:1039E0008C0144275527BA014C195D096E097F09DE
:1039F0002AE0CE010E944E1C800F911FDF91CF91D3
:103A00001F910F91FF90EF90DF90CF9008952AE0E3
:103A1000B701A601DF91CF911F910F91FF90EF9019
:103A2000DF90CF900C944E1C68E97DEF0C943F1C06
:103A30000F931F93CF93DF93EC010E94941C8C0192
:103A4000CE010E94141D800F911FDF91CF911F9115
:103A50000F9108950F931F93CF93DF93EC01AB0168
:103A600070E060E02AE00E944E1C8C01CE010E94B2
:103A7000141D800F911FDF91CF911F910F91089519
:103A80000F931F93CF93DF93EC010E94DE1C8C01F8
:103A9000CE010E94141D800F911FDF91CF911F91C5
:103AA0000F91089583E10E94960F61E070E08823F2
:103AB00011F070E060E081E69BE20C94401D0F93F2
:103AC0001F93CF93DF93EC010E94D91C8C01CE0190
:103AD0000E94141D800F911FDF91CF911F910F91B4
:103AE00008950F931F93CF93DF93EC010E943F1C27
:103AF0008C01CE010E94141D800F911FDF91CF9188
:103B00001F910F9108950F931F93CF93DF93EC01B3
:103B1000FB014481558160817181E881F9810280D6
:103B2000F381E02D09958C01CE010E94141D800FB8
:103B3000911FDF91CF911F910F9108950F931F93C4
:103B4000CF93DF93EC010E94BB108C01CE010E9449
:103B5000141D800F911FDF91CF911F910F91089538
:103B600064E872E181E69BE20C949E1D8FE50E9461
:103B70008C1A882351F080912529882359F061E718
:103B800072E181E69BE20C949E1D10925D2B82E017
:103B90000C94F41908958FE30E948C1A882351F035
:103BA00080912529882359F06EE572E181E69BE238
:103BB0000C949E1D10925D2B82E00C94F4190895D4
:103BC000CF9382E00E94F41984E190E00E941D10DE
:103BD0006EE188E10E942A1868E188E10E94571787
:103BE00060E980E00E9457170E943B1884E190E052
:103BF0000E941D10C091680482E00E94F4196C2F8D
:103C0000609581E69BE20E94181D809125298823FA
:103C100039F069EF7FE081E69BE2CF910C949E1D25
:103C2000CF91089584E10E948C1A882351F08091ED
:103C30002529882349F069ED7FE081E69BE20C9419
:103C40009E1D82E00C94F419089584E09BE20E948A
:103C50003C1980912529882331F06AE576E081E6D8
:103C60009BE20C949E1D0895CF92DF92EF92FF92FB
:103C70000E9499106B017C0120EDC20E27E0D21E3C
:103C8000E11CF11C88EDA89584BF8091000186603D
:103C9000809300018091010181FDFCCF0E94991069
:103CA0006C157D058E059F05C8F380912529882315
:103CB00051F06FEA75E081E69BE2FF90EF90DF90B4
:103CC000CF900C949E1DFF90EF90DF90CF900895C1
:103CD0008091062B8230B1F461E080E00E9457179A
:103CE00086E990E00E941D1061E081E00E94571774
:103CF00080912529882331F063E575E081E69BE218
:103D00000C949E1D089541E06091092B8091082B31
:103D10000E94B51A882351F080912529882391F0BB
:103D20006AEF74E081E69BE20C949E1D84E00E94A1
:103D30008C1A8111F1CF0E94B31A8111EDCF82E06C
:103D40000C94F41908956EEE72E0823031F060E068
:103D500073E0833011F46DED72E081E69BE20C9428
:103D60009E1D6115710511F00C943F1C90E080E0E0
:103D700008958091252991E08927809325296BE971
:103D80007DEF81E69BE20E94B11E809125296AEEBB
:103D90007DEF882311F06EED7DEF81E69BE20C94C0
:103DA000711D67EB7EEF81E69BE20C94B11EDC0196
:103DB000FC0101900020E9F731979E2F9A1B2A2FD2
:103DC000FD018E2F821B891730F4819180538A3038
:103DD000C0F380E0089581E00895CF93DF93CDB7DD
:103DE000DEB7C054D109CDBFDEBF6CEF79E18AE404
:103DF0009AE20E949E1D6091022B7091032B40E479
:103E000050E0CE0101960E940B58BE016F5F7F4FBC
:103E10008AE49AE20E94B11E6AEF79E18AE49AE2AA
:103E20000E94BB10C05CDF4FCDBFDEBFDF91CF91E2
:103E300008950F931F93CF93DF93CDB7DEB7C05490
:103E4000D109CDBFDEBF65E67EEF8AE49AE20E942B
:103E5000711D65E67EEF8AE49AE20E94711D8091F1
:103E6000012B10E005E0811115C068EE79E18AE4CC
:103E70009AE20E949E1D65EB79E18AE49AE20E9433
:103E80009E1DC05CDF4FCDBFDEBFDF91CF911F9184
:103E90000F9108958091012B181798F7E091FF2A50
:103EA000F091002B109FE00DF11D112460817181B4
:103EB00040E450E0CE0101960E940B58BE016F5FB6
:103EC0007F4F8AE49AE20E94711D1F5FE3CF0E9438
:103ED000191F0C94ED1EAF92BF92CF92DF92EF921A
:103EE000FF920F931F93CF93DF9300D000D0CDB7F5
:103EF000DEB78C016B017A018091022A8333E9F4E9
:103F00005B016801C40ED51EC016D10691F10E9456
:103F1000CE148FE00E94D80D812F0E94D80D802FE3
:103F20000E94D80D0F5F1F4F80E00E94D80DF50151
:103F300081935F010E94C414E7CF843349F50E9446
:103F4000CE1419830A838F2D8F778B83EC8264E0E4
:103F500070E0CE0101960E94E20DA70170E060E0E2
:103F6000C6010E94BC5CB701C6010E94E20D0E941E
:103F7000C414C7012496CDBFDEBFDF91CF911F913E
:103F80000F91FF90EF90DF90CF90BF90AF9008958A
:103F90000E94CE140F3F110509F030F419820A83F4
:103FA0001B8263E070E0D5CF17FD0BC019820A8336
:103FB00033E0169507953A95E1F7007E08600B838C
:103FC000F0CFC80126E0969587952A95E1F7807E87
:103FD00019830A830115104C18F480618B83E1CF9B
:103FE0008861FCCF1F93CF93DF9300D0CDB7DEB7AE
:103FF000182FCE0101960E94A51989819A810E94ED
:10400000F70D812F0E94961527E0129FF0011124D1
:10401000E654F64D22813381377041E050E0BE0115
:104020006F5F7F4F820F931F0E946B1F0E942B0DAB
:1040300089810F900F90DF91CF911F910895FC011E
:10404000808D883040F4218D328D232B21F00E9409
:10405000F21F90E008958FEF9FEF0895CF93DF93C5
:10406000FC012485283028F08FEF9FEFDF91CF915E
:104070000895EC010190F081E02D0084F185E02DA0
:104080000995892B89F38C850E94F21F90E0EECF71
:10409000CF93DF931F92CDB7DEB741E050E0BE0172
:1040A0006F5F7F4F0E946B1F89810F90DF91CF91CF
:1040B000089590E080E00C944820CF93DF93C4E112
:1040C000D0E00E945920882361F061E070E080E038
:1040D00090E00E9469102197A1F780E0DF91CF91D5
:1040E000089581E0FBCF1F93CF93DF9300D01F9201
:1040F000CDB7DEB780911F28811139C160E372E02E
:1041000080E090E00E9469108091082A811117C018
:104110001092092A10920A2A10920B2A10920C2A45
:1041200010920D2A10920E2A10920F2A1092102A25
:104130001092112A1092122A81E08093082A80910D
:10414000E3058C7F9091072A892B8093E3059111D9
:104150008BC061E084E00E94FE0E61E086E00E9478
:10416000FE0E8091C10884608093C1088091C008D0
:1041700081628093C0089091422A8091432A909353
:10418000C0088093C10880910028893208F07FC060
:10419000E82FF0E0E055F3402081263008F077C0AA
:1041A00090E2299F900111243C5F2C5F3F4F2093A8
:1041B0001C2830931D289FEF893228F4E82FF0E067
:1041C000E752F340908190931B28893218F461E004
:1041D0000E94FE0E0E94C414CE0101960E94A519F1
:1041E00089819A810E94F70D84E38093022A80E8F6
:1041F0000E9483150E945D20882309F44BC088E04B
:104200000E9483150E945920883009F043C080E144
:104210000E9483150E9459208031E1F580E00E94C0
:1042200083150E945920182F811134C08FE190E02E
:104230000E944820833071F580E480931E2842E07C
:104240006EE170E0812F0E94DF1542E06FE170E0C7
:10425000812F0E94DF151F5F183089F70E942B0DF8
:1042600081E080931F287CC0913039F461E08EE0BA
:104270000E94FE0E61E080E172CF923009F071CFB2
:1042800061E08EE10E94FE0E61E080E268CF30E0E6
:1042900020E08BCF87E38093022A80E80E94831579
:1042A0000E945D208823F9F088E00E9483150E9417
:1042B00059208830C1F480E10E9483150E94592062
:1042C000182F803181F480E00E9483150E945920CC
:1042D000811109C089E390E00E944820843019F4DC
:1042E00010931E28BBCF83E38093022A80E80E94AC
:1042F00083150E945D20882371F180E10E9483155F
:104300000E945920803139F582E10E9483150E9474
:104310005920823101F580E00E9483150E945920C6
:10432000811119C084E080931E2815E51B8341E0AC
:1043300050E0BE016D5F7F4F8BE190E00E94D91489
:10434000198341E050E0BE016F5F7F4F8AE190E04A
:104350000E94D91483CF1092022A0E942B0D80E074
:104360002396CDBFDEBFDF91CF911F91089581E0ED
:10437000F7CFEF92FF921F93CF93DF93CDB7DEB7C6
:10438000C454D109CDBFDEBF7C01FB018281938182
:10439000A481B58123968CAF9DAFAEAFBFAF2397FD
:1043A00011E023961FAF239723964CAD5DAD6EAD04
:1043B0007FAD239749AF5AAF6BAF7CAF8DA79EA758
:1043C000AFA7B8AB18AB4DA55EA56FA578A94B8F6D
:1043D0005C8F6D8F7E8F1CAF49AD5AAD6BAD7CADE0
:1043E00049A35AA36BA37CA324E83DEF29833A8316
:1043F0004FEF4B834C834D831E822F8338871E8F54
:104400004B8D5C8D6D8D7E8D49875A876B877C8740
:104410001CA349A15AA16BA17CA14F87588B698B22
:104420007A8B2B8B3C8B8D8B9E8BAF8BB88F0E94A6
:104430007320882369F1CE018D5B9F4F0E94A519DF
:1044400025968EAD9FAD25970E94F70D46E050E072
:10445000B70189E090E00E94D914CE0145960E94F0
:104460004916CE0109960E945716CE0103960E9466
:1044700050160E942B0D1A8B8F859889A989BA89AD
:104480008093F52A9093F62AA093F72AB093F82AFE
:10449000CC5BDF4FCDBFDEBFDF91CF911F91FF908F
:1044A000EF90089520911E2830E0322F2227620FCE
:1044B000731F90E0982F8827860F971F0C94482031
:1044C000CF93C82F462F61E070E00E94DF1561E0B6
:1044D00070E08C2F0E9452228111F9CFCF91089564
:1044E0001F93CF93DF9300D0CDB7DEB7182FCE0147
:1044F00001960E94A51989819A810E94F70D68E0B2
:1045000070E0812F0E9460220E942B0D0F900F906F
:10451000DF91CF911F9108951F93CF93DF9300D028
:10452000CDB7DEB7182FCE0101960E94A51989815B
:104530009A810E94F70D60E170E0812F0E94602255
:104540000E942B0D0F900F90DF91CF911F91089536
:10455000CF93DF93EC01888D883020F40E948C2269
:1045600088E0888FDF91CF91089563E070E00C942C
:1045700052221F93CF93DF9300D0CDB7DEB7182F11
:10458000CE0101960E94A51989819A810E94F70D9A
:10459000812F0E94B522182F0E942B0D812F0F9082
:1045A0000F90DF91CF911F910895EF92FF920F939B
:1045B0001F93CF93DF937C018091022AD4E0833351
:1045C00009F0D8E002EF19E2C0E0F8012191319141
:1045D0008F01F701848195812817390729F0CF5F72
:1045E000DC13F3CF80E006C08C2F0E94B922843107
:1045F000B1F781E0DF91CF911F910F91FF90EF9084
:104600000895CF93DF93EC018C858830D0F40E941D
:10461000B922843189F0882379F0883169F021E06A
:104620008C3159F4E881F9810084F185E02DCE01C7
:10463000099521E0892B09F420E0822FDF91CF91A9
:10464000089580E0FBCFCF92DF92EF92FF92CF935D
:10465000DF93EC018C85883068F40E9470220E9400
:1046600099106B017C018C850E94B922811109C0CF
:1046700088E08C87DF91CF91FF90EF90DF90CF9013
:10468000089561E070E080E090E00E9469100E946F
:104690009910AB01BC014C195D096E097F098D852C
:1046A0009E85B0E0A0E0481759076A077B07D8F25B
:1046B0008C850E948C22DCCF1F93CF93DF9300D098
:1046C000CDB7DEB7FC01108DCE0101960E94A51971
:1046D00089819A810E94F70D60E270E0812F0E942B
:1046E000602262E070E0812F0E94522284FD22C08D
:1046F00062E070E0812F0E94522283FF10C048E1E7
:1047000062E070E0812F0E94DF150E942B0D80E097
:1047100090E00F900F90DF91CF911F9108950E942C
:104720002B0DCE0101960E94A51989819A810E94C4
:10473000F70DD7CF40E162E070E0812F0E94DF15D6
:104740000E942B0D81E0E4CFDA01E0911E28F0E019
:10475000FE2FEE27E60FF71F90E0982F8827A9017C
:10476000BD018E0F9F1F0C946B1F8F929F92AF9273
:10477000BF92CF92DF92EF92FF920F931F93CF934E
:10478000DF93CDB7DEB76097CDBFDEBF7C019091E0
:10479000022A992371F108E0933309F404E05B01E4
:1047A000CE0101960E94A51989819A810E94F70D78
:1047B0009E012F5F3F4F6901490110E0812F0E9448
:1047C000B522F40181934F018823D9F01F5F0113B3
:1047D000F5CF00E0F60181916F018D3161F08831F4
:1047E00051F08A51823038F00F5F1013F3CF0E94DE
:1047F0002B0D18E08AC060E170E0802F0E946022DB
:10480000102FC12ED12CF601EE0FFF1FEE50F64DEA
:10481000108211828AEF90E00E941D1042E870E041
:1048200060E0812F0E94DF154FEF62E070E0812F82
:104830000E94DF15B501A114B10491F48091012803
:104840009091022801968115F0EC9F0708F46EC044
:10485000809301289093022860910128709102288A
:10486000812F0E94CA1586E0E6E1FBEFDE01199672
:1048700001900D928A95E1F7F70183818F778C87FC
:1048800084818D8785818E87A7014E5F5F4F24E0ED
:1048900030E06CE070E0812F0E94A415B501812FFB
:1048A0000E94B51526E030E0AE01475F5F4F66E03D
:1048B00070E0812F0E94A41561E070E0812F0E94BA
:1048C000602227E02C9DC0012D9D900D11249C019C
:1048D0002654364D7901F9011082118222E030E030
:1048E000AE01415F5F4F68E270E0812F0E94A42318
:1048F0008F859889982789279827F7018283938342
:104900001682148215820E942B0D812F6096CDBFD6
:10491000DEBFDF91CF911F910F91FF90EF90DF905D
:10492000CF90BF90AF909F908F90089580E090ECD3
:104930008FCFCF92DF92EF92FF920F931F93CF937F
:10494000DF93CDB7DEB72697CDBFDEBF8C016B01FD
:104950007A01FC01808D883010F40E948C2284E85A
:104960009DEF89839A83F60182819381A481B58129
:104970008B839C83AD83BE83B701CE0101960E94D9
:10498000B523F801808F883088F4E486F586118E8F
:10499000128E81E02696CDBFDEBFDF91CF911F91B1
:1049A0000F91FF90EF90DF90CF90089580E0F2CFCD
:1049B0007F928F929F92AF92BF92CF92DF92EF92AF
:1049C000FF920F931F93CF93DF9300D0CDB7DEB745
:1049D000782E8B014A01590122E030E0AE014F5F91
:1049E0005F4F64E270E00E94A423E980FA80FE2415
:1049F000EF24FE24E00EF11E970137704091022A49
:104A0000072D10E0433309F042C0085F1F4F102FFD
:104A10000027110F110F110FC901800F911F47338C
:104A2000C9F1A9014A0D5B1D4130584098F160E081
:104A300078E06B01C21AD30AA601B4010E94D9140E
:104A4000A5014C195D09B4016C0D7D1DC8010E94C2
:104A5000D914EA0CFB1CF982EA8222E030E0AE01B4
:104A60004F5F5F4F64E270E0872D0E94A4150F90A6
:104A70000F90DF91CF911F910F91FF90EF90DF90FA
:104A8000CF90BF90AF909F908F907F900895005FE0
:104A90001F4FBDCFA501B401DACFEF92FF921F9354
:104AA000CF93DF9300D0CDB7DEB7182F22E030E0F0
:104AB000AE014F5F5F4F60E270E00E94A423E98087
:104AC000FA80FE24EF24FE2422E030E0AE014F5FA6
:104AD0005F4F60E270E0812F0E94A42389819A8158
:104AE000982789279827E816F90689F487E0189F00
:104AF000F0011124E654F64DE482F582C7010F90CF
:104B00000F90DF91CF911F91FF90EF9008957C015E
:104B1000DBCFFF920F931F93CF93DF9300D0CDB7DE
:104B2000DEB7F82ECE0101960E94A51989819A81DF
:104B30000E94F70D8F2D0E944D258C018F2D0E9414
:104B4000B522F82E0E942B0D87E1F81629F08CE192
:104B5000F81611F010E000E0C8010F900F90DF91FF
:104B6000CF911F910F91FF900895CF93DF93EC01A8
:104B70008C85883060F40E94B922873111F08C3125
:104B800031F48C850E9489258115984088F3DF9146
:104B9000CF910895FC0124A1283018F448960C9474
:104BA000B5250895FC018485883010F40C9489257E
:104BB00090E080E00895AF92BF92CF92DF92EF92A3
:104BC000FF920F931F93CF93DF9300D0CDB7DEB743
:104BD000F82E6B018A014130584010F000E018E0D7
:104BE000CE0101960E94A51989819A810E94F70D34
:104BF0008F2D0E944D255C018F2D0E94B522E82E3D
:104C00000E942B0D87E1E81619F08CE1E81235C0FF
:104C1000A016B10628F3CE0101960E94A51989813C
:104C20009A810E94F70D9801A60170E060E08F2D37
:104C30000E94D82460E270E08F2D0E94602262E022
:104C400070E08F2D0E94522284FD25C08F2D0E947E
:104C5000B522811115C00E942B0D10E000E0C801A3
:104C60000F900F90DF91CF911F910F91FF90EF90D8
:104C7000DF90CF90BF90AF90089510E000E0CBCFD1
:104C80000E942B0DCE0101960E94A51989819A815F
:104C90000E94F70DD4CF40E162E070E08F2D0E94BA
:104CA000DF150E942B0DDBCF0F931F93CF93DF9364
:104CB0008C01EA01FC018485883048F40E94DB25E0
:104CC000892B39F481E090E0F80182839383D0E06E
:104CD000C0E0CE01DF91CF911F910F9108957F9297
:104CE0008F929F92AF92BF92CF92DF92EF92FF92FC
:104CF0000F931F93CF93DF9300D0CDB7DEB77C0126
:104D00004B01742EC52EFC01A688B788D08CCE012D
:104D100001960E94A51989819A810E94F70D8D2D17
:104D20000E944D25072D1C2D8017910708F48C013A
:104D30009801A401B5018D2D0E94D8240E942B0D4D
:104D4000F70186899789800F911F868B978BC80101
:104D50000F900F90DF91CF911F910F91FF90EF90E7
:104D6000DF90CF90BF90AF909F908F907F900895ED
:104D7000FF920F931F93CF93DF9300D0CDB7DEB791
:104D8000F82E22E030E0AE014F5F5F4F66E270E048
:104D90000E94A42309811A8110270127102722E0ED
:104DA00030E0AE014F5F5F4F66E270E08F2D0E94F2
:104DB000A42389819A81982789279827081719079A
:104DC00049F4C8010F900F90DF91CF911F910F917F
:104DD000FF9008958C01E3CFEF92FF920F931F9302
:104DE000CF93DF9300D0CDB7DEB7182F87E0189FA1
:104DF00090011124F901E654F64D7F0180819181E3
:104E00000097B1F4CE0101960E94A51989819A817B
:104E10000E94F70D812F0E94B8268C010E942B0D55
:104E2000F70186819801281B3109C901208331834C
:104E30000F900F90DF91CF911F910F91FF90EF9006
:104E400008959F92AF92BF92CF92DF92EF92FF921E
:104E50000F931F93CF93DF93EC017B018091022A84
:104E6000811121C01A821B8288EE93E0A0E0B0E09D
:104E70008C839D83AE83BF8382E59DEF8883998376
:104E800088E08C8788EE93E08D879E87CE01DF9146
:104E9000CF911F910F91FF90EF90DF90CF90BF9037
:104EA000AF909F90089534E0932E833311F028E063
:104EB000922E82EFC82E89E2D82E10E098E0B92E0B
:104EC000A12CD6012D913D916D01F7018481958131
:104ED0002817390791F4812F0E94B922082F8731B2
:104EE00011F08C3139F5812F0E94EC26892B59F570
:104EF0000C3119F4812F0E9470221F5F9112E1CFB3
:104F0000A11008C0D701ED91FC910084F185E02D3E
:104F1000C70109951A821B8288EE93E0A0E0B0E0F9
:104F20008C839D83AE83BF8382E59DEF88839983C5
:104F3000BC86A8CF843149F08111DFCFF6013297CA
:104F400010821182DACFB12ED8CFAA24A394D5CF64
:104F50008F929F92AF92BF92CF92DF92EF92FF9289
:104F60000F931F93CF93DF93CDB7DEB72F97CDBFAE
:104F7000DEBF5C014B017A018091022A8823B1F1E6
:104F800004E0833309F008E0B501CE0101960E94E8
:104F9000212782EFC82E89E2D82E10E0F601219158
:104FA00031916F01F501848195812817390751F4FA
:104FB000812F0E94B922873129F4A701B401812FE2
:104FC0000E94DB251F5F0113E9CFC7012F96CDBFDC
:104FD000DEBFDF91CF911F910F91FF90EF90DF9097
:104FE000CF90BF90AF909F908F900895F12CE12CBF
:104FF000ECCFEF92FF920F931F93CF93DF93CDB738
:10500000DEB72F97CDBFDEBF8C017C0188E1E80EB3
:10501000F11CF80184A1883030F5C7010E940123FA
:1050200081111DC0C7010E9423231B821C8288EEB0
:1050300093E0A0E0B0E08D839E83AF83B88782E5E4
:105040009DEF89839A8388E08D8788EE93E08E8731
:105050009F87BE016F5F7F4FC7010E94A816F801AE
:1050600084A1883068F0F80166897789CE010196BD
:105070000E942127BE016F5F7F4FC7010E94A816C3
:10508000F80184A1883038F40E949910F80165A7CE
:1050900076A787A790AB2F96CDBFDEBFDF91CF91CC
:1050A0001F910F91FF90EF900895CF93DF93EC0144
:1050B0000E94F927CE0148962CA1283020F4DF91D8
:1050C000CF910C942E208FEF9FEFDF91CF91089519
:1050D000FC018485883010F40C94EC2690E080E08C
:1050E0000895EF92FF920F931F93CF93DF93CDB765
:1050F000DEB72F97CDBFDEBFFC0126893789232B72
:1051000061F490E080E02F96CDBFDEBFDF91CF91BC
:105110001F910F91FF90EF9008958C010E94F92745
:105120007801F8E1EF0EF11CF80184A1883060F0FD
:1051300066897789CE0101960E942127BE016F5FA3
:105140007F4FC7010E94A816F80184A18830C8F6D5
:10515000C7010E946828D7CF4F925F927F928F92AB
:105160009F92AF92BF92CF92DF92EF92FF920F93F6
:105170001F93CF93DF9300D0CDB7DEB7782E6B01AE
:105180004A01A82EB12C27E0829FC0011124FC0106
:10519000E654F64D7F0100811181CE0101960E94F7
:1051A000A51989819A810E94F70D0815190554F4F3
:1051B000872D0E94B826F70126818C01021B110958
:1051C000008311830115110529F5872D0E94B52251
:1051D000843159F0882349F001E010E08C3111F45A
:1051E00010E000E01195019511090E942B0DC801F6
:1051F0000F900F90DF91CF911F910F91FF90EF9043
:10520000DF90CF90BF90AF909F908F907F905F90F6
:105210004F900895801691060CF4840187E08A9DD2
:10522000F0018B9DF00D1124E654F64DE280F380E1
:10523000C114D10451F12701F7E05F22872D0E94AC
:105240009615840D951D2091022A273309F453C029
:105250009801240D351D2130384008F44CC020E061
:1052600038E0490184189508A401B6010E946B1F1B
:105270002601480C591C6801C818D908872D0E94BE
:105280009615A601B2010E946B1FE00EF11E87E089
:105290008A9DF0018B9DF00D1124E654F64DE282BB
:1052A000F38220813181201B310B20833183868161
:1052B000800F912F911D8A3F910510F4232BF1F45B
:1052C00087E08A9DF0018B9DF00D1124E654F64D88
:1052D0001682F982EA8222E030E0AE014F5F5F4F32
:1052E00068E270E0872D0E94A41560E470E0872DCD
:1052F0000E9460227ACFA801B601C5CF868375CF00
:10530000CF93DF93FC01218D328D2115310529F4D6
:105310008FEF9FEFDF91CF910895EC01808D4217C1
:10532000530708F0A9010E94AC281816190684F743
:10533000298D3A8D281B390B298F3A8FEBCF0F938C
:105340001F93CF93DF931F92CDB7DEB7FC01218D62
:10535000328D232B41F48FEF9FEF0F90DF91CF9190
:105360001F910F9108958C0141E050E0BE016F5FE5
:105370007F4FFC01808D0E94AC28181619065CF73F
:10538000F801818D928D0197818F928F898190E0B4
:10539000E4CFCF93DF931F92CDB7DEB741E050E06B
:1053A000BE016F5F7F4FFC0184850E94AC281816F8
:1053B000190634F4898190E00F90DF91CF91089520
:1053C0008FEF9FEFF9CFCF93DF93EC010E94F92786
:1053D000CE0148962CA1283020F4DF91CF910C9477
:1053E000C9298FEF9FEFDF91CF910895FC0184854C
:1053F000883010F40C94AC2890E080E008958F92EF
:105400009F92BF92CF92DF92EF92FF920F931F93E2
:10541000CF93DF93CDB7DEB72A97CDBFDEBF909194
:10542000022A992379F108E0933309F404E06B012F
:10543000B82ECE0101960E94A51989819A810E94F9
:10544000F70D9E012F5F3F4F7901490110E0812F39
:105450000E94B522F40181934F018823D9F01F5F88
:105460000113F5CF00E0F70191917F019D3161F0CB
:10547000983151F09A51923038F00F5F1013F3CFFA
:105480000E942B0D18E060C060E170E0802F0E9448
:105490006022102FE12EF12CF701EE0FFF1FEE50CE
:1054A000F64D108211828AEF90E00E941D104B2D64
:1054B00070E060E0812F0E94DF154FEF62E070E046
:1054C000812F0E94DF15B601CD2891F4809101282B
:1054D0009091022801968115F0EC9F0708F444C0D2
:1054E00080930128909302286091012870910228EE
:1054F000812F0E94CA1561E070E0812F0E94602216
:1055000027E02E9DC0012F9D900D11249C01265453
:10551000364D7901F9011082118222E030E0AE01AE
:10552000475F5F4F68E270E0812F0E94A423898566
:105530009A85982789279827F70182839383168273
:10554000148215820E942B0D812F2A96CDBFDEBFBB
:10555000DF91CF911F910F91FF90EF90DF90CF904F
:10556000BF909F908F90089580E090ECB9CF0F93FB
:105570001F93CF93DF93EC018B01888D883010F45B
:105580000E948C22B80182E00E94FF29888F883017
:1055900050F40C871D87198E1A8E81E0DF91CF9110
:1055A0001F910F91089580E0F9CFEF92FF921F9322
:1055B000CF93DF9300D0CDB7DEB77C01FC016481CF
:1055C000758181E20E94FF29182F883090F4CE0166
:1055D00001960E94A51989819A810E94F70D812F59
:1055E0000E94B522833169F00E942B0D812F0E9409
:1055F00070220F900F90DF91CF911F91FF90EF904D
:10560000089562E070E0812F0E9460220E942B0DBD
:10561000F70184819581E12FF0E0EE0FFF1FEE503E
:10562000F64D80839183E5CFAF92BF92CF92DF9208
:10563000EF92FF920F931F93CF93DF9300D0CDB7DC
:10564000DEB78C016B015A01FC018485883058F467
:105650000E94B922882321F0F80184850E947022DB
:1056600088E0F8018487F60182819381A481B58165
:105670000097A105B10579F490E080E00F900F90BC
:10568000DF91CF911F910F91FF90EF90DF90CF901E
:10569000BF90AF9008958F3F9F4FAF4FBF4F61F3C3
:1056A00070E060E081E20E94FF29F82EF801848713
:1056B000F7E0F81708F3CE0101960E94A519898139
:1056C0009A810E94F70DA6014E5F5F4F24E030E003
:1056D0006CE070E08F2D0E94A415B5018F2D0E9403
:1056E000B51564E070E08F2D0E9460220E942B0DA2
:1056F0000E9499106B017C01F80184850E94B922F7
:10570000873129F18C3119F1882309F4B5CF0E9432
:105710009910AB01BC014C195D096E097F09F801B4
:1057200085859685B0E0A0E084179507A607B707A2
:1057300038F061E070E080E090E00E946910DCCF1A
:1057400084850E948C2288E0F801848795CF81E0CF
:1057500090E094CF0F931F93CF93DF9300D0CDB7FA
:10576000DEB7FC01248510E000E02830D8F48C017D
:10577000CE0101960E94A51989819A810E94F70D98
:1057800022E030E0AE014F5F5F4F60E170E0F80172
:1057900084850E94A42309811A81102701271027DC
:1057A0000E942B0DC8010F900F90DF91CF911F9198
:1057B0000F9108950F931F93CF93DF9300D0CDB730
:1057C000DEB7FC01248510E000E02830D8F48C011D
:1057D000CE0101960E94A51989819A810E94F70D38
:1057E00022E030E0AE014F5F5F4F64E070E0F8010F
:1057F00084850E94A42309811A811027012710277C
:105800000E942B0DC8010F900F90DF91CF911F9137
:105810000F9108950F931F93CF93DF9300D0CDB7CF
:10582000DEB78C0184E89DEFF801808391831282BA
:10583000138214821582CE0101960E94A5198981D6
:105840009A810E94F70DB8016E5F7F4F44E050E0EF
:105850008FE090E00E946B1F0E942B0DC8010F90FB
:105860000F90DF91CF911F910F91089525E0FC01DA
:1058700011922A95E9F76BEF70E181E69BE20C94B7
:105880009E1DEBE2F9E280E8DF011D928A95E9F7BF
:105890001092AB290895DC0184E89DEF8D939D93D0
:1058A00084E0FB0101900D928A95E1F70895EF9253
:1058B000FF920F931F93CF93DF9300D000D0CDB70B
:1058C000DEB78C017B01FB0184858830A0F084E881
:1058D0009DEFF801808391831282138214821582D6
:1058E000C8012496CDBFDEBFDF91CF911F910F91EC
:1058F000FF90EF900895CE0101960E94A51989812D
:105900009A810E94F70D24E030E0AE014F5F5F4FB7
:105910006CE070E0F70184850E94A4230E942B0DA7
:10592000BE016F5F7F4FC8010E944B2CD9CF7F9281
:105930008F929F92AF92BF92CF92DF92EF92FF929F
:105940000F931F93CF93DF93CDB7DEB7A697CDBF4D
:10595000DEBF8C01762E942E852E20E2A22ECE0163
:1059600001967C01DC01EA2D1D92EA95E9F76801B8
:10597000F3E4CF0ED11C84E89DEF89A39AA38FEFA7
:105980008BA38CA38DA38EA343E450E0BE016F5D77
:105990007F4FC6010E94AB19019609F4BFC081E098
:1059A00089838A8386E0B82EBB821C82D801149634
:1059B0006D917D918D919C9117970E94B05B6D8345
:1059C0007E838F83988789869A8680E890E08B878C
:1059D0009C874CE150E0B701C6010E946F26FE0192
:1059E00037968AE1DF011D928A95E9F74801B8E010
:1059F0008B0E911CF401D70101900D92BA94E1F73E
:105A000040E150E0B701C6010E946F26F7011192F4
:105A1000AA94E9F796E0A92EB12C40E250E0B70134
:105A2000C6010E946F26F1E0AF1AB108B1F783E614
:105A3000898392E89A8393E59B838C8385E38D83A6
:105A400081E08E837F829DE3988797E099878A879C
:105A500086E0F401DE011B9601900D928A95E1F734
:105A60008CE0898B8A8B66EB7DEFCE0143960E949A
:105A7000DF5CD8011B966C91CE0149960E94E70E1F
:105A8000F8016485CE014B960E94E70ED8011D9661
:105A90006C91CE014D960E94E70E4EE150E0B701A9
:105AA000C6010E946F26B3E07B121EC082E3898389
:105AB00084E08A83F80196859B8397859C839089EF
:105AC0009D8391899E8396E39F838887828D8987B2
:105AD000838D8A87848D8B87858D8C874CE050E001
:105AE000B701C6010E946F2687E3898386E08A8317
:105AF00091E09B8393E09C838D838FE08E838AE388
:105B00008F838BE388878FEF898749E050E0B70167
:105B1000C6010E946F26C6010E945C23A696CDBFD7
:105B2000DEBFDF91CF911F910F91FF90EF90DF903B
:105B3000CF90BF90AF909F908F907F9008950F93DC
:105B40001F93CF93DF93CDB7DEB72897CDBFDEBFCE
:105B50008C01D80159964D915C915A974115510588
:105B600051F0ED91FC91028CF38DE02D70E060E03E
:105B7000C8010995EECFF801808D0E94EC26892B93
:105B800099F148E050E0BE016F5F7F4FD801589611
:105B90008C910E94AC2818161906F4F4D80150967E
:105BA00084E0FE01319601900D928A95E1F78D8196
:105BB00090E0982F88272E81820F911DF801848B09
:105BC000958B8F81282F30E0322F22278885820FF6
:105BD000932F911D818F928F2896CDBFDEBFDF91CD
:105BE000CF911F910F91089590E080E0F5CF4F92F3
:105BF0005F926F927F928F929F92AF92BF92CF925D
:105C0000DF92EF92FF920F931F93CF93DF93CDB765
:105C1000DEB76397CDBFDEBF7C016B013A01FB01AC
:105C200020E090E080E06AE03191332309F461C024
:105C300040ED430F4A3008F04DC0689FA001699FB6
:105C4000500D1124CA01C097830F911D37FD9A95FD
:105C50008F3F910549F340F3F701428153816481FD
:105C600075818091462A9091472AA091482AB09147
:105C7000492A481759076A077B0709F40AC28701AE
:105C8000085F1F4F0E9499106F7077277C5FC801D3
:105C90000E94B72A813009F001C284E89DEF898310
:105CA0009A83F70182819381A481B5818B839C8340
:105CB000AD83BE8345E350E0BE016F5F7F4FC801F7
:105CC0000E94AB19892B91F5D12CC12CC8010E94DF
:105CD000A82217C03E3209F0BFCF233009F4BCCF51
