:100200000C94DE0C0C94060D0C94060D0C94060D4B
:100210000C94060D0C94060D0C94060D0C94060D12
:100220000C94060D0C94060D0C94060D0C94060D02
:100230000C94060D0C94060D0C94E4450C94874622
:100240000C94060D0C94B6450C9490450C94060D38
:100250000C94060D0C94060D0C94060D0C94060DD2
:100260000C94060D0C9468450C94060D0C94060D28
:100270000C94060D0C94060D0C94060D0C94060DB2
:100280000C94060D0C94060D0C94060D0C94060DA2
:100290000C94060D0C94060D0C94060D0C94060D92
:1002A0003F202D204D656E750031202D2053657443
:1002B0002049502061646472657373004552524F47
:1002C00052202D20436F6D6D616E642062756666ED
:1002D0006572206F766572666C6F7721005472616B
:1002E0006E736D6974206661696C65642100496E86
:1002F00076616C696420706172616D65746572000D
:100300004D697373696E6720706172616D657465A4
:10031000720020616E64200056616C696420726115
:100320006E6765206973206265747765656E20006D
:10033000756E736574005345432061646472657320
:10034000732073657420746F3A2000505249206105
:100350006464726573732073657420746F3A20004F
:1003600043616E6E6F742061646472657373207490
:10037000686520636F6E74726F6C6C65722100200B
:100380006D696C6C697365636F6E6473005365743B
:10039000205B726561645F746D6F5F6D735D207467
:1003A0006F3A200053657420454F5320746F3A20F4
:1003B0000053657420454F492061737365727469F9
:1003C0006F6E3A2000496E74657266616365206DD8
:1003D0006F64652073657420746F3A2000417070FB
:1003E000656E64696E67206F6620454F54206368B0
:1003F000617261637465723A2000454F54207365E1
:100400007420746F204153434949206368617261CD
:10041000637465723A20004175746F206D6F646576
:100420003A20002020202020202020202761646402
:1004300072657373656420746F2074616C6B2062E5
:100440007574206E6F7468696E6720746F207361B5
:100450007927206572726F7273005741524E494E70
:10046000473A206175746F6D6F6465204F4E20634D
:10047000616E20636175736520736F6D65206465BF
:10048000766963657320746F2067656E6572617449
:1004900065004152343838204750494220636F6E1E
:1004A00074726F6C6C65722C207665722E20302E03
:1004B00035332E30332C2030382F30342F32303239
:1004C00035004152343838204750494220636F6E1E
:1004D00074726F6C6C65722C207665722E20302ED3
:1004E00035332E30332C2030382F30342F32303209
:1004F0003500526561645E4F4B004661696C65640E
:1005000020746F2073656E64205344430046616914
:100510006C656420746F2073656E64204C4C4F21B1
:10052000004661696C656420746F2073656E642099
:10053000756E6976657273616C204C4C4F2E004667
:1005400061696C656420746F2073656E64204C4F24
:10055000432100494643207369676E616C206173D3
:1005600073657274656420666F7220313530206D5A
:100570006963726F7365636F6E64730047726F7542
:1005800070207472696767657220636F6D706C6547
:100590007465642E004661696C656420746F207414
:1005A00072696767657220646576696365210052C8
:1005B00065736574204641494C45442E005365726D
:1005C00069616C20706F6C6C20636F6D706C65740A
:1005D00065642E004661696C656420746F207265E5
:1005E00074726965766520737461747573206279BD
:1005F00074652066726F6D20005D2066726F6D20DD
:1006000064657669636520617420616464726573F2
:10061000733A20005265636569766564207374617E
:100620007475732062797465205B002C00535251FD
:100630003A0053657269616C20706F6C6C206F6654
:1006400020616C6C206465766963657320726571E6
:100650007565737465642E2E2E0053657474696E0F
:1006600067732073617665642E004C4F4E3A20000C
:100670005D00205B002B2B00616464723A502044C3
:100680006973706C61792F73657420646576696332
:100690006520616464726573730A6175746F3A50A2
:1006A000204175746F6D61746963616C6C7920723F
:1006B0006571756573742074616C6B20616E642064
:1006C0007265616420726573706F6E73650A636C26
:1006D000723A502053656E642053656C656374658F
:1006E000642044657669636520436C65617220749B
:1006F0006F2063757272656E7420475049422061A5
:100700006464726573730A656F693A5020456E615F
:10071000626C652F64697361626C652061737365D7
:100720007274696F6E206F6620454F492073696748
:100730006E616C0A656F723A502053686F77206F54
:10074000722073657420656E64206F662072656325
:100750006569766520636861726163746572287388
:10076000290A656F733A5020537065636966792072
:1007700047504942207465726D696E6174696F6E8D
:10078000206368617261637465720A656F745F6388
:100790006861723A502053657420636861726163C6
:1007A00074657220746F20617070656E6420746F60
:1007B00020555342206F7574707574207768656E8C
:1007C00020454F5420656E61626C65640A656F74E4
:1007D0005F656E61626C653A5020456E61626C6562
:1007E0002F44697361626C6520617070656E646925
:1007F0006E672075736572207370656369666965DD
:10080000642063686172616374657220746F20553F
:100810005342206F7574707574206F6E20454F4978
:1008200020646574656374696F6E0A68656C703AFC
:10083000502054686973206D6573736167650A6938
:1008400066633A50204173736572742049464320B1
:100850007369676E616C20666F7220313530206D70
:100860006973636F7365636F6E6473202D206D61B0
:100870006B6520415234383820636F6E74726F6C30
:100880006C657220696E206368617267650A6C6CC2
:100890006F3A50204C6F63616C206C6F636B6F75A7
:1008A00074202D2064697361626C652066726F6EBE
:1008B000742070616E656C206F7065726174696F11
:1008C0006E206F6E20696E737472756D656E740A3A
:1008D0006C6F633A5020456E61626C652066726F82
:1008E0006E742070616E656C206F706572617469E2
:1008F0006F6E206F6E20696E737472756D656E74A5
:100900000A6C6F6E3A502050757420636F6E74726B
:100910006F6C6C657220696E206C697374656E2DE6
:100920006F6E6C79206D6F646520286C69737465D7
:100930006E20746F20616C6C2074726166666963EE
:10094000290A6D6F64653A50205365742074686598
:1009500020696E74657266616365206D6F646520E1
:1009600028313D636F6E74726F6C6C65722F303D11
:10097000646576696365290A726561643A5020523C
:1009800065616420646174612066726F6D20696EB8
:10099000737472756D656E740A726561645F746DEF
:1009A0006F5F6D733A5020526561642074696D65A4
:1009B0006F7574207370656369666965642062652C
:1009C000747765656E2031202D2033303030206DF6
:1009D000696C6C697365636F6E64730A7273743AE1
:1009E000502052657365742074686520636F6E745F
:1009F000726F6C6C65720A736176656366673A50F4
:100A0000205361766520636F6E66696772617469F1
:100A10006F6E0A73706F6C6C3A5020536572696127
:100A20006C20706F6C6C2074686520616464726502
:100A30007373656420686F7374206F7220616C6CCF
:100A400020696E737472756D656E74730A7372715A
:100A50003A502052657475726E20737461747573A8
:100A6000206F6620737271207369676E616C202835
:100A7000312D7372712061737365727465642F30E8
:100A80002D737271206E6F7420617373657274655B
:100A900064290A7374617475733A50205365742025
:100AA000746865207374617475732062797465204D
:100AB000746F2062652072657475726E6564206F54
:100AC0006E206265696E6720706F6C6C65642028AB
:100AD0006269742036203D205251532C20692E65C6
:100AE00020535251206173736572746564290A74CE
:100AF00072673A502053656E642074726967676547
:100B00007220746F2073656C65637465642064651E
:100B100076696365732028757020746F20313520E5
:100B2000616464726573736573290A7665723A50FD
:100B300020446973706C6179206669726D776172A7
:100B4000652076657273696F6E0A6173706F6C6C85
:100B50003A432053657269616C20706F6C6C206140
:100B60006C6C20696E737472756D656E7473202879
:100B7000616C6961733A202B2B73706F6C6C206110
:100B80006C6C290A64636C3A432053656E6420756B
:100B90006E6164647265737365642028616C6C298E
:100BA0002064657669636520636C65617220205BF3
:100BB000706F776572206F6E2072657365745D204B
:100BC00028697320746865207273743F290A64650C
:100BD0006661756C743A432053657420636F6E666A
:100BE000696775726174696F6E20746F20636F6ED0
:100BF00074726F6C6C65722064656661756C7420CC
:100C000073657474696E67730A69643A4320536844
:100C10006F7720696E746572666163652049442050
:100C2000696E666F726D6174696F6E202D207365D9
:100C30006520616C736F3A20276964206E616D6571
:100C4000273B202769642073657269616C273B200C
:100C500027696420766572737472270A6964206E4E
:100C6000616D653A432053686F772F536574207424
:100C70006865206E616D65206F6620746865206907
:100C80006E746572666163650A6964207365726972
:100C9000616C3A432053686F772F536574207468F2
:100CA000652073657269616C206E756D6265722076
:100CB0006F662074686520696E746572666163652D
:100CC0000A6964207665727374723A432053686FC0
:100CD000772F536574207468652076657273696F29
:100CE0006E20737472696E672073656E7420696E0E
:100CF000207265706C7920746F202B2B76657220C2
:100D0000652E672E2022475049422D5553422229F5
:100D10002E204D61782034372063686172732C2057
:100D2000657863657373207472756E63617465644E
:100D30002E0A69646E3A4320456E61626C652F44E9
:100D4000697361626C65207265706C7920746F20C4
:100D50002A69646E3F202864697361626C6564204F
:100D600062792064656661756C74290A6D616372CD
:100D70006F3A432052756E2061206D6163726F205F
:100D8000286966206D6163726F20737570706F7271
:100D90007420697320636F6D70696C6564290A66DD
:100DA0006E646C3A432046696E64206C6973746E9D
:100DB0006572730A70706F6C6C3A4320436F6E6497
:100DC000756374206120706172616C6C656C207059
:100DD0006F6C6C0A72656E3A43204173736572746E
:100DE000206F7220556E617373657274207468652C
:100DF0002052454E207369676E616C0A726570659A
:100E000061743A432052657065617420612067699E
:100E100076656E20636F6D6D616E6420616E642017
:100E200072657475726E20726573756C740A736581
:100E300063726561643A4320526561642066726F33
:100E40006D2061207365636F6E64617279206164E7
:100E500064726573730A73656373656E643A4320E5
:100E600053656E642064617461206F7220636F6DDE
:100E70006D616E6420746F2061207365636F6E64B2
:100E800061727920616464726573730A7365747644
:100E90007374723A4320444550524543415445448B
:100EA000202D2073656520696420766572737472E5
:100EB0000A7372716175746F3A43204175746F6D76
:100EC00061746963616C6C7920636F6E64756374BF
:100ED0002073657269616C20706F6C6C2077686537
:100EE0006E2053525120697320617373657274656B
:100EF000640A7463743A43205369676E616C2072AC
:100F0000656D6F74652064657669636520746F2014
:100F100074616B6520636F6E74726F6C0A746F6EB0
:100F20003A432050757420636F6E74726F6C6C65F9
:100F30007220696E2074616C6B2D6F6E6C79206D00
:100F40006F6465202873656E642064617461206F2E
:100F50006E6C79290A756E6C3A4320556E6C697314
:100F600074656E207468652047504942206275732D
:100F70000A756E743A4320556E74616C6B20746808
:100F800065204750494220627573766572626F73BF
:100F9000653A4320566572626F7365202868756DE7
:100FA000616E207265616461626C6529206D6F6499
:100FB000650A78646961673A432042757320646901
:100FC00061676E6F7374696373202873656520743D
:100FD000686520646F63290A0053656E64696E67F3
:100FE0002044434C206661696C656400536574203D
:100FF000454F5220746F3A2000506172616C6C65ED
:101000006C20706F6C6C20636F6D706C65746564C0
:101010002E0052454E3A200050524F4D3A20004F7C
:101020004646004F4E206275666665726564004FE5
:101030004E20756E627566666572656400544F4E2B
:101040003A20004D697373696E6720706172616D3B
:101050006574657273004D697373696E67207061A2
:1010600072616D6574657200537769746368656455
:1010700020746F20646576696365206D6F64652EEA
:1010800000207375636365656465642E0020666186
:10109000696C6564210053656E64696E6720544312
:1010A0005420746F206465766963652061742061E3
:1010B00064647265737320005468617420697320DE
:1010C0006D7920616464726573732120506C656171
:1010D00073652070726F766964652074686520613D
:1010E000646472657373206F6620612072656D6F32
:1010F0007465206465766963652E00446973616276
:101100006C656400496E76616C69643A20303D64B8
:10111000617461206275733B20313D636F6E747240
:101120006F6C206275730044494F380044494F3753
:101130000044494F360044494F350044494F34007C
:1011400044494F330044494F320044494F31004134
:10115000544E0052454E0053525100454F490044F1
:101160004156004E524644004E44414300494643D6
:10117000004152343838204750494220636F6E7422
:10118000726F6C6C65722C207665722E20302E3555
:10119000332E30332C2030382F30342F323032354C
:1011A0000053657269616C206E756D626572206DA9
:1011B000757374206E6F742065786365656420397B
:1011C000206368617261637465727321004C656E9F
:1011D000677468206F66206E616D65206D7573742D
:1011E000206E6F74206578636565642031352063F7
:1011F00068617261637465727321004C656E677417
:1012000068206F662076657273696F6E20737472E2
:10121000696E67206D757374206E6F7420657863D6
:101220006565642034382063686172616374657237
:101230007321005665725374723A200020776974E6
:10124000682073657269616C206E756D62657200ED
:1012500053656E64696E672049444E3A20004661CA
:10126000696C656420746F2073656E6420554E4C04
:10127000004661696C656420746F2073656E64203C
:10128000554E5400556E7265636F676E697A65647A
:1012900020636F6D6D616E64000A436F6D6D616EEA
:1012A000642061626F727465642E000A496E766113
:1012B0006C696420495020616464726573732066B0
:1012C0006F726D61742E00596F752077696C6C2098
:1012D0006E65656420746F207265626F6F74206E36
:1012E0006F772E000A495020416464726573732041
:1012F00077696C6C2062652073657420746F3A2086
:1013000000456E7465722074686520646573697247
:1013100065642049502061646472657373202830CD
:101320002E302E302E30206D65616E733A2075732D
:10133000652044484350293A20007669612044489A
:1013400043502E00436F6E6669677572656420496D
:101350005020416464726573733A20000A437572C9
:1013600072656E7420495020416464726573733AEB
:1013700020002D205352414D206C6566743A2000A8
:10138000454550524F4D206461746120736574204F
:10139000746F2064656661756C742E00435243203F
:1013A000636865636B206661696C65642E204572B5
:1013B0006173696E6720454550524F4D2E2E2E2E7B
:1013C00000454550524F4D2068617320646174613F
:1013D0002E002121204E6F2076616C6964204950D7
:1013E00020616464726573732061737369676E65ED
:1013F000642E20506C6561736520636865636B20A3
:10140000796F7572206E6574776F726B2073657477
:1014100074696E67732E004950204164647265736D
:10142000733A20004661696C656420746F207374A0
:101430006172742054435020736572766572004D5A
:101440006178696D756D206E756D626572206F666D
:1014500020636861726163746572732069732072BE
:1014600065616368656420696E206120636F6D6DDE
:10147000616E642074657874000053657475702023
:10148000636F6D706C6574652E005374617274695E
:101490006E672053657269616C204D656E752E2EE6
:1014A0002E005374617274696E67205765622073F1
:1014B0006572766572206F6E20706F72742038309E
:1014C0002E2E2E005374617274696E672050726FF5
:1014D0006C6F67697820544350207365727665722B
:1014E000206F6E20706F727420313233342E2E2EA6
:1014F0000057616974696E6720666F7220444843C3
:10150000502E2E2E005468652064657669636573DD
:1015100027732064656661756C742061646472650C
:10152000737320706F696E747320746F2047504915
:101530004220616464726573732000436F6E666954
:10154000677572696E6720616E642053746172748E
:10155000696E672047504942206275732E2E2E0017
:101560004D414320416464726573733A20004574B1
:101570006865726E657432475049422047617465F0
:101580007761792076312E32202841523438382044
:1015900076302E35332E3033290A00676574436D5B
:1015A000643A20636F6D6D616E64206E6F742061AC
:1015B0007661696C61626C6520696E20746869731C
:1015C000206D6F64652E00526573657420666169D5
:1015D0006C65642E00526573657474696E672E2E97
:1015E0002E004572726F72207768696C6520726593
:1015F00063656976696E6720646174612E00202DD1
:101600003E2063616E63656C6C6174696F6E20214E
:1016100000202D3E2063616E63656C6C6174696FA0
:101620006E202100202D3E20746F6F206D616E7939
:1016300020617267756D656E7473202120286F6E4E
:101640006520636861726163746572206F6E6C7986
:10165000290000202D3E204E6F20636F6D6D616E5E
:101660006420636F6465206D61746368696E6720D0
:101670002100202D3E20746F6F206D616E792061F6
:101680007267756D656E7473202120286F6E6520FA
:10169000636861726163746572206F6E6C79290092
:1016A0002C20506C6561736520696E666F726D20C9
:1016B000796F757220636C69656E7473210049508F
:1016C000204164647265737320686173206368618C
:1016D0006E67656420746F20004950204164647215
:1016E00065737320686173206265656E2061737332
:1016F00069676E65643A200045746865726E65744A
:10170000206C696E6B206973204F4B206E6F7700E1
:10171000526573657474696E6720616C6C20636CCC
:1017200069656E7420636F6E6E656374696F6E7346
:101730002E2E2E002069732077726F6E672E205038
:101740006C6561736520636865636B204448435032
:101750002100495020416464726573732000457410
:101760006865726E6574206C696E6B206973204FBA
:101770004646003C2F626F64793E3C2F68746D6C66
:101780003E0A0A003C2F703E003C68323E50726FA9
:101790006C6F6769782047504942204574686572CC
:1017A0006E6574205365727665723C2F68323E3CDC
:1017B000703E495020416464726573733A20003C66
:1017C0002F7370616E3E3C2F703E0A003C21444FE7
:1017D00043545950452068746D6C3E3C68746D6C80
:1017E000206C616E673D22656E223E3C68656164D7
:1017F0003E3C6D65746120636861727365743D225F
:101800005554462D3822202F3E203C6D65746120B2
:101810006E616D653D2276696577706F7274222006
:10182000636F6E74656E743D2277696474683D649D
:1018300065766963652D77696474682C20696E69C3
:101840007469616C2D7363616C653D312E302220AB
:101850002F3E203C7469746C653E45746865726EF9
:10186000657432475049423C2F7469746C653E3C44
:101870007374796C653E20626F6479207B20666F9B
:101880006E742D66616D696C793A20417269616C84
:101890002C2073616E732D73657269663B207D2009
:1018A0003C2F7374796C653E3C2F686561643E3CE7
:1018B000626F64793E3C68313E45746865726E655E
:1018C00074324750494220476174657761792076C8
:1018D000312E32202841523438382076302E35339C
:1018E0002E3033290A3C2F68313E3C703E4E756DD8
:1018F000626572206F6620636C69656E7420636F29
:101900006E6E656374696F6E733A203C7370616EBE
:101910002069643D22636E78223E00485454502F63
:10192000312E3120323030204F4B0A436F6E7465B8
:101930006E742D547970653A20746578742F6874CC
:101940006D6C0A436F6E6E656374696F6E3A2063E7
:101950006C6F73650A0A00485454502F312E3120A1
:10196000343034204E6F7420466F756E640A00491F
:101970006E74657266616365206D697374616B6511
:101980002077697468206C6962726172792053658E
:101990007269616C53657269616C4D656E75436DFA
:1019A00064004E6F204D656E7520696E206D656D0B
:1019B0006F7279003E00000045473F4711241FBE6B
:1019C000CFEFCDBFDFE3DEBF18E2A0E0B8E2E7E58E
:1019D000FFEB02C005900D92AA31B107D9F72CE2B6
:1019E000AAE1B8E201C01D92AF3BB207E1F71CE0EB
:1019F000CDEDDCE004C02197FE010E94845BCC3D6C
:101A0000D107C9F70E94BB480C94585D0C940001A3
:101A10008F929F92AF92BF92CF92DF92EF92FF92FE
:101A20000F93CF93DF9380910A2A882319F081FFC7
:101A30000DC07894DF91CF910F91FF90EF90DF90E0
:101A4000CF90BF90AF909F908F90089580FFF2CF7E
:101A500080900C2A90900D2AA0900E2AB0900F2A08
:101A6000C12CD12C7601E0E09401A501B601C7019B
:101A7000A0E00E94AE5B91F1217030E040E050E0C8
:101A800060E070E080E090E00E94AE5BD1F0B0E0FA
:101A9000A0E0E03370F4AE2FA695A695A69580E25F
:101AA000A89FD0011124A05FBB4F8E2F8770A80F75
:101AB000B11DCE2FD0E0CC5FD54D88899C91892B6C
:101AC0008C939401A501B601C70101E00E94935BCC
:101AD00049015A016B017C01EF5FC6CF8090102A4B
:101AE0009090112AA090122AB090132AC12CD12CC8
:101AF0007601E0E29401A501B601C701A0E00E94D1
:101B0000AE5B09F497CF217030E040E050E060E038
:101B100070E080E090E00E94AE5BD1F0B0E0A0E029
:101B2000E03370F4AE2FA695A695A69580E2A89F07
:101B3000D0011124A05FBB4F8E2F8770A80FB11D5D
:101B4000CE2FD0E0CC5FD54D88899C91892B8C938A
:101B50009401A501B601C70101E00E94935B490110
:101B60005A016B017C01EF5FC5CF00008093C40870
:101B70008091C30887FFFCCF8091C40808950F931C
:101B80001F93CF93DF93EC018C01060F171FC01733
:101B9000D10729F088810E94B50D8993F8CFDF9194
:101BA000CF911F910F9108958F929F92AF92BF9204
:101BB000CF92DF92EF92FF920F931F93CF93DF9319
:101BC000182FF92F80910A2A882319F081FF12C05B
:101BD000F8941093C008F093C108DF91CF911F9142
:101BE0000F91FF90EF90DF90CF90BF90AF909F90BC
:101BF0008F90089580FFEDCF80900C2A90900D2A51
:101C0000A0900E2AB0900F2AC12CD12C7601E0E0D2
:101C10009401A501B601C701A0E00E94AE5BA9F145
:101C2000217030E040E050E060E070E080E090E063
:101C30000E94AE5BE9F0D0E0C0E0E03370F4CE2F5C
:101C4000C695C695C69580E2C89FE0011124C05F85
:101C5000DB4F8E2F8770C80FD11D8E2F90E028810B
:101C60008C5F954DDC0150962C938881887F88830A
:101C70009401A501B601C70101E00E94935B4901EF
:101C80005A016B017C01EF5FC3CF8090102A9090C6
:101C9000112AA090122AB090132AC12CD12C7601BF
:101CA000E0E29401A501B601C701A0E00E94AE5B8D
:101CB00009F48FCF217030E040E050E060E070E048
:101CC00080E090E00E94AE5BE9F0D0E0C0E0E0335D
:101CD00070F4CE2FC695C695C695B0E2CB9FE001B5
:101CE0001124C05FDB4F8E2F8770C80FD11D8E2F40
:101CF00090E028818C5F954DDC0150962C93888173
:101D0000887F88839401A501B601C70101E00E9484
:101D1000935B49015A016B017C01EF5FC2CFFC016B
:101D2000BC01695A7F4F8FEF9FEF2191322F3927E6
:101D3000232F22952F702327422F50E0382FCA01DE
:101D4000982F88279295907F28273927CA01B5E0D8
:101D5000880F991FBA95E1F7822793276E177F079F
:101D600021F70895E5E0FBE287E5DF011D928A9502
:101D7000E9F782E0828381E084838FEF858380EBC3
:101D800094E081879287089520E3FC0120833296B6
:101D9000862F82958F706F706A3030F4605D629329
:101DA000682F8111F5CF0895695CF9CFFC01818D11
:101DB000928D08950895CF93DF9390E0FC01E3574F
:101DC000F34020812F3F61F0FC01EC59F340E081AA
:101DD00030E2E39FF0011124FC5F613021F42183A4
:101DE000DF91CF910895855C9340EC01A881AF3FCE
:101DF00069F0CF014096A80FB92FB11D9FB7F89495
:101E000022838C9188608C939FBFEACFB0E0A0E0E2
:101E1000F5CF90E0FC01EE5EF340E081EE2319F196
:101E2000E13021F000F1E630A8F00895855C9340A0
:101E3000FC012081233008F02F5F3091010A81E0FE
:101E400090E001C0880F2A95EAF78095832380935C
:101E5000010A089580E1E89FF0011124E05AF54F4E
:101E600081818F7E818308950F931F93CF93DF939A
:101E7000C82FD0E0FE01E357F34000810F3FA1F0EF
:101E8000162F893210F40E94090FFE01EC59F3401D
:101E9000E08180E2E89FF0011124FC5F80818023D3
:101EA00051F0111106C00683DF91CF911F910F9160
:101EB00008950583F9CFC55CD3408881309771F0D0
:101EC0008F3F61F07096E80FF11D9FB7F894808105
:101ED000111107C0877F80839FBFE6CFF0E0E0E06D
:101EE000F4CF8860F8CF0F931F93CF93082F10E0A3
:101EF000F801E357F340C081CF3F79F00E94090F0A
:101F0000F801EC59F340E08180E2E89FF0011124F0
:101F1000FC5F8085C82381E009F480E0CF911F91A8
:101F20000F910895893210F40C94340F0895EF92B4
:101F3000FF920F931F93CF93DF93E82EF12CF701BD
:101F4000E55CF34000810F3FD9F1EB01182F61E010
:101F50000E94DB0E209751F460E0812FDF91CF913A
:101F60001F910F91FF90EF900C94920FCF3FD105EE
:101F700011F461E0F2CFF701EE5EF340E081E13071
:101F800039F010F0E63030F1C038D10594F7E4CFE5
:101F9000E02FF0E0EE0FFF1F0330C8F0ED5DF54FCE
:101FA0000F5F8FB7F894C0838FBF8091010A21E043
:101FB00030E001C0220F0A95EAF7822B8093010AD4
:101FC000DF91CF911F910F91FF90EF900895E85D01
:101FD000F54FE7CF80E1E89FF0011124E05AF54F7B
:101FE0008FB7F89494859487C5878FBF818180616E
:101FF0008183E6CF00000000000000009C01275014
:102000003109880F991F880F991F820F931F01971D
:10201000F1F708956FB7F8942091B7293091B82956
:102020004091B9295091BA298091AA0A9091AB0A9E
:102030007091A60A70FF08C02F5F3F4F4F4F5F4F50
:102040008091AA0A9091AB0A6FBFE92FFF27BC01CC
:10205000A4E076956795AA95E1F7E60FF71FBC0116
:10206000B6E076956795BA95E1F7E61BF70B892FF1
:10207000992786958695E81BF90BA8EEB3E00E9498
:10208000315B6E0F7F1F811D911D08958F929F926E
:10209000AF92BF92CF92DF92EF92FF924B015C0121
:1020A0000E940A106B017C01A8EEB3E0A501940127
:1020B0000E94315BC60ED71EE81EF91EC616D70653
:1020C000E806F90618F40E940A10F8CF0E940A10D8
:1020D0006C157D058E059F05C8F3FF90EF90DF908E
:1020E000CF90BF90AF909F908F9008952FB7F894A6
:1020F0006091B7297091B8298091B9299091BA2936
:102100002FBF089521E0FC018485883008F020E08D
:10211000822F08958091342890913528891B990B3E
:102120000895DC01ED91FC910190F081E02D09947E
:10213000EF92FF920F931F93CF93DF938C017B015C
:10214000D0E0C0E0F701EC0FFD1F6491662361F061
:10215000D801ED91FC910190F081E02DC801099525
:10216000892B11F02196EECFCE01DF91CF911F91F7
:102170000F91FF90EF900895AF92BF92CF92DF92B0
:10218000EF92FF920F931F93CF93DF936C017B012C
:102190008B01040F151FEB015E01AE18BF08C017BD
:1021A000D10759F06991D601ED91FC910190F08130
:1021B000E02DC6010995892B79F7C501DF91CF91F3
:1021C0001F910F91FF90EF90DF90CF90BF90AF9055
:1021D0000895FC01508D418D252F30E0842F90E033
:1021E000821B930B541710F0CF9608950197089512
:1021F000FC0196898789981761F0A789AE0FBF2FD8
:10220000B11D5D968C9197899F5F9F73978B90E02E
:1022100008958FEF9FEF0895FC019689878998179D
:1022200031F08789E80FF11D858D90E008958FEFDB
:102230009FEF0895FC0196892789892F90E0805CA3
:102240009F4F821B91098F73992708958BE49AE21F
:102250000E941A1121E0892B09F420E0822F0895B1
:10226000CF93DF93EC01E881F9810680F781E02DBF
:102270000995EC85FD8586818F738683EC85FD85C8
:1022800085818F7585838F898E8B1D8ADF91CF9194
:102290000895AF92BF92CF92DF92EF92FF920F9389
:1022A0001F93CF93DF93EC016A017B01A22E8D89EE
:1022B000882339F0E881F9810688F789E02DCE017D
:1022C00009950C8910E0BFB6F89460E078E689E8DB
:1022D00099E0A70196010E94F05A69017A018FEFF7
:1022E000C81AD80AE80AF80AF694E794D794C7946B
:1022F000EC85FD8586818D7F8683EC85FD858681D5
:1023000086831D8AA09125110A2E000CBB0BA70104
:1023100096010E943C5B20E034E040E050E00E94E7
:10232000125BEC85FD85C20ED31EE41EF51EC08631
:10233000D186EC85FD85A782EC85FD858681806C44
:102340008683EC85FD858581806885839091E20593
:102350008B89809589237801EE0CFF1CF701E00F33
:10236000F11FEC0FFD1F9089892B8093E205868574
:10237000893218F462E00E94DB0E0E0D1F1DC00FA3
:10238000D11F61E08F850E94920F8F85893218F4EA
:1023900061E00E94DB0EBFBEDF91CF911F910F91D4
:1023A000FF90EF90DF90CF90BF90AF900895FC0129
:1023B000613019F4648B81E00895148A6623D9F39F
:1023C00080E00895DC0154961C92549754968C91A9
:1023D00054978230A0F4282F30E0F901EE0FFF1F50
:1023E000E20FF31FEA0FFB1F9785961303C0968534
:1023F000941749F08F5F54968C935497E7CF549677
:102400001C9280E0089581E00895CF93DF93FC0152
:10241000908D818DC485D585981306C08D818F7D63
:102420008D83DF91CF910895A18DAE0FBF2FB11D88
:10243000A35ABF4F2C91818D90E001968F739927FD
:10244000818F80E48C83A485B58512962C93908D22
:10245000818D9813E6CFA485B58515968C91159737
:102460008F7D15968C93838D8823D9F2848D8093EC
:102470001301138ED6CFDC011C96ED91FC910FB6A3
:1024800007FE03C0258125FD04C0248125FD0C9491
:1024900005120895EF92FF920F931F93CF93DF934E
:1024A000EC0181E08D8B988D898D98131CC0AC85D3
:1024B000BD8514968C91149785FF15C012966C9368
:1024C000AC85BD8580E414968C93EC85FD85858173
:1024D0008F7D858381E090E0DF91CF911F910F91F7
:1024E000FF90EF9008958091110180FF08C08091C6
:1024F00013018C8F8A8D8093130181E08B8FF62ED0
:10250000088D10E00F5F1F4F0F731127E02E898D8C
:102510008E1104C0CE010E943B12F9CFE88DEC0F62
:10252000FD2FF11DE35AFF4FF082088FEC85FD85EA
:1025300085818062CECF682F8BE49AE20C944A1298
:10254000CF93DF93FC0125892223C9F0EC01809110
:10255000110180FF08C080911301848F828D8093C8
:10256000130181E0838FEC85FD85858185FD03C0A6
:10257000848186FD04C0CE010E943B12F4CFDF911E
:10258000CF91089580E090E0892B29F00E942611D8
:1025900081110E94000080E090E0892B49F080E0EA
:1025A00090E0892B29F00E94000081110E94000018
:1025B00080E090E0892B49F080E090E0892B29F0C1
:1025C0000E94000081110E94000080E090E0892BB1
:1025D00049F080E090E0892B29F00E9400008111F1
:1025E0000C940000089581E008950F9391E090937A
:1025F000762810922F2860932D2870932E284093D0
:102600002C2820932B2810923028109231280093E8
:102610002A28880F8093292893E024E080912C2891
:10262000882331F090937728809129288E7F09C0E4
:1026300080912B28882341F02093772880912928A6
:1026400081608093A70808C080912C28811104C064
:1026500080912B28882331F380912F288823E1F360
:1026600080912F288330D1F280912B28882321F06C
:10267000809131280F91089590912F2881E0913019
:10268000C9F780E0F7CFE0EAF8E09185906691879E
:1026900092E090937728809323281092222808951F
:1026A00081E0809322281092232893E09093AA0837
:1026B0009091AB0891FF0BC010922728F0E0E0E06A
:1026C00009958093262885E08093772808951092B5
:1026D00028288093252886E0F7CFE091352880913F
:1026E0003428E81730F4F0E0EA5CF74D808190E0A0
:1026F00008958FEF9FEF08959091352880913428A9
:102700002FEF3FEF981748F4E92FF0E0EA5CF74D20
:10271000208130E09F5F90933528C9010895CF92C2
:10272000DF92EF92FF920F931F93CF93DF937C0181
:102730008A01EB016B01C40ED51ECC15DD0551F0ED
:102740006991D701ED91FC910190F081E02DC701D5
:102750000995F3CFC801DF91CF911F910F91FF90A1
:10276000EF90DF90CF9008952091B828203440F06A
:1027700021E030E0FC012283338390E080E0089583
:102780008091B928E82FF0E0E858F74D60838F5F1B
:102790008093B9288093B82881E090E00895CF9382
:1027A000DF93EC018C819D81DC01ED91FC91048033
:1027B000F581E02D09952A853B85009739F48885B8
:1027C0009985821B930BDF91CF910895821B930B08
:1027D00097FFF9CF90E080E0F6CFCF93DF93DC0155
:1027E0001A964D915C914115510599F1EC018C813E
:1027F0009D816E817F81DC01ED91FC910280F381EE
:10280000E02D09952A853B85281B390B2A873B87B4
:10281000232BA9F0009799F030E020E04A855B85F2
:102820002417350760F4EE81FF81E20FF31FDF010B
:10283000A80FB91F4C9140832F5F3F4FEFCFEC8122
:10284000FD8182819381892B21F081E090E08A8350
:102850009B83DF91CF910895AF92BF92CF92DF9289
:10286000EF92FF920F931F93CF93DF938C016B0135
:102870005A017B01D0E0C0E0CA15DB05B9F1D801EF
:102880001A968D919C911B97892B09F5A5014C1BDC
:102890005D0B18968D919C91199748175907B8F0C0
:1028A00014968D919C91B6016C0F7D1FDC01ED910A
:1028B000FC910280F381E02DDF91CF911F910F9168
:1028C000FF90EF90DF90CF90BF90AF900994F70109
:1028D00061917F01D801ED91FC910190F081E02D93
:1028E000C8010995892B11F02196C6CFCE01DF9141
:1028F000CF911F910F91FF90EF90DF90CF90BF90FD
:10290000AF900895FC01A681B781828593859C01D3
:102910002F5F3F4F22873387A80FB91F6C93228503
:102920003385808591852817390741F4CF010190BF
:10293000F081E02D0680F781E02D099581E090E09F
:102940000895E0911E28F0911F28808190911D2804
:10295000892B80830895E0911E28F0911F28908193
:1029600080911D288095892380830895AF92BF921E
:10297000CF92DF92EF92FF920F931F93CF93DF934B
:10298000CDB7DEB72897CDBFDEBF8C017B016A01D2
:102990008091032A8333E1F45801A40EB51EA016DA
:1029A000B10609F46FC00E94AB1480EF0E94B50D10
:1029B000812F0E94B50D802F0E94B50D0F5F1F4F14
:1029C000F70181917F010E94B50D0E94A114E7CF0C
:1029D0005B01A40EB51E8433C1F40E94AB141983AD
:1029E0000A838D2D80688B83CC8264E070E0CE01F9
:1029F00001960E94BF0DAE14BF0409F441C0F70157
:102A000081917F010E94B50DF6CF0E94AB140F3F5C
:102A1000110509F028F419820A8384E08B830CC025
:102A200017FD17C019820A8333E0169507953A956A
:102A3000E1F7007E0C600B8386E0C816D10488F5B0
:102A4000F701DE011496EA15FB0599F081918D934B
:102A5000FACFC80126E0969587952A95E1F7807E02
:102A600019830A830115104C10F48461D7CF8C614F
:102A7000D5CFB6016D5F7F4FCE0101960E94BF0D8D
:102A80000E94A114C6012896CDBFDEBFDF91CF9171
:102A90001F910F91FF90EF90DF90CF90BF90AF907C
:102AA000089563E070E0CE0101960E94BF0DF7012A
:102AB00081917F010E94B50DAE14BF04C1F7E0CF34
:102AC000CF93DF931F92CDB7DEB7898341E050E00B
:102AD000BE016F5F7F4F90E080E00E94B6140F90C0
:102AE000DF91CF91089590E02091032A233339F4A8
:102AF0000C96982F990F990F990F80E0089548969A
:102B0000F8CFDA01E0912028F0E0FE2FEE27E60F63
:102B1000F71F90E0982F8827A901BD018E0F9F1FF6
:102B20000C94B614CF93DF9300D0CDB7DEB7798382
:102B30006A8322E030E0AE014F5F5F4F60E170E0FA
:102B40000E9481150F900F90DF91CF910895CF9340
:102B5000DF9300D0CDB7DEB779836A8322E030E01F
:102B6000AE014F5F5F4F64E070E00E9481150F90EF
:102B70000F90DF91CF910895CF93DF931F92CDB740
:102B8000DEB72091202830E0322F2227260F371F72
:102B900090E0982F8827498341E050E0BE016F5FA5
:102BA0007F4F820F931F0E94B6140F90DF91CF9139
:102BB0000895CF93DF931F92CDB7DEB76983DC0111
:102BC000ED91FC910280F381E02D41E050E0BE01E7
:102BD0006F5F7F4F09950F90DF91CF910895CF934D
:102BE000DF931F92CDB7DEB76983DC01ED91FC91D5
:102BF0000280F381E02D41E050E0BE016F5F7F4F26
:102C000009950F90DF91CF910895FC019485FB0108
:102C10008485981303C081E0983008F080E008951F
:102C2000CF93DF931F92CDB7DEB76983DC01ED91BF
:102C3000FC910280F381E02D41E050E0BE016F5F26
:102C40007F4F09950F90DF91CF91089544E050E0B8
:102C5000BC018FE090E00C94B61444E050E0BC015D
:102C600085E090E00C94B61444E050E0BC0181E0B3
:102C700090E00C94B614FC01848595850895DC01E0
:102C8000ED91FC91028CF38DE02D099460E08DE0D4
:102C90000E94340F61E087E20E94340F61E086E217
:102CA0000C94340FFC01828181110CC0838181114D
:102CB00009C08481811106C081E09581911103C012
:102CC00080E0089581E00895FC0184899589089544
:102CD00028E33DEFFC0120833183FB0140895189CA
:102CE00062897389FC0142835383648375830895E9
:102CF0000C94B20E9091AD29E92FF0E0E35DF64D12
:102D000080839F5F9093AD290895FC01DB011296AB
:102D10008D919C9113978283938314964D915D912D
:102D20006D917C91179744835583668377831896BA
:102D30004D915D916D917C911B9740875187628782
:102D400073871C968C911C9784871D968D919C91FE
:102D500085879687CF010895FC016587768708955A
:102D6000DC01ED91FC9102A0F3A1E02D099591E029
:102D700089270895862F089581E08627089508956C
:102D80000895CF92DF92EF92FF920F931F93CF930C
:102D9000DF93282F30E08901000F111F000F111F52
:102DA000E901D595C795E62FF0E06F01CC0CDD1C4D
:102DB000CC0CDD1C7F01F594E794DF01D4E0AA0F71
:102DC000BB1FDA95E1F7A0719C2D9870A92B647058
:102DD000A62BBF0175956795759567956270A62BB3
:102DE000E295E170EA2B6C2D6078E62B9E2D9072B7
:102DF000E92B9E2D9074E92B9E2F9095B90154E0FC
:102E0000660F771F5A95E1F76071502F5870652B48
:102E10008470682BD901B595A795B595A795A27033
:102E20006A2B22952170262B0078202B8C2F807204
:102E3000282BC0742C2B2E23413079F08091440430
:102E40008923282B20934404DF91CF911F910F9168
:102E5000FF90EF90DF90CF900895809140048923F8
:102E6000282B20934004F0CF40E00C94C11660E280
:102E700080E20E94341768E270E080E090E00E94F7
:102E8000461060EA80E00E94341768E270E080E05B
:102E900090E00E94461060E880E80C9434172F926E
:102EA0003F924F925F926F927F928F929F92AF92DA
:102EB000BF92CF92DF92EF92FF920F931F93CF9327
:102EC000DF9300D000D0CDB7DEB71C016A838A0142
:102ED0000E9476104B015C012B013C018FEF481AD8
:102EE000580A680A780AC0900E2BD0900F2BF12C4C
:102EF000E12C84E10E94730F8983F80110821B8208
:102F00001C82481859086A087B084C145D046E043A
:102F10007F0408F064C08091072B813099F18B8188
:102F20009C81892B09F03FC064E084E00E94341743
:102F30008FE00E94730F811144C064E00E94341737
:102F4000FA81FF2341F08EE00E94730F811103C0CC
:102F500081E0F8018083809168048095F10180838D
:102F600062E082E00E9434178FE00E94730F81308C
:102F700069F562E080E00E94341781E090E08B8385
:102F80009C832DC082E10E94730F882321F19981D7
:102F90009111C5CF84E10E94730F882309F4BFCF3C
:102FA00083E090E0ECCFEB81FC81349709F4C0CF53
:102FB0008B819C810697C1F20E9476102B013C0107
:102FC000A0CFE4E0F0E0EB83FC83F6CF86E090E076
:102FD0008B839C83F1CFE2E0F0E0EB83FC838B8179
:102FE0009C812496CDBFDEBFDF91CF911F910F91C1
:102FF000FF90EF90DF90CF90BF90AF909F908F9019
:103000007F906F905F904F903F902F90089541E098
:103010000C94C116E0E6F4E08FEF828388E0808BA9
:10302000818B828B838B848B858B868B878B08959A
:103030006EE186E00E94071866E089EF0C94341771
:103040007F928F929F92AF92BF92CF92DF92EF9238
:10305000FF920F931F93CF93DF93182F062F0E9499
:1030600076104B015C016F5F7F4F8F4F9F4FC09079
:103070000E2BD0900F2BF12CE12CD0E0C0E0772468
:103080007A941095681979098A099B096C157D0550
:103090008E059F0508F069C08091072B813041F5AE
:1030A00082E10E94730F811116C00E94181888E0F7
:1030B00080935C2BC2E0D0E0CE01DF91CF911F91D5
:1030C0000F91FF90EF90DF90CF90BF90AF909F90C7
:1030D0008F907F90089584E10E94730F811108C042
:1030E0000E94181888E080935C2BC3E0D0E0E4CF06
:1030F0002097B1F481E10E94730F811130C080E10B
:103100000E94730FC7E0D0E0813049F570926104EE
:10311000109364048091062B81110FC068E010C0E9
:10312000C730D10561F3C830D10581F3C930D1056D
:1031300051F0CA30D10561F012C068E1002371F38B
:1031400080E00E94341780E10E94730F81110AC051
:1031500081E10E94730F813061F0CAE0D0E00E94EB
:10316000761090CFC9E0D0E0FACFC130D10509F098
:10317000A3CF8091062B811103C068E088E004C0D2
:1031800068E188E10023C9F30E9434178FEF809330
:10319000610480936404C1E0D0E08ECFFC018081A3
:1031A0009181FC01FF2790FD06C080E094E1E82BAF
:1031B000F92B8081089580E093E1F9CF0F931F935D
:1031C000CF93DF9300D0CDB7DEB78C0119821A827E
:1031D000CE0101960E94CE18F801808381E090E034
:1031E00089839A83CE0101960E94CE18F8018183CB
:1031F000C8010F900F90DF91CF911F910F9108950B
:10320000FC01FF2790FD12C080E094E1E82BF92B30
:1032100060838FB7F8949DE923E094BF209300105A
:103220008FBF8091021081FDFCCF089580E093E173
:10323000EDCFBF92CF92DF92EF92FF920F931F9349
:10324000CF93DF9300D0CDB7DEB76C017C0102E0F5
:1032500010E0F701B1907F0109831A83CE01019636
:103260000E94CE18B81621F06B2DC8010E940019DB
:103270000F5F1F4F0935110561F7C6010E948F0EC0
:103280008C0119821A82CE0101960E94CE1808176D
:1032900029F0602F90E080E00E94001981E090E02A
:1032A00089839A83CE0101960E94CE18181781F067
:1032B000612F81E090E00F900F90DF91CF911F91EF
:1032C0000F91FF90EF90DF90CF90BF900C9400197A
:1032D0000F900F90DF91CF911F910F91FF90EF9082
:1032E000DF90CF90BF900895DC01ED91FC910488B0
:1032F000F589E02D23E030E0099490E080E0089526
:103300000C94785524E0FC01218321E32083089567
:10331000DF92EF92FF920F931F93CF93DF9300D032
:10332000CDB7DEB7FB01DC0156961D921C92579774
:103330002281211109C02381211106C0248121117C
:1033400003C02581222359F14115510541F17A012C
:103350008F01FC01D08CCE0101960E9482198981D7
:103360009A810E94D40DA8014E5F5F4F24E030E0A7
:103370006CE070E08D2D0E948115B7018D2D0E94AB
:1033800092150E94080D81E090E00F900F90DF9160
:10339000CF911F910F91FF90EF90DF90089580E003
:1033A000F3CFCF93C82FEEEFE80FE83068F4F0E0EA
:1033B000E452F64E0C94845BF519011A121A0B1A9A
:1033C0001D1A301A0F1A161A61EE81EA0E940718A8
:1033D00061EA81EA0E9434176EE180E00E940718DA
:1033E00060E280E00E94341708C060E880E80E9434
:1033F00034176EE180E00E940718C0935C2BCF91D8
:1034000008956EE188E10E94071868E188E10E9452
:10341000341760E8E6CF60E880E80E9434170E9425
:103420001818EBCF60E880E80E9434176EE188E15D
:103430000E94071868E188E1D5CF6FEF80E00E9415
:10344000071860E280E20E94341761EE80E40E9477
:10345000071860E480E40E9434170E940A18CDCF58
:103460006EE180E00E940718F8CF10925C2B6FEF9E
:1034700080E00E9407180E940A1888EC90E00E94E1
:10348000FA0F81E08093072B86E00C94D1190E94FB
:10349000371710925C2B6FEF80E00E9407180E9494
:1034A0000A1888EC90E00E94FA0F82E08093072BC4
:1034B00081E00E94D1190E940A1861E080E00E9418
:1034C000341786E990E00E94FA0F61E081E00C94E5
:1034D0003417CF93C82F80915C2B833019F083E091
:1034E0000E94D11960E08C2F0E94201821E00197E2
:1034F00009F420E0822FCF9108958EE190E00E94A0
:10350000FA0F8FE30E94691A882311F081E0089571
:103510008FE50E94691A8111F9CF10925E2B0895F0
:103520000C947D1A1F93CF93DF938F3130F0D1E04D
:103530008D2FDF91CF911F9108956036C0F391E8F0
:10354000960F97FFF4CF142FC62FD82F8FE30E942A
:10355000691A8111ECCF8FE50E94691A8111E7CFBA
:10356000123099F480E48D0F0E94691AD82F8111CE
:10357000DECFCF3F21F482E080935E2BD9CF8C2F1A
:103580000E94691A8111D3CFF6CF80E28D0F0E947D
:10359000691AD82F8111CBCFCF3F11F481E0ECCF46
:1035A0008C2F0E94691A8823C9F3C1CFAF92BF92B2
:1035B000CF92DF92EF92FF920F931F93CF938C01E4
:1035C000E62E80910B2B813030F0C1E0833020F06B
:1035D000C0E0833009F0C2E08091072B8230C9F44B
:1035E00084E00E94D119680110E000E0F12C57013D
:1035F00081E0A81AB1080E151F0514F5F601819196
:103600006F019091062B992311F0CC2321F060E0FB
:1036100006C089E0E6CF61E0A016B106C1F70E94BE
:1036200020180197E1F40F5F1F4FE5CF60E08DE0B8
:103630000E9420186091062B8AE00FC087E013C01B
:10364000CC2369F080910B2B8230A1F3833039F0C9
:10365000813061F76091062B8DE00E9420188091E7
:10366000072B823059F7CF911F910F91FF90EF9068
:10367000DF90CF90BF90AF900C94D119AF92BF92D2
:10368000CF92DF92EF92FF920F931F93CF93DF932E
:1036900000D000D0CDB7DEB77C01162FB42EA22EFD
:1036A00019821A821B829091412B092F07701C826C
:1036B00010925D2B8091062B811144C0611104C0D2
:1036C00011E0973009F010E08091072B8230E1F58E
:1036D00085E00E94D1190E940A18C02ED12C809139
:1036E0005D2B811186C084E10E94730F811133C06C
:1036F00012E08C81882349F08091052B882329F0E2
:103700006091102BC7010E949110173039F0809101
:10371000072B823009F073C00E94D11980915D2B74
:10372000811110925D2B812F2496CDBFDEBFDF91DA
:10373000CF911F910F91FF90EF90DF90CF90BF90AE
:10374000AF900895182FC0CF0E94181888E080937A
:103750005C2B11E0C0CFAE014C5F5F4F612FCE01FB
:1037600001960E944F178230910509F444C08330BE
:10377000910509F4BDCF019709F03FC06981C701E8
:103780000E949110112329F08C81882301F114E00B
:10379000B0CF8981BB2021F08A1119C015E0A9CFD3
:1037A000073018F5F601E952F44E0C94845BF51BD2
:1037B000F21BE11BE71BDE1BE51BEC1B8D3039F414
:1037C0008A818A3021F416E094CF8330E1F38A8134
:1037D0008B8389818A8383CF8330C9F78A818A303A
:1037E000B1F78B818D3099F7EECF8A3081F78A81DE
:1037F000F9CF11E07ECF13E07CCF18E07ACF87E0DD
:103800008BCF20E040E060E082E69BE20C943E1B20
:1038100080915C2B893039F487E00E94D1190E9495
:103820000A1881E0089580E0089510922929809176
:103830005C2B883029F487E00E94D11981E008953B
:1038400080E00895FB0101900020E9F73197AF0176
:10385000461B570BDC01ED91FC910280F381E02DBA
:1038600009948F929F92AF92BF92EF92FF920F9323
:103870001F93CF93DF93CDB7DEB7A197CDBFDEBF48
:103880007C01FA01CB0119A2223008F42AE08E0152
:103890000F5D1F4F822E912CB12CA12CBF01A501D1
:1038A00094010E94F05AF901CA016A30F4F4605D93
:1038B000D8016E938D01232B242B252B79F790E0D3
:1038C00080E0109721F0BD01C7010E94221CA19643
:1038D000CDBFDEBFDF91CF911F910F91FF90EF9091
:1038E000BF90AF909F908F900895695CE1CFCF9289
:1038F000DF92EF92FF920F931F93CF93DF936B01B1
:10390000770FEE08FF08F7FE1BC0EC016DE20E9486
:1039100091108C0144275527BA014C195D096E0995
:103920007F092AE0CE010E94311C800F911FDF9198
:10393000CF911F910F91FF90EF90DF90CF9008955E
:103940002AE0B701A601DF91CF911F910F91FF905F
:10395000EF90DF90CF900C94311CCF93DF9300D089
:10396000CDB7DEB762E773E18BE49AE20E9498106C
:103970008091B92C9091BA2C009711F48FEB9CE2B6
:10398000BE016F5F7F4F681B790B8BE49AE20E9448
:10399000771C0F900F90DF91CF910895462F50E044
:1039A00070E060E02AE00C94311C8F929F92AF92FD
:1039B000BF92CF92DF92EF92FF920F931F93CF931C
:1039C000DF937C018B014C0182E0880E911C570132
:1039D000E5E0AE0EB11CD0E0C0E0F40161914F0112
:1039E000C8010E94CE1C6C016EE2C8010E949110B9
:1039F0008C0D9D1DC80FD91F8A149B0471F7F70108
:103A00006581C8010E94CE1C8C0F9D1FDF91CF9154
:103A10001F910F91FF90EF90DF90CF90BF90AF90EC
:103A20009F908F9008959C01CB01B9010C94D51CF7
:103A30006CE47DEF0C94221C0F931F93CF93DF93C4
:103A4000EC010E94CE1C8C01CE010E94181D800F3B
:103A5000911FDF91CF911F910F9108950F931F93A5
:103A6000CF93DF93EC01AB0170E060E02AE00E94AD
:103A7000311C8C01CE010E94181D800F911FDF9117
:103A8000CF911F910F9108950F931F93CF93DF93C1
:103A9000EC010E94771C8C01CE010E94181D800F42
:103AA000911FDF91CF911F910F91089583E10E94A3
:103AB000730F61E070E0882311F070E060E082E64F
:103AC0009BE20C94441D0F931F93CF93DF93EC0163
:103AD0000E94131D8C01CE010E94181D800F911FA2
:103AE000DF91CF911F910F9108950F931F93CF9363
:103AF000DF93EC010E94221C8C01CE010E94181D54
:103B0000800F911FDF91CF911F910F9108950F9317
:103B10001F93CF93DF93EC01FB01448155816081BA
:103B20007181E881F9810280F381E02D09958C0192
:103B3000CE010E94181D800F911FDF91CF911F9120
:103B40000F9108950F931F93CF93DF93EC010E9481
:103B500098108C01CE010E94181D800F911FDF91DB
:103B6000CF911F910F91089564E872E182E69BE284
:103B70000C94A21D8FE50E94691A882351F0809150
:103B80002729882359F061E772E182E69BE20C94D1
:103B9000A21D10925E2B82E00C94D11908958FE340
:103BA0000E94691A882351F080912729882359F0AF
:103BB0006EE572E182E69BE20C94A21D10925E2BF0
:103BC00082E00C94D1190895CF9382E00E94D1191C
:103BD00084E190E00E94FA0F6EE188E10E940718EC
:103BE00068E188E10E94341760E980E00E943417A0
:103BF0000E94181884E190E00E94FA0FC0916804B6
:103C000082E00E94D1196C2F609582E69BE20E94AF
:103C10001C1D80912729882339F069EF7FE082E617
:103C20009BE2CF910C94A21DCF91089584E10E9454
:103C3000691A882351F080912729882349F069ED7A
:103C40007FE082E69BE20C94A21D82E00C94D119E5
:103C5000089585E09BE20E94191980912729882305
:103C600031F06AE576E082E69BE20C94A21D0895AD
:103C7000CF92DF92EF92FF920E9476106B017C014F
:103C800020EDC20E27E0D21EE11CF11C88EDA895A4
:103C900084BF8091000186608093000180910101C2
:103CA00081FDFCCF0E9476106C157D058E059F0569
:103CB000C8F380912729882351F06FEA75E082E6E6
:103CC0009BE2FF90EF90DF90CF900C94A21DFF90AD
:103CD000EF90DF90CF9008958091072B8230B1F460
:103CE00061E080E00E94341786E990E00E94FA0FBC
:103CF00061E081E00E94341780912729882331F008
:103D000063E575E082E69BE20C94A21D089541E014
:103D100060910A2B8091092B0E94921A882351F0FE
:103D200080912729882391F06AEF74E082E69BE274
:103D30000C94A21D84E00E94691A8111F1CF0E94A7
:103D4000901A8111EDCF82E00C94D11908956EEE96
:103D500072E0823031F060E073E0833011F46DED99
:103D600072E082E69BE20C94A21D6115710511F0D0
:103D70000C94221C90E080E008958091272991E026
:103D80008927809327296FE47DEF82E69BE20E94DA
:103D9000B51E809127296FE87DEF882311F063E835
:103DA0007DEF82E69BE20C94751D6CE57EEF82E66A
:103DB0009BE20C94B51EDC01FC0101900020E9F7A8
:103DC00031979E2F9A1B2A2FFD018E2F821B891758
:103DD00030F4819180538A30C0F380E0089581E00F
:103DE0000895CF93DF93CDB7DEB7C054D109CDBFCF
:103DF000DEBF66EB79E18BE49AE20E94A21D60913E
:103E0000032B7091042B40E450E0CE0101960E94F8
:103E1000E557BE016F5F7F4F8BE49AE20E94B51EAB
:103E200064EB79E18BE49AE20E949810C05CDF4F6A
:103E3000CDBFDEBFDF91CF9108950F931F93CF9336
:103E4000DF93CDB7DEB7C054D109CDBFDEBF6AE086
:103E50007EEF8BE49AE20E94751D6AE07EEF8BE4B0
:103E60009AE20E94751D8091022B10E005E08111FD
:103E700015C062EA79E18BE49AE20E94A21D6FE626
:103E800079E18BE49AE20E94A21DC05CDF4FCDBFB6
:103E9000DEBFDF91CF911F910F9108958091022B8A
:103EA000181798F7E091002BF091012B109FE00D6F
:103EB000F11D11246081718140E450E0CE01019632
:103EC0000E94E557BE016F5F7F4F8BE49AE20E942C
:103ED000751D1F5FE3CF0E941D1F0C94F11ECF9232
:103EE000DF92EF92FF920F931F93CF93DF93CDB7A3
:103EF000DEB76497CDBFDEBF6C0110E000E0F12CAF
:103F0000F801E858F94FE49023E12F1508F463C055
:103F10008F2D90E03AE3E31250C0E1E0F0E0EC0FC7
:103F2000FD1F8E0F9F1FFC011082C114D10439F0B8
:103F3000B601CE0101960E94B05C892B59F565E768
:103F400076E082E69BE20E949810BE016F5F7F4F91
:103F500082E69BE20E94B51E6AE382E69BE20E9433
:103F600091100F5F1F4FF801E858F94FF49062E786
:103F700076E082E69BE20E9498106F2D82E69BE23B
:103F80000E94911060E776E082E69BE20E94981022
:103F9000FF24FA940F5F1F4F003639E0130708F42F
:103FA000AFCF6496CDBFDEBFDF91CF911F910F9150
:103FB000FF90EF90DF90CF90089521E030E02C0F3C
:103FC0003D1F820F931FFC01E082F3942AE0E2126E
:103FD000E1CFF12CDFCFFFEFFF12F8CF6E2D82E69D
:103FE0009BE20E949110F2CFAF92BF92CF92DF92EC
:103FF000EF92FF920F931F93CF93DF9300D000D0E7
:10400000CDB7DEB78C016B017A018091032A83332F
:10401000E9F45B016801C40ED51EC016D10691F10A
:104020000E94AB148FE00E94B50D812F0E94B50D48
:10403000802F0E94B50D0F5F1F4F80E00E94B50DCD
:10404000F50181935F010E94A114E7CF843349F504
:104050000E94AB1419830A838F2D8F778B83EC8298
:1040600064E070E0CE0101960E94BF0DA70170E0F0
:1040700060E0C6010E94965CB701C6010E94BF0DB8
:104080000E94A114C7012496CDBFDEBFDF91CF915E
:104090001F910F91FF90EF90DF90CF90BF90AF9066
:1040A00008950E94AB140F3F110509F030F41982F6
:1040B0000A831B8263E070E0D5CF17FD0BC0198225
:1040C0000A8333E0169507953A95E1F7007E08607C
:1040D0000B83F0CFC80126E0969587952A95E1F7E6
:1040E000807E19830A830115104C18F480618B833C
:1040F000E1CF8861FCCF1F93CF93DF9300D0CDB782
:10410000DEB7182FCE0101960E94821989819A810B
:104110000E94D40D812F0E94731527E0129FF00199
:104120001124E554F64D22813381377041E050E08F
:10413000BE016F5F7F4F820F931F0E94F41F0E948A
:10414000080D89810F900F90DF91CF911F910895F5
:10415000FC01808D883040F4218D328D232B21F09D
:104160000E947B2090E008958FEF9FEF0895CF93FA
:10417000DF93FC012485283028F08FEF9FEFDF913B
:10418000CF910895EC010190F081E02D0084F1853C
:10419000E02D0995892B89F38C850E947B2090E086
:1041A000EECFCF93DF931F92CDB7DEB741E050E063
:1041B000BE016F5F7F4F0E94F41F89810F90DF91D6
:1041C000CF91089590E080E00C94D120CF93DF93BD
:1041D000C4E1D0E00E94E220882361F061E070E059
:1041E00080E090E00E9446102197A1F780E0DF91E7
:1041F000CF91089581E0FBCF1F93CF93DF9300D041
:104200001F92CDB7DEB780912128811139C160E3BB
:1042100072E080E090E00E9446108091092A8111AE
:1042200017C010920A2A10920B2A10920C2A109290
:104230000D2A10920E2A10920F2A1092102A109214
:10424000112A1092122A1092132A81E08093092ACF
:104250008091E3058C7F9091082A892B8093E30558
:1042600091118BC061E084E00E94DB0E61E086E08A
:104270000E94DB0E8091C10884608093C108809108
:10428000C00881628093C0089091432A8091442A9B
:104290009093C0088093C10880910028893208F06B
:1042A0007FC0E82FF0E0EC59F3402081263008F081
:1042B00077C090E2299F900111243C5F2C5F3F4F13
:1042C00020931E2830931F289FEF893228F4E82F6F
:1042D000F0E0E357F340908190931D28893218F461
:1042E00061E00E94DB0E0E94A114CE0101960E94A3
:1042F000821989819A810E94D40D84E38093032AD4
:1043000080E80E9460150E94E620882309F44BC0D3
:1043100088E00E9460150E94E220883009F043C0C6
:1043200080E10E9460150E94E2208031E1F580E08A
:104330000E9460150E94E220182F811134C08FE185
:1043400090E00E94D120833071F580E48093202892
:1043500042E06EE170E0812F0E94BC1542E06FE107
:1043600070E0812F0E94BC151F5F183089F70E94F2
:10437000080D81E0809321287CC0913039F461E000
:104380008EE00E94DB0E61E080E172CF923009F096
:1043900071CF61E08EE10E94DB0E61E080E268CFC8
:1043A00030E020E08BCF87E38093032A80E80E94EF
:1043B00060150E94E6208823F9F088E00E946015CD
:1043C0000E94E2208830C1F480E10E9460150E94C2
:1043D000E220182F803181F480E00E9460150E9455
:1043E000E220811109C089E390E00E94D12084304D
:1043F00019F410932028BBCF83E38093032A80E82D
:104400000E9460150E94E620882371F180E10E94DD
:1044100060150E94E220803139F582E10E9460152A
:104420000E94E220823101F580E00E9460150E9426
:10443000E220811119C084E08093202815E51B83B8
:1044400041E050E0BE016D5F7F4F8BE190E00E9444
:10445000B614198341E050E0BE016F5F7F4F8AE1DF
:1044600090E00E94B61483CF1092032A0E94080D98
:1044700080E02396CDBFDEBFDF91CF911F910895DD
:1044800081E0F7CFEF92FF921F93CF93DF93CDB7E9
:10449000DEB7C454D109CDBFDEBF7C01FB018281F0
:1044A0009381A481B58123968CAF9DAFAEAFBFAF92
:1044B000239711E023961FAF239723964CAD5DAD54
:1044C0006EAD7FAD239749AF5AAF6BAF7CAF8DA771
:1044D0009EA7AFA7B8AB18AB4DA55EA56FA578A9F1
:1044E0004B8F5C8F6D8F7E8F1CAF49AD5AAD6BAD1E
:1044F0007CAD49A35AA36BA37CA328E33DEF29839A
:104500003A834FEF4B834C834D831E822F83388732
:104510001E8F4B8D5C8D6D8D7E8D49875A876B8785
:104520007C871CA349A15AA16BA17CA14F87588B02
:10453000698B7A8B2B8B3C8B8D8B9E8BAF8BB88F43
:104540000E94FC20882369F1CE018D5B9F4F0E9461
:10455000821925968EAD9FAD25970E94D40D46E019
:1045600050E0B70189E090E00E94B614CE01459674
:104570000E942616CE0109960E943416CE0103969B
:104580000E942D160E94080D1A8B8F859889A98983
:10459000BA898093F62A9093F72AA093F82AB093C9
:1045A000F92ACC5BDF4FCDBFDEBFDF91CF911F91EA
:1045B000FF90EF9008952091202830E0322F22279D
:1045C000620F731F90E0982F8827860F971F0C9417
:1045D000D120CF93C82F462F61E070E00E94BC1518
:1045E00061E070E08C2F0E94DB228111F9CFCF9126
:1045F00008951F93CF93DF9300D0CDB7DEB7182F68
:10460000CE0101960E94821989819A810E94D40D5F
:1046100068E070E0812F0E94E9220E94080D0F904F
:104620000F90DF91CF911F9108951F93CF93DF9348
:1046300000D0CDB7DEB7182FCE0101960E948219A7
:1046400089819A810E94D40D60E170E0812F0E94DF
:10465000E9220E94080D0F900F90DF91CF911F91DA
:104660000895CF93DF93EC01888D883020F40E9469
:10467000152388E0888FDF91CF91089563E070E083
:104680000C94DB221F93CF93DF9300D0CDB7DEB71E
:10469000182FCE0101960E94821989819A810E9469
:1046A000D40D812F0E943E23182F0E94080D812FC8
:1046B0000F900F90DF91CF911F910895EF92FF928D
:1046C0000F931F93CF93DF937C018091032AD4E053
:1046D000833309F0D8E003EF19E2C0E0F80121913B
:1046E00031918F01F701848195812817390729F0CD
:1046F000CF5FDC13F3CF80E006C08C2F0E944223F3
:104700008431B1F781E0DF91CF911F910F91FF903C
:10471000EF900895CF93DF93EC018C858830D0F42F
:104720000E944223843189F0882379F0883169F02E
:1047300021E08C3159F4E881F9810084F185E02D84
:10474000CE01099521E0892B09F420E0822FDF9129
:10475000CF91089580E0FBCFCF92DF92EF92FF924E
:10476000CF93DF93EC018C85883068F40E94F922A6
:104770000E9476106B017C018C850E94422381117E
:1047800009C088E08C87DF91CF91FF90EF90DF9098
:10479000CF90089561E070E080E090E00E944610C4
:1047A0000E947610AB01BC014C195D096E097F09AE
:1047B0008D859E85B0E0A0E0481759076A077B0702
:1047C000D8F28C850E941523DCCF1F93CF93DF9303
:1047D00000D0CDB7DEB7FC01108DCE0101960E944E
:1047E000821989819A810E94D40D60E270E0812F44
:1047F0000E94E92262E070E0812F0E94DB2284FDAA
:1048000022C062E070E0812F0E94DB2283FF10C093
:1048100048E162E070E0812F0E94BC150E94080D03
:1048200080E090E00F900F90DF91CF911F9108955D
:104830000E94080DCE0101960E94821989819A81F9
:104840000E94D40DD7CF40E162E070E0812F0E943A
:10485000BC150E94080D81E0E4CFDA01E091202828
:10486000F0E0FE2FEE27E60FF71F90E0982F882745
:10487000A901BD018E0F9F1F0C94F41F8F929F9270
:10488000AF92BF92CF92DF92EF92FF920F931F935E
:10489000CF93DF93CDB7DEB76097CDBFDEBF7C018E
:1048A0009091032A992371F108E0933309F404E00D
:1048B0005B01CE0101960E94821989819A810E9432
:1048C000D40D9E012F5F3F4F6901490110E0812FF8
:1048D0000E943E23F40181934F018823D9F01F5F8A
:1048E0000113F5CF00E0F60181916F018D3161F088
:1048F000883151F08A51823038F00F5F1013F3CFB6
:104900000E94080D18E08AC060E170E0802F0E94CC
:10491000E922102FC12ED12CF601EE0FFF1FED5012
:10492000F64D108211828AEF90E00E94FA0F42E861
:1049300070E060E0812F0E94BC154FEF62E070E0F4
:10494000812F0E94BC15B501A114B10491F480918E
:1049500003289091042801968115F0EC9F0708F434
:104960006EC080930328909304286091032870916F
:104970000428812F0E94A71586E0EAECFAEFDE01F9
:10498000199601900D928A95E1F7F70183818F774F
:104990008C8784818D8785818E87A7014E5F5F4FCD
:1049A00024E030E06CE070E0812F0E948115B501B9
:1049B000812F0E94921526E030E0AE01475F5F4FE5
:1049C00066E070E0812F0E94811561E070E0812F28
:1049D0000E94E92227E02C9DC0012D9D900D1124FD
:1049E0009C012554364D7901F9011082118222E093
:1049F00030E0AE01415F5F4F68E270E0812F0E94BE
:104A00002D248F859889982789279827F7018283F5
:104A100093831682148215820E94080D812F60965E
:104A2000CDBFDEBFDF91CF911F910F91FF90EF902F
:104A3000DF90CF90BF90AF909F908F90089580E0CF
:104A400090EC8FCFCF92DF92EF92FF920F931F9354
:104A5000CF93DF93CDB7DEB72697CDBFDEBF8C01F6
:104A60006B017A01FC01808D883010F40E941523BF
:104A700088E39DEF89839A83F60182819381A481E3
:104A8000B5818B839C83AD83BE83B701CE01019634
:104A90000E943E24F801808F883088F4E486F586F1
:104AA000118E128E81E02696CDBFDEBFDF91CF91B1
:104AB0001F910F91FF90EF90DF90CF90089580E0CD
:104AC000F2CF7F928F929F92AF92BF92CF92DF925E
:104AD000EF92FF920F931F93CF93DF9300D0CDB748
:104AE000DEB7782E8B014A01590122E030E0AE0199
:104AF0004F5F5F4F64E270E00E942D24E980FA80EE
:104B0000FE24EF24FE24E00EF11E97013770409141
:104B1000032A072D10E0433309F042C0085F1F4FFE
:104B2000102F0027110F110F110FC901800F911FB6
:104B30004733C9F1A9014A0D5B1D4130584098F136
:104B400060E078E06B01C21AD30AA601B4010E94AA
:104B5000B614A5014C195D09B4016C0D7D1DC80189
:104B60000E94B614EA0CFB1CF982EA8222E030E0D3
:104B7000AE014F5F5F4F64E270E0872D0E948115A8
:104B80000F900F90DF91CF911F910F91FF90EF90B9
:104B9000DF90CF90BF90AF909F908F907F900895BF
:104BA000005F1F4FBDCFA501B401DACFEF92FF9296
:104BB0001F93CF93DF9300D0CDB7DEB7182F22E03D
:104BC00030E0AE014F5F5F4F60E270E00E942D2445
:104BD000E980FA80FE24EF24FE2422E030E0AE01DA
:104BE0004F5F5F4F60E270E0812F0E942D2489812A
:104BF0009A81982789279827E816F90689F487E08B
:104C0000189FF0011124E554F64DE482F582C701A6
:104C10000F900F90DF91CF911F91FF90EF9008952B
:104C20007C01DBCFFF920F931F93CF93DF9300D0D4
:104C3000CDB7DEB7F82ECE0101960E948219898188
:104C40009A810E94D40D8F2D0E94D6258C018F2D24
:104C50000E943E23F82E0E94080D87E1F81629F0E5
:104C60008CE1F81611F010E000E0C8010F900F90F1
:104C7000DF91CF911F910F91FF900895CF93DF9314
:104C8000EC018C85883060F40E944223873111F05A
:104C90008C3131F48C850E9412268115984088F35E
:104CA000DF91CF910895FC0124A1283018F4489693
:104CB0000C943E260895FC018485883010F40C94F1
:104CC000122690E080E00895AF92BF92CF92DF92DB
:104CD000EF92FF920F931F93CF93DF9300D0CDB746
:104CE000DEB7F82E6B018A014130584010F000E029
:104CF00018E0CE0101960E94821989819A810E9452
:104D0000D40D8F2D0E94D6255C018F2D0E943E234D
:104D1000E82E0E94080D87E1E81619F08CE1E812F0
:104D200035C0A016B10628F3CE0101960E94821963
:104D300089819A810E94D40D9801A60170E060E0FB
:104D40008F2D0E94612560E270E08F2D0E94E92284
:104D500062E070E08F2D0E94DB2284FD25C08F2D44
:104D60000E943E23811115C00E94080D10E000E052
:104D7000C8010F900F90DF91CF911F910F91FF907D
:104D8000EF90DF90CF90BF90AF90089510E000E0DB
:104D9000CBCF0E94080DCE0101960E948219898115
:104DA0009A810E94D40DD4CF40E162E070E08F2D53
:104DB0000E94BC150E94080DDBCF0F931F93CF9369
:104DC000DF938C01EA01FC018485883048F40E945D
:104DD0006426892B39F481E090E0F8018283938383
:104DE000D0E0C0E0CE01DF91CF911F910F910895E7
:104DF0007F928F929F92AF92BF92CF92DF92EF926B
:104E0000FF920F931F93CF93DF9300D0CDB7DEB700
:104E10007C014B01742EC52EFC01A688B788D08C6E
:104E2000CE0101960E94821989819A810E94D40D37
:104E30008D2D0E94D625072D1C2D8017910708F473
:104E40008C019801A401B5018D2D0E9461250E945D
:104E5000080DF70186899789800F911F868B978BA4
:104E6000C8010F900F90DF91CF911F910F91FF908C
:104E7000EF90DF90CF90BF90AF909F908F907F90FA
:104E80000895FF920F931F93CF93DF9300D0CDB778
:104E9000DEB7F82E22E030E0AE014F5F5F4F66E2F2
:104EA00070E00E942D2409811A8110270127102704
:104EB00022E030E0AE014F5F5F4F66E270E08F2D81
:104EC0000E942D2489819A8198278927982708177D
:104ED000190749F4C8010F900F90DF91CF911F91EE
:104EE0000F91FF9008958C01E3CFEF92FF920F9303
:104EF0001F93CF93DF9300D0CDB7DEB7182F87E095
:104F0000189F90011124F901E554F64D7F0180812D
:104F100091810097B1F4CE0101960E948219898196
:104F20009A810E94D40D812F0E9441278C010E94FA
:104F3000080DF70186819801281B3109C9012083DA
:104F400031830F900F90DF91CF911F910F91FF90C0
:104F5000EF9008959F92AF92BF92CF92DF92EF921F
:104F6000FF920F931F93CF93DF93EC017B0180910E
:104F7000032A811121C01A821B8288EE93E0A0E0EF
:104F8000B0E08C839D83AE83BF8386E09DEF8883F2
:104F9000998388E08C8788EE93E08D879E87CE0189
:104FA000DF91CF911F910F91FF90EF90DF90CF9005
:104FB000BF90AF909F90089534E0932E833311F00B
:104FC00028E0922E83EFC82E89E2D82E10E098E0D8
:104FD000B92EA12CD6012D913D916D01F70184814F
:104FE00095812817390791F4812F0E944223082FB9
:104FF000873111F08C3139F5812F0E947527892B6B
:1050000059F50C3119F4812F0E94F9221F5F91127A
:10501000E1CFA11008C0D701ED91FC910084F1858A
:10502000E02DC70109951A821B8288EE93E0A0E06B
:10503000B0E08C839D83AE83BF8386E09DEF888341
:105040009983BC86A8CF843149F08111DFCFF60166
:10505000329710821182DACFB12ED8CFAA24A3942E
:10506000D5CF8F929F92AF92BF92CF92DF92EF9265
:10507000FF920F931F93CF93DF93CDB7DEB72F9798
:10508000CDBFDEBF5C014B017A018091032A8823EA
:10509000B1F104E0833309F008E0B501CE010196D7
:1050A0000E94AA2783EFC82E89E2D82E10E0F601CD
:1050B000219131916F01F50184819581281739077C
:1050C00051F4812F0E944223873129F4A701B401B2
:1050D000812F0E9464261F5F0113E9CFC7012F961D
:1050E000CDBFDEBFDF91CF911F910F91FF90EF9069
:1050F000DF90CF90BF90AF909F908F900895F12C4C
:10510000E12CECCFEF92FF920F931F93CF93DF939D
:10511000CDB7DEB72F97CDBFDEBF8C017C0188E114
:10512000E80EF11CF80184A1883030F5C7010E9417
:105130008A2381111DC0C7010E94AC231B821C82DF
:1051400088EE93E0A0E0B0E08D839E83AF83B887C4
:1051500086E09DEF89839A8388E08D8788EE93E0CF
:105160008E879F87BE016F5F7F4FC7010E948516A4
:10517000F80184A1883068F0F80166897789CE014A
:1051800001960E94AA27BE016F5F7F4FC7010E9450
:105190008516F80184A1883038F40E947610F80151
:1051A00065A776A787A790AB2F96CDBFDEBFDF910F
:1051B000CF911F910F91FF90EF900895CF93DF93C0
:1051C000EC010E948228CE0148962CA1283020F4C0
:1051D000DF91CF910C94B7208FEF9FEFDF91CF91AC
:1051E0000895FC018485883010F40C94752790E0B4
:1051F00080E00895EF92FF920F931F93CF93DF9378
:10520000CDB7DEB72F97CDBFDEBFFC01268937892A
:10521000232B61F490E080E02F96CDBFDEBFDF91BD
:10522000CF911F910F91FF90EF9008958C010E94F4
:1052300082287801F8E1EF0EF11CF80184A1883092
:1052400060F066897789CE0101960E94AA27BE0187
:105250006F5F7F4FC7010E948516F80184A18830D7
:10526000C8F6C7010E94F128D7CF4F925F927F9274
:105270008F929F92AF92BF92CF92DF92EF92FF9266
:105280000F931F93CF93DF9300D0CDB7DEB7782E67
:105290006B014A01A82EB12C27E0829FC001112486
:1052A000FC01E554F64D7F0100811181CE0101968C
:1052B0000E94821989819A810E94D40D08151905CE
:1052C00054F4872D0E944127F70126818C01021B8F
:1052D0001109008311830115110529F5872D0E94FD
:1052E0003E23843159F0882349F001E010E08C31ED
:1052F00011F410E000E01195019511090E94080DCC
:10530000C8010F900F90DF91CF911F910F91FF90E7
:10531000EF90DF90CF90BF90AF909F908F907F9055
:105320005F904F900895801691060CF4840187E0F9
:105330008A9DF0018B9DF00D1124E554F64DE2801D
:10534000F380C114D10451F12701F7E05F22872DCA
:105350000E947315840D951D2091032A273309F4AB
:1053600053C09801240D351D2130384008F44CC03D
:1053700020E038E0490184189508A401B6010E9494
:10538000F41F2601480C591C6801C818D908872D3C
:105390000E947315A601B2010E94F41FE00EF11ED7
:1053A00087E08A9DF0018B9DF00D1124E554F64DA8
:1053B000E282F38220813181201B310B20833183F3
:1053C0008681800F912F911D8A3F910510F4232B28
:1053D000F1F487E08A9DF0018B9DF00D1124E554D6
:1053E000F64D1682F982EA8222E030E0AE014F5F8C
:1053F0005F4F68E270E0872D0E94811560E470E0E5
:10540000872D0E94E9227ACFA801B601C5CF8683F5
:1054100075CFCF93DF93FC01218D328D211531059E
:1054200029F48FEF9FEFDF91CF910895EC01808DEC
:105430004217530708F0A9010E94352918161906CA
:1054400084F7298D3A8D281B390B298F3A8FEBCFA2
:105450000F931F93CF93DF931F92CDB7DEB7FC015D
:10546000218D328D232B41F48FEF9FEF0F90DF9131
:10547000CF911F910F9108958C0141E050E0BE0142
:105480006F5F7F4FFC01808D0E9435291816190629
:105490005CF7F801818D928D0197818F928F8981C0
:1054A00090E0E4CFCF93DF931F92CDB7DEB741E01A
:1054B00050E0BE016F5F7F4FFC0184850E9435295B
:1054C0001816190634F4898190E00F90DF91CF917E
:1054D00008958FEF9FEFF9CFCF93DF93EC010E94F8
:1054E0008228CE0148962CA1283020F4DF91CF915C
:1054F0000C94522A8FEF9FEFDF91CF910895FC011A
:105500008485883010F40C94352990E080E008956B
:105510008F929F92BF92CF92DF92EF92FF920F9362
:105520001F93CF93DF93CDB7DEB72A97CDBFDEBFF2
:105530009091032A992379F108E0933309F404E068
:105540006B01B82ECE0101960E94821989819A8141
:105550000E94D40D9E012F5F3F4F7901490110E059
:10556000812F0E943E23F40181934F018823D9F0BB
:105570001F5F0113F5CF00E0F70191917F019D318D
:1055800061F0983151F09A51923038F00F5F10135A
:10559000F3CF0E94080D18E060C060E170E0802F3A
:1055A0000E94E922102FE12EF12CF701EE0FFF1FD0
:1055B000ED50F64D108211828AEF90E00E94FA0FB2
:1055C0004B2D70E060E0812F0E94BC154FEF62E030
:1055D00070E0812F0E94BC15B601CD2891F4809116
:1055E00003289091042801968115F0EC9F0708F498
:1055F00044C08093032890930428609103287091FD
:105600000428812F0E94A71561E070E0812F0E947D
:10561000E92227E02E9DC0012F9D900D11249C01B1
:105620002554364D7901F9011082118222E030E0D3
:10563000AE01475F5F4F68E270E0812F0E942D242A
:1056400089859A85982789279827F70182839383EC
:105650001682148215820E94080D812F2A96CDBFD2
:10566000DEBFDF91CF911F910F91FF90EF90DF9000
:10567000CF90BF909F908F90089580E090ECB9CF2D
:105680000F931F93CF93DF93EC018B01888D8830AC
:1056900010F40E941523B80182E00E94882A888FA6
:1056A000883050F40C871D87198E1A8E81E0DF91A7
:1056B000CF911F910F91089580E0F9CFEF92FF9263
:1056C0001F93CF93DF9300D0CDB7DEB77C01FC01F1
:1056D0006481758181E20E94882A182F883090F4B5
:1056E000CE0101960E94821989819A810E94D40D6F
:1056F000812F0E943E23833169F00E94080D812F83
:105700000E94F9220F900F90DF91CF911F91FF908F
:10571000EF90089562E070E0812F0E94E9220E94DC
:10572000080DF70184819581E12FF0E0EE0FFF1F56
:10573000ED50F64D80839183E5CFAF92BF92CF922B
:10574000DF92EF92FF920F931F93CF93DF9300D0DE
:10575000CDB7DEB78C016B015A01FC01848588301E
:1057600058F40E944223882321F0F80184850E9486
:10577000F92288E0F8018487F60182819381A4816F
:10578000B5810097A105B10579F490E080E00F9014
:105790000F90DF91CF911F910F91FF90EF90DF90CD
:1057A000CF90BF90AF9008958F3F9F4FAF4FBF4FA7
:1057B00061F370E060E081E20E94882AF82EF8012F
:1057C0008487F7E0F81708F3CE0101960E9482194A
:1057D00089819A810E94D40DA6014E5F5F4F24E01B
:1057E00030E06CE070E08F2D0E948115B5018F2DA7
:1057F0000E94921564E070E08F2D0E94E9220E94C1
:10580000080D0E9476106B017C01F80184850E94CE
:105810004223873129F18C3119F1882309F4B5CF5E
:105820000E947610AB01BC014C195D096E097F091D
:10583000F80185859685B0E0A0E084179507A60756
:10584000B70738F061E070E080E090E00E94461019
:10585000DCCF84850E94152388E0F801848795CFEA
:1058600081E090E094CF0F931F93CF93DF9300D00C
:10587000CDB7DEB7FC01248510E000E02830D8F475
:105880008C01CE0101960E94821989819A810E9421
:10589000D40D22E030E0AE014F5F5F4F60E170E079
:1058A000F80184850E942D2409811A81102701277F
:1058B00010270E94080DC8010F900F90DF91CF9123
:1058C0001F910F9108950F931F93CF93DF9300D0F3
:1058D000CDB7DEB7FC01248510E000E02830D8F415
:1058E0008C01CE0101960E94821989819A810E94C1
:1058F000D40D22E030E0AE014F5F5F4F64E070E016
:10590000F80184850E942D2409811A81102701271E
:1059100010270E94080DC8010F900F90DF91CF91C2
:105920001F910F9108950F931F93CF93DF9300D092
:10593000CDB7DEB78C0188E39DEFF80180839183BA
:105940001282138214821582CE0101960E9482195E
:1059500089819A810E94D40DB8016E5F7F4F44E027
:1059600050E08FE090E00E94F41F0E94080DC801F3
:105970000F900F90DF91CF911F910F9108950F938A
:105980001F93CF93DF93CDB7DEB7C251D240CDBFC7
:10599000DEBF9B018A01CD5FDD4F18821982C350A3
:1059A000D2404AEB5CEFCF5FDD4F48835983C15053
:1059B000D240CB5FDD4F88839983C550D240C55F0D
:1059C000DD4F18821982CB50D240CE010196C95FBB
:1059D000DD4F88839983C750D24080E092E0C75F53
:1059E000DD4F88839983C950D240672B09F453C097
:1059F00069E57DEFC9010E94B05C892B09F04BC0BD
:105A00006BE179E1CE018F5F9D4F0E9498106CECA5
:105A100077E1CE018F5F9D4F0E949810B801CE01B3
:105A20008F5F9D4F0E94771C6FEB77E1CE018F5FF8
:105A30009D4F0E94981069E877E1CE018F5F9D4FDE
:105A40000E949810CE01835F9D4F0E94932CBE014F
:105A5000635F7D4FCE018F5F9D4F0E94131D64E8F1
:105A600077E1CE018F5F9D4F0E94981063E777E149
:105A7000CE018F5F9D4F0E949810CE018F5F9D4F8A
:105A80000E94ED13CE5EDD4FCDBFDEBFDF91CF9123
:105A90001F910F91089567E579E1EACF25E0FC01B8
:105AA00011922A95E9F76BEF70E182E69BE20C9484
:105AB000A21DEDE2F9E280E8DF011D928A95E9F787
:105AC0001092AD290895DC0188E39DEF8D939D939D
:105AD00084E0FB0101900D928A95E1F70895EF9221
:105AE000FF920F931F93CF93DF9300D000D0CDB7D9
:105AF000DEB78C017B01FB0184858830A0F088E350
:105B00009DEFF801808391831282138214821582A3
:105B1000C8012496CDBFDEBFDF91CF911F910F91B9
:105B2000FF90EF900895CE0101960E94821989811D
:105B30009A810E94D40D24E030E0AE014F5F5F4FA8
:105B40006CE070E0F70184850E942D240E94080D0E
:105B5000BE016F5F7F4FC8010E94632DD9CF7F9236
:105B60008F929F92AF92BF92CF92DF92EF92FF926D
:105B70000F931F93CF93DF93CDB7DEB7A697CDBF1B
:105B8000DEBF8C01762E942E852E20E2A22ECE0131
:105B900001967C01DC01EA2D1D92EA95E9F7680186
:105BA000F3E4CF0ED11C88E39DEF89A39AA38FEF76
:105BB0008BA38CA38DA38EA343E450E0BE016F5D45
:105BC0007F4FC6010E948819019609F4BFC081E089
:105BD00089838A8386E0B82EBB821C82D801149602
:105BE0006D917D918D919C9117970E948A5B6D8339
:105BF0007E838F83988789869A8680E890E08B875A
:105C00009C874CE150E0B701C6010E94F826FE01D6
:105C100037968AE1DF011D928A95E9F74801B8E0DD
:105C20008B0E911CF401D70101900D92BA94E1F70B
:105C300040E150E0B701C6010E94F826F701119239
:105C4000AA94E9F796E0A92EB12C40E250E0B70102
:105C5000C6010E94F826F1E0AF1AB108B1F783E659
:105C6000898392E89A8393E59B838C8385E38D8374
:105C700081E08E837F829DE3988797E099878A876A
:105C800086E0F401DE011B9601900D928A95E1F702
:105C90008CE0898B8A8B6BE57DEFCE0143960E9469
:105CA000B95CD8011B966C91CE0149960E94C40E36
:105CB000F8016485CE014B960E94C40ED8011D9652
:105CC0006C91CE014D960E94C40E4EE150E0B7019A
:105CD000C6010E94F826B3E07B121EC082E38983CE
