:100200000C94E50B0C940D0C0C940D0C0C940D0C33
:100210000C940D0C0C940D0C0C940D0C0C940D0CFA
:100220000C940D0C0C940D0C0C940D0C0C940D0CEA
:100230000C940D0C0C940D0C0C9414460C94B746B5
:100240000C940D0C0C94E6450C94C0450C940D0CCC
:100250000C940D0C0C940D0C0C940D0C0C940D0CBA
:100260000C940D0C0C9498450C940D0C0C940D0CE6
:100270000C940D0C0C940D0C0C940D0C0C940D0C9A
:100280000C940D0C0C940D0C0C940D0C0C940D0C8A
:100290000C940D0C0C940D0C0C940D0C0C940D0C7A
:1002A00000000000000000002B2B6164647220330A
:1002B0000A2B2B6175746F20300A4D330A002B2BEB
:1002C0006164647220390A2B2B6175746F20320AC5
:1002D0002A5253540A3A66756E632027766F6C74FF
:1002E0003A616327003F202D204D656E7500312057
:1002F0002D205365742049502061646472657373C6
:10030000004552524F52202D20436F6D6D616E6437
:1003100020627566666572206F766572666C6F77AF
:1003200021005472616E736D6974206661696C6539
:10033000642100496E76616C696420706172616D40
:1003400065746572004D697373696E6720706172C0
:10035000616D657465720020616E64200056616C89
:1003600069642072616E67652069732062657477C5
:1003700065656E2000756E7365740053454320619A
:100380006464726573732073657420746F3A20001F
:1003900050524920616464726573732073657420E0
:1003A000746F3A200043616E6E6F742061646472F2
:1003B0006573732074686520636F6E74726F6C6C04
:1003C00065722100206D696C6C697365636F6E6482
:1003D0007300536574205B726561645F746D6F5F59
:1003E0006D735D20746F3A200053657420454F5340
:1003F00020746F3A200053657420454F4920617383
:1004000073657274696F6E3A2000496E7465726626
:10041000616365206D6F64652073657420746F3A45
:100420002000417070656E64696E67206F662045BC
:100430004F54206368617261637465723A200045AD
:100440004F542073657420746F20415343494920F1
:100450006368617261637465723A20004175746FFC
:10046000206D6F64653A200020202020202020206D
:10047000202761646472657373656420746F2074EF
:10048000616C6B20627574206E6F7468696E672092
:10049000746F2073617927206572726F72730057D1
:1004A00041524E494E473A206175746F6D6F6465D5
:1004B000204F4E2063616E20636175736520736FFA
:1004C0006D65206465766963657320746F20676568
:1004D0006E65726174650041523438382047504966
:1004E0004220636F6E74726F6C6C65722C2076653F
:1004F000722E20302E35332E33342C2032362F31CD
:10050000322F32303235004152343838204750498A
:100510004220636F6E74726F6C6C65722C2076650E
:10052000722E20302E35332E33342C2032362F319C
:10053000322F3230323500526561645E4F4B0046D7
:1005400061696C656420746F2073656E6420534428
:1005500043004661696C656420746F2073656E6446
:10056000204C4C4F21004661696C656420746F20FB
:1005700073656E6420756E6976657273616C204C6C
:100580004C4F2E004661696C656420746F20736562
:100590006E64204C4F432100494643207369676EC7
:1005A000616C20617373657274656420666F72207C
:1005B000313530206D6963726F7365636F6E64737C
:1005C0000047726F75702074726967676572206387
:1005D0006F6D706C657465642E004661696C65644E
:1005E00020746F207472696767657220646576692C
:1005F000636521005265736574204641494C45444A
:100600002E0053657269616C20706F6C6C20636F93
:100610006D706C657465642E004661696C6564205C
:10062000746F207265747269657665207374617485
:10063000757320627974652066726F6D20005D208D
:1006400066726F6D206465766963652061742061F0
:100650006464726573733A200052656365697665F8
:1006600064207374617475732062797465205B0013
:100670002C005352513A0053657269616C20706FBF
:100680006C6C206F6620616C6C20646576696365B4
:1006900073207265717565737465642E2E2E005318
:1006A000657474696E67732073617665642E004C9F
:1006B0004F4E3A20002B2B000A457874656E646516
:1006C0006420637573746F6D20636F6D6D616E640C
:1006D000733A0A6173706F6C6C3A095365726961A1
:1006E0006C20706F6C6C20616C6C20696E7374721E
:1006F000756D656E74732028616C6961733A202B87
:100700002B73706F6C6C20616C6C290A64636C3A9B
:100710000953656E6420756E6164647265737365F8
:10072000642028616C6C29206465766963652063A8
:100730006C65617220205B706F776572206F6E2030
:1007400072657365745D2028697320746865207212
:1007500073743F290A64656661756C743A09536560
:100760007420636F6E66696775726174696F6E205D
:10077000746F20636F6E74726F6C6C657220646549
:100780006661756C742073657474696E67730A6949
:10079000643A0953686F7720696E746572666163A5
:1007A0006520494420696E666F726D6174696F6E71
:1007B000202D2073656520616C736F3A2027696472
:1007C000206E616D65273B2027696420736572691F
:1007D000616C273B202769642076657273747227E9
:1007E0000A6964206E616D653A0953686F772F530B
:1007F000657420746865206E616D65206F66207475
:10080000686520696E746572666163650A69642053
:1008100073657269616C3A0953686F772F53657419
:10082000207468652073657269616C206E756D62F5
:100830006572206F662074686520696E74657266E3
:100840006163650A6964207665727374723A09534C
:10085000686F772F536574207468652076657273AE
:10086000696F6E20737472696E672073656E742091
:10087000696E207265706C7920746F202B2B766501
:100880007220652E672E2022475049422D55534233
:1008900022292E204D6178203437206368617273DD
:1008A0002C20657863657373207472756E63617450
:1008B00065642E0A69646E3A09456E61626C652F43
:1008C00044697361626C65207265706C7920746F25
:1008D000202A69646E3F202864697361626C6564D4
:1008E0002062792064656661756C74290A6D6163A4
:1008F000726F3A0952756E2061206D6163726F20CC
:10090000286966206D6163726F20737570706F72F5
:100910007420697320636F6D70696C6564290A6661
:100920006E646C3A0946696E64206C6973746E6516
:1009300072730A70706F6C6C3A09436F6E64756302
:1009400074206120706172616C6C656C20706F6CDA
:100950006C0A72656E3A09417373657274206F7226
:1009600020556E61737365727420746865205245FA
:100970004E207369676E616C0A7265706561743AC6
:1009800009526570656174206120676976656E2023
:10099000636F6D6D616E6420616E64207265747545
:1009A000726E20726573756C740A7365637265612B
:1009B000643A09526561642066726F6D206120732C
:1009C00065636F6E646172792061646472657373CC
:1009D0000A73656373656E643A0953656E642064D7
:1009E000617461206F7220636F6D6D616E6420743D
:1009F0006F2061207365636F6E646172792061643A
:100A000064726573730A736574767374723A094419
:100A1000455052454341544544202D20736565207F
:100A20006964207665727374720A73727161757489
:100A30006F3A094175746F6D61746963616C6C79AB
:100A400020636F6E647563742073657269616C20D6
:100A5000706F6C6C207768656E20535251206973FB
:100A60002061737365727465640A7463743A095320
:100A700069676E616C2072656D6F74652064657660
:100A800069636520746F2074616B6520636F6E7499
:100A9000726F6C0A746F6E3A0950757420636F6ED2
:100AA00074726F6C6C657220696E2074616C6B2D52
:100AB0006F6E6C79206D6F6465202873656E64209D
:100AC00064617461206F6E6C79290A756E6C3A09E5
:100AD000556E6C697374656E207468652047504963
:100AE00042206275730A756E743A09556E74616CB2
:100AF0006B207468652047504942206275737665A3
:100B000072626F73653A09566572626F7365202869
:100B100068756D616E207265616461626C65292023
:100B20006D6F64650A78646961673A09427573207C
:100B3000646961676E6F7374696373202873656598
:100B40002074686520646F63290A000A50726F6C14
:100B50006F67697820436F6D70617469626C65209E
:100B6000436F6D6D616E64733A0A616464723A0931
:100B7000446973706C61792F73657420646576695C
:100B8000636520616464726573730A6175746F3A9A
:100B9000094175746F6D61746963616C6C79207261
:100BA0006571756573742074616C6B20616E64206F
:100BB0007265616420726573706F6E73650A636C31
:100BC000723A0953656E642053656C65637465649D
:100BD0002044657669636520436C65617220746F9B
:100BE0002063757272656E742047504942206164BB
:100BF00064726573730A656F693A09456E61626C68
:100C0000652F64697361626C6520617373657274CA
:100C1000696F6E206F6620454F49207369676E616A
:100C20006C0A656F723A0953686F77206F72207390
:100C3000657420656E64206F6620726563656976F1
:100C400065206368617261637465722873290A653F
:100C50006F733A095370656369667920475049425A
:100C6000207465726D696E6174696F6E206368616E
:100C70007261637465720A656F745F636861723A6A
:100C800009536574206368617261637465722074CE
:100C90006F20617070656E6420746F205553422020
:100CA0006F7574707574207768656E20454F542099
:100CB000656E61626C65640A656F745F656E616222
:100CC0006C653A09456E61626C652F4469736162B7
:100CD0006C6520617070656E64696E672075736500
:100CE0007220737065636966696564206368617208
:100CF000616374657220746F20555342206F757460
:100D0000707574206F6E20454F492064657465636B
:100D100074696F6E0A68656C703A0954686973206B
:100D20006D6573736167650A6966633A0941737338
:100D300065727420494643207369676E616C206652
:100D40006F7220313530206D6973636F7365636F27
:100D50006E6473202D206D616B65204152343838EC
:100D600020636F6E74726F6C6C657220696E2063A5
:100D700068617267650A6C6C6F3A094C6F63616CED
:100D8000206C6F636B6F7574202D206469736162D2
:100D90006C652066726F6E742070616E656C206F7A
:100DA0007065726174696F6E206F6E20696E737406
:100DB00072756D656E740A6C6F633A09456E616297
:100DC0006C652066726F6E742070616E656C206F4A
:100DD0007065726174696F6E206F6E20696E7374D6
:100DE00072756D656E740A6C6F6E3A095075742079
:100DF000636F6E74726F6C6C657220696E206C69C3
:100E00007374656E2D6F6E6C79206D6F646520282C
:100E10006C697374656E20746F20616C6C207472E1
:100E20006166666963290A6D6F64653A0953657482
:100E30002074686520696E74657266616365206DF3
:100E40006F64652028313D636F6E74726F6C6C65E2
:100E5000722F303D646576696365290A7265616445
:100E60003A095265616420646174612066726F6D35
:100E700020696E737472756D656E740A7265616453
:100E80005F746D6F5F6D733A0952656164207469B8
:100E90006D656F757420737065636966696564203C
:100EA0006265747765656E2031202D2033303030D7
:100EB000206D696C6C697365636F6E64730A72731D
:100EC000743A0952657365742074686520636F6EA7
:100ED00074726F6C6C65720A736176656366673AEB
:100EE000095361766520636F6E6669677261746924
:100EF0006F6E0A73706F6C6C3A0953657269616C3E
:100F000020706F6C6C207468652061646472657316
:100F100073656420686F7374206F7220616C6C203D
:100F2000696E737472756D656E74730A7372713A5B
:100F30000952657475726E20737461747573206FD5
:100F40006620737271207369676E616C2028312D81
:100F50007372712061737365727465642F302D73C1
:100F60007271206E6F742061737365727465642989
:100F70000A7374617475733A0953657420746865F3
:100F800020737461747573206279746520746F20A6
:100F900062652072657475726E6564206F6E206282
:100FA00065696E6720706F6C6C6564202862697477
:100FB0002036203D205251532C20692E652053525B
:100FC00051206173736572746564290A7472673A9B
:100FD0000953656E64207472696767657220746F67
:100FE0002073656C65637465642064657669636508
:100FF000732028757020746F20313520616464720D
:101000006573736573290A7665723A09446973706A
:101010006C6179206669726D7761726520766572A0
:1010200073696F6E0A0053656E64696E672044438E
:101030004C206661696C656400454550524F4D20F7
:10104000657261736564210053657420454F5220B9
:10105000746F3A2000506172616C6C656C20706F27
:101060006C6C20636F6D706C657465642E00524506
:101070004E3A200050524F4D3A20004F4646004F06
:101080004E206275666665726564004F4E20756E0F
:10109000627566666572656400544F4E3A20004D75
:1010A000697373696E6720706172616D65746572D2
:1010B00073004D697373696E6720706172616D654D
:1010C00074657200537769746368656420746F2077
:1010D000646576696365206D6F64652E00207375A5
:1010E000636365656465642E00206661696C656490
:1010F000210053656E64696E672054435420746FF9
:10110000206465766963652061742061646472653A
:101110007373200054686174206973206D792061B5
:101120006464726573732120506C6561736520700F
:10113000726F7669646520746865206164647265A5
:101140007373206F6620612072656D6F7465206413
:1011500065766963652E00496E76616C69643A2034
:10116000303D64617461206275733B20313D636F73
:101170006E74726F6C206275730044494F3800447E
:10118000494F370044494F360044494F35004449E0
:101190004F340044494F330044494F320044494FD3
:1011A000310041544E005352510052454E00454FBC
:1011B0004900444156004E524644004E44414300CB
:1011C0004946430041523438382047504942206351
:1011D0006F6E74726F6C6C65722C207665722E2047
:1011E000302E35332E33342C2032362F31322F32FD
:1011F0003032350053657269616C206E756D6265C1
:1012000072206D757374206E6F74206578636565E8
:1012100064203920636861726163746572732100B0
:101220004C656E677468206F66206E616D65206D19
:10123000757374206E6F7420657863656564203102
:1012400035206368617261637465727321004C6557
:101250006E677468206F662076657273696F6E20A2
:10126000737472696E67206D757374206E6F74206D
:1012700065786365656420343820636861726163F2
:101280007465727321005665725374723A2000209F
:10129000776974682073657269616C206E756D6220
:1012A00065720053656E64696E672049444E3A204A
:1012B00000526561645E4F4B004661696C65642055
:1012C000746F2073656E6420554E4C004661696CE6
:1012D000656420746F2073656E6420554E5400550C
:1012E0006E7265636F676E697A656420636F6D6D9A
:1012F000616E64000A436F6D6D616E642061626FA0
:10130000727465642E000A496E76616C69642049C6
:1013100050206164647265737320666F726D6174CE
:101320002E00596F752077696C6C206E656564209E
:10133000746F207265626F6F74206E6F772E000A73
:10134000495020416464726573732077696C6C2026
:1013500062652073657420746F3A2000456E746571
:1013600072207468652064657369726564204950F1
:1013700020616464726573732028302E302E302E05
:1013800030206D65616E733A207573652044484363
:1013900050293A200076696120444843502E00438A
:1013A0006F6E666967757265642049502041646498
:1013B000726573733A20000A43757272656E742009
:1013C000495020416464726573733A20002D2053A4
:1013D00052414D206C6566743A20002121204E6FE9
:1013E0002076616C69642049502061646472657381
:1013F000732061737369676E65642E20506C65613C
:10140000736520636865636B20796F7572206E6504
:1014100074776F726B2073657474696E67732E00D6
:10142000495020416464726573733A2000466169D3
:101430006C656420746F207374617274205443501F
:1014400020736572766572004D6178696D756D20E7
:101450006E756D626572206F66206368617261638C
:1014600074657273206973207265616368656420B6
:10147000696E206120636F6D6D616E6420746578A4
:10148000740000536574757020636F6D706C6574C3
:10149000652E005374617274696E672053657269BA
:1014A000616C204D656E752E2E2E00537461727422
:1014B000696E672050726F6C6F6769782054435073
:1014C00020736572766572206F6E20706F72742063
:1014D000313233342E2E2E0057616974696E6720C5
:1014E000666F7220444843502E2E2E0054686520AB
:1014F0006465766963657327732064656661756CDE
:1015000074206164647265737320706F696E7473A4
:1015100020746F2047504942206164647265737380
:101520002000436F6E6669677572696E6720616E31
:1015300064205374617274696E6720475049422079
:101540006275732E2E2E004D4143204164647265F6
:1015500073733A200045746865726E657432475043
:10156000494220476174657761792076322E3220B6
:101570002841523438382076302E35332E333429F2
:101580000A00BE02A802A702A602A502A402A302A4
:10159000A202A102A002446F6E652E00436C656139
:1015A00072696E672E2E2E004572726F72207768F8
:1015B000696C6520726563656976696E6720646130
:1015C00074612E00526561645E4F4B005265616428
:1015D0005E4F4B00202D3E2063616E63656C6C6135
:1015E00074696F6E202100202D3E2063616E63655B
:1015F0006C6C6174696F6E202100202D3E20746F29
:101600006F206D616E7920617267756D656E7473A0
:10161000202120286F6E65206368617261637465A4
:1016200072206F6E6C79290000202D3E204E6F20B5
:10163000636F6D6D616E6420636F6465206D6174AE
:101640006368696E67202100202D3E20746F6F2033
:101650006D616E7920617267756D656E747320219E
:1016600020286F6E65206368617261637465722003
:101670006F6E6C7929002C20506C65617365206950
:101680006E666F726D20796F757220636C69656E1E
:10169000747321004950204164647265737320683B
:1016A0006173206368616E67656420746F20004910
:1016B00050204164647265737320686173206265B1
:1016C000656E2061737369676E65643A20004574C6
:1016D0006865726E6574206C696E6B206973204F4B
:1016E0004B206E6F7700526573657474696E672066
:1016F000616C6C20636C69656E7420636F6E6E65DF
:101700006374696F6E732E2E2E00206973207772BA
:101710006F6E672E20506C6561736520636865632A
:101720006B20444843502100495020416464726555
:101730007373200045746865726E6574206C696E01
:101740006B206973204F464600676574436D643AA9
:1017500020636F6D6D616E64206E6F7420617661C1
:10176000696C61626C6520696E2074686973206DB4
:101770006F64652E0053656E645E4F4B00496E7456
:10178000657266616365206D697374616B6520774E
:10179000697468206C69627261727920536572693C
:1017A000616C53657269616C4D656E75436D640063
:1017B0004E6F204D656E7520696E206D656D6F7280
:1017C00079003E0000006F47585311241FBECFEF31
:1017D000CDBFDFE3DEBF18E2A0E0B8E2EAE1FCEB58
:1017E00002C005900D92AA31B107D9F72BE2AAE108
:1017F000B8E201C01D92A93AB207E1F71BE0C4EEBE
:10180000DBE004C02197FE010E94F259C33ED107DC
:10181000C9F70E94B1480C94B85B0C9400018F92F8
:101820009F92AF92BF92CF92DF92EF92FF920F936F
:10183000CF93DF9380910B2A882319F081FF0DC08D
:101840007894DF91CF910F91FF90EF90DF90CF9040
:10185000BF90AF909F908F90089580FFF2CF8090BF
:101860000D2A90900E2AA0900F2AB090102AC12C19
:10187000D12C7601E0E09401A501B601C701A0E0FA
:101880000E941C5A91F1217030E040E050E060E08D
:1018900070E080E090E00E941C5AD1F0B0E0A0E03F
:1018A000E03370F4AE2FA695A695A69580E2A89F8A
:1018B000D0011124A05FBB4F8E2F8770A80FB11DE0
:1018C000CE2FD0E0CB5FD54D88899C91892B8C930E
:1018D0009401A501B601C70101E00E94015A490126
:1018E0005A016B017C01EF5FC6CF8090112A909066
:1018F000122AA090132AB090142AC12CD12C760160
:10190000E0E29401A501B601C701A0E00E941C5AC3
:1019100009F497CF217030E040E050E060E070E0E3
:1019200080E090E00E941C5AD1F0B0E0A0E0E033EB
:1019300070F4AE2FA695A695A69580E2A89FD0013B
:101940001124A05FBB4F8E2F8770A80FB11DCE2F23
:10195000D0E0CB5FD54D88899C91892B8C939401E5
:10196000A501B601C70101E00E94015A49015A01CF
:101970006B017C01EF5FC5CF00008093C4088091AC
:10198000C30887FFFCCF8091C40808950F931F936D
:10199000CF93DF93EC018C01060F171FC017D107FF
:1019A00029F088810E94BC0C8993F8CFDF91CF91F8
:1019B0001F910F9108958F929F92AF92BF92CF92F5
:1019C000DF92EF92FF920F931F93CF93DF93182F25
:1019D000F92F80910B2A882319F081FF12C0F89407
:1019E0001093C008F093C108DF91CF911F910F9120
:1019F000FF90EF90DF90CF90BF90AF909F908F902F
:101A0000089580FFEDCF80900D2A90900E2AA0902F
:101A10000F2AB090102AC12CD12C7601E0E094015D
:101A2000A501B601C701A0E00E941C5AA9F12170CE
:101A300030E040E050E060E070E080E090E00E9444
:101A40001C5AE9F0D0E0C0E0E03370F4CE2FC69528
:101A5000C695C69580E2C89FE0011124C05FDB4FA8
:101A60008E2F8770C80FD11D8E2F90E028818B5F3D
:101A7000954DDC0150962C938881887F8883940152
:101A8000A501B601C70101E00E94015A49015A01AE
:101A90006B017C01EF5FC3CF8090112A9090122AD6
:101AA000A090132AB090142AC12CD12C7601E0E228
:101AB0009401A501B601C701A0E00E941C5A09F4D7
:101AC0008FCF217030E040E050E060E070E080E0D7
:101AD00090E00E941C5AE9F0D0E0C0E0E03370F4DE
:101AE000CE2FC695C695C695B0E2CB9FE0011124D6
:101AF000C05FDB4F8E2F8770C80FD11D8E2F90E0F7
:101B000028818B5F954DDC0150962C938881887FCE
:101B100088839401A501B601C70101E00E94015A22
:101B200049015A016B017C01EF5FC2CFFC01BC018E
:101B3000695A7F4F8FEF9FEF2191322F3927232F43
:101B400022952F702327422F50E0382FCA01982F5B
:101B500088279295907F28273927CA01B5E0880FFA
:101B6000991FBA95E1F7822793276E177F0721F710
:101B70000895E6E0FBE287E5DF011D928A95E9F72B
:101B800082E0828381E084838FEF858380EB94E021
:101B900081879287089520E3FC0120833296862F67
:101BA00082958F706F706A3030F4605D6293682F39
:101BB0008111F5CF0895695CF9CFFC01818D928D7B
:101BC00008950895CF93DF9390E0FC01EB5AF7401E
:101BD00020812F3F61F0FC01E45DF740E08130E2BD
:101BE000E39FF0011124FC5F613021F42183DF9138
:101BF000CF9108958D5F9740EC01A881AF3F69F0C8
:101C0000CF014096A80FB92FB11D9FB7F89422833A
:101C10008C9188608C939FBFEACFB0E0A0E0F5CFB5
:101C200090E0FC01E652F840E081EE2319F1E1304A
:101C300021F000F1E630A8F008958D5F9740FC0197
:101C40002081233008F02F5F3091010A81E090E07D
:101C500001C0880F2A95EAF7809583238093010AB3
:101C6000089580E1E89FF0011124E05AF54F818149
:101C70008F7E818308950F931F93CF93DF93C82F97
:101C8000D0E0FE01EB5AF74000810F3FA1F0162F84
:101C9000893210F40E94100EFE01E45DF740E081ED
:101CA00080E2E89FF0011124FC5F8081802351F0E5
:101CB000111106C00683DF91CF911F910F910895F6
:101CC0000583F9CFCD5FD7408881309771F08F3F82
:101CD00061F07096E80FF11D9FB7F89480811111A3
:101CE00007C0877F80839FBFE6CFF0E0E0E0F4CFBE
:101CF0008860F8CF0F931F93CF93082F10E0F8015F
:101D0000EB5AF740C081CF3F79F00E94100EF801E6
:101D1000E45DF740E08180E2E89FF0011124FC5F80
:101D20008085C82381E009F480E0CF911F910F9155
:101D300008950E947A0E91E0811190E0892F089514
:101D4000893210F40C943B0E0895EF92FF920F939A
:101D50001F93CF93DF93E82EF12CF701ED5FF7404F
:101D600000810F3FD9F1EB01182F61E00E94E20DD5
:101D7000209751F460E0812FDF91CF911F910F9157
:101D8000FF90EF900C94A00ECF3FD10511F461E0CD
:101D9000F2CFF701E652F840E081E13039F010F07F
:101DA000E63030F1C038D10594F7E4CFE02FF0E011
:101DB000EE0FFF1F0330C8F0ED5DF54F0F5F8FB7DB
:101DC000F894C0838FBF8091010A21E030E001C008
:101DD000220F0A95EAF7822B8093010ADF91CF91B7
:101DE0001F910F91FF90EF900895E85DF54FE7CFB9
:101DF00080E1E89FF0011124E05AF54F8FB7F89485
:101E000094859487C5878FBF818180618183E6CF68
:101E100000000000000000009C0127503109880FDD
:101E2000991F880F991F820F931F0197F1F708954B
:101E30006FB7F89420913429309135294091362993
:101E4000509137298091AA0A9091AB0A7091A60A05
:101E500070FF08C02F5F3F4F4F4F5F4F8091AA0A1E
:101E60009091AB0A6FBFE92FFF27BC01A4E07695E4
:101E70006795AA95E1F7E60FF71FBC01B6E07695E6
:101E80006795BA95E1F7E61BF70B892F9927869599
:101E90008695E81BF90BA8EEB3E00E949F596E0FE0
:101EA0007F1F811D911D08958F929F92AF92BF92C7
:101EB000CF92DF92EF92FF924B015C010E94180FCC
:101EC0006B017C01A8EEB3E0A50194010E949F592B
:101ED000C60ED71EE81EF91EC616D706E806F90676
:101EE00018F40E94180FF8CF0E94180F6C157D058A
:101EF0008E059F05C8F3FF90EF90DF90CF90BF90C5
:101F0000AF909F908F9008952FB7F89460913429E7
:101F10007091352980913629909137292FBF0895E6
:101F200021E0FC018485883008F020E0822F0895AC
:101F30008091342890913528891B990B0895DC01F4
:101F4000ED91FC910190F081E02D0994EF92FF92C8
:101F50000F931F93CF93DF938C017B01D0E0C0E000
:101F6000F701EC0FFD1F6491662361F0D801ED913C
:101F7000FC910190F081E02DC8010995892B11F0A9
:101F80002196EECFCE01DF91CF911F910F91FF905F
:101F9000EF900895AF92BF92CF92DF92EF92FF92AF
:101FA0000F931F93CF93DF936C017B018B01040F81
:101FB000151FEB015E01AE18BF08C017D10759F01D
:101FC0006991D601ED91FC910190F081E02DC6015F
:101FD0000995892B79F7C501DF91CF911F910F9159
:101FE000FF90EF90DF90CF90BF90AF900895FC01ED
:101FF000508D418D252F30E0842F90E0821B930B74
:10200000541710F0CF96089501970895FC01968912
:102010008789981761F0A789AE0FBF2FB11D5D9614
:102020008C9197899F5F9F73978B90E008958FEFB6
:102030009FEF0895FC0196898789981731F0878969
:10204000E80FF11D858D90E008958FEF9FEF0895C3
:10205000FC0196892789892F90E0805C9F4F821B25
:1020600091098F73992708958CE49AE20E942810B1
:1020700021E0892B09F420E0822F0895CF93DF938C
:10208000EC01E881F9810680F781E02D0995EC8566
:10209000FD8586818F738683EC85FD8585818F75AF
:1020A00085838F898E8B1D8ADF91CF910895AF92A2
:1020B000BF92CF92DF92EF92FF920F931F93CF9335
:1020C000DF93EC016A017B01A22E8D89882339F010
:1020D000E881F9810688F789E02DCE0109950C8900
:1020E00010E0BFB6F89460E078E689E899E0A701CF
:1020F00096010E945E5969017A018FEFC81AD80AC9
:10210000E80AF80AF694E794D794C794EC85FD851D
:1021100086818D7F8683EC85FD85868186831D8AF9
:10212000A09125110A2E000CBB0BA70196010E945D
:10213000AA5920E034E040E050E00E948059EC854C
:10214000FD85C20ED31EE41EF51EC086D186EC8529
:10215000FD85A782EC85FD858681806C8683EC8574
:10216000FD858581806885839091E2058B898095C6
:1021700089237801EE0CFF1CF701E00FF11FEC0F33
:10218000FD1F9089892B8093E2058685893218F49A
:1021900062E00E94E20D0E0D1F1DC00FD11F61E015
:1021A0008F850E94A00E8F85893218F461E00E940D
:1021B000E20DBFBEDF91CF911F910F91FF90EF9085
:1021C000DF90CF90BF90AF900895FC01613019F47B
:1021D000648B81E00895148A6623D9F380E0089522
:1021E000DC0154961C92549754968C9154978230EB
:1021F000A0F4282F30E0F901EE0FFF1FE20FF31FCC
:10220000EA0FFB1F9785961303C09685941749F034
:102210008F5F54968C935497E7CF54961C9280E02E
:10222000089581E00895CF93DF93FC01908D818D17
:10223000C485D585981306C08D818F7D8D83DF91F0
:10224000CF910895A18DAE0FBF2FB11DA35ABF4FDF
:102250002C91818D90E001968F739927818F80E476
:102260008C83A485B58512962C93908D818D9813BF
:10227000E6CFA485B58515968C9115978F7D15961B
:102280008C93838D8823D9F2848D80931301138ED0
:10229000D6CFDC011C96ED91FC910FB607FE03C072
:1022A000258125FD04C0248125FD0C94131108957A
:1022B000EF92FF920F931F93CF93DF93EC0181E096
:1022C0008D8B988D898D98131CC0AC85BD85149617
:1022D0008C91149785FF15C012966C93AC85BD85C3
:1022E00080E414968C93EC85FD8585818F7D8583B4
:1022F00081E090E0DF91CF911F910F91FF90EF90DF
:1023000008958091110180FF08C0809113018C8F86
:102310008A8D8093130181E08B8FF62E088D10E05B
:102320000F5F1F4F0F731127E02E898D8E1104C090
:10233000CE010E944911F9CFE88DEC0FFD2FF11D60
:10234000E35AFF4FF082088FEC85FD85858180621E
:10235000CECF682F8CE49AE20C945811CF93DF9380
:10236000FC0125892223C9F0EC018091110180FF35
:1023700008C080911301848F828D8093130181E0C6
:10238000838FEC85FD85858185FD03C0848186FD75
:1023900004C0CE010E944911F4CFDF91CF9108957E
:1023A00080E090E0892B29F00E94341081110E9476
:1023B000000080E090E0892B49F080E090E0892BDC
:1023C00029F00E94000081110E94000080E090E04E
:1023D000892B49F080E090E0892B29F00E940000D1
:1023E00081110E94000080E090E0892B49F080E09C
:1023F00090E0892B29F00E94000081110C940000CC
:10240000089581E008950F9391E0909376281092BB
:102410002F2860932D2870932E2840932C282093EA
:102420002B28109230281092312800932A28880FE8
:102430008093292893E024E080912C28882331F090
:1024400090937728809129288E7F09C080912B282E
:10245000882341F0209377288091292881608093F8
:10246000A70808C080912C28811104C080912B28D6
:10247000882331F380912F288823E1F380912F283E
:102480008330D1F280912B28882321F0809131284C
:102490000F91089590912F2881E09130C9F780E045
:1024A000F7CFE0EAF8E091859066918792E090930B
:1024B00077288093232810922228089581E0809322
:1024C00022281092232893E09093AA089091AB08B9
:1024D00091FF0BC010922728F0E0E0E0099580936F
:1024E000262885E0809377280895109228288093E5
:1024F000252886E0F7CFE091352880913428E81729
:1025000030F4F0E0EA5CF74D808190E008958FEFC1
:102510009FEF089590913528809134282FEF3FEF59
:10252000981748F4E92FF0E0EA5CF74D208130E09D
:102530009F5F90933528C9010895CF92DF92EF9263
:10254000FF920F931F93CF93DF937C018A01EB01DE
:102550006B01C40ED51ECC15DD0551F06991D70174
:10256000ED91FC910190F081E02DC7010995F3CF29
:10257000C801DF91CF911F910F91FF90EF90DF90F5
:10258000CF9008952091B828203440F021E030E029
:10259000FC012283338390E080E008958091B92884
:1025A000E82FF0E0E858F74D60838F5F8093B928FB
:1025B0008093B82881E090E00895E0911E28F09182
:1025C0001F28808190911D28892B80830895E09198
:1025D0001E28F0911F28908180911D2880958923C5
:1025E00080830895AF92BF92CF92DF92EF92FF92D5
:1025F0000F931F93CF93DF93CDB7DEB72897CDBF4F
:10260000DEBF8C017B016A01809180298333E1F474
:102610005801A40EB51EA016B10609F46FC00E94A1
:10262000E71280EF0E94BC0C812F0E94BC0C802F0F
:102630000E94BC0C0F5F1F4FF70181917F010E9428
:10264000BC0C0E94DD12E7CF5B01A40EB51E8433E3
:10265000C1F40E94E71219830A838D2D80688B8351
:10266000CC8264E070E0CE0101960E94C60CAE14EC
:10267000BF0409F441C0F70181917F010E94BC0CA5
:10268000F6CF0E94E7120F3F110509F028F41982D6
:102690000A8384E08B830CC017FD17C019820A835C
:1026A00033E0169507953A95E1F7007E0C600B83B1
:1026B00086E0C816D10488F5F701DE011496EA1504
:1026C000FB0599F081918D93FACFC80126E096958C
:1026D00087952A95E1F7807E19830A830115104CAE
:1026E00010F48461D7CF8C61D5CFB6016D5F7F4F79
:1026F000CE0101960E94C60C0E94DD12C6012896EA
:10270000CDBFDEBFDF91CF911F910F91FF90EF9072
:10271000DF90CF90BF90AF90089563E070E0CE015E
:1027200001960E94C60CF70181917F010E94BC0CAA
:10273000AE14BF04C1F7E0CFCF93DF931F92CDB7A4
:10274000DEB7898341E050E0BE016F5F7F4F90E0CC
:1027500080E00E94F2120F90DF91CF91089590E0F7
:1027600020918029233339F40C96982F990F990FD3
:10277000990F80E008954896F8CFDA01E09120287B
:10278000F0E0FE2FEE27E60FF71F90E0982F882746
:10279000A901BD018E0F9F1F0C94F212CF93DF93FE
:1027A00000D0CDB7DEB779836A8322E030E0AE0196
:1027B0004F5F5F4F60E170E00E94BD130F900F907C
:1027C000DF91CF910895CF93DF9300D0CDB7DEB7DF
:1027D00079836A8322E030E0AE014F5F5F4F64E0AF
:1027E00070E00E94BD130F900F90DF91CF9108957C
:1027F000CF93DF931F92CDB7DEB72091202830E032
:10280000322F2227260F371F90E0982F88274983E1
:1028100041E050E0BE016F5F7F4F820F931F0E9427
:10282000F2120F90DF91CF910895CF93DF931F9213
:10283000CDB7DEB76983DC01ED91FC910280F381B5
:10284000E02D41E050E0BE016F5F7F4F09950F9092
:10285000DF91CF910895CF93DF931F92CDB7DEB76D
:102860006983DC01ED91FC910280F381E02D41E070
:1028700050E0BE016F5F7F4F09950F90DF91CF91C0
:102880000895FC019485FB018485981303C081E0C1
:10289000983008F080E00895CF93DF931F92CDB772
:1028A000DEB76983DC01ED91FC910280F381E02DBC
:1028B00041E050E0BE016F5F7F4F09950F90DF91BF
:1028C000CF91089544E050E0BC018FE090E00C947B
:1028D000F21244E050E0BC0185E090E00C94F2126A
:1028E00044E050E0BC0181E090E00C94F212FC0165
:1028F000848595850895DC01ED91FC91028CF38D22
:10290000E02D099460E08DE00E943B0E61E087E2DB
:102910000E943B0E61E086E20C943B0EFC0182813A
:1029200081110CC08381811109C08481811106C08D
:1029300081E09581911103C080E0089581E00895C0
:10294000FC018489958908952CEE39EFFC012083E0
:102950003183FB014089518962897389FC0142837B
:10296000538364837583089590912A29E92FF0E0B9
:10297000EF57F64D80839F5F90932A290895FC01BD
:10298000DB0112968D919C91139782839383149609
:102990004D915D916D917C9117974483558366832A
:1029A000778318964D915D916D917C911B9740872F
:1029B0005187628773871C968C911C9784871D961C
:1029C0008D919C9185879687CF010895FC0165873D
:1029D00076870895DC01ED91FC9102A0F3A1E02D32
:1029E000099591E089270895862F089581E086272B
:1029F000089508950895282F2F71229530E0A90198
:102A000055954795559547954373220F331F220FD0
:102A1000331F422B50E0282F30E0B90175956795A0
:102A2000CA01959587958575440F551F4A7A482B9D
:102A3000842F869586958695220F331F220F331F8C
:102A40002078962F9072292B6074262B822B089564
:102A5000CF93DF93D62F0E94FB14C82F8D2F0E9497
:102A6000FB14E0E4F4E02481982F909592238C23CA
:102A7000892B8483DF91CF91089560E280E20E94E8
:102A8000281568E270E080E090E00E94540F60EA50
:102A900080E00E94281568E270E080E090E00E94EB
:102AA000540F60E880E80C9428154F925F926F9263
:102AB0007F929F92AF92BF92CF92DF92EF92FF925E
:102AC0000F931F93CF93DF935C01D62F8A010E944F
:102AD000840F2B013C016F5F7F4F8F4F9F4FC09042
:102AE0000F2BD090102BF12CE12CF8011082C0E0BC
:102AF0009924939464197509860997096C157D05C5
:102B00008E059F0578F58091082B8130E1F1C11188
:102B100047C064E084E00E9428158FE00E947A0E8E
:102B2000C4E0811142C064E00E942815DD2339F021
:102B30008EE00E94990E882311F0F8019082809116
:102B400068048095F501808362E082E00E94281588
:102B50008FE00E947A0E813059F562E080E00E9499
:102B60002815C1E08C2FDF91CF911F910F91FF901D
:102B7000EF90DF90CF90BF90AF909F907F906F903D
:102B80005F904F90089582E10E94990E811112C0CA
:102B900084E10E94990E882309F4B9CFC3E0E2CF03
:102BA000C43009F4BACFC63099F20E94840FA2CF84
:102BB000C6E0FBCFC2E0D6CF1F93CF93DF93D62FD3
:102BC0000E94FB14C82F8D2F0E94FB14E0E4F4E058
:102BD0009081A82FA0959A232C2F2823922B9083A5
:102BE000208961894289538934891589D689B789B1
:102BF00023FB222720F970E07595679575956795F9
:102C000062707727922F962B5870952B50E0559530
:102C1000479544705527942B232F30E0220F331F04
:102C200020713327922B44E0149F900111242072CD
:102C30003327922B48E0D49F90011124207433272E
:102C4000922B40E1B49F9001112420783327922BDE
:102C50009A23C0958C23982B292F30E0A90163E09B
:102C6000440F551F6A95E1F74870408BA901440F46
:102C7000551F440F551F4870418BA901440F551F24
:102C80004870428B9870938BC90195958795887091
:102C9000848BC90195958795959587958870858BC7
:102CA000C901D3E095958795DA95E1F78870868B11
:102CB00014E0359527951A95E1F72870278BDF9159
:102CC000CF911F910895E0E6F4E08081108288E0C2
:102CD000808B818B828B838B848B858B868B878B80
:102CE0006EE186E00E94DC1566E089EF0C94281501
:102CF0008F929F92AF92BF92CF92DF92EF92FF920C
:102D00000F931F93CF93DF93D82F162F0E94840F1A
:102D10004B015C016F5F7F4F8F4F9F4FC0900F2B18
:102D2000D090102BF12CE12CC0E00FEFD09568195A
:102D300079098A099B096C157D058E059F0508F0A8
:102D400061C08091082B813029F582E10E94990EA3
:102D50008823A1F00E94631688E080935D2BC2E077
:102D60008C2FDF91CF911F910F91FF90EF90DF900B
:102D7000CF90BF90AF909F908F90089584E10E9474
:102D8000990E882339F00E94631688E080935D2BAA
:102D9000C3E0E6CFC11117C081E10E947A0E811114
:102DA0002CC080E10E947A0EC7E0813031F580911D
:102DB000600400936004D09364048091072B811118
:102DC0000BC068E00CC0C73061F3C83081F3C93074
:102DD00049F0CA3061F011C068E1112391F380E03D
:102DE0000E94281580E10E947A0E811109C081E1BC
:102DF0000E947A0E813049F0CAE00E94840F97CF7A
:102E0000C9E0FBCFC13009F0ABCF8091072B811116
:102E100003C068E088E004C068E188E11123C9F3D9
:102E20000E942815809160048FEF80936004809346
:102E30006404C1E095CFFC0180819181FC01FF27F2
:102E400090FD06C080E094E1E82BF92B8081089585
:102E500080E093E1F9CF0F931F93CF93DF9300D0DE
:102E6000CDB7DEB78C0119821A82CE0101960E947D
:102E70001B17F801808381E090E089839A83CE015B
:102E800001960E941B17F8018183C8010F900F90D3
:102E9000DF91CF911F910F910895FC01FF2790FDC5
:102EA00012C080E094E1E82BF92B60838FB7F8948F
:102EB0009DE923E094BF209300108FBF8091021002
:102EC00081FDFCCF089580E093E1EDCFBF92CF92DA
:102ED000DF92EF92FF920F931F93CF93DF9300D077
:102EE000CDB7DEB76C017C0102E010E0F701B190D4
:102EF0007F0109831A83CE0101960E941B17B81621
:102F000021F06B2DC8010E944D170F5F1F4F09352F
:102F1000110561F7C6010E94960D8C0119821A8273
:102F2000CE0101960E941B17081729F0602F90E030
:102F300080E00E944D1781E090E089839A83CE0162
:102F400001960E941B17181781F0612F81E090E015
:102F50000F900F90DF91CF911F910F91FF90EF9005
:102F6000DF90CF90BF900C944D170F900F90DF9192
:102F7000CF911F910F91FF90EF90DF90CF90BF9076
:102F80000895CF93DF93D0E0C0E06FEFCE010E94B1
:102F90004D172196C11581E0D807B9F7DF91CF9180
:102FA0000895DC01ED91FC910488F589E02D23E082
:102FB00030E0099490E080E0089524E0FC01218352
:102FC00021E320830895DF92EF92FF920F931F93E6
:102FD000CF93DF9300D0CDB7DEB7FB01DC0156966F
:102FE0001D921C9257972281211109C02381211122
:102FF00006C02481211103C02581222359F14115E6
:10300000510541F17A018F01FC01D08CCE0101966E
:103010000E94DD1789819A810E94DB0CA8014E5F16
:103020005F4F24E030E06CE070E08D2D0E94BD1316
:10303000B7018D2D0E94CE130E940F0C81E090E00D
:103040000F900F90DF91CF911F910F91FF90EF9014
:10305000DF90089580E0F3CFCF93C82FEEEFE80F15
:10306000E83068F4F0E0E95CF74E0C94F25950183F
:1030700057186B1868187B188A189218951861EE03
:1030800081EA0E94DC1561EA81EA0E9428156EE15E
:1030900080E00E94DC1560E280E00E9428153EC0BE
:1030A0006EE180E00E94DC1560E880E8F6CF809158
:1030B0006004809360048FEF809364046EE188E184
:1030C0000E94DC1568E188E10E94281560E8E4CFE1
:1030D0000E946316E9CF80916004809360048FEFB3
:1030E000809364046EE188E10E94DC1568E188E168
:1030F0000E942815D9CF6FEF80E00E94DC1560E2B6
:1031000080E20E94281561EE80E40E94DC1560E4F4
:1031100080E4C3CF6EE180E00E94DC15C0935D2B9C
:10312000CF9108950E946316F9CF80916004809337
:1031300060048FEF809364046EE188E10E94DC15E7
:1031400068E188E1AACF10925D2B6FEF80E00E94CA
:10315000DC15E0E6F4E08081108288E0808B818BD2
:10316000828B838B848B858B868B878B88EC90E01E
:103170000E94080F81E08093082B86E00C942C18A5
:103180000E943D1510925D2B6FEF80E00E94DC15D0
:10319000E0E6F4E08081108288E0808B818B828B76
:1031A000838B848B858B868B878B88EC90E00E9449
:1031B000080F82E08093082B81E00E942C1861E0C8
:1031C00080E00E94281586E990E00E94080F61E0E7
:1031D00081E00C942815CF93C82F80915D2B83300C
:1031E00019F083E00E942C1860E08C2F0E94781662
:1031F00091E0813009F490E0892FCF9108958EE11C
:1032000090E00E94080F8FE50E94EB18882311F0D0
:1032100081E008958FE30E94EB188111F9CF10929D
:103220005F2B08950C94FF181F93CF93DF938F317A
:1032300030F0D1E08D2FDF91CF911F91089560364E
:10324000C0F391E8960F97FFF4CF142FC62FD82F15
:103250008FE30E94EB188111ECCF8FE50E94EB18F1
:103260008111E7CF123099F480E48D0F0E94EB18A2
:10327000D82F8111DECFCF3F21F482E080935F2BE6
:10328000D9CF8C2F0E94EB188111D3CFF6CF80E2DB
:103290008D0F0E94EB18D82F8111CBCFCF3F11F4A7
:1032A00081E0ECCF8C2F0E94EB188823C9F3C1CFAB
:1032B000AF92BF92CF92DF92EF92FF920F931F9344
:1032C000CF938C01E62E80910C2B813030F0C1E041
:1032D000833020F0C0E0833009F0C2E08091082BF9
:1032E0008230C9F484E00E942C18680110E000E0EC
:1032F000F12C570181E0A81AB1080E151F0514F52D
:10330000F60181916F019091072B992311F0CC2345
:1033100021F060E006C089E0E6CF61E0A016B106CA
:10332000C1F70E9478168130E1F40F5F1F4FE5CF9F
:1033300060E08DE00E9478166091072B8AE00FC054
:1033400087E013C0CC2369F080910C2B8230A1F36D
:10335000833039F0813061F76091072B8DE00E9456
:1033600078168091082B823059F7CF911F910F91D9
:10337000FF90EF90DF90CF90BF90AF900C942C18FF
:103380008F929F92AF92BF92CF92DF92EF92FF9275
:103390000F931F93CF93DF9300D000D0CDB7DEB74C
:1033A0007C01162FD42EC22E19821A821B82909174
:1033B000422B092F07701C8210925E2B8091072BE5
:1033C00081114BC0611104C011E0973009F010E089
:1033D0008091082B823009F042C085E00E942C18B1
:1033E00084E10E94990E811141C0A02EB12C8091E0
:1033F0005E2B8111A5C084E10E94990E882309F4F7
:1034000053C012E08C81882349F08091062B8823D9
:1034100029F06091112BC7010E949F0F173039F0DE
:103420008091082B823009F091C00E942C18809165
:103430005E2B811110925E2B812F2496CDBFDEBFB3
:10344000DF91CF911F910F91FF90EF90DF90CF9080
:10345000BF90AF909F908F900895182FB9CF0E9482
:10346000631688E080935D2B11E0BACF0E94840F31
:1034700020910F2B3091102B4B015C01820E931E7B
:10348000A11CB11C84E10E947A0E8111AECF0E9472
:10349000840F86169706A806B90608F4A6CF84E11D
:1034A00090E00E94080FEECFAE014C5F5F4F612F9E
:1034B000CE0101960E945515823009F443C0833035
:1034C00009F49FCF813009F03FC06981C7010E9494
:1034D0009F0F112329F08C81882301F114E092CFF2
:1034E0008981DD2021F08C1119C015E08BCF0730C8
:1034F00018F5F501E258F54E0C94F2599C1A991AF8
:10350000881A8E1A851A8C1A931A8D3039F48A818A
:103510008A3021F416E076CF8330E1F38A818B8301
:1035200089818A8364CF8330C9F78A818A30B1F771
:103530008B818D3099F7EECF8A3081F78A81F9CF70
:1035400011E060CF13E05ECF18E05CCF87E06DCF75
:1035500020E040E060E084E69BE20C94C019109209
:10356000272980915D2B883029F487E00E942C1850
:1035700081E0089580E0089580915D2B893029F4E1
:1035800087E00E942C1881E0089580E00895FB01F7
:1035900001900020E9F73197AF01461B570BDC0182
:1035A000ED91FC910280F381E02D09948F929F921E
:1035B000AF92BF92EF92FF920F931F93CF93DF933F
:1035C000CDB7DEB7A197CDBFDEBF7C01FA01CB013D
:1035D00019A2223008F42AE08E010F5D1F4F822EBF
:1035E000912CB12CA12CBF01A50194010E945E5920
:1035F000F901CA016A30F4F4605DD8016E938D015F
:10360000232B242B252B79F790E080E0109721F0D5
:10361000BD01C7010E94C71AA196CDBFDEBFDF91D1
:10362000CF911F910F91FF90EF90BF90AF909F901F
:103630008F900895695CE1CFCF92DF92EF92FF9275
:103640000F931F93CF93DF936B01770FEE08FF0863
:10365000F7FE1BC0EC016DE20E949F0F8C01442716
:103660005527BA014C195D096E097F092AE0CE0180
:103670000E94D61A800F911FDF91CF911F910F9159
:10368000FF90EF90DF90CF9008952AE0B701A60158
:10369000DF91CF911F910F91FF90EF90DF90CF902E
:1036A0000C94D61ACF93DF9300D0CDB7DEB76DEC74
:1036B00073E18CE49AE20E94A60F8091A32B909173
:1036C000A42B009711F489EA9BE2BE016F5F7F4F44
:1036D000681B790B8CE49AE20E941C1B0F900F90E0
:1036E000DF91CF910895462F50E070E060E02AE02E
:1036F0000C94D61A8F929F92AF92BF92CF92DF9284
:10370000EF92FF920F931F93CF93DF937C018B0176
:103710004C0182E0880E911C5701E5E0AE0EB11C11
:10372000D0E0C0E0F40161914F01C8010E94731B19
:103730006C016EE2C8010E949F0F8C0D9D1DC80F89
:10374000D91F8A149B0471F7F7016581C8010E9493
:10375000731B8C0F9D1FDF91CF911F910F91FF90D5
:10376000EF90DF90CF90BF90AF909F908F90089593
:1037700060E07AEF0C94C71A0F931F93CF93DF93F7
:10378000EC010E94731B8C01CE010E94B81B800FBC
:10379000911FDF91CF911F910F9108950F931F9368
:1037A000CF93DF93EC01AB0170E060E02AE00E9470
:1037B000D61A8C01CE010E94B81B800F911FDF9199
:1037C000CF911F910F9108950F931F93CF93DF9384
:1037D000EC010E941C1B8C01CE010E94B81B800FC3
:1037E000911FDF91CF911F910F91089583E10E9466
:1037F000990E682F70E084E69BE20C94E41B0F9313
:103800001F93CF93DF93EC01CB01BE010E947A1B83
:103810008C01CE010E94B81B800F911FDF91CF91C8
:103820001F910F9108950F931F93CF93DF93EC0196
:103830000E94C71A8C01CE010E94B81B800F911FF5
:10384000DF91CF911F910F9108950F931F93CF9305
:10385000DF93EC01FB014481558160817181E88136
:10386000F9810280F381E02D09958C01CE010E943F
:10387000B81B800F911FDF91CF911F910F91089579
:103880000F931F93CF93DF93EC010E94A60F8C013F
:10389000CE010E94B81B800F911FDF91CF911F9125
:1038A0000F9108956FED72E184E69BE20C94401C49
:1038B0008FE50E94EB18882351F08091022A88231B
:1038C00059F06CEC72E184E69BE20C94401C10927F
:1038D0005F2B82E00C942C1808958FE30E94EB1864
:1038E000882351F08091022A882359F069EB72E114
:1038F00084E69BE20C94401C10925F2B82E00C94B7
:103900002C180895CF9382E00E942C1884E190E057
:103910000E94080F80916004809360048FEF809371
:1039200064046EE188E10E94DC1568E188E10E9490
:10393000281560E980E00E9428150E94631684E142
:1039400090E00E94080FC091680482E00E942C1849
:103950006C2F609584E69BE20E94BC1B8091022A3A
:10396000882339F065E570E184E69BE2CF910C9401
:10397000401CCF91089584E10E94EB18882351F0F8
:103980008091022A882349F066E270E184E69BE296
:103990000C94401C82E00C942C18089586E09BE265
:1039A0000E9466178091022A882331F06FE976E041
:1039B00084E69BE20C94401C0895CF92DF92EF9234
:1039C000FF920E94840F6B017C0120EDC20E27E064
:1039D000D21EE11CF11C88EDA89584BF80910001E6
:1039E0008660809300018091010181FDFCCF0E94DF
:1039F000840F6C157D058E059F05C8F38091022A02
:103A0000882351F064EF75E084E69BE2FF90EF902D
:103A1000DF90CF900C94401CFF90EF90DF90CF9000
:103A200008958091082B8230B1F461E080E00E941B
:103A3000281586E990E00E94080F61E081E00E946D
:103A400028158091022A882331F068E975E084E620
:103A50009BE20C94401C089541E060910B2B8091F7
:103A60000A2B0E941419882351F08091022A88237E
:103A700091F06FE375E084E69BE20C94401C84E0D7
:103A80000E94EB188111F1CF0E9412198111EDCF24
:103A900082E00C942C18089563E373E0823031F0D7
:103AA00065E473E0833011F462E273E084E69BE244
:103AB0000C94401C0F931F93CF938C01C091582BF3
:103AC000C295C695C77009F4C1E084E69BE20E94E6
:103AD000B81BB80184E69BE20E94A60FC13029F012
:103AE00065E284E69BE20E949F0FC15091F784E655
:103AF0009BE2CF911F910F910C94B81B611571053A
:103B000011F00C94C71A90E080E008958091022A89
:103B100091E089278093022A63E07AEF84E69BE2B2
:103B20000E947E1D8091022A61E47AEF882311F0C1
:103B300065E37AEF84E69BE20C94131C63E27BEF6F
:103B400084E69BE20C947E1DDC01FC0101900020C8
:103B5000E9F731979E2F9A1B2A2FFD018E2F821B8A
:103B6000891730F4819180538A30C0F380E0089542
:103B700081E008950C94FA53CF93DF93CDB7DEB76D
:103B8000C054D109CDBFDEBF64EC77E18CE49AE28A
:103B90000E94401C6091042B7091052B40E450E082
:103BA000CE0101960E946756BE016F5F7F4F8CE485
:103BB0009AE20E947E1D62EC77E18CE49AE20E9418
:103BC000A60FC05CDF4FCDBFDEBFDF91CF91089560
:103BD0000F931F93CF93DF93CDB7DEB7C054D109B6
:103BE000CDBFDEBF6AE87AEF8CE49AE20E94131C34
:103BF0006AE87AEF8CE49AE20E94131C8091032B0E
:103C000010E005E0811115C060EB77E18CE49AE2E9
:103C10000E94401C6DE777E18CE49AE20E94401C10
:103C2000C05CDF4FCDBFDEBFDF91CF911F910F9101
:103C300008958091032B181798F7E091012BF091CC
:103C4000022B109FE00DF11D11246081718140E471
:103C500050E0CE0101960E946756BE016F5F7F4F14
:103C60008CE49AE20E94131C1F5FE3CF0E94E81DC0
:103C70000C94BC1DAF92BF92CF92DF92EF92FF9255
:103C80000F931F93CF93DF9300D000D0CDB7DEB753
:103C90008C016B017A01809180298333E9F45B0107
:103CA0006801C40ED51EC016D10691F10E94E7121C
:103CB0008FE00E94BC0C812F0E94BC0C802F0E94C0
:103CC000BC0C0F5F1F4F80E00E94BC0CF50181937C
:103CD0005F010E94DD12E7CF843349F50E94E712AD
:103CE00019830A838F2D8F778B83EC8264E070E0D9
:103CF000CE0101960E94C60CA70170E060E0C601EB
:103D00000E94045BB701C6010E94C60C0E94DD122E
:103D1000C7012496CDBFDEBFDF91CF911F910F91D8
:103D2000FF90EF90DF90CF90BF90AF9008950E94EA
:103D3000E7120F3F110509F030F419820A831B8244
:103D400063E070E0D5CF17FD0BC019820A8333E022
:103D5000169507953A95E1F7007E08600B83F0CF42
:103D6000C80126E0969587952A95E1F7807E19830C
:103D70000A830115104C18F480618B83E1CF8861B0
:103D8000FCCF1F93CF93DF9300D0CDB7DEB7182FB2
:103D9000CE0101960E94DD1789819A810E94DB0C79
:103DA000812F0E94AF1327E0129FF0011124E85CDD
:103DB000F64D22813381377041E050E0BE016F5FE4
:103DC0007F4F820F931F0E943A1E0E940F0C898121
:103DD0000F900F90DF91CF911F910895FC01808D7E
:103DE000883040F4218D328D232B21F00E94C11E9A
:103DF00090E008958FEF9FEF0895CF93DF93FC013C
:103E00002485283028F08FEF9FEFDF91CF91089520
:103E1000EC010190F081E02D0084F185E02D099501
:103E2000892B89F38C850E94C11E90E0EECFCF9341
:103E3000DF931F92CDB7DEB741E050E0BE016F5F68
:103E40007F4F0E943A1E89810F90DF91CF91089594
:103E500090E080E00C94171FCF93DF93C4E1D0E093
:103E60000E94281F882361F061E070E080E090E00C
:103E70000E94540F2197A1F780E0DF91CF91089520
:103E800081E0FBCF1F93CF93DF9300D01F92CDB77C
:103E9000DEB780912128811139C160E372E080E0B2
:103EA00090E00E94540F80910A2A811117C010924D
:103EB0000B2A10920C2A10920D2A10920E2A1092A0
:103EC0000F2A1092102A1092112A1092122A109280
:103ED000132A1092142A81E080930A2A8091E30524
:103EE0008C7F9091092A892B8093E30591118BC0D7
:103EF00061E084E00E94E20D61E086E00E94E20D54
:103F00008091C10884608093C1088091C00881625B
:103F10008093C0089091442A8091452A9093C008CC
:103F20008093C10880910028893208F07FC0E82F73
:103F3000F0E0E45DF7402081263008F077C090E2A1
:103F4000299F900111243C5F2C5F3F4F20931E2836
:103F500030931F289FEF893228F4E82FF0E0EB5AC6
:103F6000F740908190931D28893218F461E00E94F7
:103F7000E20D0E94DD12CE0101960E94DD178981BB
:103F80009A810E94DB0C84E38093802980E80E9460
:103F90009C130E942C1F882309F44BC088E00E94C8
:103FA0009C130E94281F883009F043C080E10E94C2
:103FB0009C130E94281F8031E1F580E00E949C1331
:103FC0000E94281F182F811134C08FE190E00E94B9
:103FD000171F833071F580E48093202842E06EE162
:103FE00070E0812F0E94F81342E06FE170E0812FB2
:103FF0000E94F8131F5F183089F70E940F0C81E0B0
:10400000809321287CC0913039F461E08EE00E94D9
:10401000E20D61E080E172CF923009F071CF61E092
:104020008EE10E94E20D61E080E268CF30E020E0A6
:104030008BCF87E38093802980E80E949C130E94A5
:104040002C1F8823F9F088E00E949C130E94281FEF
:104050008830C1F480E10E949C130E94281F182F11
:10406000803181F480E00E949C130E94281F8111FE
:1040700009C089E390E00E94171F843019F410935F
:104080002028BBCF83E38093802980E80E949C1383
:104090000E942C1F882371F180E10E949C130E94D2
:1040A000281F803139F582E10E949C130E94281F4D
:1040B000823101F580E00E949C130E94281F81112B
:1040C00019C084E08093202815E51B8341E050E06F
:1040D000BE016D5F7F4F8BE190E00E94F212198369
:1040E00041E050E0BE016F5F7F4F8AE190E00E94A7
:1040F000F21283CF109280290E940F0C80E0239649
:10410000CDBFDEBFDF91CF911F91089581E0F7CF42
:10411000EF92FF921F93CF93DF93CDB7DEB7C454D6
:10412000D109CDBFDEBF7C01FB0182819381A481D7
:10413000B58123968CAF9DAFAEAFBFAF239711E093
:1041400023961FAF239723964CAD5DAD6EAD7FAD2B
:10415000239749AF5AAF6BAF7CAF8DA79EA7AFA790
:10416000B8AB18AB4DA55EA56FA578A94B8F5C8F3A
:104170006D8F7E8F1CAF49AD5AAD6BAD7CAD49A341
:104180005AA36BA37CA32CEE39EF29833A834FEF1C
:104190004B834C834D831E822F8338871E8F4B8D1C
:1041A0005C8D6D8D7E8D49875A876B877C871CA3BC
:1041B00049A15AA16BA17CA14F87588B698B7A8B3F
:1041C0002B8B3C8B8D8B9E8BAF8BB88F0E94421FAD
:1041D000882369F1CE018D5B9F4F0E94DD172596E4
:1041E0008EAD9FAD25970E94DB0C46E050E0B701F5
:1041F00089E090E00E94F212CE0145960E9462147E
:10420000CE0109960E947014CE0103960E94691493
:104210000E940F0C1A8B8F859889A989BA8980937F
:10422000F72A9093F82AA093F92AB093FA2ACC5B44
:10423000DF4FCDBFDEBFDF91CF911F91FF90EF9099
:1042400008952091202830E0322F2227620F731F1B
:1042500090E0982F8827860F971F0C94171FCF93F5
:10426000C82F462F61E070E00E94F81361E070E013
:104270008C2F0E9421218111F9CFCF9108951F9396
:10428000CF93DF9300D0CDB7DEB7182FCE010196C4
:104290000E94DD1789819A810E94DB0C68E070E042
:1042A000812F0E942F210E940F0C0F900F90DF9101
:1042B000CF911F9108951F93CF93DF9300D0CDB777
:1042C000DEB7182FCE0101960E94DD1789819A81F1
:1042D0000E94DB0C60E170E0812F0E942F210E9480
:1042E0000F0C0F900F90DF91CF911F910895CF93F6
:1042F000DF93EC01888D883020F40E945B2188E0F8
:10430000888FDF91CF91089563E070E00C942121B4
:104310001F93CF93DF9300D0CDB7DEB7182FCE0118
:1043200001960E94DD1789819A810E94DB0C812F02
:104330000E948421182F0E940F0C812F0F900F9044
:10434000DF91CF911F910895EF92FF920F931F93EA
:10435000CF93DF937C0180918029D4E0833309F0EF
:10436000D8E000E719E2C0E0F801219131918F0116
:10437000F701848195812817390729F0CF5FDC1375
:10438000F3CF80E006C08C2F0E9488218431B1F7E2
:1043900081E0DF91CF911F910F91FF90EF900895F1
:1043A000CF93DF93EC018C858830D0F40E94882174
:1043B000843189F0882379F0883169F021E08C31EB
:1043C00059F4E881F9810084F185E02DCE01099549
:1043D00021E0892B09F420E0822FDF91CF9108950D
:1043E00080E0FBCFCF92DF92EF92FF92CF93DF93EB
:1043F000EC018C85883068F40E943F210E94840F74
:104400006B017C018C850E948821811109C088E0A4
:104410008C87DF91CF91FF90EF90DF90CF90089540
:1044200061E070E080E090E00E94540F0E94840FF1
:10443000AB01BC014C195D096E097F098D859E8514
:10444000B0E0A0E0481759076A077B07D8F28C85CF
:104450000E945B21DCCF1F93CF93DF9300D0CDB7B9
:10446000DEB7FC01108DCE0101960E94DD17898117
:104470009A810E94DB0C60E270E0812F0E942F2164
:1044800062E070E0812F0E94212184FD22C062E061
:1044900070E0812F0E94212183FF10C048E162E07B
:1044A00070E0812F0E94F8130E940F0C80E090E0D2
:1044B0000F900F90DF91CF911F9108950E940F0CE4
:1044C000CE0101960E94DD1789819A810E94DB0C42
:1044D000D7CF40E162E070E0812F0E94F8130E9484
:1044E0000F0C81E0E4CFDA01E0912028F0E0FE2F0C
:1044F000EE27E60FF71F90E0982F8827A901BD014E
:104500008E0F9F1F0C943A1E8F929F92AF92BF9274
:10451000CF92DF92EF92FF920F931F93CF93DF938F
:10452000CDB7DEB76097CDBFDEBF7C01909180290B
:10453000992371F108E0933309F404E05B01CE01A3
:1045400001960E94DD1789819A810E94DB0C9E01F1
:104550002F5F3F4F6901490110E0812F0E948421A4
:10456000F40181934F018823D9F01F5F0113F5CF28
:1045700000E0F60181916F018D3161F0883151F0D9
:104580008A51823038F00F5F1013F3CF0E940F0C66
:1045900018E08AC060E170E0802F0E942F21102F68
:1045A000C12ED12CF601EE0FFF1FE059F64D1082FF
:1045B00011828AEF90E00E94080F42E870E060E00C
:1045C000812F0E94F8134FEF62E070E0812F0E946C
:1045D000F813B501A114B10491F4809103289091CE
:1045E000042801968115F0EC9F0708F46EC08093B3
:1045F0000328909304286091032870910428812F48
:104600000E94E31386E0EAE8F7EFDE0119960190D5
:104610000D928A95E1F7F70183818F778C878481EA
:104620008D8785818E87A7014E5F5F4F24E030E044
:104630006CE070E0812F0E94BD13B501812F0E94B4
:10464000CE1326E030E0AE01475F5F4F66E070E0DA
:10465000812F0E94BD1361E070E0812F0E942F2105
:1046600027E02C9DC0012D9D900D11249C01285CFC
:10467000364D7901F9011082118222E030E0AE015D
:10468000415F5F4F68E270E0812F0E9473228F8547
:104690009889982789279827F70182839383168220
:1046A000148215820E940F0C812F6096CDBFDEBF51
:1046B000DF91CF911F910F91FF90EF90DF90CF90FE
:1046C000BF90AF909F908F90089580E090EC8FCF37
:1046D000CF92DF92EF92FF920F931F93CF93DF93CE
:1046E000CDB7DEB72697CDBFDEBF8C016B017A0157
:1046F000FC01808D883010F40E945B218CEE99EFD4
:1047000089839A83F60182819381A481B5818B8309
:104710009C83AD83BE83B701CE0101960E948422A3
:10472000F801808F883088F4E486F586118E128E29
:1047300081E02696CDBFDEBFDF91CF911F910F9113
:10474000FF90EF90DF90CF90089580E0F2CF7F92BE
:104750008F929F92AF92BF92CF92DF92EF92FF9291
:104760000F931F93CF93DF9300D0CDB7DEB7782E92
:104770008B014A01590122E030E0AE014F5F5F4FEB
:1047800064E270E00E947322E980FA80FE24EF2444
:10479000FE24E00EF11E9701377040918029072D0D
:1047A00010E0433309F042C0085F1F4F102F00276D
:1047B000110F110F110FC901800F911F4733C9F15C
:1047C000A9014A0D5B1D4130584098F160E078E046
:1047D0006B01C21AD30AA601B4010E94F212A5010C
:1047E0004C195D09B4016C0D7D1DC8010E94F212C7
:1047F000EA0CFB1CF982EA8222E030E0AE014F5F56
:104800005F4F64E270E0872D0E94BD130F900F9000
:10481000DF91CF911F910F91FF90EF90DF90CF909C
:10482000BF90AF909F908F907F900895005F1F4F33
:10483000BDCFA501B401DACFEF92FF921F93CF93C2
:10484000DF9300D0CDB7DEB7182F22E030E0AE0105
:104850004F5F5F4F60E270E00E947322E980FA8050
:10486000FE24EF24FE2422E030E0AE014F5F5F4FD4
:1048700060E270E0812F0E94732289819A819827DB
:1048800089279827E816F90689F487E0189FF00130
:104890001124E85CF64DE482F582C7010F900F9079
:1048A000DF91CF911F91FF90EF9008957C01DBCFB6
:1048B000FF920F931F93CF93DF9300D0CDB7DEB756
:1048C000F82ECE0101960E94DD1789819A810E94FF
:1048D000DB0C8F2D0E941C248C018F2D0E948421C3
:1048E000F82E0E940F0C87E1F81629F08CE1F816DB
:1048F00011F010E000E0C8010F900F90DF91CF9110
:104900001F910F91FF900895CF93DF93EC018C8559
:10491000883060F40E948821873111F08C3131F4A5
:104920008C850E9458248115984088F3DF91CF919F
:104930000895FC0124A1283018F448960C9484248E
:104940000895FC018485883010F40C94582490E07C
:1049500080E00895AF92BF92CF92DF92EF92FF92E4
:104960000F931F93CF93DF9300D0CDB7DEB7F82E10
:104970006B018A014130584010F000E018E0CE0190
:1049800001960E94DD1789819A810E94DB0C8F2D90
:104990000E941C245C018F2D0E948421E82E0E941D
:1049A0000F0C87E1E81619F08CE1E81235C0A0166B
:1049B000B10628F3CE0101960E94DD1789819A8104
:1049C0000E94DB0C9801A60170E060E08F2D0E9430
:1049D000A72360E270E08F2D0E942F2162E070E03B
:1049E0008F2D0E94212184FD25C08F2D0E948421BE
:1049F000811115C00E940F0C10E000E0C8010F905B
:104A00000F90DF91CF911F910F91FF90EF90DF906A
:104A1000CF90BF90AF90089510E000E0CBCF0E9400
:104A20000F0CCE0101960E94DD1789819A810E94A8
:104A3000DB0CD4CF40E162E070E08F2D0E94F813D0
:104A40000E940F0CDBCF0F931F93CF93DF938C014A
:104A5000EA01FC018485883048F40E94AA24892B4D
:104A600039F481E090E0F80182839383D0E0C0E0E4
:104A7000CE01DF91CF911F910F9108957F928F9278
:104A80009F92AF92BF92CF92DF92EF92FF920F93DD
:104A90001F93CF93DF9300D0CDB7DEB77C014B01DE
:104AA000742EC52EFC01A688B788D08CCE01019645
:104AB0000E94DD1789819A810E94DB0C8D2D0E9456
:104AC0001C24072D1C2D8017910708F48C019801D8
:104AD000A401B5018D2D0E94A7230E940F0CF701A0
:104AE00086899789800F911F868B978BC8010F90BD
:104AF0000F90DF91CF911F910F91FF90EF90DF907A
:104B0000CF90BF90AF909F908F907F900895FF922D
:104B10000F931F93CF93DF9300D0CDB7DEB7F82E5E
:104B200022E030E0AE014F5F5F4F66E270E00E942E
:104B3000732209811A8110270127102722E030E013
:104B4000AE014F5F5F4F66E270E08F2D0E947322CF
:104B500089819A819827892798270817190749F486
:104B6000C8010F900F90DF91CF911F910F91FF908F
:104B700008958C01E3CFEF92FF920F931F93CF9391
:104B8000DF9300D0CDB7DEB7182F87E0189F9001D4
:104B90001124F901E85CF64D7F0180819181009735
:104BA000B1F4CE0101960E94DD1789819A810E949D
:104BB000DB0C812F0E9487258C010E940F0CF701CE
:104BC00086819801281B3109C901208331830F9008
:104BD0000F90DF91CF911F910F91FF90EF9008956B
:104BE0009F92AF92BF92CF92DF92EF92FF920F937C
:104BF0001F93CF93DF93EC017B018091802981117A
:104C000021C01A821B8288EE93E0A0E0B0E08C8382
:104C10009D83AE83BF838AEB99EF8883998388E075
:104C20008C8788EE93E08D879E87CE01DF91CF91B0
:104C30001F910F91FF90EF90DF90CF90BF90AF90BA
:104C40009F90089534E0932E833311F028E0922E44
:104C500080E7C82E89E2D82E10E098E0B92EA12C6A
:104C6000D6012D913D916D01F70184819581281721
:104C7000390791F4812F0E948821082F873111F084
:104C80008C3139F5812F0E94BB25892B59F50C31C8
:104C900019F4812F0E943F211F5F9112E1CFA110D3
:104CA00008C0D701ED91FC910084F185E02DC7018A
:104CB00009951A821B8288EE93E0A0E0B0E08C8315
:104CC0009D83AE83BF838AEB99EF88839983BC86EB
:104CD000A8CF843149F08111DFCFF60132971082DD
:104CE0001182DACFB12ED8CFAA24A394D5CF8F9238
:104CF0009F92AF92BF92CF92DF92EF92FF920F936B
:104D00001F93CF93DF93CDB7DEB72F97CDBFDEBF15
:104D10005C014B017A01809180298823B1F104E084
:104D2000833309F008E0B501CE0101960E94F02519
:104D300080E7C82E89E2D82E10E0F601219131914A
:104D40006F01F501848195812817390751F4812F6E
:104D50000E948821873129F4A701B401812F0E9484
:104D6000AA241F5F0113E9CFC7012F96CDBFDEBF75
:104D7000DF91CF911F910F91FF90EF90DF90CF9037
:104D8000BF90AF909F908F900895F12CE12CECCFC5
:104D9000EF92FF920F931F93CF93DF93CDB7DEB7C0
:104DA0002F97CDBFDEBF8C017C0188E1E80EF11C9E
:104DB000F80184A1883030F5C7010E94D02181110B
:104DC0001DC0C7010E94F2211B821C8288EE93E065
:104DD000A0E0B0E08D839E83AF83B8878AEB99EF24
:104DE00089839A8388E08D8788EE93E08E879F87FA
:104DF000BE016F5F7F4FC7010E94BF14F80184A1FD
:104E0000883068F0F80166897789CE0101960E94A2
:104E1000F025BE016F5F7F4FC7010E94BF14F801EC
:104E200084A1883038F40E94840FF80165A776A722
:104E300087A790AB2F96CDBFDEBFDF91CF911F919B
:104E40000F91FF90EF900895CF93DF93EC010E94B4
:104E5000C826CE0148962CA1283020F4DF91CF91AE
:104E60000C94FD1E8FEF9FEFDF91CF910895FC0111
:104E70008485883010F40C94BB2590E080E0089580
:104E8000EF92FF920F931F93CF93DF93CDB7DEB7CF
:104E90002F97CDBFDEBFFC0126893789232B61F414
:104EA00090E080E02F96CDBFDEBFDF91CF911F91C4
:104EB0000F91FF90EF9008958C010E94C826780111
:104EC000F8E1EF0EF11CF80184A1883060F06689EA
:104ED0007789CE0101960E94F025BE016F5F7F4F5A
:104EE000C7010E94BF14F80184A18830C8F6C70129
:104EF0000E943727D7CF4F925F927F928F929F92D7
:104F0000AF92BF92CF92DF92EF92FF920F931F93D7
:104F1000CF93DF9300D0CDB7DEB7782E6B014A0177
:104F2000A82EB12C27E0829FC0011124FC01E85C6F
:104F3000F64D7F0100811181CE0101960E94DD179F
:104F400089819A810E94DB0C0815190554F4872D7C
:104F50000E948725F70126818C01021B110900831D
:104F600011830115110529F5872D0E9484218431B3
:104F700059F0882349F001E010E08C3111F410E081
:104F800000E01195019511090E940F0CC8010F90C6
:104F90000F90DF91CF911F910F91FF90EF90DF90D5
:104FA000CF90BF90AF909F908F907F905F904F90E9
:104FB0000895801691060CF4840187E08A9DF00123
:104FC0008B9DF00D1124E85CF64DE280F380C11456
:104FD000D10451F12701F7E05F22872D0E94AF1322
:104FE000840D951D20918029273309F453C0980121
:104FF000240D351D2130384008F44CC020E038E045
:10500000490184189508A401B6010E943A1E2601A0
:10501000480C591C6801C818D908872D0E94AF1385
:10502000A601B2010E943A1EE00EF11E87E08A9DA1
:10503000F0018B9DF00D1124E85CF64DE282F382C5
:1050400020813181201B310B208331838681800FA9
:10505000912F911D8A3F910510F4232BF1F487E0E5
:105060008A9DF0018B9DF00D1124E85CF64D1682AF
:10507000F982EA8222E030E0AE014F5F5F4F68E2E2
:1050800070E0872D0E94BD1360E470E0872D0E94C0
:105090002F217ACFA801B601C5CF868375CFCF93D4
:1050A000DF93FC01218D328D2115310529F48FEF1D
:1050B0009FEFDF91CF910895EC01808D4217530748
:1050C00008F0A9010E947B271816190684F7298D7C
:1050D0003A8D281B390B298F3A8FEBCF0F931F93F3
:1050E000CF93DF931F92CDB7DEB7FC01218D328DB8
:1050F000232B41F48FEF9FEF0F90DF91CF911F9102
:105100000F9108958C0141E050E0BE016F5F7F4F29
:10511000FC01808D0E947B27181619065CF7F801A8
:10512000818D928D0197818F928F898190E0E4CF5C
:10513000CF93DF931F92CDB7DEB741E050E0BE01C1
:105140006F5F7F4FFC0184850E947B27181619062C
:1051500034F4898190E00F90DF91CF9108958FEF23
:105160009FEFF9CFCF93DF93EC010E94C826CE01C9
:1051700048962CA1283020F4DF91CF910C949828E8
:105180008FEF9FEFDF91CF910895FC0184858830E8
:1051900010F40C947B2790E080E008958F929F920A
:1051A000BF92CF92DF92EF92FF920F931F93CF9314
:1051B000DF93CDB7DEB72A97CDBFDEBF90918029B0
:1051C000992379F108E0933309F404E06B01B82ED8
:1051D000CE0101960E94DD1789819A810E94DB0C25
:1051E0009E012F5F3F4F7901490110E0812F0E94FE
:1051F0008421F40181934F018823D9F01F5F0113AB
:10520000F5CF00E0F70191917F019D3161F0983178
:1052100051F09A51923038F00F5F1013F3CF0E9483
:105220000F0C18E060C060E170E0802F0E942F2119
:10523000102FE12EF12CF701EE0FFF1FE059F64D74
:10524000108211828AEF90E00E94080F4B2D70E0CF
:1052500060E0812F0E94F8134FEF62E070E0812F31
:105260000E94F813B601CD2891F480910328909103
:10527000042801968115F0EC9F0708F444C0809340
:105280000328909304286091032870910428812FAB
:105290000E94E31361E070E0812F0E942F2127E03C
:1052A0002E9DC0012F9D900D11249C01285C364D30
:1052B0007901F9011082118222E030E0AE01475FEE
:1052C0005F4F68E270E0812F0E94732289859A8582
:1052D000982789279827F70182839383168214825F
:1052E00015820E940F0C812F2A96CDBFDEBFDF9161
:1052F000CF911F910F91FF90EF90DF90CF90BF90D3
:105300009F908F90089580E090ECB9CF0F931F93FA
:10531000CF93DF93EC018B01888D883010F40E94CD
:105320005B21B80182E00E94CE28888F883050F43B
:105330000C871D87198E1A8E81E0DF91CF911F9106
:105340000F91089580E0F9CFEF92FF921F93CF93D2
:10535000DF9300D0CDB7DEB77C01FC01648175819D
:1053600081E20E94CE28182F883090F4CE01019659
:105370000E94DD1789819A810E94DB0C812F0E9497
:105380008421833169F00E940F0C812F0E943F21FC
:105390000F900F90DF91CF911F91FF90EF900895A4
:1053A00062E070E0812F0E942F210E940F0CF70114
:1053B00084819581E12FF0E0EE0FFF1FE059F64D5B
:1053C00080839183E5CFAF92BF92CF92DF92EF922D
:1053D000FF920F931F93CF93DF9300D0CDB7DEB72B
:1053E0008C016B015A01FC018485883058F40E94BD
:1053F0008821882321F0F80184850E943F2188E0DC
:10540000F8018487F60182819381A481B581009798
:10541000A105B10579F490E080E00F900F90DF9145
:10542000CF911F910F91FF90EF90DF90CF90BF90A1
:10543000AF9008958F3F9F4FAF4FBF4F61F370E024
:1054400060E081E20E94CE28F82EF8018487F7E020
:10545000F81708F3CE0101960E94DD1789819A8121
:105460000E94DB0CA6014E5F5F4F24E030E06CE051
:1054700070E08F2D0E94BD13B5018F2D0E94CE13B9
:1054800064E070E08F2D0E942F210E940F0C0E947B
:10549000840F6B017C01F80184850E94882187318B
:1054A00029F18C3119F1882309F4B5CF0E94840FBA
:1054B000AB01BC014C195D096E097F09F8018585B6
:1054C0009685B0E0A0E084179507A607B70738F0E7
:1054D00061E070E080E090E00E94540FDCCF8485B2
:1054E0000E945B2188E0F801848795CF81E090E0FD
:1054F00094CF0F931F93CF93DF9300D0CDB7DEB738
:10550000FC01248510E000E02830D8F48C01CE01A5
:1055100001960E94DD1789819A810E94DB0C22E0AE
:1055200030E0AE014F5F5F4F60E170E0F8018485CD
:105530000E94732209811A811027012710270E94D7
:105540000F0CC8010F900F90DF91CF911F910F9119
:1055500008950F931F93CF93DF9300D0CDB7DEB79D
:10556000FC01248510E000E02830D8F48C01CE0145
:1055700001960E94DD1789819A810E94DB0C22E04E
:1055800030E0AE014F5F5F4F64E070E0F80184856A
:105590000E94732209811A811027012710270E9477
:1055A0000F0CC8010F900F90DF91CF911F910F91B9
:1055B00008950F931F93CF93DF9300D0CDB7DEB73D
:1055C0008C018CEE99EFF801808391831282138213
:1055D00014821582CE0101960E94DD1789819A817D
:1055E0000E94DB0CB8016E5F7F4F44E050E08FE01B
:1055F00090E00E943A1E0E940F0CC8010F900F907D
:10560000DF91CF911F910F910895E1E8F9E280E8D1
:10561000DF011D928A95E9F710922A290895CF9308
:10562000C82FE82FF0E0E058F64D80818F3319F451
:1056300081E08093042A8091082B823059F4809174
:105640005F2B813039F041E060910B2B80910A2B68
:105650000E9414196C2F81E899E20E9458198091D8
:10566000032A9091082B9230B9F4811117C00E943F
:10567000FF188091582B82FF04C085E797E10E94B4
:105680005A1D8091022A81110E949E1D0E94052BA5
:105690001092012ACF910895882359F31092032A7A
:1056A000E8CFEF92FF920F931F93CF93DF93E1E840
:1056B000F9E290E0AC01425051099F012158394272
:1056C000241735071CF422812193F7CFFC01E15800
:1056D000F64D10828058964DFC0110828091022A6E
:1056E000882321F084E69BE20E94B81B80918129E7
:1056F000882379F18D3069F18A3059F168E87AEFC1
:1057000081E899E20E948456EC018EE7E82E88EF4A
:10571000F82E10E000E0BE01F701808191810E9427
:105720000B5B892B49F10F5F1F4FF6E0EF0EF11C69
:105730000C32110581F70E94521C0BC00990002009
:10574000E9F70480F581E02D8881882391F0CE016E
:1057500009950E94052B1092012A8091022A882324
:1057600049F1DF91CF911F910F91FF90EF900C9431
:105770009E1D90E080E0ECCF86E0809FF001819F4D
:10578000F00D1124E258F7402091082B30E082817F
:10579000938128233923232B89F60E94521C809160
:1057A000022A8823B1F269E477E184E69BE20E9451
:1057B000401CCFCFDF91CF911F910F91FF90EF90C1
:1057C0000895DC018CEE99EF8D939D9384E0FB01AD
:1057D00001900D928A95E1F70895EF92FF920F9351
:1057E0001F93CF93DF9300D000D0CDB7DEB78C01ED
:1057F0007B01FB0184858830A0F08CEE99EFF801E5
:10580000808391831282138214821582C8012496A8
:10581000CDBFDEBFDF91CF911F910F91FF90EF9031
:105820000895CE0101960E94DD1789819A810E9418
:10583000DB0C24E030E0AE014F5F5F4F6CE070E0C6
:10584000F70184850E9473220E940F0CBE016F5FD6
:105850007F4FC8010E94E12BD9CF7F928F929F92F8
:10586000AF92BF92CF92DF92EF92FF920F931F936E
:10587000CF93DF93CDB7DEB7A697CDBFDEBF8C0148
:10588000762E942E852E20E2A22ECE0101967C014A
:10589000DC01EA2D1D92EA95E9F76801F3E4CF0EE9
:1058A000D11C8CEE99EF89A39AA38FEF8BA38CA3C5
:1058B0008DA38EA343E450E0BE016F5D7F4FC60110
:1058C0000E94E317019609F4BFC081E089838A83AF
:1058D00086E0B82EBB821C82D80114966D917D9112
:1058E0008D919C9117970E94F8596D837E838F83C9
:1058F000988789869A8680E890E08B879C874CE120
:1059000050E0B701C6010E943E25FE0137968AE1AC
:10591000DF011D928A95E9F74801B8E08B0E911CD2
:10592000F401D70101900D92BA94E1F740E150E003
:10593000B701C6010E943E25F7011192AA94E9F72A
:1059400096E0A92EB12C40E250E0B701C6010E94BA
:105950003E25F1E0AF1AB108B1F783E6898392E8FA
:105960009A8393E59B838C8385E38D8381E08E838B
:105970007F829DE3988797E099878A8786E0F40184
:10598000DE011B9601900D928A95E1F78CE0898BE0
:105990008A8B6DE07AEFCE0143960E94275BD80197
:1059A0001B966C91CE0149960E94CB0DF80164853F
:1059B000CE014B960E94CB0DD8011D966C91CE0165
:1059C0004D960E94CB0D4EE150E0B701C6010E94FA
:1059D0003E25B3E07B121EC082E3898384E08A8384
:1059E000F80196859B8397859C8390899D839189F7
:1059F0009E8396E39F838887828D8987838D8A879C
:105A0000848D8B87858D8C874CE050E0B701C60173
:105A10000E943E2587E3898386E08A8391E09B8309
:105A200093E09C838D838FE08E838AE38F838BE367
:105A300088878FEF898749E050E0B701C6010E944F
:105A40003E25C6010E942B22A696CDBFDEBFDF9168
:105A5000CF911F910F91FF90EF90DF90CF90BF906B
:105A6000AF909F908F907F9008950F931F93CF9347
:105A7000DF93CDB7DEB72897CDBFDEBF8C01D8014D
:105A800059964D915C915A974115510551F0ED9100
:105A9000FC91028CF38DE02D70E060E0C801099567
:105AA000EECFF801808D0E94BB25892B99F148E04B
:105AB00050E0BE016F5F7F4FD80158968C910E94D5
:105AC0007B2718161906F4F4D801509684E0FE01DD
:105AD000319601900D928A95E1F78D8190E0982F93
:105AE00088272E81820F911DF801848B958B8F81E1
:105AF000282F30E0322F22278885820F932F911D87
:105B0000818F928F2896CDBFDEBFDF91CF911F91FD
:105B10000F91089590E080E0F5CF4F925F926F92E1
:105B20007F928F929F92AF92BF92CF92DF92EF922D
:105B3000FF920F931F93CF93DF93CDB7DEB7639799
:105B4000CDBFDEBF7C016B013A01FB0120E090E09C
:105B500080E06AE03191332309F461C040ED430FE6
:105B60004A3008F04DC0689FA001699F500D112474
:105B7000CA01C097830F911D37FD9A958F3F9105FC
:105B800049F340F3F701428153816481758180912B
:105B9000482A9091492AA0914A2AB0914B2A481745
:105BA00059076A077B0709F40AC28701085F1F4F7C
:105BB0000E94840F6F7077277C5FC8010E9486293E
:105BC000813009F001C28CEE99EF89839A83F70145
:105BD00082819381A481B5818B839C83AD83BE83B5
:105BE00045E350E0BE016F5F7F4FC8010E94E3179D
:105BF000892B91F5D12CC12CC8010E94772117C0A7
:105C00003E3209F0BFCF233009F4BCCFD301A20F3D
:105C1000B11D12968C932F5F90E080E09BCF2330D4
:105C200009F0B0CFF3018583CC24C394D12CC601F5
:105C30006396CDBFDEBFDF91CF911F910F91FF9093
:105C4000EF90DF90CF90BF90AF909F908F907F901C
:105C50006F905F904F9008950E94840FF7016683C4
:105C6000778342E050E0B7016A5F7F4FC8010E942E
:105C70003E2581E090E089839A8342E050E0BE01B6
:105C80006F5F7F4FC8010E943E2580E091E08983CD
:105C90009A8342E050E0BE016F5F7F4FC8010E94CF
:105CA0003E2519821A8242E050E0BE016F5F7F4FAD
:105CB000C8010E943E2542E050E0BE016F5F7F4F69
:105CC000C8010E943E2542E050E0BE016F5F7F4F59
:105CD000C8010E943E255601F6018081882301F10A
