:100200000C94AB0A0C94D30A0C94D30A0C94D30A22
:100210000C94D30A0C94D30A0C94D30A0C94D30AEA
:100220000C94D30A0C94D30A0C94D30A0C94D30ADA
:100230000C94D30A0C94D30A0C9484460C9427474C
:100240000C94D30A0C9456460C9430460C94D30A62
:100250000C94D30A0C94D30A0C94D30A0C94D30AAA
:100260000C94D30A0C9408460C94D30A0C94D30A29
:100270000C94D30A0C94D30A0C94D30A0C94D30A8A
:100280000C94D30A0C94D30A0C94D30A0C94D30A7A
:100290000C94D30A0C94D30A0C94D30A0C94D30A6A
:1002A00000000000000000002B2B6164647220330A
:1002B0000A2B2B6175746F20300A4D330A002B2BEB
:1002C0006164647220390A2B2B6175746F20320AC5
:1002D0002A5253540A3A66756E632027766F6C74FF
:1002E0003A616327003F202D204D656E7500312057
:1002F0002D205365742049502061646472657373C6
:10030000004552524F52202D20436F6D6D616E6437
:1003100020627566666572206F766572666C6F77AF
:1003200021005472616E736D6974206661696C6539
:10033000642100496E76616C696420706172616D40
:1003400065746572004D697373696E6720706172C0
:10035000616D657465720020616E64200056616C89
:1003600069642072616E67652069732062657477C5
:1003700065656E2000756E7365740053454320619A
:100380006464726573732073657420746F3A20001F
:1003900050524920616464726573732073657420E0
:1003A000746F3A200043616E6E6F742061646472F2
:1003B0006573732074686520636F6E74726F6C6C04
:1003C00065722100206D696C6C697365636F6E6482
:1003D0007300536574205B726561645F746D6F5F59
:1003E0006D735D20746F3A200053657420454F5340
:1003F00020746F3A200053657420454F4920617383
:1004000073657274696F6E3A2000496E7465726626
:10041000616365206D6F64652073657420746F3A45
:100420002000417070656E64696E67206F662045BC
:100430004F54206368617261637465723A200045AD
:100440004F542073657420746F20415343494920F1
:100450006368617261637465723A20004175746FFC
:10046000206D6F64653A200020202020202020206D
:10047000202761646472657373656420746F2074EF
:10048000616C6B20627574206E6F7468696E672092
:10049000746F2073617927206572726F72730057D1
:1004A00041524E494E473A206175746F6D6F6465D5
:1004B000204F4E2063616E20636175736520736FFA
:1004C0006D65206465766963657320746F20676568
:1004D0006E65726174650041523438382047504966
:1004E0004220636F6E74726F6C6C65722C2076653F
:1004F000722E20302E35332E33342C2032362F31CD
:10050000322F32303235004152343838204750498A
:100510004220636F6E74726F6C6C65722C2076650E
:10052000722E20302E35332E33342C2032362F319C
:10053000322F3230323500526561645E4F4B0046D7
:1005400061696C656420746F2073656E6420534428
:1005500043004661696C656420746F2073656E6446
:10056000204C4C4F21004661696C656420746F20FB
:1005700073656E6420756E6976657273616C204C6C
:100580004C4F2E004661696C656420746F20736562
:100590006E64204C4F432100494643207369676EC7
:1005A000616C20617373657274656420666F72207C
:1005B000313530206D6963726F7365636F6E64737C
:1005C0000047726F75702074726967676572206387
:1005D0006F6D706C657465642E004661696C65644E
:1005E00020746F207472696767657220646576692C
:1005F000636521005265736574204641494C45444A
:100600002E0053657269616C20706F6C6C20636F93
:100610006D706C657465642E004661696C6564205C
:10062000746F207265747269657665207374617485
:10063000757320627974652066726F6D20005D208D
:1006400066726F6D206465766963652061742061F0
:100650006464726573733A200052656365697665F8
:1006600064207374617475732062797465205B0013
:100670002C005352513A0053657269616C20706FBF
:100680006C6C206F6620616C6C20646576696365B4
:1006900073207265717565737465642E2E2E005318
:1006A000657474696E67732073617665642E004C9F
:1006B0004F4E3A20002B2B00000A50726F6C6F6770
:1006C000697820436F6D70617469626C6520436F57
:1006D0006D6D616E64733A0A616464723A094469CB
:1006E00073706C61792F73657420646576696365D6
:1006F00020616464726573730A6175746F3A0941AD
:1007000075746F6D61746963616C6C792072657169
:10071000756573742074616C6B20616E6420726502
:10072000616420726573706F6E73650A636C723AF0
:100730000953656E642053656C6563746564204479
:10074000657669636520436C65617220746F206310
:10075000757272656E7420475049422061646472FC
:100760006573730A656F693A09456E61626C652F3E
:1007700064697361626C6520617373657274696F1B
:100780006E206F6620454F49207369676E616C0A61
:10079000656F723A0953686F77206F7220736574C2
:1007A00020656E64206F66207265636569766520DA
:1007B0006368617261637465722873290A656F7377
:1007C0003A0953706563696679204750494220743D
:1007D00065726D696E6174696F6E206368617261C4
:1007E000637465720A656F745F636861723A095376
:1007F00065742063686172616374657220746F2030
:10080000617070656E6420746F20555342206F755F
:1008100074707574207768656E20454F5420656E3E
:1008200061626C65640A656F745F656E61626C65B8
:100830003A09456E61626C652F44697361626C654B
:1008400020617070656E64696E67207573657220D3
:10085000737065636966696564206368617261636A
:1008600074657220746F20555342206F75747075D3
:1008700074206F6E20454F49206465746563746908
:100880006F6E0A68656C703A0954686973206D650B
:1008900073736167650A6966633A094173736572C8
:1008A0007420494643207369676E616C20666F72DD
:1008B00020313530206D6973636F7365636F6E64CB
:1008C00073202D206D616B652041523438382063D0
:1008D0006F6E74726F6C6C657220696E20636861F4
:1008E0007267650A6C6C6F3A094C6F63616C206CBF
:1008F0006F636B6F7574202D2064697361626C6522
:100900002066726F6E742070616E656C206F70650A
:10091000726174696F6E206F6E20696E7374727588
:100920006D656E740A6C6F633A09456E61626C6541
:100930002066726F6E742070616E656C206F7065DA
:10094000726174696F6E206F6E20696E7374727558
:100950006D656E740A6C6F6E3A0950757420636F22
:100960006E74726F6C6C657220696E206C69737442
:10097000656E2D6F6E6C79206D6F646520286C69D3
:100980007374656E20746F20616C6C207472616684
:10099000666963290A6D6F64653A0953657420744A
:1009A000686520696E74657266616365206D6F6449
:1009B000652028313D636F6E74726F6C6C65722FA9
:1009C000303D646576696365290A726561643A0938
:1009D0005265616420646174612066726F6D206984
:1009E0006E737472756D656E740A726561645F749E
:1009F0006D6F5F6D733A09526561642074696D654E
:100A00006F757420737065636966696564206265DB
:100A1000747765656E2031202D2033303030206DA5
:100A2000696C6C697365636F6E64730A7273743A90
:100A30000952657365742074686520636F6E747203
:100A40006F6C6C65720A736176656366673A095309
:100A500061766520636F6E666967726174696F6E37
:100A60000A73706F6C6C3A0953657269616C20701F
:100A70006F6C6C2074686520616464726573736563
:100A80006420686F7374206F7220616C6C20696ED3
:100A9000737472756D656E74730A7372713A09526C
:100AA000657475726E20737461747573206F66203F
:100AB000737271207369676E616C2028312D7372B7
:100AC000712061737365727465642F302D73727158
:100AD000206E6F74206173736572746564290A7384
:100AE00074617475733A0953657420746865207372
:100AF0007461747573206279746520746F20626507
:100B00002072657475726E6564206F6E206265690F
:100B10006E6720706F6C6C65642028626974203683
:100B2000203D205251532C20692E652053525120D4
:100B30006173736572746564290A7472673A095344
:100B4000656E64207472696767657220746F2073C4
:100B5000656C65637465642064657669636573209C
:100B600028757020746F203135206164647265735C
:100B7000736573290A7665723A09446973706C610A
:100B800079206669726D7761726520766572736926
:100B90006F6E0A0053656E64696E672044434C2093
:100BA0006661696C656400454550524F4D20657221
:100BB00061736564210053657420454F5220746F42
:100BC0003A2000506172616C6C656C20706F6C6CC7
:100BD00020636F6D706C657465642E0052454E3AEB
:100BE000200050524F4D3A20004F4646004F4E20B5
:100BF0006275666665726564004F4E20756E62753B
:100C000066666572656400544F4E3A20004D697304
:100C100073696E6720706172616D657465727300CF
:100C20004D697373696E6720706172616D6574657B
:100C30007200537769746368656420746F2064651B
:100C400076696365206D6F64652E0020737563633C
:100C500065656465642E00206661696C65642100C9
:100C600053656E64696E672054435420746F20642A
:100C7000657669636520617420616464726573736D
:100C8000200054686174206973206D792061646468
:100C9000726573732120506C656173652070726F8B
:100CA0007669646520746865206164647265737335
:100CB000206F6620612072656D6F746520646576B3
:100CC0006963652E00496E76616C69643A20303D37
:100CD00064617461206275733B20313D636F6E7493
:100CE000726F6C206275730044494F380044494F5D
:100CF000370044494F360044494F350044494F348A
:100D00000044494F330044494F320044494F3100B9
:100D100041544E005352510052454E00454F490038
:100D2000444156004E524644004E44414300494619
:100D300043004152343838204750494220636F6E97
:100D400074726F6C6C65722C207665722E20302E5A
:100D500035332E33342C2032362F31322F3230328D
:100D6000350053657269616C206E756D6265722025
:100D70006D757374206E6F7420657863656564208B
:100D800039206368617261637465727321004C6518
:100D90006E677468206F66206E616D65206D757377
:100DA00074206E6F7420657863656564203135202A
:100DB0006368617261637465727321004C656E676C
:100DC0007468206F662076657273696F6E20737425
:100DD00072696E67206D757374206E6F742065780C
:100DE000636565642034382063686172616374658B
:100DF000727321005665725374723A20002077692D
:100E000074682073657269616C206E756D626572BD
:100E10000053656E64696E672049444E3A20005263
:100E20006561645E4F4B004661696C656420746F58
:100E30002073656E6420554E4C004661696C656494
:100E400020746F2073656E6420554E5400556E7289
:100E500065636F676E697A656420636F6D6D616E3F
:100E600064000A436F6D6D616E642061626F72741D
:100E700065642E000A496E76616C696420495020D1
:100E80006164647265737320666F726D61742E00A5
:100E9000596F752077696C6C206E65656420746F7E
:100EA000207265626F6F74206E6F772E000A495052
:100EB00020416464726573732077696C6C2062658D
:100EC0002073657420746F3A2000456E746572203B
:100ED0007468652064657369726564204950206197
:100EE0006464726573732028302E302E302E3020CB
:100EF0006D65616E733A20757365204448435029CF
:100F00003A200076696120444843502E00436F6EBA
:100F10006669677572656420495020416464726532
:100F200073733A20000A43757272656E74204950DB
:100F300020416464726573733A20002D205352413E
:100F40004D206C6566743A20002121204E6F20767A
:100F5000616C696420495020616464726573732018
:100F600061737369676E65642E20506C656173658B
:100F700020636865636B20796F7572206E65747786
:100F80006F726B2073657474696E67732E004950BD
:100F900020416464726573733A20004661696C6530
:100FA0006420746F207374617274205443502073F2
:100FB0006572766572004D6178696D756D206E752C
:100FC0006D626572206F662063686172616374652B
:100FD0007273206973207265616368656420696E4D
:100FE000206120636F6D6D616E642074657874009C
:100FF00000536574757020636F6D706C6574652E39
:10100000005374617274696E672053657269616C14
:10101000204D656E752E2E2E005374617274696EAC
:10102000672057656220736572766572206F6E2047
:10103000706F72742038302E2E2E005374617274CB
:10104000696E672050726F6C6F67697820544350E7
:1010500020736572766572206F6E20706F727420D7
:10106000313233342E2E2E0057616974696E672039
:10107000666F7220444843502E2E2E00546865201F
:101080006465766963657327732064656661756C52
:1010900074206164647265737320706F696E747319
:1010A00020746F20475049422061646472657373F5
:1010B0002000436F6E6669677572696E6720616EA6
:1010C00064205374617274696E67204750494220EE
:1010D0006275732E2E2E004D41432041646472656B
:1010E00073733A200045746865726E6574324750B8
:1010F000494220476174657761792076322E32202B
:101100002841523438382076302E35332E33342966
:101110000A00BE02A802A702A602A502A402A30218
:10112000A202A102A002446F6E652E00436C6561AD
:1011300072696E672E2E2E004572726F722077686C
:10114000696C6520726563656976696E67206461A4
:1011500074612E00526561645E4F4B00526561649C
:101160005E4F4B00202D3E2063616E63656C6C61A9
:1011700074696F6E202100202D3E2063616E6365CF
:101180006C6C6174696F6E202100202D3E20746F9D
:101190006F206D616E7920617267756D656E747315
:1011A000202120286F6E6520636861726163746519
:1011B00072206F6E6C79290000202D3E204E6F202A
:1011C000636F6D6D616E6420636F6465206D617423
:1011D0006368696E67202100202D3E20746F6F20A8
:1011E0006D616E7920617267756D656E7473202113
:1011F00020286F6E65206368617261637465722078
:101200006F6E6C7929002C20506C656173652069C4
:101210006E666F726D20796F757220636C69656E92
:1012200074732100495020416464726573732068AF
:101230006173206368616E67656420746F20004984
:101240005020416464726573732068617320626525
:10125000656E2061737369676E65643A200045743A
:101260006865726E6574206C696E6B206973204FBF
:101270004B206E6F7700526573657474696E6720DA
:10128000616C6C20636C69656E7420636F6E6E6553
:101290006374696F6E732E2E2E002069732077722F
:1012A0006F6E672E20506C6561736520636865639F
:1012B0006B204448435021004950204164647265CA
:1012C0007373200045746865726E6574206C696E76
:1012D0006B206973204F464600676574436D643A1E
:1012E00020636F6D6D616E64206E6F742061766136
:1012F000696C61626C6520696E2074686973206D29
:101300006F64652E0053656E645E4F4B003C2F6228
:101310006F64793E3C2F68746D6C3E0A0A003C2F66
:10132000703E003C68323E50726F6C6F6769782087
:10133000475049422045746865726E657420536554
:10134000727665723C2F68323E3C703E49502041B7
:101350006464726573733A20003C2F7370616E3E53
:101360003C2F703E0A003C21444F435459504520C5
:1013700068746D6C3E3C68746D6C206C616E673D8A
:1013800022656E223E3C686561643E3C6D65746119
:1013900020636861727365743D225554462D38226E
:1013A000202F3E203C6D657461206E616D653D228D
:1013B00076696577706F72742220636F6E74656EE4
:1013C000743D2277696474683D6465766963652D50
:1013D00077696474682C20696E697469616C2D7317
:1013E00063616C653D312E3022202F3E203C7469B4
:1013F000746C653E45746865726E65743247504919
:10140000423C2F7469746C653E3C7374796C653E24
:1014100020626F6479207B20666F6E742D66616D2B
:10142000696C793A20417269616C2C2073616E732A
:101430002D73657269663B207D203C2F7374796C37
:10144000653E3C2F686561643E3C626F64793E3C5A
:1014500068313E45746865726E6574324750494222
:1014600020476174657761792076322E32202841D9
:10147000523438382076302E35332E3334290A3C16
:101480002F68313E3C703E4E756D626572206F660E
:1014900020636C69656E7420636F6E6E656374693A
:1014A0006F6E733A203C7370616E2069643D2263F5
:1014B0006E78223E00485454502F312E3120323065
:1014C00030204F4B0A436F6E74656E742D547970E3
:1014D000653A20746578742F68746D6C0A436F6E7A
:1014E0006E656374696F6E3A20636C6F73650A0A88
:1014F00000485454502F312E3120343034204E6F58
:101500007420466F756E640A00496E746572666178
:101510006365206D697374616B65207769746820F9
:101520006C6962726172792053657269616C53658E
:101530007269616C4D656E75436D64004E6F204D30
:10154000656E7520696E206D656D6F7279003E0065
:101550000000E547DF4711241FBECFEFCDBFDFE31B
:10156000DEBF18E2A0E0B8E2E0EBFFEB02C00590BE
:101570000D92AA31B107D9F72CE2AAE1B8E201C075
:101580001D92A13CB207E1F71AE0CAEADAE004C012
:101590002197FE010E94B45BC93AD107C9F70E94A6
:1015A0005B490C947A5D0C9400018F929F92AF92EC
:1015B000BF92CF92DF92EF92FF920F93CF93DF9380
:1015C00080910B2A882319F081FF0DC07894DF9158
:1015D000CF910F91FF90EF90DF90CF90BF90AF90A1
:1015E0009F908F90089580FFF2CF80900D2A909069
:1015F0000E2AA0900F2AB090102AC12CD12C76016F
:10160000E0E09401A501B601C701A0E00E94DE5B05
:1016100091F1217030E040E050E060E070E080E067
:1016200090E00E94DE5BD1F0B0E0A0E0E03370F427
:10163000AE2FA695A695A69580E2A89FD00111246D
:10164000A05FBB4F8E2F8770A80FB11DCE2FD0E0AB
:10165000CB5FD54D88899C91892B8C939401A501F2
:10166000B601C70101E00E94C35B49015A016B0149
:101670007C01EF5FC6CF8090112A9090122AA09033
:10168000132AB090142AC12CD12C7601E0E29401E7
:10169000A501B601C701A0E00E94DE5B09F497CF67
:1016A000217030E040E050E060E070E080E090E0E9
:1016B0000E94DE5BD1F0B0E0A0E0E03370F4AE2F2A
:1016C000A695A695A69580E2A89FD0011124A05FBB
:1016D000BB4F8E2F8770A80FB11DCE2FD0E0CB5FF0
:1016E000D54D88899C91892B8C939401A501B601D5
:1016F000C70101E00E94C35B49015A016B017C01F3
:10170000EF5FC5CF00008093C4088091C30887FFB6
:10171000FCCF8091C40808950F931F93CF93DF935C
:10172000EC018C01060F171FC017D10729F0888123
:101730000E94820B8993F8CFDF91CF911F910F9177
:1017400008958F929F92AF92BF92CF92DF92EF92C5
:10175000FF920F931F93CF93DF93182FF92F809150
:101760000B2A882319F081FF12C0F8941093C00847
:10177000F093C108DF91CF911F910F91FF90EF90EF
:10178000DF90CF90BF90AF909F908F90089580FF93
:10179000EDCF80900D2A90900E2AA0900F2AB09045
:1017A000102AC12CD12C7601E0E09401A501B601EC
:1017B000C701A0E00E94DE5BA9F1217030E040E0AB
:1017C00050E060E070E080E090E00E94DE5BE9F0D5
:1017D000D0E0C0E0E03370F4CE2FC695C695C69534
:1017E00080E2C89FE0011124C05FDB4F8E2F87701D
:1017F000C80FD11D8E2F90E028818B5F954DDC01A5
:1018000050962C938881887F88839401A501B60126
:10181000C70101E00E94C35B49015A016B017C01D1
:10182000EF5FC3CF8090112A9090122AA090132AC4
:10183000B090142AC12CD12C7601E0E29401A501CC
:10184000B601C701A0E00E94DE5B09F48FCF2170D2
:1018500030E040E050E060E070E080E090E00E9426
:10186000DE5BE9F0D0E0C0E0E03370F4CE2FC69547
:10187000C695C695B0E2CB9FE0011124C05FDB4F57
:101880008E2F8770C80FD11D8E2F90E028818B5F1F
:10189000954DDC0150962C938881887F8883940134
:1018A000A501B601C70101E00E94C35B49015A01CD
:1018B0006B017C01EF5FC2CFFC01BC01695A7F4F15
:1018C0008FEF9FEF2191322F3927232F22952F70F1
:1018D0002327422F50E0382FCA01982F882792954E
:1018E000907F28273927CA01B5E0880F991FBA953C
:1018F000E1F7822793276E177F0721F70895E6E027
:10190000FBE287E5DF011D928A95E9F782E0828399
:1019100081E084838FEF858380EB94E081879287D9
:10192000089520E3FC0120833296862F82958F70E4
:101930006F706A3030F4605D6293682F8111F5CF6B
:101940000895695CF9CFFC01818D928D0895089509
:10195000CF93DF9390E0FC01E753F44020812F3FC9
:1019600061F0FC01E056F440E08130E2E39FF001D9
:101970001124FC5F613021F42183DF91CF91089520
:1019800089589440EC01A881AF3F69F0CF0140969F
:10199000A80FB92FB11D9FB7F89422838C9188604E
:1019A0008C939FBFEACFB0E0A0E0F5CF90E0FC01C0
:1019B000E25BF440E081EE2319F1E13021F000F127
:1019C000E630A8F0089589589440FC012081233026
:1019D00008F02F5F3091010A81E090E001C0880F8C
:1019E0002A95EAF7809583238093010A089580E180
:1019F000E89FF0011124E05AF54F81818F7E8183A9
:101A000008950F931F93CF93DF93C82FD0E0FE016B
:101A1000E753F44000810F3FA1F0162F893210F4F4
:101A20000E94D60CFE01E056F440E08180E2E89F7F
:101A3000F0011124FC5F8081802351F0111106C058
:101A40000683DF91CF911F910F9108950583F9CF00
:101A5000C958D4408881309771F08F3F61F07096FB
:101A6000E80FF11D9FB7F8948081111107C0877F9F
:101A700080839FBFE6CFF0E0E0E0F4CF8860F8CF4E
:101A80000F931F93CF93082F10E0F801E753F44012
:101A9000C081CF3F79F00E94D60CF801E056F440A7
:101AA000E08180E2E89FF0011124FC5F8085C8237B
:101AB00081E009F480E0CF911F910F9108950E9479
:101AC000400D91E0811190E0892F0895893210F442
:101AD0000C94010D0895EF92FF920F931F93CF93F3
:101AE000DF93E82EF12CF701E958F44000810F3F15
:101AF000D9F1EB01182F61E00E94A80C209751F456
:101B000060E0812FDF91CF911F910F91FF90EF90B7
:101B10000C94660DCF3FD10511F461E0F2CFF701CF
:101B2000E25BF440E081E13039F010F0E63030F172
:101B3000C038D10594F7E4CFE02FF0E0EE0FFF1F9F
:101B40000330C8F0ED5DF54F0F5F8FB7F894C08399
:101B50008FBF8091010A21E030E001C0220F0A9579
:101B6000EAF7822B8093010ADF91CF911F910F91A9
:101B7000FF90EF900895E85DF54FE7CF80E1E89F93
:101B8000F0011124E05AF54F8FB7F89494859487AB
:101B9000C5878FBF818180618183E6CF000000000F
:101BA000000000009C0127503109880F991F880F01
:101BB000991F820F931F0197F1F708956FB7F8945B
:101BC0002091342930913529409136295091372977
:101BD0008091AA0A9091AB0A7091A60A70FF08C082
:101BE0002F5F3F4F4F4F5F4F8091AA0A9091AB0AF2
:101BF0006FBFE92FFF27BC01A4E076956795AA95F2
:101C0000E1F7E60FF71FBC01B6E076956795BA9548
:101C1000E1F7E61BF70B892F992786958695E81B38
:101C2000F90BA8EEB3E00E94615B6E0F7F1F811D70
:101C3000911D08958F929F92AF92BF92CF92DF92A3
:101C4000EF92FF924B015C010E94DE0D6B017C0163
:101C5000A8EEB3E0A50194010E94615BC60ED71EF9
:101C6000E81EF91EC616D706E806F90618F40E9403
:101C7000DE0DF8CF0E94DE0D6C157D058E059F05EB
:101C8000C8F3FF90EF90DF90CF90BF90AF909F9000
:101C90008F9008952FB7F894609134297091352969
:101CA00080913629909137292FBF089521E0FC01BA
:101CB0008485883008F020E0822F089580913428B0
:101CC00090913528891B990B0895DC01ED91FC91C9
:101CD0000190F081E02D0994EF92FF920F931F93F2
:101CE000CF93DF938C017B01D0E0C0E0F701EC0FD4
:101CF000FD1F6491662361F0D801ED91FC91019084
:101D0000F081E02DC8010995892B11F02196EECFC5
:101D1000CE01DF91CF911F910F91FF90EF90089529
:101D2000AF92BF92CF92DF92EF92FF920F931F93E9
:101D3000CF93DF936C017B018B01040F151FEB0127
:101D40005E01AE18BF08C017D10759F06991D601DE
:101D5000ED91FC910190F081E02DC6010995892B50
:101D600079F7C501DF91CF911F910F91FF90EF900F
:101D7000DF90CF90BF90AF900895FC01508D418DC2
:101D8000252F30E0842F90E0821B930B541710F026
:101D9000CF96089501970895FC0196898789981731
:101DA00061F0A789AE0FBF2FB11D5D968C91978909
:101DB0009F5F9F73978B90E008958FEF9FEF08953B
:101DC000FC0196898789981731F08789E80FF11D02
:101DD000858D90E008958FEF9FEF0895FC0196891F
:101DE0002789892F90E0805C9F4F821B91098F7318
:101DF000992708958CE49AE20E94EE0E21E0892B47
:101E000009F420E0822F0895CF93DF93EC01E8815D
:101E1000F9810680F781E02D0995EC85FD858681A5
:101E20008F738683EC85FD8585818F7585838F898A
:101E30008E8B1D8ADF91CF910895AF92BF92CF9282
:101E4000DF92EF92FF920F931F93CF93DF93EC01FA
:101E50006A017B01A22E8D89882339F0E881F981FE
:101E60000688F789E02DCE0109950C8910E0BFB6F0
:101E7000F89460E078E689E899E0A70196010E946D
:101E8000205B69017A018FEFC81AD80AE80AF80ABC
:101E9000F694E794D794C794EC85FD8586818D7F71
:101EA0008683EC85FD85868186831D8AA091251118
:101EB0000A2E000CBB0BA70196010E946C5B20E070
:101EC00034E040E050E00E94425BEC85FD85C20EAC
:101ED000D31EE41EF51EC086D186EC85FD85A78243
:101EE000EC85FD858681806C8683EC85FD8585810A
:101EF000806885839091E2058B898095892378019C
:101F0000EE0CFF1CF701E00FF11FEC0FFD1F908995
:101F1000892B8093E2058685893218F462E00E945D
:101F2000A80C0E0D1F1DC00FD11F61E08F850E94F0
:101F3000660D8F85893218F461E00E94A80CBFBE3F
:101F4000DF91CF911F910F91FF90EF90DF90CF9095
:101F5000BF90AF900895FC01613019F4648B81E06B
:101F60000895148A6623D9F380E00895DC0154961D
:101F70001C92549754968C9154978230A0F4282F39
:101F800030E0F901EE0FFF1FE20FF31FEA0FFB1F16
:101F90009785961303C09685941749F08F5F5496E2
:101FA0008C935497E7CF54961C9280E0089581E07B
:101FB0000895CF93DF93FC01908D818DC485D585E5
:101FC000981306C08D818F7D8D83DF91CF91089509
:101FD000A18DAE0FBF2FB11DA35ABF4F2C91818D84
:101FE00090E001968F739927818F80E48C83A4857C
:101FF000B58512962C93908D818D9813E6CFA4858C
:10200000B58515968C9115978F7D15968C93838D3C
:102010008823D9F2848D80931301138ED6CFDC01EF
:102020001C96ED91FC910FB607FE03C0258125FD9E
:1020300004C0248125FD0C94D90F0895EF92FF92DE
:102040000F931F93CF93DF93EC0181E08D8B988DDD
:10205000898D98131CC0AC85BD8514968C911497FE
:1020600085FF15C012966C93AC85BD8580E41496EF
:102070008C93EC85FD8585818F7D858381E090E063
:10208000DF91CF911F910F91FF90EF900895809174
:10209000110180FF08C0809113018C8F8A8D80937D
:1020A000130181E08B8FF62E088D10E00F5F1F4F1C
:1020B0000F731127E02E898D8E1104C0CE010E946E
:1020C0000F10F9CFE88DEC0FFD2FF11DE35AFF4FF4
:1020D000F082088FEC85FD8585818062CECF682FE8
:1020E0008CE49AE20C941E10CF93DF93FC012589B7
:1020F0002223C9F0EC018091110180FF08C080917A
:102100001301848F828D8093130181E0838FEC858E
:10211000FD85858185FD03C0848186FD04C0CE01D7
:102120000E940F10F4CFDF91CF91089580E090E0EE
:10213000892B29F00E94FA0E81110E94000080E094
:1021400090E0892B49F080E090E0892B29F00E94F3
:10215000000081110E94000080E090E0892B49F08E
:1021600080E090E0892B29F00E94000081110E94FC
:10217000000080E090E0892B49F080E090E0892B1E
:1021800029F00E94000081110C940000089581E064
:1021900008950F9391E09093762810922F286093E2
:1021A0002D2870932E2840932C2820932B281092B2
:1021B00030281092312800932A28880F80932928EC
:1021C00093E024E080912C28882331F090937728A5
:1021D000809129288E7F09C080912B28882341F087
:1021E000209377288091292881608093A70808C0D0
:1021F00080912C28811104C080912B28882331F3F1
:1022000080912F288823E1F380912F288330D1F209
:1022100080912B28882321F0809131280F910895F7
:1022200090912F2881E09130C9F780E0F7CFE0EA64
:10223000F8E091859066918792E09093772880935B
:10224000232810922228089581E08093222810925A
:10225000232893E09093AA089091AB0891FF0BC0BC
:1022600010922728F0E0E0E009958093262885E089
:10227000809377280895109228288093252886E057
:10228000F7CFE091352880913428E81730F4F0E05A
:10229000EA5CF74D808190E008958FEF9FEF0895FD
:1022A00090913528809134282FEF3FEF981748F40C
:1022B000E92FF0E0EA5CF74D208130E09F5F9093DA
:1022C0003528C9010895CF92DF92EF92FF920F93C4
:1022D0001F93CF93DF937C018A01EB016B01C40E46
:1022E000D51ECC15DD0551F06991D701ED91FC911A
:1022F0000190F081E02DC7010995F3CFC801DF916E
:10230000CF911F910F91FF90EF90DF90CF900895A4
:102310002091B828203440F021E030E0FC012283F5
:10232000338390E080E008958091B928E82FF0E0B1
:10233000E858F74D60838F5F8093B9288093B82861
:1023400081E090E00895CF93DF93EC018C819D8133
:10235000DC01ED91FC910480F581E02D09952A8541
:102360003B85009739F488859985821B930BDF9113
:10237000CF910895821B930B97FFF9CF90E080E0F7
:10238000F6CFCF93DF93DC011A964D915C91411506
:10239000510599F1EC018C819D816E817F81DC0179
:1023A000ED91FC910280F381E02D09952A853B8512
:1023B000281B390B2A873B87232BA9F0009799F01C
:1023C00030E020E04A855B852417350760F4EE8114
:1023D000FF81E20FF31FDF01A80FB91F4C9140836B
:1023E0002F5F3F4FEFCFEC81FD8182819381892B5D
:1023F00021F081E090E08A839B83DF91CF91089563
:10240000AF92BF92CF92DF92EF92FF920F931F9302
:10241000CF93DF938C016B015A017B01D0E0C0E0C8
:10242000CA15DB05B9F1D8011A968D919C911B97BD
:10243000892B09F5A5014C1B5D0B18968D919C917C
:10244000199748175907B8F014968D919C91B601C9
:102450006C0F7D1FDC01ED91FC910280F381E02D7A
:10246000DF91CF911F910F91FF90EF90DF90CF9070
:10247000BF90AF900994F70161917F01D801ED9170
:10248000FC910190F081E02DC8010995892B11F094
:102490002196C6CFCE01DF91CF911F910F91FF9072
:1024A000EF90DF90CF90BF90AF900895FC01A68190
:1024B000B781828593859C012F5F3F4F22873387A9
:1024C000A80FB91F6C9322853385808591852817C5
:1024D000390741F4CF010190F081E02D0680F781AA
:1024E000E02D099581E090E00895E0911E28F0919B
:1024F0001F28808190911D28892B80830895E09169
:102500001E28F0911F28908180911D288095892395
:1025100080830895AF92BF92CF92DF92EF92FF92A5
:102520000F931F93CF93DF93CDB7DEB72897CDBF1F
:10253000DEBF8C017B016A01809180298333E1F445
:102540005801A40EB51EA016B10609F46FC00E9472
:102550007F1280EF0E94820B812F0E94820B802FBE
:102560000E94820B0F5F1F4FF70181917F010E9434
:10257000820B0E947512E7CF5B01A40EB51E843357
:10258000C1F40E947F1219830A838D2D80688B838A
:10259000CC8264E070E0CE0101960E948C0BAE14F8
:1025A000BF0409F441C0F70181917F010E94820BB1
:1025B000F6CF0E947F120F3F110509F028F419820F
:1025C0000A8384E08B830CC017FD17C019820A832D
:1025D00033E0169507953A95E1F7007E0C600B8382
:1025E00086E0C816D10488F5F701DE011496EA15D5
:1025F000FB0599F081918D93FACFC80126E096955D
:1026000087952A95E1F7807E19830A830115104C7E
:1026100010F48461D7CF8C61D5CFB6016D5F7F4F49
:10262000CE0101960E948C0B0E947512C60128965D
:10263000CDBFDEBFDF91CF911F910F91FF90EF9043
:10264000DF90CF90BF90AF90089563E070E0CE012F
:1026500001960E948C0BF70181917F010E94820BF1
:10266000AE14BF04C1F7E0CFCF93DF931F92CDB775
:10267000DEB7898341E050E0BE016F5F7F4F90E09D
:1026800080E00E948A120F90DF91CF91089590E030
:1026900020918029233339F40C96982F990F990FA4
:1026A000990F80E008954896F8CFDA01E09120284C
:1026B000F0E0FE2FEE27E60FF71F90E0982F882717
:1026C000A901BD018E0F9F1F0C948A12CF93DF9337
:1026D00000D0CDB7DEB779836A8322E030E0AE0167
:1026E0004F5F5F4F60E170E00E9455130F900F90B5
:1026F000DF91CF910895CF93DF9300D0CDB7DEB7B0
:1027000079836A8322E030E0AE014F5F5F4F64E07F
:1027100070E00E9455130F900F90DF91CF910895B4
:10272000CF93DF931F92CDB7DEB72091202830E002
:10273000322F2227260F371F90E0982F88274983B2
:1027400041E050E0BE016F5F7F4F820F931F0E94F8
:102750008A120F90DF91CF910895CF93DF931F924C
:10276000CDB7DEB76983DC01ED91FC910280F38186
:10277000E02D41E050E0BE016F5F7F4F09950F9063
:10278000DF91CF910895CF93DF931F92CDB7DEB73E
:102790006983DC01ED91FC910280F381E02D41E041
:1027A00050E0BE016F5F7F4F09950F90DF91CF9191
:1027B0000895FC019485FB018485981303C081E092
:1027C000983008F080E00895CF93DF931F92CDB743
:1027D000DEB76983DC01ED91FC910280F381E02D8D
:1027E00041E050E0BE016F5F7F4F09950F90DF9190
:1027F000CF91089544E050E0BC018FE090E00C944C
:102800008A1244E050E0BC0185E090E00C948A120A
:1028100044E050E0BC0181E090E00C948A12FC019D
:10282000848595850895DC01ED91FC91028CF38DF2
:10283000E02D099460E08DE00E94010D61E087E2E7
:102840000E94010D61E086E20C94010DFC01828181
:1028500081110CC08381811109C08481811106C05E
:1028600081E09581911103C080E0089581E0089591
:10287000FC018489958908952CE73DEFFC012083B4
:102880003183FB014089518962897389FC0142834C
:10289000538364837583089590912A29E92FF0E08A
:1028A000EF57F64D80839F5F90932A290895FC018E
:1028B000DB0112968D919C911397828393831496DA
:1028C0004D915D916D917C911797448355836683FB
:1028D000778318964D915D916D917C911B97408700
:1028E0005187628773871C968C911C9784871D96ED
:1028F0008D919C9185879687CF010895FC0165870E
:1029000076870895DC01ED91FC9102A0F3A1E02D02
:10291000099591E089270895862F089581E08627FB
:10292000089508950895282F2F71229530E0A90168
:1029300055954795559547954373220F331F220FA1
:10294000331F422B50E0282F30E0B9017595679571
:10295000CA01959587958575440F551F4A7A482B6E
:10296000842F869586958695220F331F220F331F5D
:102970002078962F9072292B6074262B822B089535
:10298000CF93DF93D62F0E949314C82F8D2F0E94D0
:102990009314E0E4F4E02481982F909592238C2303
:1029A000892B8483DF91CF91089560E280E20E94B9
:1029B000C01468E270E080E090E00E941A0E60EAC5
:1029C00080E00E94C01468E270E080E090E00E9425
:1029D0001A0E60E880E80C94C0144F925F926F92D8
:1029E0007F929F92AF92BF92CF92DF92EF92FF922F
:1029F0000F931F93CF93DF935C01D62F8A010E9420
:102A00004A0E2B013C016F5F7F4F8F4F9F4FC0904D
:102A10000F2BD090102BF12CE12CF8011082C0E08C
:102A20009924939464197509860997096C157D0595
:102A30008E059F0578F58091082B8130E1F1C11159
:102A400047C064E084E00E94C0148FE00E94400D03
:102A5000C4E0811142C064E00E94C014DD2339F05B
:102A60008EE00E945F0D882311F0F8019082809122
:102A700068048095F501808362E082E00E94C014C2
:102A80008FE00E94400D813059F562E080E00E94A5
:102A9000C014C1E08C2FDF91CF911F910F91FF9057
:102AA000EF90DF90CF90BF90AF909F907F906F900E
:102AB0005F904F90089582E10E945F0D811112C0D6
:102AC00084E10E945F0D882309F4B9CFC3E0E2CF0F
:102AD000C43009F4BACFC63099F20E944A0EA2CF90
:102AE000C6E0FBCFC2E0D6CF0F931F93CF93DF9307
:102AF000CDB7DEB7C054D109CDBFDEBF062F0E94CF
:102B00009314182F802F0E949314E0E4F4E0908136
:102B1000682F60959623212F2823922B908390E293
:102B2000DE01119601900D929A95E1F72989EA89C3
:102B30004B895C893D89BE89AF89788D23FB22272B
:102B400020F9F0E0F595E795F595E795E270FF2718
:102B5000922F9E2B5870952B50E0559547954470B9
:102B60005527942B232F30E0220F331F207133275A
:102B7000922B44E0B49F9001112420723327922BB2
:102B800028E0A29FD0011124A074BB279A2B40E11A
:102B9000749F9001112420783327922B962310954F
:102BA0008123982B80E2E0E4F4E0DE01919601902D
:102BB0000D928A95E1F789A9292F30E0A90163E0F8
:102BC000440F551F6A95E1F74870482B49AB8AA915
:102BD000A901440F551F440F551F4870482B4AAB9D
:102BE0008BA9A901440F551F4870482B4BAB1CA95A
:102BF0009870912B9CAB4DA9C901959587958870CC
:102C0000842B8DAB4EA9C901959587959595879590
:102C10008870842B8EAB4FA9C901B3E09595879539
:102C2000BA95E1F78870842B8FAB88AD14E03595A9
:102C300027951A95E1F72870282B28AFC05CDF4F45
:102C4000CDBFDEBFDF91CF911F910F910895CF933C
:102C5000DF93CDB7DEB7A097CDBFDEBF813069F47B
:102C600080916004809360048FEF80936404A09649
:102C7000CDBFDEBFDF91CF910895809160041092A7
:102C8000600480E2E0E6F4E0DE01119601900D922E
:102C90008A95E1F789898860898B8A8988608A8B1F
:102CA0008B8988608B8B8C8988608C8B8D89886000
:102CB0008D8B8E8988608E8B8F8988608F8B888DB5
:102CC0008860888FD4CF82E00E9427166EE186E06C
:102CD0000E94741566E089EF0C94C0148F929F9245
:102CE000AF92BF92CF92DF92EF92FF920F931F931A
:102CF000CF93DF93D82F162F0E944A0E4B015C0111
:102D00006F5F7F4F8F4F9F4FC0900F2BD090102B36
:102D1000F12CE12CC0E00FEFD095681979098A09F0
:102D20009B096C157D058E059F0508F061C080919B
:102D3000082B813029F582E10E945F0D8823A1F0E4
:102D40000E94631688E080935D2BC2E08C2FDF9198
:102D5000CF911F910F91FF90EF90DF90CF90BF9098
:102D6000AF909F908F90089584E10E945F0D88231B
:102D700039F00E94631688E080935D2BC3E0E6CFB4
:102D8000C11117C081E10E94400D81112CC080E16A
:102D90000E94400DC7E0813031F5809160040093BE
:102DA0006004D09364048091072B81110BC068E00C
:102DB0000CC0C73061F3C83081F3C93049F0CA3064
:102DC00061F011C068E1112391F380E00E94C0140A
:102DD00080E10E94400D811109C081E10E94400DF7
:102DE000813049F0CAE00E944A0E97CFC9E0FBCF7C
:102DF000C13009F0ABCF8091072B811103C068E08F
:102E000088E004C068E188E11123C9F30E94C0147E
:102E1000809160048FEF8093600480936404C1E02C
:102E200095CFFC0180819181FC01FF2790FD06C0B8
:102E300080E094E1E82BF92B8081089580E093E114
:102E4000F9CF0F931F93CF93DF9300D0CDB7DEB7A9
:102E50008C0119821A82CE0101960E941117F80185
:102E6000808381E090E089839A83CE0101960E945D
:102E70001117F8018183C8010F900F90DF91CF9156
:102E80001F910F910895FC01FF2790FD12C080E073
:102E900094E1E82BF92B60838FB7F8949DE923E048
:102EA00094BF209300108FBF8091021081FDFCCF52
:102EB000089580E093E1EDCFBF92CF92DF92EF9241
:102EC000FF920F931F93CF93DF9300D0CDB7DEB760
:102ED0006C017C0102E010E0F701B1907F010983F1
:102EE0001A83CE0101960E941117B81621F06B2D9E
:102EF000C8010E9443170F5F1F4F0935110561F785
:102F0000C6010E945C0C8C0119821A82CE010196C6
:102F10000E941117081729F0602F90E080E00E94AE
:102F2000431781E090E089839A83CE0101960E9445
:102F30001117181781F0612F81E090E00F900F902A
:102F4000DF91CF911F910F91FF90EF90DF90CF9085
:102F5000BF900C9443170F900F90DF91CF911F916A
:102F60000F91FF90EF90DF90CF90BF900895CF9397
:102F7000DF93D0E0C0E06FEFCE010E9443172196AF
:102F8000C11581E0D807B9F7DF91CF910895DC0131
:102F9000ED91FC910488F589E02D23E030E009945F
:102FA00090E080E008950C94BC5524E0FC0121835E
:102FB00021E320830895DF92EF92FF920F931F93F6
:102FC000CF93DF9300D0CDB7DEB7FB01DC0156967F
:102FD0001D921C9257972281211109C02381211132
:102FE00006C02481211103C02581222359F14115F6
:102FF000510541F17A018F01FC01D08CCE0101967F
:103000000E94D51789819A810E94A10BA8014E5F69
:103010005F4F24E030E06CE070E08D2D0E9455138E
:10302000B7018D2D0E9466130E94D50A81E090E0C1
:103030000F900F90DF91CF911F910F91FF90EF9024
:10304000DF90089580E0F3CFCF93C82FEEEFE80F25
:10305000E83068F4F0E0E15DF74E0C94B45B48189A
:103060004F1863186018731882188A188D1861EE4B
:1030700081EA0E94741561EA81EA0E94C0146EE13F
:1030800080E00E94741560E280E00E94C0143EC09F
:103090006EE180E00E94741560E880E8F6CF8091D0
:1030A0006004809360048FEF809364046EE188E194
:1030B0000E94741568E188E10E94C01460E8E4CFC2
:1030C0000E946316E9CF80916004809360048FEFC3
:1030D000809364046EE188E10E94741568E188E1E0
:1030E0000E94C014D9CF6FEF80E00E94741560E297
:1030F00080E20E94C01461EE80E40E94741560E4D6
:1031000080E4C3CF6EE180E00E947415C0935D2B14
:10311000CF9108950E946316F9CF80916004809347
:1031200060048FEF809364046EE188E10E9474155F
:1031300068E188E1AACF10925D2B6FEF80E00E94DA
:10314000741582E00E94271688EC90E00E94CE0D54
:1031500081E08093082B86E00C9424180E94D514FB
:1031600010925D2B6FEF80E00E94741582E00E9448
:10317000271688EC90E00E94CE0D82E08093082B09
:1031800081E00E94241861E080E00E94C01486E97A
:1031900090E00E94CE0D61E081E00C94C014CF93CA
:1031A000C82F80915D2B833019F083E00E94241892
:1031B00060E08C2F0E946E1691E0813009F490E05F
:1031C000892FCF9108958EE190E00E94CE0D8FE57A
:1031D0000E94CF18882311F081E008958FE30E94A8
:1031E000CF188111F9CF10925F2B08950C94E3183A
:1031F0001F93CF93DF938F3130F0D1E08D2FDF918C
:10320000CF911F9108956036C0F391E8960F97FF14
:10321000F4CF142FC62FD82F8FE30E94CF1881111F
:10322000ECCF8FE50E94CF188111E7CF123099F4CF
:1032300080E48D0F0E94CF18D82F8111DECFCF3FB1
:1032400021F482E080935F2BD9CF8C2F0E94CF187E
:103250008111D3CFF6CF80E28D0F0E94CF18D82FE7
:103260008111CBCFCF3F11F481E0ECCF8C2F0E94A6
:10327000CF188823C9F3C1CFAF92BF92CF92DF920C
:10328000EF92FF920F931F93CF938C01E62E8091C4
:103290000C2B813030F0C1E0833020F0C0E083306F
:1032A00009F0C2E08091082B8230C9F484E00E94CA
:1032B0002418680110E000E0F12C570181E0A81A01
:1032C000B1080E151F0514F5F60181916F0190915B
:1032D000072B992311F0CC2321F060E006C089E090
:1032E000E6CF61E0A016B106C1F70E946E168130EC
:1032F000E1F40F5F1F4FE5CF60E08DE00E946E1696
:103300006091072B8AE00FC087E013C0CC2369F0DF
:1033100080910C2B8230A1F3833039F0813061F73A
:103320006091072B8DE00E946E168091082B8230F1
:1033300059F7CF911F910F91FF90EF90DF90CF90B1
:10334000BF90AF900C9424188F929F92AF92BF922F
:10335000CF92DF92EF92FF920F931F93CF93DF9361
:1033600000D000D0CDB7DEB77C01162FD42EC22EF0
:1033700019821A821B829091422B092F07701C829E
:1033800010925E2B8091072B81114BC0611104C0FC
:1033900011E0973009F010E08091082B823009F09D
:1033A00042C085E00E94241884E10E945F0D8111D3
:1033B00041C0A02EB12C80915E2B8111A5C084E16B
:1033C0000E945F0D882309F453C012E08C8188238A
:1033D00049F08091062B882329F06091112BC701B9
:1033E0000E94650E173039F08091082B823009F069
:1033F00091C00E94241880915E2B811110925E2B47
:10340000812F2496CDBFDEBFDF91CF911F910F9109
:10341000FF90EF90DF90CF90BF90AF909F908F90F4
:103420000895182FB9CF0E94631688E080935D2B12
:1034300011E0BACF0E944A0E20910F2B3091102B31
:103440004B015C01820E931EA11CB11C84E10E9401
:10345000400D8111AECF0E944A0E86169706A8062F
:10346000B90608F4A6CF84E190E00E94CE0DEECF1D
:10347000AE014C5F5F4F612FCE0101960E94ED14AB
:10348000823009F443C0833009F49FCF813009F0C2
:103490003FC06981C7010E94650E112329F08C810C
:1034A000882301F114E092CF8981DD2021F08C1175
:1034B00019C015E08BCF073018F5F501EE59F54E20
:1034C0000C94B45B801A7D1A6C1A721A691A701AFD
:1034D000771A8D3039F48A818A3021F416E076CF5C
:1034E0008330E1F38A818B8389818A8364CF83303F
:1034F000C9F78A818A30B1F78B818D3099F7EECF89
:103500008A3081F78A81F9CF11E060CF13E05ECF76
:1035100018E05CCF87E06DCF20E040E060E084E61B
:103520009BE20C94A4191092272980915D2B88307E
:1035300029F487E00E94241881E0089580E008952E
:1035400080915D2B893029F487E00E94241881E066
:10355000089580E00895FB0101900020E9F731977C
:10356000AF01461B570BDC01ED91FC910280F3810A
:10357000E02D09948F929F92AF92BF92EF92FF92AB
:103580000F931F93CF93DF93CDB7DEB7A197CDBF36
:10359000DEBF7C01FA01CB0119A2223008F42AE037
:1035A0008E010F5D1F4F822E912CB12CA12CBF01DB
:1035B000A50194010E94205BF901CA016A30F4F46C
:1035C000605DD8016E938D01232B242B252B79F779
:1035D00090E080E0109721F0BD01C7010E94AB1A76
:1035E000A196CDBFDEBFDF91CF911F910F91FF90CC
:1035F000EF90BF90AF909F908F900895695CE1CF5E
:10360000CF92DF92EF92FF920F931F93CF93DF93AE
:103610006B01770FEE08FF08F7FE1BC0EC016DE2AF
:103620000E94650E8C0144275527BA014C195D098B
:103630006E097F092AE0CE010E94BA1A800F911FFD
:10364000DF91CF911F910F91FF90EF90DF90CF907E
:1036500008952AE0B701A601DF91CF911F910F9144
:10366000FF90EF90DF90CF900C94BA1ACF93DF9336
:1036700000D0CDB7DEB76BE37FE08CE49AE20E9426
:103680006C0E8091BB2C9091BC2C009711F481ECB6
:103690009CE2BE016F5F7F4F681B790B8CE49AE25E
:1036A0000E94001B0F900F90DF91CF910895462F3D
:1036B00050E070E060E02AE00C94BA1A8F929F927A
:1036C000AF92BF92CF92DF92EF92FF920F931F9330
:1036D000CF93DF937C018B014C0182E0880E911C1B
:1036E0005701E5E0AE0EB11CD0E0C0E0F4016191FD
:1036F0004F01C8010E94571B6C016EE2C8010E9475
:10370000650E8C0D9D1DC80FD91F8A149B0471F77F
:10371000F7016581C8010E94571B8C0F9D1FDF9127
:10372000CF911F910F91FF90EF90DF90CF90BF90BE
:10373000AF909F908F9008959C01CB01B9010C949C
:103740005E1B60E97DEF0C94AB1A0F931F93CF9330
:10375000DF93EC010E94571B8C01CE010E94A11B3C
:10376000800F911FDF91CF911F910F9108950F93BB
:103770001F93CF93DF93EC01AB0170E060E02AE090
:103780000E94BA1A8C01CE010E94A11B800F911FCA
:10379000DF91CF911F910F9108950F931F93CF93B6
:1037A000DF93EC010E94001B8C01CE010E94A11B43
:1037B000800F911FDF91CF911F910F91089583E1A9
:1037C0000E945F0D682F70E084E69BE20C94CD1B95
:1037D0000F931F93CF93DF93EC010E949C1B8C01EE
:1037E000CE010E94A11B800F911FDF91CF911F91ED
:1037F0000F9108950F931F93CF93DF93EC010E94D5
:10380000AB1A8C01CE010E94A11B800F911FDF918A
:10381000CF911F910F9108950F931F93CF93DF9333
:10382000EC01FB014481558160817181E881F9815E
:103830000280F381E02D09958C01CE010E94A11B2D
:10384000800F911FDF91CF911F910F9108950F93DA
:103850001F93CF93DF93EC010E946C0E8C01CE017D
:103860000E94A11B800F911FDF91CF911F910F919B
:1038700008956DE47EE084E69BE20C94271C8FE5BE
:103880000E94CF18882351F08091022A882359F092
:103890006AE37EE084E69BE20C94271C10925F2B87
:1038A00082E00C94241808958FE30E94CF18882397
:1038B00051F08091022A882359F067E27EE084E685
:1038C0009BE20C94271C10925F2B82E00C9424182E
:1038D0000895CF9382E00E94241884E190E00E9432
:1038E000CE0D80916004809360048FEF8093640418
:1038F0006EE188E10E94741568E188E10E94C014BD
:1039000060E980E00E94C0140E94631684E190E0A8
:103910000E94CE0DC091680482E00E9424186C2F92
:10392000609584E69BE20E94A51B8091022A882371
:1039300039F063EC7BE084E69BE2CF910C94271C8A
:10394000CF91089584E10E94CF18882351F080918F
:10395000022A882349F064E97BE084E69BE20C9428
:10396000271C82E00C942418089586E09BE20E94B4
:103970005C178091022A882331F06FE976E084E6B3
:103980009BE20C94271C0895CF92DF92EF92FF9256
:103990000E944A0E6B017C0120EDC20E27E0D21E70
:1039A000E11CF11C88EDA89584BF80910001866020
:1039B000809300018091010181FDFCCF0E944A0E9D
:1039C0006C157D058E059F05C8F38091022A88231A
:1039D00051F064EF75E084E69BE2FF90EF90DF909A
:1039E000CF900C94271CFF90EF90DF90CF9008951C
:1039F0008091082B8230B1F461E080E00E94C01415
:103A000086E990E00E94CE0D61E081E00E94C01442
:103A10008091022A882331F068E975E084E69BE210
:103A20000C94271C089541E060910B2B80910A2B88
:103A30000E94F818882351F08091022A882391F07F
:103A40006FE375E084E69BE20C94271C84E00E94FF
:103A5000CF188111F1CF0E94F6188111EDCF82E0CD
:103A60000C942418089563E373E0823031F065E428
:103A700073E0833011F462E273E084E69BE20C941D
:103A8000271C0F931F93CF938C01C091582BC29585
:103A9000C695C77009F4C1E084E69BE20E94A11BB1
:103AA000B80184E69BE20E946C0EC13029F065E209
:103AB00084E69BE20E94650EC15091F784E69BE28A
:103AC000CF911F910F910C94A11B6115710511F0FD
:103AD0000C94AB1A90E080E008958091022A91E066
:103AE00089278093022A63E97DEF84E69BE20E94A6
:103AF000651D8091022A63ED7DEF882311F067EC4C
:103B00007DEF84E69BE20C94FA1B65EB7EEF84E686
:103B10009BE20C94651DDC01FC0101900020E9F79B
:103B200031979E2F9A1B2A2FFD018E2F821B8917FA
:103B300030F4819180538A30C0F380E0089581E0B1
:103B40000895CF93DF93CDB7DEB7C054D109CDBF71
:103B5000DEBF60E575E18CE49AE20E94271C60916B
:103B6000042B7091052B40E450E0CE0101960E9499
:103B70002958BE016F5F7F4F8CE49AE20E94651D59
:103B80006EE475E18CE49AE20E946C0EC05CDF4F3B
:103B9000CDBFDEBFDF91CF9108950F931F93CF93D9
:103BA000DF93CDB7DEB7C054D109CDBFDEBF6EE223
:103BB0007EEF8CE49AE20E94FA1B6EE27EEF8CE4C8
:103BC0009AE20E94FA1B8091032B10E005E081111C
:103BD00015C06CE375E18CE49AE20E94271C69E051
:103BE00075E18CE49AE20E94271CC05CDF4FCDBFD8
:103BF000DEBFDF91CF911F910F9108958091032B2C
:103C0000181798F7E091012BF091022B109FE00D0F
:103C1000F11D11246081718140E450E0CE010196D4
:103C20000E942958BE016F5F7F4F8CE49AE20E9488
:103C3000FA1B1F5FE3CF0E94CD1D0C94A11DAF9214
:103C4000BF92CF92DF92EF92FF920F931F93CF9389
:103C5000DF9300D000D0CDB7DEB78C016B017A01C5
:103C6000809180298333E9F45B016801C40ED51E7D
:103C7000C016D10691F10E947F128FE00E94820B44
:103C8000812F0E94820B802F0E94820B0F5F1F4F9B
:103C900080E00E94820BF50181935F010E94751202
:103CA000E7CF843349F50E947F1219830A838F2D51
:103CB0008F778B83EC8264E070E0CE0101960E94E6
:103CC0008C0BA70170E060E0C6010E94C65CB701E2
:103CD000C6010E948C0B0E947512C7012496CDBFAD
:103CE000DEBFDF91CF911F910F91FF90EF90DF909A
:103CF000CF90BF90AF9008950E947F120F3F1105A3
:103D000009F030F419820A831B8263E070E0D5CF9A
:103D100017FD0BC019820A8333E0169507953A9573
:103D2000E1F7007E08600B83F0CFC80126E096958E
:103D300087952A95E1F7807E19830A830115104C37
:103D400018F480618B83E1CF8861FCCF1F93CF9300
:103D5000DF9300D0CDB7DEB7182FCE0101960E94B9
:103D6000D51789819A810E94A10B812F0E94471348
:103D700027E0129FF0011124E85CF64D2281338187
:103D8000377041E050E0BE016F5F7F4F820F931F9D
:103D90000E941F1E0E94D50A89810F900F90DF910B
:103DA000CF911F910895FC01808D883040F4218DC2
:103DB000328D232B21F00E94A61E90E008958FEFF4
:103DC0009FEF0895CF93DF93FC012485283028F0DE
:103DD0008FEF9FEFDF91CF910895EC010190F0817B
:103DE000E02D0084F185E02D0995892B89F38C85E0
:103DF0000E94A61E90E0EECFCF93DF931F92CDB727
:103E0000DEB741E050E0BE016F5F7F4F0E941F1E92
:103E100089810F90DF91CF91089590E080E00C941C
:103E2000FC1ECF93DF93C4E1D0E00E940D1F8823D6
:103E300061F061E070E080E090E00E941A0E21974E
:103E4000A1F780E0DF91CF91089581E0FBCF1F9330
:103E5000CF93DF9300D01F92CDB7DEB7809121289A
:103E6000811139C160E372E080E090E00E941A0E97
:103E700080910A2A811117C010920B2A10920C2AE5
:103E800010920D2A10920E2A10920F2A1092102AC8
:103E90001092112A1092122A1092132A1092142AA8
:103EA00081E080930A2A8091E3058C7F9091092A12
:103EB000892B8093E30591118BC061E084E00E941F
:103EC000A80C61E086E00E94A80C8091C108846083
:103ED0008093C1088091C00881628093C00890914E
:103EE000442A8091452A9093C0088093C10880910C
:103EF0000028893208F07FC0E82FF0E0E056F44057
:103F00002081263008F077C090E2299F900111248B
:103F10003C5F2C5F3F4F20931E2830931F289FEF5C
:103F2000893228F4E82FF0E0E753F4409081909331
:103F30001D28893218F461E00E94A80C0E947512B5
:103F4000CE0101960E94D51789819A810E94A10B0A
:103F500084E38093802980E80E9434130E94111F1B
:103F6000882309F44BC088E00E9434130E940D1F7F
:103F7000883009F043C080E10E9434130E940D1F75
:103F80008031E1F580E00E9434130E940D1F182F4C
:103F9000811134C08FE190E00E94FC1E833071F5E6
:103FA00080E48093202842E06EE170E0812F0E943F
:103FB000901342E06FE170E0812F0E9490131F5F29
:103FC000183089F70E94D50A81E0809321287CC0AF
:103FD000913039F461E08EE00E94A80C61E080E14C
:103FE00072CF923009F071CF61E08EE10E94A80C8F
:103FF00061E080E268CF30E020E08BCF87E3809300
:10400000802980E80E9434130E94111F8823F9F050
:1040100088E00E9434130E940D1F8830C1F480E1B3
:104020000E9434130E940D1F182F803181F480E00C
:104030000E9434130E940D1F811109C089E390E092
:104040000E94FC1E843019F410932028BBCF83E318
:104050008093802980E80E9434130E94111F8823D6
:1040600071F180E10E9434130E940D1F803139F5F7
:1040700082E10E9434130E940D1F823101F580E01D
:104080000E9434130E940D1F811119C084E0809397
:10409000202815E51B8341E050E0BE016D5F7F4F96
:1040A0008BE190E00E948A12198341E050E0BE014A
:1040B0006F5F7F4F8AE190E00E948A1283CF109257
:1040C00080290E94D50A80E02396CDBFDEBFDF9114
:1040D000CF911F91089581E0F7CFEF92FF921F9348
:1040E000CF93DF93CDB7DEB7C454D109CDBFDEBFC8
:1040F0007C01FB0182819381A481B58123968CAFE1
:104100009DAFAEAFBFAF239711E023961FAF2397AC
:1041100023964CAD5DAD6EAD7FAD239749AF5AAFE1
:104120006BAF7CAF8DA79EA7AFA7B8AB18AB4DA563
:104130005EA56FA578A94B8F5C8F6D8F7E8F1CAFAE
:1041400049AD5AAD6BAD7CAD49A35AA36BA37CA31B
:104150002CE73DEF29833A834FEF4B834C834D830C
:104160001E822F8338871E8F4B8D5C8D6D8D7E8DCB
:1041700049875A876B877C871CA349A15AA16BA1E9
:104180007CA14F87588B698B7A8B2B8B3C8B8D8BCB
:104190009E8BAF8BB88F0E94271F882369F1CE01B9
:1041A0008D5B9F4F0E94D51725968EAD9FAD2597AD
:1041B0000E94A10B46E050E0B70189E090E00E9428
:1041C0008A12CE0145960E94FA13CE0109960E94EA
:1041D0000814CE0103960E9401140E94D50A1A8B7E
:1041E0008F859889A989BA898093F72A9093F82AAC
:1041F000A093F92AB093FA2ACC5BDF4FCDBFDEBF84
:10420000DF91CF911F91FF90EF900895209120288A
:1042100030E0322F2227620F731F90E0982F8827FB
:10422000860F971F0C94FC1ECF93C82F462F61E07A
:1042300070E00E94901361E070E08C2F0E940621D4
:104240008111F9CFCF9108951F93CF93DF9300D0C1
:10425000CDB7DEB7182FCE0101960E94D517898100
:104260009A810E94A10B68E070E0812F0E941421C6
:104270000E94D50A0F900F90DF91CF911F91089562
:104280001F93CF93DF9300D0CDB7DEB7182FCE01A9
:1042900001960E94D51789819A810E94A10B60E145
:1042A00070E0812F0E9414210E94D50A0F900F9078
:1042B000DF91CF911F910895CF93DF93EC01888D0B
:1042C000883020F40E94402188E0888FDF91CF91D0
:1042D000089563E070E00C9406211F93CF93DF9361
:1042E00000D0CDB7DEB7182FCE0101960E94D517AA
:1042F00089819A810E94A10B812F0E946921182F28
:104300000E94D50A812F0F900F90DF91CF911F91BE
:104310000895EF92FF920F931F93CF93DF937C0149
:1043200080918029D4E0833309F0D8E000E719E2D6
:10433000C0E0F801219131918F01F70184819581CD
:104340002817390729F0CF5FDC13F3CF80E006C0D0
:104350008C2F0E946D218431B1F781E0DF91CF91E4
:104360001F910F91FF90EF900895CF93DF93EC0191
:104370008C858830D0F40E946D21843189F08823A7
:1043800079F0883169F021E08C3159F4E881F981C4
:104390000084F185E02DCE01099521E0892B09F4F7
:1043A00020E0822FDF91CF91089580E0FBCFCF9264
:1043B000DF92EF92FF92CF93DF93EC018C858830F0
:1043C00068F40E9424210E944A0E6B017C018C85B6
:1043D0000E946D21811109C088E08C87DF91CF9107
:1043E000FF90EF90DF90CF90089561E070E080E063
:1043F00090E00E941A0E0E944A0EAB01BC014C19BB
:104400005D096E097F098D859E85B0E0A0E04817A3
:1044100059076A077B07D8F28C850E944021DCCFC0
:104420001F93CF93DF9300D0CDB7DEB7FC01108D83
:10443000CE0101960E94D51789819A810E94A10B15
:1044400060E270E0812F0E94142162E070E0812F11
:104450000E94062184FD22C062E070E0812F0E944C
:10446000062183FF10C048E162E070E0812F0E94C6
:1044700090130E94D50A80E090E00F900F90DF919A
:10448000CF911F9108950E94D50ACE0101960E94F6
:10449000D51789819A810E94A10BD7CF40E162E0B4
:1044A00070E0812F0E9490130E94D50A81E0E4CF32
:1044B000DA01E0912028F0E0FE2FEE27E60FF71F4B
:1044C00090E0982F8827A901BD018E0F9F1F0C94A3
:1044D0001F1E8F929F92AF92BF92CF92DF92EF9268
:1044E000FF920F931F93CF93DF93CDB7DEB7609703
:1044F000CDBFDEBF7C0190918029992371F108E046
:10450000933309F404E05B01CE0101960E94D517B4
:1045100089819A810E94A10B9E012F5F3F4F690103
:10452000490110E0812F0E946921F40181934F011C
:104530008823D9F01F5F0113F5CF00E0F6018191C8
:104540006F018D3161F0883151F08A51823038F03D
:104550000F5F1013F3CF0E94D50A18E08AC060E104
:1045600070E0802F0E941421102FC12ED12CF60153
:10457000EE0FFF1FE059F64D108211828AEF90E096
:104580000E94CE0D42E870E060E0812F0E949013FF
:104590004FEF62E070E0812F0E949013B501A114EB
:1045A000B10491F48091032890910428019681151B
:1045B000F0EC9F0708F46EC08093032890930428C2
:1045C0006091032870910428812F0E947B1386E05C
:1045D000EEE0FBEFDE01199601900D928A95E1F76E
:1045E000F70183818F778C8784818D8785818E8782
:1045F000A7014E5F5F4F24E030E06CE070E0812F58
:104600000E945513B501812F0E94661326E030E009
:10461000AE01475F5F4F66E070E0812F0E94551347
:1046200061E070E0812F0E94142127E02C9DC001E1
:104630002D9D900D11249C01285C364D7901F901C6
:104640001082118222E030E0AE01415F5F4F68E2EC
:1046500070E0812F0E9458228F859889982789279A
:104660009827F701828393831682148215820E9411
:10467000D50A812F6096CDBFDEBFDF91CF911F910C
:104680000F91FF90EF90DF90CF90BF90AF909F90F1
:104690008F90089580E090EC8FCFCF92DF92EF92D1
:1046A000FF920F931F93CF93DF93CDB7DEB726977B
:1046B000CDBFDEBF8C016B017A01FC01808D88309B
:1046C00010F40E9440218CE79DEF89839A83F601C4
:1046D00082819381A481B5818B839C83AD83BE83CA
:1046E000B701CE0101960E946922F801808F8830BF
:1046F00088F4E486F586118E128E81E02696CDBF71
:10470000DEBFDF91CF911F910F91FF90EF90DF906F
:10471000CF90089580E0F2CF7F928F929F92AF92D8
:10472000BF92CF92DF92EF92FF920F931F93CF939E
:10473000DF9300D0CDB7DEB7782E8B014A01590147
:1047400022E030E0AE014F5F5F4F64E270E00E9414
:104750005822E980FA80FE24EF24FE24E00EF11EA8
:104760009701377040918029072D10E0433309F0FD
:1047700042C0085F1F4F102F0027110F110F110F9C
:10478000C901800F911F4733C9F1A9014A0D5B1D73
:104790004130584098F160E078E06B01C21AD30ACA
:1047A000A601B4010E948A12A5014C195D09B40149
:1047B0006C0D7D1DC8010E948A12EA0CFB1CF98257
:1047C000EA8222E030E0AE014F5F5F4F64E270E0CA
:1047D000872D0E9455130F900F90DF91CF911F915D
:1047E0000F91FF90EF90DF90CF90BF90AF909F9090
:1047F0008F907F900895005F1F4FBDCFA501B4013A
:10480000DACFEF92FF921F93CF93DF9300D0CDB713
:10481000DEB7182F22E030E0AE014F5F5F4F60E25D
:1048200070E00E945822E980FA80FE24EF24FE24E2
:1048300022E030E0AE014F5F5F4F60E270E0812F19
:104840000E94582289819A81982789279827E816FB
:10485000F90689F487E0189FF0011124E85CF64D11
:10486000E482F582C7010F900F90DF91CF911F91E5
:10487000FF90EF9008957C01DBCFFF920F931F9381
:10488000CF93DF9300D0CDB7DEB7F82ECE010196DF
:104890000E94D51789819A810E94A10B8F2D0E94B9
:1048A00001248C018F2D0E946921F82E0E94D50AC7
:1048B00087E1F81629F08CE1F81611F010E000E01D
:1048C000C8010F900F90DF91CF911F910F91FF9032
:1048D0000895CF93DF93EC018C85883060F40E94BB
:1048E0006D21873111F08C3131F48C850E943D248B
:1048F0008115984088F3DF91CF910895FC0124A1A0
:10490000283018F448960C9469240895FC01848595
:10491000883010F40C943D2490E080E00895AF922C
:10492000BF92CF92DF92EF92FF920F931F93CF939C
:10493000DF9300D0CDB7DEB7F82E6B018A0141308E
:10494000584010F000E018E0CE0101960E94D51703
:1049500089819A810E94A10B8F2D0E9401245C0104
:104960008F2D0E946921E82E0E94D50A87E1E81662
:1049700019F08CE1E81235C0A016B10628F3CE017B
:1049800001960E94D51789819A810E94A10B9801F6
:10499000A60170E060E08F2D0E948C2360E270E041
:1049A0008F2D0E94142162E070E08F2D0E9406215D
:1049B00084FD25C08F2D0E946921811115C00E94A0
:1049C000D50A10E000E0C8010F900F90DF91CF9161
:1049D0001F910F91FF90EF90DF90CF90BF90AF901D
:1049E000089510E000E0CBCF0E94D50ACE010196D9
:1049F0000E94D51789819A810E94A10BD4CF40E1F2
:104A000062E070E08F2D0E9490130E94D50ADBCFE8
:104A10000F931F93CF93DF938C01EA01FC018485F0
:104A2000883048F40E948F24892B39F481E090E08B
:104A3000F80182839383D0E0C0E0CE01DF91CF9173
:104A40001F910F9108957F928F929F92AF92BF9284
:104A5000CF92DF92EF92FF920F931F93CF93DF934A
:104A600000D0CDB7DEB77C014B01742EC52EFC0102
:104A7000A688B788D08CCE0101960E94D51789816F
:104A80009A810E94A10B8D2D0E940124072D1C2DBF
:104A90008017910708F48C019801A401B5018D2DB0
:104AA0000E948C230E94D50AF70186899789800F7E
:104AB000911F868B978BC8010F900F90DF91CF913C
:104AC0001F910F91FF90EF90DF90CF90BF90AF902C
:104AD0009F908F907F900895FF920F931F93CF9395
:104AE000DF9300D0CDB7DEB7F82E22E030E0AE0184
:104AF0004F5F5F4F66E270E00E94582209811A8181
:104B000010270127102722E030E0AE014F5F5F4FF2
:104B100066E270E08F2D0E94582289819A81982741
:104B2000892798270817190749F4C8010F900F9093
:104B3000DF91CF911F910F91FF9008958C01E3CFEA
:104B4000EF92FF920F931F93CF93DF9300D0CDB7D7
:104B5000DEB7182F87E0189F90011124F901E85C57
:104B6000F64D7F01808191810097B1F4CE010196CD
:104B70000E94D51789819A810E94A10B812F0E94E2
:104B80006C258C010E94D50AF70186819801281BAB
:104B90003109C901208331830F900F90DF91CF91AC
:104BA0001F910F91FF90EF9008959F92AF92BF9247
:104BB000CF92DF92EF92FF920F931F93CF93DF93E9
:104BC000EC017B0180918029811121C01A821B8216
:104BD00088EE93E0A0E0B0E08C839D83AE83BF833A
:104BE0008AE49DEF8883998388E08C8788EE93E040
:104BF0008D879E87CE01DF91CF911F910F91FF90FE
:104C0000EF90DF90CF90BF90AF909F90089534E0E9
:104C1000932E833311F028E0922E80E7C82E89E28C
:104C2000D82E10E098E0B92EA12CD6012D913D91FF
:104C30006D01F701848195812817390791F4812F3F
:104C40000E946D21082F873111F08C3139F5812FA9
:104C50000E94A025892B59F50C3119F4812F0E944F
:104C600024211F5F9112E1CFA11008C0D701ED915F
:104C7000FC910084F185E02DC70109951A821B8201
:104C800088EE93E0A0E0B0E08C839D83AE83BF8389
:104C90008AE49DEF88839983BC86A8CF843149F04C
:104CA0008111DFCFF601329710821182DACFB12E57
:104CB000D8CFAA24A394D5CF8F929F92AF92BF92C0
:104CC000CF92DF92EF92FF920F931F93CF93DF93D8
:104CD000CDB7DEB72F97CDBFDEBF5C014B017A01A8
:104CE000809180298823B1F104E0833309F008E042
:104CF000B501CE0101960E94D52580E7C82E89E234
:104D0000D82E10E0F601219131916F01F5018481D7
:104D100095812817390751F4812F0E946D21873121
:104D200029F4A701B401812F0E948F241F5F011372
:104D3000E9CFC7012F96CDBFDEBFDF91CF911F9185
:104D40000F91FF90EF90DF90CF90BF90AF909F902A
:104D50008F900895F12CE12CECCFEF92FF920F93FE
:104D60001F93CF93DF93CDB7DEB72F97CDBFDEBFB5
:104D70008C017C0188E1E80EF11CF80184A18830E7
:104D800030F5C7010E94B52181111DC0C7010E94E5
:104D9000D7211B821C8288EE93E0A0E0B0E08D83D7
:104DA0009E83AF83B8878AE49DEF89839A8388E0E6
:104DB0008D8788EE93E08E879F87BE016F5F7F4F60
:104DC000C7010E945714F80184A1883068F0F801E7
:104DD00066897789CE0101960E94D525BE016F5F55
:104DE0007F4FC7010E945714F80184A1883038F41E
:104DF0000E944A0EF80165A776A787A790AB2F9669
:104E0000CDBFDEBFDF91CF911F910F91FF90EF904B
:104E10000895CF93DF93EC010E94AD26CE01489612
:104E20002CA1283020F4DF91CF910C94E21E8FEF5B
:104E30009FEFDF91CF910895FC018485883010F4B5
:104E40000C94A02590E080E00895EF92FF920F93DC
:104E50001F93CF93DF93CDB7DEB72F97CDBFDEBFC4
:104E6000FC0126893789232B61F490E080E02F969E
:104E7000CDBFDEBFDF91CF911F910F91FF90EF90DB
:104E800008958C010E94AD267801F8E1EF0EF11C27
:104E9000F80184A1883060F066897789CE01019697
:104EA0000E94D525BE016F5F7F4FC7010E94571436
:104EB000F80184A18830C8F6C7010E941C27D7CF0B
:104EC0004F925F927F928F929F92AF92BF92CF92BA
:104ED000DF92EF92FF920F931F93CF93DF9300D057
:104EE000CDB7DEB7782E6B014A01A82EB12C27E092
:104EF000829FC0011124FC01E85CF64D7F01008116
:104F00001181CE0101960E94D51789819A810E9454
:104F1000A10B0815190554F4872D0E946C25F70183
:104F200026818C01021B11090083118301151105D3
:104F300029F5872D0E946921843159F0882349F091
:104F400001E010E08C3111F410E000E011950195C2
:104F500011090E94D50AC8010F900F90DF91CF91DF
:104F60001F910F91FF90EF90DF90CF90BF90AF9087
:104F70009F908F907F905F904F900895801691063C
:104F80000CF4840187E08A9DF0018B9DF00D1124C3
:104F9000E85CF64DE280F380C114D10451F12701A1
:104FA000F7E05F22872D0E944713840D951D209105
:104FB0008029273309F453C09801240D351D213071
:104FC000384008F44CC020E038E0490184189508C6
:104FD000A401B6010E941F1E2601480C591C68013D
:104FE000C818D908872D0E944713A601B2010E9454
:104FF0001F1EE00EF11E87E08A9DF0018B9DF00DD3
:105000001124E85CF64DE282F38220813181201B7D
:10501000310B208331838681800F912F911D8A3F30
:10502000910510F4232BF1F487E08A9DF0018B9D0C
:10503000F00D1124E85CF64D1682F982EA8222E036
:1050400030E0AE014F5F5F4F68E270E0872D0E9455
:10505000551360E470E0872D0E9414217ACFA801D7
:10506000B601C5CF868375CFCF93DF93FC01218D29
:10507000328D2115310529F48FEF9FEFDF91CF910C
:105080000895EC01808D4217530708F0A9010E9492
:1050900060271816190684F7298D3A8D281B390BBD
:1050A000298F3A8FEBCF0F931F93CF93DF931F92EC
:1050B000CDB7DEB7FC01218D328D232B41F48FEF6C
:1050C0009FEF0F90DF91CF911F910F9108958C0169
:1050D00041E050E0BE016F5F7F4FFC01808D0E9478
:1050E0006027181619065CF7F801818D928D0197DB
:1050F000818F928F898190E0E4CFCF93DF931F92CD
:10510000CDB7DEB741E050E0BE016F5F7F4FFC01DD
:1051100084850E9460271816190634F4898190E06E
:105120000F90DF91CF9108958FEF9FEFF9CFCF933D
:10513000DF93EC010E94AD26CE0148962CA12830C9
:1051400020F4DF91CF910C947D288FEF9FEFDF91BA
:10515000CF910895FC018485883010F40C94602769
:1051600090E080E008958F929F92BF92CF92DF925D
:10517000EF92FF920F931F93CF93DF93CDB7DEB7DC
:105180002A97CDBFDEBF90918029992379F108E05D
:10519000933309F404E06B01B82ECE0101960E940E
:1051A000D51789819A810E94A10B9E012F5F3F4FE5
:1051B0007901490110E0812F0E946921F401819356
:1051C0004F018823D9F01F5F0113F5CF00E0F701ED
:1051D00091917F019D3161F0983151F09A51923057
:1051E00038F00F5F1013F3CF0E94D50A18E060C0AB
:1051F00060E170E0802F0E941421102FE12EF12C2D
:10520000F701EE0FFF1FE059F64D108211828AEF71
:1052100090E00E94CE0D4B2D70E060E0812F0E9447
:1052200090134FEF62E070E0812F0E949013B6015F
:10523000CD2891F48091032890910428019681153E
:10524000F0EC9F0708F444C080930328909304284F
:105250006091032870910428812F0E947B1361E0E4
:1052600070E0812F0E94142127E02E9DC0012F9D08
:10527000900D11249C01285C364D7901F9011082B2
:10528000118222E030E0AE01475F5F4F68E270E0DC
:10529000812F0E94582289859A85982789279827E7
:1052A000F701828393831682148215820E94D50AA5
:1052B000812F2A96CDBFDEBFDF91CF911F910F9135
:1052C000FF90EF90DF90CF90BF909F908F900895C8
:1052D00080E090ECB9CF0F931F93CF93DF93EC0155
:1052E0008B01888D883010F40E944021B80182E043
:1052F0000E94B328888F883050F40C871D87198E40
:105300001A8E81E0DF91CF911F910F91089580E077
:10531000F9CFEF92FF921F93CF93DF9300D0CDB7D9
:10532000DEB77C01FC016481758181E20E94B328B3
:10533000182F883090F4CE0101960E94D5178981EC
:105340009A810E94A10B812F0E946921833169F00B
:105350000E94D50A812F0E9424210F900F90DF9187
:10536000CF911F91FF90EF90089562E070E0812F40
:105370000E9414210E94D50AF70184819581E12FB2
:10538000F0E0EE0FFF1FE059F64D80839183E5CFEB
:10539000AF92BF92CF92DF92EF92FF920F931F9343
:1053A000CF93DF9300D0CDB7DEB78C016B015A01EC
:1053B000FC018485883058F40E946D21882321F0F7
:1053C000F80184850E94242188E0F8018487F60191
:1053D00082819381A481B5810097A105B10579F4FB
:1053E00090E080E00F900F90DF91CF911F910F918F
:1053F000FF90EF90DF90CF90BF90AF9008958F3FD8
:105400009F4FAF4FBF4F61F370E060E081E20E94B9
:10541000B328F82EF8018487F7E0F81708F3CE01D7
:1054200001960E94D51789819A810E94A10BA6013D
:105430004E5F5F4F24E030E06CE070E08F2D0E9403
:105440005513B5018F2D0E94661364E070E08F2D17
:105450000E9414210E94D50A0E944A0E6B017C0111
:10546000F80184850E946D21873129F18C3119F171
:10547000882309F4B5CF0E944A0EAB01BC014C1938
:105480005D096E097F09F80185859685B0E0A0E089
:1054900084179507A607B70738F061E070E080E051
:1054A00090E00E941A0EDCCF84850E94402188E0A3
:1054B000F801848795CF81E090E094CF0F931F93FC
:1054C000CF93DF9300D0CDB7DEB7FC01248510E089
:1054D00000E02830D8F48C01CE0101960E94D51747
:1054E00089819A810E94A10B22E030E0AE014F5FDA
:1054F0005F4F60E170E0F80184850E9458220981C5
:105500001A811027012710270E94D50AC8010F9081
:105510000F90DF91CF911F910F9108950F931F93DB
:10552000CF93DF9300D0CDB7DEB7FC01248510E028
:1055300000E02830D8F48C01CE0101960E94D517E6
:1055400089819A810E94A10B22E030E0AE014F5F79
:105550005F4F64E070E0F80184850E945822098161
:105560001A811027012710270E94D50AC8010F9021
:105570000F90DF91CF911F910F9108950F931F937B
:10558000CF93DF9300D0CDB7DEB78C018CE79DEFD2
:10559000F801808391831282138214821582CE01D6
:1055A00001960E94D51789819A810E94A10BB801AA
:1055B0006E5F7F4F44E050E08FE090E00E941F1E3E
:1055C0000E94D50AC8010F900F90DF91CF911F91D3
:1055D0000F9108950F931F93CF93DF93CDB7DEB74D
:1055E000C251D240CDBFDEBF9B018A01CD5FDD4FEE
:1055F00018821982C350D2404EEF5CEFCF5FDD4F6F
:1056000048835983C150D240CB5FDD4F8883998353
:10561000C550D240C55FDD4F18821982CB50D240B1
:10562000CE010196C95FDD4F88839983C750D24070
:1056300080E092E0C75FDD4F88839983C950D240F4
:10564000672B09F453C06DE97DEFC9010E94E05C4E
:10565000892B09F04BC065EB74E1CE018F5F9D4F44
:105660000E946C0E66E673E1CE018F5F9D4F0E9433
:105670006C0EB801CE018F5F9D4F0E94001B69E543
:1056800073E1CE018F5F9D4F0E946C0E63E273E168
:10569000CE018F5F9D4F0E946C0ECE01835F9D4FA8
:1056A0000E94BE2ABE01635F7D4FCE018F5F9D4F7A
:1056B0000E949C1B6EE173E1CE018F5F9D4F0E94A3
:1056C0006C0E6DE073E1CE018F5F9D4F0E946C0EFA
:1056D000CE018F5F9D4F0E94C111CE5EDD4FCDBFC9
:1056E000DEBFDF91CF911F910F91089561EF74E1BB
:1056F000EACFE1E8F9E280E8DF011D928A95E9F757
:1057000010922A290895CF93C82FE82FF0E0E0588F
:10571000F64D80818F3319F481E08093042A8091C3
:10572000082B823059F480915F2B813039F041E0B1
:1057300060910B2B80910A2B0E94F8186C2F81E846
:1057400099E20E943C198091032A9091082B923093
:10575000B9F4811117C00E94E3188091582B82FF81
:1057600004C085E093E10E94411D8091022A8111CD
:105770000E94851D0E94792B1092012ACF910895D5
:10578000882359F31092032AE8CFEF92FF920F93E8
:105790001F93CF93DF93E1E8F9E290E0AC01425030
:1057A00051099F0121583942241735071CF42281E1
:1057B0002193F7CFFC01E158F64D10828058964DA9
:1057C000FC0110828091022A882321F084E69BE26A
:1057D0000E94A11B80918129882379F18D3069F184
:1057E0008A3059F16CE27EEF81E899E20E944658D6
:1057F000EC0182EFE82E8BEFF82E10E000E0BE0106
:10580000F701808191810E94CD5C892B49F10F5F66
:105810001F4FF6E0EF0EF11C0C32110581F70E94CC
:10582000391C0BC009900020E9F70480F581E02DB8
:105830008881882391F0CE0109950E94792B1092DE
:10584000012A8091022A882349F1DF91CF911F918B
:105850000F91FF90EF900C94851D90E080E0ECCFCD
:1058600086E0809FF001819FF00D1124EE50F440FE
:105870002091082B30E08281938128233923232B28
:1058800089F60E94391C8091022A8823B1F269EDC1
:1058900072E184E69BE20E94271CCFCFDF91CF917B
:1058A0001F910F91FF90EF9008958F929F92AF926A
:1058B000BF92CF92DF92EF92FF920F931F93CF93FD
:1058C000DF93CDB7DEB76497CDBFDEBF6C015B0160
:1058D0000E943D584C01F12CE12C10E0E814F90431
:1058E00008F03EC0F601EE0DFF1D0491143180F565
:1058F000812F90E021E030E02C0F3D1F820F931F9D
:10590000FC010A33F9F41082A114B10431F0B5019D
:10591000C9010E94E05C892B89F465EB76E084E69E
:105920009BE20E946C0EBE016F5F7F4F84E69BE29C
:105930000E94651DFFEFEF1AFF0A1FEFFFEFEF1A3E
:10594000FF0ACCCF00831F5F0A30C1F710E0F6CF0B
:105950001F3FD1F7602F84E69BE20E94650EF4CFD3
:1059600080E06496CDBFDEBFDF91CF911F910F9194
:10597000FF90EF90DF90CF90BF90AF909F908F906F
:105980000895DC018CE79DEF8D939D9384E0FB01EE
:1059900001900D928A95E1F70895EF92FF920F938F
:1059A0001F93CF93DF9300D000D0CDB7DEB78C012B
:1059B0007B01FB0184858830A0F08CE79DEFF80126
:1059C000808391831282138214821582C8012496E7
:1059D000CDBFDEBFDF91CF911F910F91FF90EF9070
:1059E0000895CE0101960E94D51789819A810E945F
:1059F000A10B24E030E0AE014F5F5F4F6CE070E040
:105A0000F70184850E9458220E94D50ABE016F5F6B
:105A10007F4FC8010E94C12CD9CF7F928F929F9255
:105A2000AF92BF92CF92DF92EF92FF920F931F93AC
:105A3000CF93DF93CDB7DEB7A697CDBFDEBF8C0186
:105A4000762E942E852E20E2A22ECE0101967C0188
:105A5000DC01EA2D1D92EA95E9F76801F3E4CF0E27
:105A6000D11C8CE79DEF89A39AA38FEF8BA38CA306
:105A70008DA38EA343E450E0BE016F5D7F4FC6014E
:105A80000E94DB17019609F4BFC081E089838A83F5
:105A900086E0B82EBB821C82D80114966D917D9150
:105AA0008D919C9117970E94BA5B6D837E838F8343
:105AB000988789869A8680E890E08B879C874CE15E
:105AC00050E0B701C6010E942325FE0137968AE106
:105AD000DF011D928A95E9F74801B8E08B0E911C11
:105AE000F401D70101900D92BA94E1F740E150E042
:105AF000B701C6010E942325F7011192AA94E9F784
:105B000096E0A92EB12C40E250E0B701C6010E94F8
:105B10002325F1E0AF1AB108B1F783E6898392E853
:105B20009A8393E59B838C8385E38D8381E08E83C9
:105B30007F829DE3988797E099878A8786E0F401C2
:105B4000DE011B9601900D928A95E1F78CE0898B1E
:105B50008A8B6FE97DEFCE0143960E94E95CD80104
:105B60001B966C91CE0149960E94910CF8016485B8
:105B7000CE014B960E94910CD8011D966C91CE01DE
:105B80004D960E94910C4EE150E0B701C6010E9473
:105B90002325B3E07B121EC082E3898384E08A83DD
:105BA000F80196859B8397859C8390899D83918935
:105BB0009E8396E39F838887828D8987838D8A87DA
:105BC000848D8B87858D8C874CE050E0B701C601B2
:105BD0000E94232587E3898386E08A8391E09B8363
:105BE00093E09C838D838FE08E838AE38F838BE3A6
:105BF00088878FEF898749E050E0B701C6010E948E
:105C00002325C6010E941022A696CDBFDEBFDF91DC
:105C1000CF911F910F91FF90EF90DF90CF90BF90A9
:105C2000AF909F908F907F9008950F931F93CF9385
:105C3000DF93CDB7DEB72897CDBFDEBF8C01D8018B
:105C400059964D915C915A974115510551F0ED913E
:105C5000FC91028CF38DE02D70E060E0C8010995A5
:105C6000EECFF801808D0E94A025892B99F148E0A4
:105C700050E0BE016F5F7F4FD80158968C910E9413
:105C8000602718161906F4F4D801509684E0FE0136
:105C9000319601900D928A95E1F78D8190E0982FD1
:105CA00088272E81820F911DF801848B958B8F811F
:105CB000282F30E0322F22278885820F932F911DC5
:105CC000818F928F2896CDBFDEBFDF91CF911F913C
:105CD0000F91089590E080E0F5CF4F925F926F9220
