:100200000C94E50B0C940D0C0C940D0C0C940D0C33
:100210000C940D0C0C940D0C0C940D0C0C940D0CFA
:100220000C940D0C0C940D0C0C940D0C0C940D0CEA
:100230000C940D0C0C940D0C0C945A460C94FD4629
:100240000C940D0C0C942C460C9406460C940D0C3E
:100250000C940D0C0C940D0C0C940D0C0C940D0CBA
:100260000C940D0C0C94DE450C940D0C0C940D0CA0
:100270000C940D0C0C940D0C0C940D0C0C940D0C9A
:100280000C940D0C0C940D0C0C940D0C0C940D0C8A
:100290000C940D0C0C940D0C0C940D0C0C940D0C7A
:1002A00000000000000000002B2B6164647220330A
:1002B0000A2B2B6175746F20300A4D330A002B2BEB
:1002C0006164647220390A2B2B6175746F20320AC5
:1002D0002A5253540A3A66756E632027766F6C74FF
:1002E0003A616327003F202D204D656E7500312057
:1002F0002D205365742049502061646472657373C6
:10030000004552524F52202D20436F6D6D616E6437
:1003100020627566666572206F766572666C6F77AF
:1003200021005472616E736D6974206661696C6539
:10033000642100496E76616C696420706172616D40
:1003400065746572004D697373696E6720706172C0
:10035000616D657465720020616E64200056616C89
:1003600069642072616E67652069732062657477C5
:1003700065656E2000756E7365740053454320619A
:100380006464726573732073657420746F3A20001F
:1003900050524920616464726573732073657420E0
:1003A000746F3A200043616E6E6F742061646472F2
:1003B0006573732074686520636F6E74726F6C6C04
:1003C00065722100206D696C6C697365636F6E6482
:1003D0007300536574205B726561645F746D6F5F59
:1003E0006D735D20746F3A200053657420454F5340
:1003F00020746F3A200053657420454F4920617383
:1004000073657274696F6E3A2000496E7465726626
:10041000616365206D6F64652073657420746F3A45
:100420002000417070656E64696E67206F662045BC
:100430004F54206368617261637465723A200045AD
:100440004F542073657420746F20415343494920F1
:100450006368617261637465723A20004175746FFC
:10046000206D6F64653A200020202020202020206D
:10047000202761646472657373656420746F2074EF
:10048000616C6B20627574206E6F7468696E672092
:10049000746F2073617927206572726F72730057D1
:1004A00041524E494E473A206175746F6D6F6465D5
:1004B000204F4E2063616E20636175736520736FFA
:1004C0006D65206465766963657320746F20676568
:1004D0006E65726174650041523438382047504966
:1004E0004220636F6E74726F6C6C65722C2076653F
:1004F000722E20302E35332E33342C2032362F31CD
:10050000322F32303235004152343838204750498A
:100510004220636F6E74726F6C6C65722C2076650E
:10052000722E20302E35332E33342C2032362F319C
:10053000322F3230323500526561645E4F4B0046D7
:1005400061696C656420746F2073656E6420534428
:1005500043004661696C656420746F2073656E6446
:10056000204C4C4F21004661696C656420746F20FB
:1005700073656E6420756E6976657273616C204C6C
:100580004C4F2E004661696C656420746F20736562
:100590006E64204C4F432100494643207369676EC7
:1005A000616C20617373657274656420666F72207C
:1005B000313530206D6963726F7365636F6E64737C
:1005C0000047726F75702074726967676572206387
:1005D0006F6D706C657465642E004661696C65644E
:1005E00020746F207472696767657220646576692C
:1005F000636521005265736574204641494C45444A
:100600002E0053657269616C20706F6C6C20636F93
:100610006D706C657465642E004661696C6564205C
:10062000746F207265747269657665207374617485
:10063000757320627974652066726F6D20005D208D
:1006400066726F6D206465766963652061742061F0
:100650006464726573733A200052656365697665F8
:1006600064207374617475732062797465205B0013
:100670002C005352513A0053657269616C20706FBF
:100680006C6C206F6620616C6C20646576696365B4
:1006900073207265717565737465642E2E2E005318
:1006A000657474696E67732073617665642E004C9F
:1006B0004F4E3A20002B2B002F6E457874656E64E8
:1006C000656420637573746F6D20636F6D6D616E0B
:1006D00064733A0A6173706F6C6C3A09536572699E
:1006E000616C20706F6C6C20616C6C20696E73742F
:1006F00072756D656E74732028616C6961733A2040
:100700002B2B73706F6C6C20616C6C290A64636CAA
:100710003A0953656E6420756E6164647265737323
:1007200065642028616C6C292064657669636520A6
:10073000636C65617220205B706F776572206F6EED
:100740002072657365745D20286973207468652064
:100750007273743F290A64656661756C743A095353
:10076000657420636F6E66696775726174696F6E18
:1007700020746F20636F6E74726F6C6C657220648E
:10078000656661756C742073657474696E67730A4D
:1007900069643A0953686F7720696E74657266619F
:1007A000636520494420696E666F726D6174696F7C
:1007B0006E202D2073656520616C736F3A20276968
:1007C00064206E616D65273B202769642073657224
:1007D00069616C273B2027696420766572737472A7
:1007E000270A6964206E616D653A0953686F772F37
:1007F00053657420746865206E616D65206F662096
:1008000074686520696E746572666163650A6964FF
:100810002073657269616C3A0953686F772F53656D
:1008200074207468652073657269616C206E756DE3
:10083000626572206F662074686520696E746572E7
:10084000666163650A6964207665727374723A0939
:1008500053686F772F5365742074686520766572CE
:1008600073696F6E20737472696E672073656E743E
:1008700020696E207265706C7920746F202B2B7646
:10088000657220652E672E2022475049422D555310
:100890004222292E204D617820343720636861720E
:1008A000732C20657863657373207472756E636151
:1008B0007465642E0A69646E3A09456E61626C65FE
:1008C0002F44697361626C65207265706C79207465
:1008D0006F202A69646E3F202864697361626C65C9
:1008E000642062792064656661756C74290A6D61A3
:1008F00063726F3A0952756E2061206D6163726F89
:1009000020286966206D6163726F20737570706F47
:10091000727420697320636F6D70696C6564290A55
:10092000666E646C3A0946696E64206C6973746E15
:100930006572730A70706F6C6C3A09436F6E647500
:100940006374206120706172616C6C656C20706FE3
:100950006C6C0A72656E3A09417373657274206F2C
:100960007220556E617373657274207468652052CD
:10097000454E207369676E616C0A726570656174BB
:100980003A09526570656174206120676976656E09
:1009900020636F6D6D616E6420616E64207265749A
:1009A00075726E20726573756C740A736563726517
:1009B00061643A09526561642066726F6D2061203E
:1009C0007365636F6E6461727920616464726573CC
:1009D000730A73656373656E643A0953656E6420C8
:1009E00064617461206F7220636F6D6D616E64204D
:1009F000746F2061207365636F6E6461727920612A
:100A00006464726573730A736574767374723A09F9
:100A100044455052454341544544202D207365655B
:100A2000206964207665727374720A7372716175DD
:100A3000746F3A094175746F6D61746963616C6CB0
:100A40007920636F6E647563742073657269616C7D
:100A500020706F6C6C207768656E2053525120694E
:100A6000732061737365727465640A7463743A0900
:100A70005369676E616C2072656D6F746520646583
:100A80007669636520746F2074616B6520636F6E97
:100A900074726F6C0A746F6E3A0950757420636FCC
:100AA0006E74726F6C6C657220696E2074616C6B11
:100AB0002D6F6E6C79206D6F6465202873656E6490
:100AC0002064617461206F6E6C79290A756E6C3ACE
:100AD00009556E6C697374656E20746865204750A3
:100AE0004942206275730A756E743A09556E7461D5
:100AF0006C6B20746865204750494220627573769C
:100B00006572626F73653A09566572626F7365202C
:100B10002868756D616E207265616461626C65291B
:100B2000206D6F64650A78646961673A094275737C
:100B300020646961676E6F737469637320287365DD
:100B4000652074686520646F63290A000A50726F1B
:100B50006C6F67697820436F6D70617469626C6552
:100B600020436F6D6D616E64733A0A616464723A1A
:100B700009446973706C61792F73657420646576BC
:100B800069636520616464726573730A6175746F6B
:100B90003A094175746F6D61746963616C6C792099
:100BA000726571756573742074616C6B20616E641D
:100BB000207265616420726573706F6E73650A637D
:100BC0006C723A0953656E642053656C6563746595
:100BD000642044657669636520436C6561722074A6
:100BE0006F2063757272656E7420475049422061B0
:100BF0006464726573730A656F693A09456E616270
:100C00006C652F64697361626C65206173736572D2
:100C100074696F6E206F6620454F49207369676E57
:100C2000616C0A656F723A0953686F77206F7220A2
:100C300073657420656E64206F66207265636569F4
:100C40007665206368617261637465722873290A2E
:100C5000656F733A09537065636966792047504937
:100C600042207465726D696E6174696F6E2063688D
:100C7000617261637465720A656F745F6368617243
:100C80003A09536574206368617261637465722008
:100C9000746F20617070656E6420746F20555342CC
:100CA000206F7574707574207768656E20454F5499
:100CB00020656E61626C65640A656F745F656E6164
:100CC000626C653A09456E61626C652F44697361B7
:100CD000626C6520617070656E64696E6720757303
:100CE0006572207370656369666965642063686115
:100CF00072616374657220746F20555342206F7562
:100D000074707574206F6E20454F4920646574655A
:100D10006374696F6E0A68656C703A095468697328
:100D2000206D6573736167650A6966633A0941738B
:100D30007365727420494643207369676E616C2045
:100D4000666F7220313530206D6973636F73656330
:100D50006F6E6473202D206D616B652041523438B5
:100D60003820636F6E74726F6C6C657220696E20D0
:100D70006368617267650A6C6C6F3A094C6F6361F6
:100D80006C206C6F636B6F7574202D2064697361C8
:100D9000626C652066726F6E742070616E656C2087
:100DA0006F7065726174696F6E206F6E20696E730B
:100DB0007472756D656E740A6C6F633A09456E6185
:100DC000626C652066726F6E742070616E656C2057
:100DD0006F7065726174696F6E206F6E20696E73DB
:100DE0007472756D656E740A6C6F6E3A0950757425
:100DF00020636F6E74726F6C6C657220696E206C0C
:100E0000697374656E2D6F6E6C79206D6F646520EB
:100E1000286C697374656E20746F20616C6C20742B
:100E2000726166666963290A6D6F64653A09536584
:100E3000742074686520696E7465726661636520EC
:100E40006D6F64652028313D636F6E74726F6C6CDA
:100E500065722F303D646576696365290A72656144
:100E6000643A095265616420646174612066726F3E
:100E70006D20696E737472756D656E740A7265614A
:100E8000645F746D6F5F6D733A09526561642074BD
:100E9000696D656F757420737065636966696564F3
:100EA000206265747765656E2031202D20333030E7
:100EB00030206D696C6C697365636F6E64730A7260
:100EC00073743A0952657365742074686520636FA2
:100ED0006E74726F6C6C65720A73617665636667B7
:100EE0003A095361766520636F6E66696772617453
:100EF000696F6E0A73706F6C6C3A09536572696141
:100F00006C20706F6C6C207468652061646472651D
:100F10007373656420686F7374206F7220616C6CEA
:100F200020696E737472756D656E74730A73727175
:100F30003A0952657475726E20737461747573200A
:100F40006F6620737271207369676E616C2028313F
:100F50002D7372712061737365727465642F302D07
:100F6000737271206E6F742061737365727465643F
:100F7000290A7374617475733A095365742074682F
:100F80006520737461747573206279746520746F61
:100F90002062652072657475726E6564206F6E20C4
:100FA0006265696E6720706F6C6C65642028626989
:100FB000742036203D205251532C20692E65205339
:100FC0005251206173736572746564290A74726783
:100FD0003A0953656E64207472696767657220749C
:100FE0006F2073656C6563746564206465766963FE
:100FF00065732028757020746F203135206164641A
:10100000726573736573290A7665723A0944697368
:10101000706C6179206669726D77617265207665A2
:101020007273696F6E0A0053656E64696E6720445F
:10103000434C206661696C656400454550524F4DD4
:1010400020657261736564210053657420454F52B9
:1010500020746F3A2000506172616C6C656C207076
:101060006F6C6C20636F6D706C657465642E0052DC
:10107000454E3A200050524F4D3A20004F46460010
:101080004F4E206275666665726564004F4E20752E
:101090006E627566666572656400544F4E3A200054
:1010A0004D697373696E6720706172616D657465F7
:1010B0007273004D697373696E6720706172616D40
:1010C0006574657200537769746368656420746F32
:1010D00020646576696365206D6F64652E002073FA
:1010E00075636365656465642E00206661696C657F
:1010F00064210053656E64696E6720544354207404
:101100006F20646576696365206174206164647230
:10111000657373200054686174206973206D7920B1
:10112000616464726573732120506C65617365201E
:1011300070726F766964652074686520616464729A
:10114000657373206F6620612072656D6F74652012
:101150006465766963652E00496E76616C69643AF0
:1011600020303D64617461206275733B20313D63C2
:101170006F6E74726F6C206275730044494F380053
:1011800044494F370044494F360044494F350044E5
:10119000494F340044494F330044494F32004449D9
:1011A0004F310041544E005352510052454E0045BC
:1011B0004F4900444156004E524644004E4441437C
:1011C00000494643004152343838204750494220B4
:1011D000636F6E74726F6C6C65722C207665722E04
:1011E00020302E35332E33342C2032362F31322F0F
:1011F000323032350053657269616C206E756D62F4
:101200006572206D757374206E6F742065786365E8
:10121000656420392063686172616374657273214B
:10122000004C656E677468206F66206E616D652086
:101230006D757374206E6F742065786365656420C6
:101240003135206368617261637465727321004C8B
:10125000656E677468206F662076657273696F6E5D
:1012600020737472696E67206D757374206E6F746D
:101270002065786365656420343820636861726135
:10128000637465727321005665725374723A20005C
:1012900020776974682073657269616C206E756D62
:1012A0006265720053656E64696E672049444E3A08
:1012B0002000526561645E4F4B004661696C656455
:1012C00020746F2073656E6420554E4C0046616932
:1012D0006C656420746F2073656E6420554E5400F5
:1012E000556E7265636F676E697A656420636F6DB2
:1012F0006D616E64000A436F6D6D616E64206162A2
:101300006F727465642E000A496E76616C696420A0
:101310004950206164647265737320666F726D61F9
:10132000742E00596F752077696C6C206E6565644A
:1013300020746F207265626F6F74206E6F772E005D
:101340000A495020416464726573732077696C6C3C
:101350002062652073657420746F3A2000456E74B6
:1013600065722074686520646573697265642049DC
:101370005020616464726573732028302E302E30E3
:101380002E30206D65616E733A2075736520444878
:101390004350293A200076696120444843502E008A
:1013A000436F6E66696775726564204950204164B9
:1013B00064726573733A20000A43757272656E74C5
:1013C00020495020416464726573733A20002D20D7
:1013D0005352414D206C6566743A20002121204E05
:1013E0006F2076616C696420495020616464726585
:1013F00073732061737369676E65642E20506C652A
:1014000061736520636865636B20796F7572206E08
:101410006574776F726B2073657474696E67732E71
:1014200000495020416464726573733A200046613C
:10143000696C656420746F20737461727420544306
:101440005020736572766572004D6178696D756DB7
:10145000206E756D626572206F66206368617261CF
:101460006374657273206973207265616368656473
:1014700020696E206120636F6D6D616E64207465FC
:1014800078740000536574757020636F6D706C65BF
:1014900074652E005374617274696E6720536572AF
:1014A00069616C204D656E752E2E2E00537461722D
:1014B00074696E672050726F6C6F6769782054434F
:1014C0005020736572766572206F6E20706F727433
:1014D00020313233342E2E2E0057616974696E67C5
:1014E00020666F7220444843502E2E2E00546865AB
:1014F000206465766963657327732064656661752A
:101500006C74206164647265737320706F696E74AB
:101510007320746F20475049422061646472657380
:10152000732000436F6E6669677572696E6720612C
:101530006E64205374617274696E6720475049422B
:10154000206275732E2E2E004D414320416464723B
:101550006573733A200045746865726E657432472E
:1015600050494220476174657761792076322E3286
:10157000202841523438382076302E35332E3334FB
:10158000290A00BE02A802A702A602A502A402A37D
:1015900002A202A102A002446F6E652E00436C6598
:1015A0006172696E672E2E2E004572726F722077FF
:1015B00068696C6520726563656976696E67206429
:1015C0006174612E00526561645E4F4B005265612B
:1015D000645E4F4B00202D3E2063616E63656C6C32
:1015E0006174696F6E202100202D3E2063616E635F
:1015F000656C6C6174696F6E202100202D3E207433
:101600006F6F206D616E7920617267756D656E74A4
:1016100073202120286F6E65206368617261637496
:101620006572206F6E6C79290000202D3E204E6F70
:1016300020636F6D6D616E6420636F6465206D6102
:10164000746368696E67202100202D3E20746F6FDF
:10165000206D616E7920617267756D656E7473209F
:101660002120286F6E652063686172616374657202
:10167000206F6E6C7929002C20506C656173652099
:10168000696E666F726D20796F757220636C696523
:101690006E74732100495020416464726573732035
:1016A000686173206368616E67656420746F2000F1
:1016B00049502041646472657373206861732062CD
:1016C00065656E2061737369676E65643A200045D5
:1016D000746865726E6574206C696E6B2069732026
:1016E0004F4B206E6F7700526573657474696E6737
:1016F00020616C6C20636C69656E7420636F6E6E24
:10170000656374696F6E732E2E2E002069732077C7
:10171000726F6E672E20506C65617365206368651B
:10172000636B204448435021004950204164647257
:10173000657373200045746865726E6574206C690A
:101740006E6B206973204F464600676574436D6475
:101750003A20636F6D6D616E64206E6F74206176E8
:1017600061696C61626C6520696E207468697320C0
:101770006D6F64652E0053656E645E4F4B00496E5D
:1017800074657266616365206D697374616B652051
:1017900077697468206C696272617279205365722E
:1017A00069616C53657269616C4D656E75436D64FA
:1017B000004E6F204D656E7520696E206D656D6FF2
:1017C0007279003E0000B547825311241FBECFEF4F
:1017D000CDBFDFE3DEBF18E2A0E0B8E2EEE6FCEB4F
:1017E00002C005900D92AA31B107D9F72BE2AAE108
:1017F000B8E201C01D92A93AB207E1F71BE0C4EEBE
:10180000DBE004C02197FE010E941C5AC33ED107B1
:10181000C9F70E94F7480C94E25B0C9400018F9288
:101820009F92AF92BF92CF92DF92EF92FF920F936F
:10183000CF93DF9380910B2A882319F081FF0DC08D
:101840007894DF91CF910F91FF90EF90DF90CF9040
:10185000BF90AF909F908F90089580FFF2CF8090BF
:101860000D2A90900E2AA0900F2AB090102AC12C19
:10187000D12C7601E0E09401A501B601C701A0E0FA
:101880000E94465A91F1217030E040E050E060E063
:1018900070E080E090E00E94465AD1F0B0E0A0E015
:1018A000E03370F4AE2FA695A695A69580E2A89F8A
:1018B000D0011124A05FBB4F8E2F8770A80FB11DE0
:1018C000CE2FD0E0CB5FD54D88899C91892B8C930E
:1018D0009401A501B601C70101E00E942B5A4901FC
:1018E0005A016B017C01EF5FC6CF8090112A909066
:1018F000122AA090132AB090142AC12CD12C760160
:10190000E0E29401A501B601C701A0E00E94465A99
:1019100009F497CF217030E040E050E060E070E0E3
:1019200080E090E00E94465AD1F0B0E0A0E0E033C1
:1019300070F4AE2FA695A695A69580E2A89FD0013B
:101940001124A05FBB4F8E2F8770A80FB11DCE2F23
:10195000D0E0CB5FD54D88899C91892B8C939401E5
:10196000A501B601C70101E00E942B5A49015A01A5
:101970006B017C01EF5FC5CF00008093C4088091AC
:10198000C30887FFFCCF8091C40808950F931F936D
:10199000CF93DF93EC018C01060F171FC017D107FF
:1019A00029F088810E94BC0C8993F8CFDF91CF91F8
:1019B0001F910F9108958F929F92AF92BF92CF92F5
:1019C000DF92EF92FF920F931F93CF93DF93182F25
:1019D000F92F80910B2A882319F081FF12C0F89407
:1019E0001093C008F093C108DF91CF911F910F9120
:1019F000FF90EF90DF90CF90BF90AF909F908F902F
:101A0000089580FFEDCF80900D2A90900E2AA0902F
:101A10000F2AB090102AC12CD12C7601E0E094015D
:101A2000A501B601C701A0E00E94465AA9F12170A4
:101A300030E040E050E060E070E080E090E00E9444
:101A4000465AE9F0D0E0C0E0E03370F4CE2FC695FE
:101A5000C695C69580E2C89FE0011124C05FDB4FA8
:101A60008E2F8770C80FD11D8E2F90E028818B5F3D
:101A7000954DDC0150962C938881887F8883940152
:101A8000A501B601C70101E00E942B5A49015A0184
:101A90006B017C01EF5FC3CF8090112A9090122AD6
:101AA000A090132AB090142AC12CD12C7601E0E228
:101AB0009401A501B601C701A0E00E94465A09F4AD
:101AC0008FCF217030E040E050E060E070E080E0D7
:101AD00090E00E94465AE9F0D0E0C0E0E03370F4B4
:101AE000CE2FC695C695C695B0E2CB9FE0011124D6
:101AF000C05FDB4F8E2F8770C80FD11D8E2F90E0F7
:101B000028818B5F954DDC0150962C938881887FCE
:101B100088839401A501B601C70101E00E942B5AF8
:101B200049015A016B017C01EF5FC2CFFC01BC018E
:101B3000695A7F4F8FEF9FEF2191322F3927232F43
:101B400022952F702327422F50E0382FCA01982F5B
:101B500088279295907F28273927CA01B5E0880FFA
:101B6000991FBA95E1F7822793276E177F0721F710
:101B70000895E6E0FBE287E5DF011D928A95E9F72B
:101B800082E0828381E084838FEF858380EB94E021
:101B900081879287089520E3FC0120833296862F67
:101BA00082958F706F706A3030F4605D6293682F39
:101BB0008111F5CF0895695CF9CFFC01818D928D7B
:101BC00008950895CF93DF9390E0FC01E755F74027
:101BD00020812F3F61F0FC01E058F740E08130E2C6
:101BE000E39FF0011124FC5F613021F42183DF9138
:101BF000CF910895895A9740EC01A881AF3F69F0D1
:101C0000CF014096A80FB92FB11D9FB7F89422833A
:101C10008C9188608C939FBFEACFB0E0A0E0F5CFB5
:101C200090E0FC01E25DF740E081EE2319F1E13044
:101C300021F000F1E630A8F00895895A9740FC01A0
:101C40002081233008F02F5F3091010A81E090E07D
:101C500001C0880F2A95EAF7809583238093010AB3
:101C6000089580E1E89FF0011124E05AF54F818149
:101C70008F7E818308950F931F93CF93DF93C82F97
:101C8000D0E0FE01E755F74000810F3FA1F0162F8D
:101C9000893210F40E94100EFE01E058F740E081F6
:101CA00080E2E89FF0011124FC5F8081802351F0E5
:101CB000111106C00683DF91CF911F910F910895F6
:101CC0000583F9CFC95AD7408881309771F08F3F8B
:101CD00061F07096E80FF11D9FB7F89480811111A3
:101CE00007C0877F80839FBFE6CFF0E0E0E0F4CFBE
:101CF0008860F8CF0F931F93CF93082F10E0F8015F
:101D0000E755F740C081CF3F79F00E94100EF801EF
:101D1000E058F740E08180E2E89FF0011124FC5F89
:101D20008085C82381E009F480E0CF911F910F9155
:101D300008950E947A0E91E0811190E0892F089514
:101D4000893210F40C943B0E0895EF92FF920F939A
:101D50001F93CF93DF93E82EF12CF701E95AF74058
:101D600000810F3FD9F1EB01182F61E00E94E20DD5
:101D7000209751F460E0812FDF91CF911F910F9157
:101D8000FF90EF900C94A00ECF3FD10511F461E0CD
:101D9000F2CFF701E25DF740E081E13039F010F079
:101DA000E63030F1C038D10594F7E4CFE02FF0E011
:101DB000EE0FFF1F0330C8F0ED5DF54F0F5F8FB7DB
:101DC000F894C0838FBF8091010A21E030E001C008
:101DD000220F0A95EAF7822B8093010ADF91CF91B7
:101DE0001F910F91FF90EF900895E85DF54FE7CFB9
:101DF00080E1E89FF0011124E05AF54F8FB7F89485
:101E000094859487C5878FBF818180618183E6CF68
:101E100000000000000000009C0127503109880FDD
:101E2000991F880F991F820F931F0197F1F708954B
:101E30006FB7F89420913429309135294091362993
:101E4000509137298091AA0A9091AB0A7091A60A05
:101E500070FF08C02F5F3F4F4F4F5F4F8091AA0A1E
:101E60009091AB0A6FBFE92FFF27BC01A4E07695E4
:101E70006795AA95E1F7E60FF71FBC01B6E07695E6
:101E80006795BA95E1F7E61BF70B892F9927869599
:101E90008695E81BF90BA8EEB3E00E94C9596E0FB6
:101EA0007F1F811D911D08958F929F92AF92BF92C7
:101EB000CF92DF92EF92FF924B015C010E94180FCC
:101EC0006B017C01A8EEB3E0A50194010E94C95901
:101ED000C60ED71EE81EF91EC616D706E806F90676
:101EE00018F40E94180FF8CF0E94180F6C157D058A
:101EF0008E059F05C8F3FF90EF90DF90CF90BF90C5
:101F0000AF909F908F9008952FB7F89460913429E7
:101F10007091352980913629909137292FBF0895E6
:101F200021E0FC018485883008F020E0822F0895AC
:101F30008091342890913528891B990B0895DC01F4
:101F4000ED91FC910190F081E02D0994EF92FF92C8
:101F50000F931F93CF93DF938C017B01D0E0C0E000
:101F6000F701EC0FFD1F6491662361F0D801ED913C
:101F7000FC910190F081E02DC8010995892B11F0A9
:101F80002196EECFCE01DF91CF911F910F91FF905F
:101F9000EF900895AF92BF92CF92DF92EF92FF92AF
:101FA0000F931F93CF93DF936C017B018B01040F81
:101FB000151FEB015E01AE18BF08C017D10759F01D
:101FC0006991D601ED91FC910190F081E02DC6015F
:101FD0000995892B79F7C501DF91CF911F910F9159
:101FE000FF90EF90DF90CF90BF90AF900895FC01ED
:101FF000508D418D252F30E0842F90E0821B930B74
:10200000541710F0CF96089501970895FC01968912
:102010008789981761F0A789AE0FBF2FB11D5D9614
:102020008C9197899F5F9F73978B90E008958FEFB6
:102030009FEF0895FC0196898789981731F0878969
:10204000E80FF11D858D90E008958FEF9FEF0895C3
:10205000FC0196892789892F90E0805C9F4F821B25
:1020600091098F73992708958CE49AE20E942810B1
:1020700021E0892B09F420E0822F0895CF93DF938C
:10208000EC01E881F9810680F781E02D0995EC8566
:10209000FD8586818F738683EC85FD8585818F75AF
:1020A00085838F898E8B1D8ADF91CF910895AF92A2
:1020B000BF92CF92DF92EF92FF920F931F93CF9335
:1020C000DF93EC016A017B01A22E8D89882339F010
:1020D000E881F9810688F789E02DCE0109950C8900
:1020E00010E0BFB6F89460E078E689E899E0A701CF
:1020F00096010E94885969017A018FEFC81AD80A9F
:10210000E80AF80AF694E794D794C794EC85FD851D
:1021100086818D7F8683EC85FD85868186831D8AF9
:10212000A09125110A2E000CBB0BA70196010E945D
:10213000D45920E034E040E050E00E94AA59EC85F8
:10214000FD85C20ED31EE41EF51EC086D186EC8529
:10215000FD85A782EC85FD858681806C8683EC8574
:10216000FD858581806885839091E2058B898095C6
:1021700089237801EE0CFF1CF701E00FF11FEC0F33
:10218000FD1F9089892B8093E2058685893218F49A
:1021900062E00E94E20D0E0D1F1DC00FD11F61E015
:1021A0008F850E94A00E8F85893218F461E00E940D
:1021B000E20DBFBEDF91CF911F910F91FF90EF9085
:1021C000DF90CF90BF90AF900895FC01613019F47B
:1021D000648B81E00895148A6623D9F380E0089522
:1021E000DC0154961C92549754968C9154978230EB
:1021F000A0F4282F30E0F901EE0FFF1FE20FF31FCC
:10220000EA0FFB1F9785961303C09685941749F034
:102210008F5F54968C935497E7CF54961C9280E02E
:10222000089581E00895CF93DF93FC01908D818D17
:10223000C485D585981306C08D818F7D8D83DF91F0
:10224000CF910895A18DAE0FBF2FB11DA35ABF4FDF
:102250002C91818D90E001968F739927818F80E476
:102260008C83A485B58512962C93908D818D9813BF
:10227000E6CFA485B58515968C9115978F7D15961B
:102280008C93838D8823D9F2848D80931301138ED0
:10229000D6CFDC011C96ED91FC910FB607FE03C072
:1022A000258125FD04C0248125FD0C94131108957A
:1022B000EF92FF920F931F93CF93DF93EC0181E096
:1022C0008D8B988D898D98131CC0AC85BD85149617
:1022D0008C91149785FF15C012966C93AC85BD85C3
:1022E00080E414968C93EC85FD8585818F7D8583B4
:1022F00081E090E0DF91CF911F910F91FF90EF90DF
:1023000008958091110180FF08C0809113018C8F86
:102310008A8D8093130181E08B8FF62E088D10E05B
:102320000F5F1F4F0F731127E02E898D8E1104C090
:10233000CE010E944911F9CFE88DEC0FFD2FF11D60
:10234000E35AFF4FF082088FEC85FD85858180621E
:10235000CECF682F8CE49AE20C945811CF93DF9380
:10236000FC0125892223C9F0EC018091110180FF35
:1023700008C080911301848F828D8093130181E0C6
:10238000838FEC85FD85858185FD03C0848186FD75
:1023900004C0CE010E944911F4CFDF91CF9108957E
:1023A00080E090E0892B29F00E94341081110E9476
:1023B000000080E090E0892B49F080E090E0892BDC
:1023C00029F00E94000081110E94000080E090E04E
:1023D000892B49F080E090E0892B29F00E940000D1
:1023E00081110E94000080E090E0892B49F080E09C
:1023F00090E0892B29F00E94000081110C940000CC
:10240000089581E008950F9391E0909376281092BB
:102410002F2860932D2870932E2840932C282093EA
:102420002B28109230281092312800932A28880FE8
:102430008093292893E024E080912C28882331F090
:1024400090937728809129288E7F09C080912B282E
:10245000882341F0209377288091292881608093F8
:10246000A70808C080912C28811104C080912B28D6
:10247000882331F380912F288823E1F380912F283E
:102480008330D1F280912B28882321F0809131284C
:102490000F91089590912F2881E09130C9F780E045
:1024A000F7CFE0EAF8E091859066918792E090930B
:1024B00077288093232810922228089581E0809322
:1024C00022281092232893E09093AA089091AB08B9
:1024D00091FF0BC010922728F0E0E0E0099580936F
:1024E000262885E0809377280895109228288093E5
:1024F000252886E0F7CFE091352880913428E81729
:1025000030F4F0E0EA5CF74D808190E008958FEFC1
:102510009FEF089590913528809134282FEF3FEF59
:10252000981748F4E92FF0E0EA5CF74D208130E09D
:102530009F5F90933528C9010895CF92DF92EF9263
:10254000FF920F931F93CF93DF937C018A01EB01DE
:102550006B01C40ED51ECC15DD0551F06991D70174
:10256000ED91FC910190F081E02DC7010995F3CF29
:10257000C801DF91CF911F910F91FF90EF90DF90F5
:10258000CF9008952091B828203440F021E030E029
:10259000FC012283338390E080E008958091B92884
:1025A000E82FF0E0E858F74D60838F5F8093B928FB
:1025B0008093B82881E090E00895E0911E28F09182
:1025C0001F28808190911D28892B80830895E09198
:1025D0001E28F0911F28908180911D2880958923C5
:1025E00080830895AF92BF92CF92DF92EF92FF92D5
:1025F0000F931F93CF93DF93CDB7DEB72897CDBF4F
:10260000DEBF8C017B016A01809180298333E1F474
:102610005801A40EB51EA016B10609F46FC00E94A1
:10262000E71280EF0E94BC0C812F0E94BC0C802F0F
:102630000E94BC0C0F5F1F4FF70181917F010E9428
:10264000BC0C0E94DD12E7CF5B01A40EB51E8433E3
:10265000C1F40E94E71219830A838D2D80688B8351
:10266000CC8264E070E0CE0101960E94C60CAE14EC
:10267000BF0409F441C0F70181917F010E94BC0CA5
:10268000F6CF0E94E7120F3F110509F028F41982D6
:102690000A8384E08B830CC017FD17C019820A835C
:1026A00033E0169507953A95E1F7007E0C600B83B1
:1026B00086E0C816D10488F5F701DE011496EA1504
:1026C000FB0599F081918D93FACFC80126E096958C
:1026D00087952A95E1F7807E19830A830115104CAE
:1026E00010F48461D7CF8C61D5CFB6016D5F7F4F79
:1026F000CE0101960E94C60C0E94DD12C6012896EA
:10270000CDBFDEBFDF91CF911F910F91FF90EF9072
:10271000DF90CF90BF90AF90089563E070E0CE015E
:1027200001960E94C60CF70181917F010E94BC0CAA
:10273000AE14BF04C1F7E0CFCF93DF931F92CDB7A4
:10274000DEB7898341E050E0BE016F5F7F4F90E0CC
:1027500080E00E94F2120F90DF91CF91089590E0F7
:1027600020918029233339F40C96982F990F990FD3
:10277000990F80E008954896F8CFDA01E09120287B
:10278000F0E0FE2FEE27E60FF71F90E0982F882746
:10279000A901BD018E0F9F1F0C94F212CF93DF93FE
:1027A00000D0CDB7DEB779836A8322E030E0AE0196
:1027B0004F5F5F4F60E170E00E94BD130F900F907C
:1027C000DF91CF910895CF93DF9300D0CDB7DEB7DF
:1027D00079836A8322E030E0AE014F5F5F4F64E0AF
:1027E00070E00E94BD130F900F90DF91CF9108957C
:1027F000CF93DF931F92CDB7DEB72091202830E032
:10280000322F2227260F371F90E0982F88274983E1
:1028100041E050E0BE016F5F7F4F820F931F0E9427
:10282000F2120F90DF91CF910895CF93DF931F9213
:10283000CDB7DEB76983DC01ED91FC910280F381B5
:10284000E02D41E050E0BE016F5F7F4F09950F9092
:10285000DF91CF910895CF93DF931F92CDB7DEB76D
:102860006983DC01ED91FC910280F381E02D41E070
:1028700050E0BE016F5F7F4F09950F90DF91CF91C0
:102880000895FC019485FB018485981303C081E0C1
:10289000983008F080E00895CF93DF931F92CDB772
:1028A000DEB76983DC01ED91FC910280F381E02DBC
:1028B00041E050E0BE016F5F7F4F09950F90DF91BF
:1028C000CF91089544E050E0BC018FE090E00C947B
:1028D000F21244E050E0BC0185E090E00C94F2126A
:1028E00044E050E0BC0181E090E00C94F212FC0165
:1028F000848595850895DC01ED91FC91028CF38D22
:10290000E02D099460E08DE00E943B0E61E087E2DB
:102910000E943B0E61E086E20C943B0EFC0182813A
:1029200081110CC08381811109C08481811106C08D
:1029300081E09581911103C080E0089581E00895C0
:10294000FC0184899589089520E43AEFFC012083F5
:102950003183FB014089518962897389FC0142837B
:10296000538364837583089590912A29E92FF0E0B9
:10297000EF57F64D80839F5F90932A290895FC01BD
:10298000DB0112968D919C91139782839383149609
:102990004D915D916D917C9117974483558366832A
:1029A000778318964D915D916D917C911B9740872F
:1029B0005187628773871C968C911C9784871D961C
:1029C0008D919C9185879687CF010895FC0165873D
:1029D00076870895DC01ED91FC9102A0F3A1E02D32
:1029E000099591E089270895862F089581E086272B
:1029F000089508950895282F2F71229530E0A90198
:102A000055954795559547954373220F331F220FD0
:102A1000331F422B50E0282F30E0B90175956795A0
:102A2000CA01959587958575440F551F4A7A482B9D
:102A3000842F869586958695220F331F220F331F8C
:102A40002078962F9072292B6074262B822B089564
:102A5000CF93DF93D62F0E94FB14C82F8D2F0E9497
:102A6000FB14E0E4F4E02481982F909592238C23CA
:102A7000892B8483DF91CF91089560E280E20E94E8
:102A8000281568E270E080E090E00E94540F60EA50
:102A900080E00E94281568E270E080E090E00E94EB
:102AA000540F60E880E80C9428154F925F926F9263
:102AB0007F929F92AF92BF92CF92DF92EF92FF925E
:102AC0000F931F93CF93DF935C01D62F8A010E944F
:102AD000840F2B013C016F5F7F4F8F4F9F4FC09042
:102AE0000F2BD090102BF12CE12CF8011082C0E0BC
:102AF0009924939464197509860997096C157D05C5
:102B00008E059F0578F58091082B8130E1F1C11188
:102B100047C064E084E00E9428158FE00E947A0E8E
:102B2000C4E0811142C064E00E942815DD2339F021
:102B30008EE00E94990E882311F0F8019082809116
:102B400068048095F501808362E082E00E94281588
:102B50008FE00E947A0E813059F562E080E00E9499
:102B60002815C1E08C2FDF91CF911F910F91FF901D
:102B7000EF90DF90CF90BF90AF909F907F906F903D
:102B80005F904F90089582E10E94990E811112C0CA
:102B900084E10E94990E882309F4B9CFC3E0E2CF03
:102BA000C43009F4BACFC63099F20E94840FA2CF84
:102BB000C6E0FBCFC2E0D6CF0F931F93CF93DF9336
:102BC000CDB7DEB7C054D109CDBFDEBF062F0E94FE
:102BD000FB14182F802F0E94FB14E0E4F4E0908196
:102BE000682F60959623212F2823922B908390E2C3
:102BF000DE01119601900D929A95E1F72989EA89F3
:102C00004B895C893D89BE89AF89788D23FB22275A
:102C100020F9F0E0F595E795F595E795E270FF2747
:102C2000922F9E2B5870952B50E0559547954470E8
:102C30005527942B232F30E0220F331F2071332789
:102C4000922B44E0B49F9001112420723327922BE1
:102C500028E0A29FD0011124A074BB279A2B40E149
:102C6000749F9001112420783327922B962310957E
:102C70008123982B80E2E0E4F4E0DE01919601905C
:102C80000D928A95E1F789A9292F30E0A90163E027
:102C9000440F551F6A95E1F74870482B49AB8AA944
:102CA000A901440F551F440F551F4870482B4AABCC
:102CB0008BA9A901440F551F4870482B4BAB1CA989
:102CC0009870912B9CAB4DA9C901959587958870FB
:102CD000842B8DAB4EA9C9019595879595958795C0
:102CE0008870842B8EAB4FA9C901B3E09595879569
:102CF000BA95E1F78870842B8FAB88AD14E03595D9
:102D000027951A95E1F72870282B28AFC05CDF4F74
:102D1000CDBFDEBFDF91CF911F910F910895CF936B
:102D2000DF93CDB7DEB7A097CDBFDEBF813069F4AA
:102D300080916004809360048FEF80936404A09678
:102D4000CDBFDEBFDF91CF910895809160041092D6
:102D5000600480E2E0E6F4E0DE01119601900D925D
:102D60008A95E1F789898860898B8A8988608A8B4E
:102D70008B8988608B8B8C8988608C8B8D8988602F
:102D80008D8B8E8988608E8B8F8988608F8B888DE4
:102D90008860888FD4CF82E00E948F166EE186E033
:102DA0000E94DC1566E089EF0C9428158F929F92A3
:102DB000AF92BF92CF92DF92EF92FF920F931F9349
:102DC000CF93DF93D82F162F0E94840F4B015C0105
:102DD0006F5F7F4F8F4F9F4FC0900F2BD090102B66
:102DE000F12CE12CC0E00FEFD095681979098A0920
:102DF0009B096C157D058E059F0508F061C08091CB
:102E0000082B813029F582E10E94990E8823A1F0D8
:102E10000E94CB1688E080935D2BC2E08C2FDF915F
:102E2000CF911F910F91FF90EF90DF90CF90BF90C7
:102E3000AF909F908F90089584E10E94990E88230F
:102E400039F00E94CB1688E080935D2BC3E0E6CF7B
:102E5000C11117C081E10E947A0E81112CC080E15E
:102E60000E947A0EC7E0813031F5809160040093B2
:102E70006004D09364048091072B81110BC068E03B
:102E80000CC0C73061F3C83081F3C93049F0CA3093
:102E900061F011C068E1112391F380E00E942815D0
:102EA00080E10E947A0E811109C081E10E947A0EB0
:102EB000813049F0CAE00E94840F97CFC9E0FBCF70
:102EC000C13009F0ABCF8091072B811103C068E0BE
:102ED00088E004C068E188E11123C9F30E94281545
:102EE000809160048FEF8093600480936404C1E05C
:102EF00095CFFC0180819181FC01FF2790FD06C0E8
:102F000080E094E1E82BF92B8081089580E093E143
:102F1000F9CF0F931F93CF93DF9300D0CDB7DEB7D8
:102F20008C0119821A82CE0101960E947917F8014C
:102F3000808381E090E089839A83CE0101960E948C
:102F40007917F8018183C8010F900F90DF91CF911D
:102F50001F910F910895FC01FF2790FD12C080E0A2
:102F600094E1E82BF92B60838FB7F8949DE923E077
:102F700094BF209300108FBF8091021081FDFCCF81
:102F8000089580E093E1EDCFBF92CF92DF92EF9270
:102F9000FF920F931F93CF93DF9300D0CDB7DEB78F
:102FA0006C017C0102E010E0F701B1907F01098320
:102FB0001A83CE0101960E947917B81621F06B2D65
:102FC000C8010E94AB170F5F1F4F0935110561F74C
:102FD000C6010E94960D8C0119821A82CE010196BB
:102FE0000E947917081729F0602F90E080E00E9476
:102FF000AB1781E090E089839A83CE0101960E940D
:103000007917181781F0612F81E090E00F900F90F1
:10301000DF91CF911F910F91FF90EF90DF90CF90B4
:10302000BF900C94AB170F900F90DF91CF911F9131
:103030000F91FF90EF90DF90CF90BF900895CF93C6
:10304000DF93D0E0C0E06FEFCE010E94AB17219676
:10305000C11581E0D807B9F7DF91CF910895DC0160
:10306000ED91FC910488F589E02D23E030E009948E
:1030700090E080E0089524E0FC01218321E3208397
:103080000895DF92EF92FF920F931F93CF93DF93F8
:1030900000D0CDB7DEB7FB01DC0156961D921C9225
:1030A00057972281211109C02381211106C0248153
:1030B000211103C02581222359F14115510541F108
:1030C0007A018F01FC01D08CCE0101960E943B1841
:1030D00089819A810E94DB0CA8014E5F5F4F24E03A
:1030E00030E06CE070E08D2D0E94BD13B7018D2D96
:1030F0000E94CE130E940F0C81E090E00F900F9081
:10310000DF91CF911F910F91FF90EF90DF90089585
:1031100080E0F3CFCF93C82FEEEFE80FE83068F4EC
:10312000F0E0EB56F74E0C941C5AAE18B518C918BF
:10313000C618D918E818F018F31861EE81EA0E9451
:10314000DC1561EA81EA0E9428156EE180E00E94A8
:10315000DC1560E280E00E9428153EC06EE180E050
:103160000E94DC1560E880E8F6CF809160048093CF
:1031700060048FEF809364046EE188E10E94DC15A7
:1031800068E188E10E94281560E8E4CF0E94CB1630
:10319000E9CF80916004809360048FEF8093640492
:1031A0006EE188E10E94DC1568E188E10E94281543
:1031B000D9CF6FEF80E00E94DC1560E280E20E94D0
:1031C000281561EE80E40E94DC1560E480E4C3CF42
:1031D0006EE180E00E94DC15C0935D2BCF910895D5
:1031E0000E94CB16F9CF80916004809360048FEF2A
:1031F000809364046EE188E10E94DC1568E188E157
:10320000AACF10925D2B6FEF80E00E94DC1582E068
:103210000E948F1688EC90E00E94080F81E0809356
:10322000082B86E00C948A180E943D1510925D2BA5
:103230006FEF80E00E94DC1582E00E948F1688EC20
:1032400090E00E94080F82E08093082B81E00E94AA
:103250008A1861E080E00E94281586E990E00E94CB
:10326000080F61E081E00C942815CF93C82F80915E
:103270005D2B833019F083E00E948A1860E08C2F68
:103280000E94D61691E0813009F490E0892FCF9109
:1032900008958EE190E00E94080F8FE50E94351995
:1032A000882311F081E008958FE30E943519811180
:1032B000F9CF10925F2B08950C9449191F93CF9367
:1032C000DF938F3130F0D1E08D2FDF91CF911F91BF
:1032D00008956036C0F391E8960F97FFF4CF142F4E
:1032E000C62FD82F8FE30E9435198111ECCF8FE5BF
:1032F0000E9435198111E7CF123099F480E48D0FC7
:103300000E943519D82F8111DECFCF3F21F482E002
:1033100080935F2BD9CF8C2F0E9435198111D3CF89
:10332000F6CF80E28D0F0E943519D82F8111CBCFB7
:10333000CF3F11F481E0ECCF8C2F0E943519882308
:10334000C9F3C1CFAF92BF92CF92DF92EF92FF92BB
:103350000F931F93CF938C01E62E80910C2B81301D
:1033600030F0C1E0833020F0C0E0833009F0C2E0EB
:103370008091082B8230C9F484E00E948A18680189
:1033800010E000E0F12C570181E0A81AB1080E15F9
:103390001F0514F5F60181916F019091072B992378
:1033A00011F0CC2321F060E006C089E0E6CF61E0B7
:1033B000A016B106C1F70E94D6168130E1F40F5F66
:1033C0001F4FE5CF60E08DE00E94D6166091072B7D
:1033D0008AE00FC087E013C0CC2369F080910C2BEA
:1033E0008230A1F3833039F0813061F76091072B8F
:1033F0008DE00E94D6168091082B823059F7CF912C
:103400001F910F91FF90EF90DF90CF90BF90AF9002
:103410000C948A188F929F92AF92BF92CF92DF92B4
:10342000EF92FF920F931F93CF93DF9300D000D0C2
:10343000CDB7DEB77C01162FD42EC22E19821A8288
:103440001B829091422B092F07701C8210925E2BD9
:103450008091072B81114BC0611104C011E097309E
:1034600009F010E08091082B823009F042C085E01D
:103470000E948A1884E10E94990E811141C0A02EF9
:10348000B12C80915E2B8111A5C084E10E94990E20
:10349000882309F453C012E08C81882349F080917D
:1034A000062B882329F06091112BC7010E949F0FE2
:1034B000173039F08091082B823009F091C00E94BA
:1034C0008A1880915E2B811110925E2B812F249699
:1034D000CDBFDEBFDF91CF911F910F91FF90EF9095
:1034E000DF90CF90BF90AF909F908F900895182F4E
:1034F000B9CF0E94CB1688E080935D2B11E0BACF44
:103500000E94840F20910F2B3091102B4B015C01F6
:10351000820E931EA11CB11C84E10E947A0E8111BF
:10352000AECF0E94840F86169706A806B90608F447
:10353000A6CF84E190E00E94080FEECFAE014C5F71
:103540005F4F612FCE0101960E945515823009F41C
:1035500043C0833009F49FCF813009F03FC06981B7
:10356000C7010E949F0F112329F08C81882301F14C
:1035700014E092CF8981DD2021F08C1119C015E073
:103580008BCF073018F5F501E853F54E0C941C5A13
:10359000E61AE31AD21AD81ACF1AD61ADD1A8D30C3
:1035A00039F48A818A3021F416E076CF8330E1F352
:1035B0008A818B8389818A8364CF8330C9F78A812A
:1035C0008A30B1F78B818D3099F7EECF8A3081F751
:1035D0008A81F9CF11E060CF13E05ECF18E05CCFB5
:1035E00087E06DCF20E040E060E084E69BE20C9451
:1035F0000A1A1092272980915D2B883029F487E0E0
:103600000E948A1881E0089580E0089580915D2BE2
:10361000893029F487E00E948A1881E0089580E0CB
:103620000895FB0101900020E9F73197AF01461B97
:10363000570BDC01ED91FC910280F381E02D0994A0
:103640008F929F92AF92BF92EF92FF920F931F9330
:10365000CF93DF93CDB7DEB7A197CDBFDEBF7C019F
:10366000FA01CB0119A2223008F42AE08E010F5D85
:103670001F4F822E912CB12CA12CBF01A5019401CA
:103680000E948859F901CA016A30F4F4605DD801DA
:103690006E938D01232B242B252B79F790E080E06E
:1036A000109721F0BD01C7010E94111BA196CDBF4B
:1036B000DEBFDF91CF911F910F91FF90EF90BF90F0
:1036C000AF909F908F900895695CE1CFCF92DF9289
:1036D000EF92FF920F931F93CF93DF936B01770FBE
:1036E000EE08FF08F7FE1BC0EC016DE20E949F0F81
:1036F0008C0144275527BA014C195D096E097F09D1
:103700002AE0CE010E94201B800F911FDF91CF91F4
:103710001F910F91FF90EF90DF90CF9008952AE0D6
:10372000B701A601DF91CF911F910F91FF90EF900C
:10373000DF90CF900C94201BCF93DF9300D0CDB7B8
:10374000DEB76EEC73E18CE49AE20E94A60F8091E2
:10375000A32B9091A42B009711F489EA9BE2BE0160
:103760006F5F7F4F681B790B8CE49AE20E94661BA7
:103770000F900F90DF91CF910895462F50E070E0A9
:1037800060E02AE00C94201B8F929F92AF92BF9230
:10379000CF92DF92EF92FF920F931F93CF93DF931D
:1037A0007C018B014C0182E0880E911C5701E5E001
:1037B000AE0EB11CD0E0C0E0F40161914F01C80130
:1037C0000E94BD1B6C016EE2C8010E949F0F8C0D10
:1037D0009D1DC80FD91F8A149B0471F7F7016581DD
:1037E000C8010E94BD1B8C0F9D1FDF91CF911F91BF
:1037F0000F91FF90EF90DF90CF90BF90AF909F9090
:103800008F90089564E57AEF0C94111B0F931F932A
:10381000CF93DF93EC010E94BD1B8C01CE010E946F
:10382000021C800F911FDF91CF911F910F9108957E
:103830000F931F93CF93DF93EC01AB0170E060E037
:103840002AE00E94201B8C01CE010E94021C800FE6
:10385000911FDF91CF911F910F9108950F931F93A7
:10386000CF93DF93EC010E94661B8C01CE010E9476
:10387000021C800F911FDF91CF911F910F9108952E
:1038800083E10E94990E682F70E084E69BE20C941D
:103890002E1C0F931F93CF93DF93EC01CB01BE013E
:1038A0000E94C41B8C01CE010E94021C800F911F3C
:1038B000DF91CF911F910F9108950F931F93CF9395
:1038C000DF93EC010E94111B8C01CE010E94021CAF
:1038D000800F911FDF91CF911F910F9108950F934A
:1038E0001F93CF93DF93EC01FB01448155816081ED
:1038F0007181E881F9810280F381E02D09958C01C5
:10390000CE010E94021C800F911FDF91CF911F9169
:103910000F9108950F931F93CF93DF93EC010E94B3
:10392000A60F8C01CE010E94021C800F911FDF9117
:10393000CF911F910F91089560EE72E184E69BE2B2
:103940000C948A1C8FE50E943519882351F08091D0
:10395000022A882359F06DEC72E184E69BE20C9414
:103960008A1C10925F2B82E00C948A1808958FE3D2
:103970000E943519882351F08091022A882359F03A
:103980006AEB72E184E69BE20C948A1C10925F2B36
:1039900082E00C948A180895CF9382E00E948A18DE
:1039A00084E190E00E94080F80916004809360049D
:1039B0008FEF809364046EE188E10E94DC1568E17A
:1039C00088E10E94281560E980E00E9428150E9485
:1039D000CB1684E190E00E94080FC091680482E059
:1039E0000E948A186C2F609584E69BE20E94061C58
:1039F0008091022A882339F066E570E184E69BE233
:103A0000CF910C948A1CCF91089584E10E943519BE
:103A1000882351F08091022A882349F067E270E1FF
:103A200084E69BE20C948A1C82E00C948A18089528
:103A300086E09BE20E94C4178091022A882331F01D
:103A40006FE976E084E69BE20C948A1C0895CF929D
:103A5000DF92EF92FF920E94840F6B017C0120EDB8
:103A6000C20E27E0D21EE11CF11C88EDA89584BF90
:103A7000809100018660809300018091010181FDA9
:103A8000FCCF0E94840F6C157D058E059F05C8F341
:103A90008091022A882351F064EF75E084E69BE26E
:103AA000FF90EF90DF90CF900C948A1CFF90EF90E6
:103AB000DF90CF9008958091082B8230B1F461E0BF
:103AC00080E00E94281586E990E00E94080F61E0DE
:103AD00081E00E9428158091022A882331F068E94C
:103AE00075E084E69BE20C948A1C089541E06091A5
:103AF0000B2B80910A2B0E945E19882351F0809134
:103B0000022A882391F06FE375E084E69BE20C942F
:103B10008A1C84E00E9435198111F1CF0E945C1942
:103B20008111EDCF82E00C948A18089563E373E06D
:103B3000823031F065E473E0833011F462E273E0C7
:103B400084E69BE20C948A1C0F931F93CF938C0105
:103B5000C091582BC295C695C77009F4C1E084E6A0
:103B60009BE20E94021CB80184E69BE20E94A60F21
:103B7000C13029F065E284E69BE20E949F0FC150AC
:103B800091F784E69BE2CF911F910F910C94021C58
:103B90006115710511F00C94111B90E080E00895FF
:103BA0008091022A91E089278093022A67E57AEFC3
:103BB00084E69BE20E94C81D8091022A65E97AEFA3
:103BC000882311F069E87AEF84E69BE20C945D1C8F
:103BD00067E77BEF84E69BE20C94C81DDC01FC01E7
:103BE00001900020E9F731979E2F9A1B2A2FFD01A3
:103BF0008E2F821B891730F4819180538A30C0F355
:103C000080E0089581E008950C942454CF93DF93CD
:103C1000CDB7DEB7C054D109CDBFDEBF65EC77E1CB
:103C20008CE49AE20E948A1C6091042B7091052B0F
:103C300040E450E0CE0101960E949156BE016F5FB4
:103C40007F4F8CE49AE20E94C81D63EC77E18CE41C
:103C50009AE20E94A60FC05CDF4FCDBFDEBFDF91AE
:103C6000CF9108950F931F93CF93DF93CDB7DEB716
:103C7000C054D109CDBFDEBF6EED7AEF8CE49AE27D
:103C80000E945D1C6EED7AEF8CE49AE20E945D1C4E
:103C90008091032B10E005E0811115C061EB77E105
:103CA0008CE49AE20E948A1C6EE777E18CE49AE247
:103CB0000E948A1CC05CDF4FCDBFDEBFDF91CF9179
:103CC0001F910F9108958091032B181798F7E09199
:103CD000012BF091022B109FE00DF11D112460814A
:103CE000718140E450E0CE0101960E949156BE01E0
:103CF0006F5F7F4F8CE49AE20E945D1C1F5FE3CFF1
:103D00000E94321E0C94061EAF92BF92CF92DF9299
:103D1000EF92FF920F931F93CF93DF9300D000D0C9
:103D2000CDB7DEB78C016B017A0180918029833396
:103D3000E9F45B016801C40ED51EC016D10691F1ED
:103D40000E94E7128FE00E94BC0C812F0E94BC0CE5
:103D5000802F0E94BC0C0F5F1F4F80E00E94BC0CA4
:103D6000F50181935F010E94DD12E7CF843349F5AD
:103D70000E94E71219830A838F2D8F778B83EC8241
:103D800064E070E0CE0101960E94C60CA70170E0CD
:103D900060E0C6010E942E5BB701C6010E94C60CFE
:103DA0000E94DD12C7012496CDBFDEBFDF91CF9107
:103DB0001F910F91FF90EF90DF90CF90BF90AF9049
:103DC00008950E94E7120F3F110509F030F419829F
:103DD0000A831B8263E070E0D5CF17FD0BC0198208
:103DE0000A8333E0169507953A95E1F7007E08605F
:103DF0000B83F0CFC80126E0969587952A95E1F7C9
:103E0000807E19830A830115104C18F480618B831E
:103E1000E1CF8861FCCF1F93CF93DF9300D0CDB764
:103E2000DEB7182FCE0101960E943B1889819A8136
:103E30000E94DB0C812F0E94AF1327E0129FF0013C
:103E40001124E85CF64D22813381377041E050E067
:103E5000BE016F5F7F4F820F931F0E94841E0E94DE
:103E60000F0C89810F900F90DF91CF911F910895D2
:103E7000FC01808D883040F4218D328D232B21F080
:103E80000E940B1F90E008958FEF9FEF0895CF934E
:103E9000DF93FC012485283028F08FEF9FEFDF911E
:103EA000CF910895EC010190F081E02D0084F1851F
:103EB000E02D0995892B89F38C850E940B1F90E0DA
:103EC000EECFCF93DF931F92CDB7DEB741E050E046
:103ED000BE016F5F7F4F0E94841E89810F90DF912A
:103EE000CF91089590E080E00C94611FCF93DF9311
:103EF000C4E1D0E00E94721F882361F061E070E0AD
:103F000080E090E00E94540F2197A1F780E0DF91BC
:103F1000CF91089581E0FBCF1F93CF93DF9300D023
:103F20001F92CDB7DEB780912128811139C160E39E
:103F300072E080E090E00E94540F80910A2A811183
:103F400017C010920B2A10920C2A10920D2A109270
:103F50000E2A10920F2A1092102A1092112A1092F3
:103F6000122A1092132A1092142A81E080930A2AAE
:103F70008091E3058C7F9091092A892B8093E3053A
:103F800091118BC061E084E00E94E20D61E086E067
:103F90000E94E20D8091C10884608093C1088091E5
:103FA000C00881628093C0089091442A8091452A7C
:103FB0009093C0088093C10880910028893208F04E
:103FC0007FC0E82FF0E0E058F7402081263008F06D
:103FD00077C090E2299F900111243C5F2C5F3F4FF6
:103FE00020931E2830931F289FEF893228F4E82F52
:103FF000F0E0E755F740908190931D28893218F43E
:1040000061E00E94E20D0E94DD12CE0101960E9445
:104010003B1889819A810E94DB0C84E3809380297C
:1040200080E80E949C130E94761F882309F44BC0ED
:1040300088E00E949C130E94721F883009F043C0E0
:1040400080E10E949C130E94721F8031E1F580E0A4
:104050000E949C130E94721F182F811134C08FE19F
:1040600090E00E94611F833071F580E480932028E6
:1040700042E06EE170E0812F0E94F81342E06FE1B0
:1040800070E0812F0E94F8131F5F183089F70E949B
:104090000F0C81E0809321287CC0913039F461E0DD
:1040A0008EE00E94E20D61E080E172CF923009F073
:1040B00071CF61E08EE10E94E20D61E080E268CFA5
:1040C00030E020E08BCF87E38093802980E80E9456
:1040D0009C130E94761F8823F9F088E00E949C13AD
:1040E0000E94721F8830C1F480E10E949C130E94DC
:1040F000721F182F803181F480E00E949C130E946F
:10410000721F811109C089E390E00E94611F843011
:1041100019F410932028BBCF83E38093802980E893
:104120000E949C130E94761F882371F180E10E94F7
:104130009C130E94721F803139F582E10E949C130A
:104140000E94721F823101F580E00E949C130E9440
:10415000721F811119C084E08093202815E51B830C
:1041600041E050E0BE016D5F7F4F8BE190E00E9427
:10417000F212198341E050E0BE016F5F7F4F8AE188
:1041800090E00E94F21283CF109280290E940F0CBF
:1041900080E02396CDBFDEBFDF91CF911F910895C0
:1041A00081E0F7CFEF92FF921F93CF93DF93CDB7CC
:1041B000DEB7C454D109CDBFDEBF7C01FB018281D3
:1041C0009381A481B58123968CAF9DAFAEAFBFAF75
:1041D000239711E023961FAF239723964CAD5DAD37
:1041E0006EAD7FAD239749AF5AAF6BAF7CAF8DA754
:1041F0009EA7AFA7B8AB18AB4DA55EA56FA578A9D4
:104200004B8F5C8F6D8F7E8F1CAF49AD5AAD6BAD00
:104210007CAD49A35AA36BA37CA320E43AEF298386
:104220003A834FEF4B834C834D831E822F83388715
:104230001E8F4B8D5C8D6D8D7E8D49875A876B8768
:104240007C871CA349A15AA16BA17CA14F87588BE5
:10425000698B7A8B2B8B3C8B8D8B9E8BAF8BB88F26
:104260000E948C1F882369F1CE018D5B9F4F0E94B5
:104270003B1825968EAD9FAD25970E94DB0C46E03E
:1042800050E0B70189E090E00E94F212CE0145961D
:104290000E946214CE0109960E947014CE0103960A
:1042A0000E9469140E940F0C1A8B8F859889A98926
:1042B000BA898093F72A9093F82AA093F92AB093A9
:1042C000FA2ACC5BDF4FCDBFDEBFDF91CF911F91CC
:1042D000FF90EF9008952091202830E0322F222780
:1042E000620F731F90E0982F8827860F971F0C94FA
:1042F000611FCF93C82F462F61E070E00E94F81332
:1043000061E070E08C2F0E946B218111F9CFCF9179
:1043100008951F93CF93DF9300D0CDB7DEB7182F4A
:10432000CE0101960E943B1889819A810E94DB0C84
:1043300068E070E0812F0E9479210E940F0C0F909D
:104340000F90DF91CF911F9108951F93CF93DF932B
:1043500000D0CDB7DEB7182FCE0101960E943B18D2
:1043600089819A810E94DB0C60E170E0812F0E94BC
:1043700079210E940F0C0F900F90DF91CF911F9128
:104380000895CF93DF93EC01888D883020F40E944C
:10439000A52188E0888FDF91CF91089563E070E0D8
:1043A0000C946B211F93CF93DF9300D0CDB7DEB772
:1043B000182FCE0101960E943B1889819A810E9494
:1043C000DB0C812F0E94CE21182F0E940F0C812F11
:1043D0000F900F90DF91CF911F910895EF92FF9270
:1043E0000F931F93CF93DF937C0180918029D4E0BA
:1043F000833309F0D8E000E719E2C0E0F801219129
:1044000031918F01F701848195812817390729F0AF
:10441000CF5FDC13F3CF80E006C08C2F0E94D22147
:104420008431B1F781E0DF91CF911F910F91FF901F
:10443000EF900895CF93DF93EC018C858830D0F412
:104440000E94D221843189F0882379F0883169F083
:1044500021E08C3159F4E881F9810084F185E02D67
:10446000CE01099521E0892B09F420E0822FDF910C
:10447000CF91089580E0FBCFCF92DF92EF92FF9231
:10448000CF93DF93EC018C85883068F40E948921FA
:104490000E94840F6B017C018C850E94D2218111C6
:1044A00009C088E08C87DF91CF91FF90EF90DF907B
:1044B000CF90089561E070E080E090E00E94540F9A
:1044C0000E94840FAB01BC014C195D096E097F0984
:1044D0008D859E85B0E0A0E0481759076A077B07E5
:1044E000D8F28C850E94A521DCCF1F93CF93DF9358
:1044F00000D0CDB7DEB7FC01108DCE0101960E9431
:104500003B1889819A810E94DB0C60E270E0812F68
:104510000E94792162E070E0812F0E946B2184FD6E
:1045200022C062E070E0812F0E946B2183FF10C0E7
:1045300048E162E070E0812F0E94F8130E940F0CA6
:1045400080E090E00F900F90DF91CF911F91089540
:104550000E940F0CCE0101960E943B1889819A811E
:104560000E94DB0CD7CF40E162E070E0812F0E9417
:10457000F8130E940F0C81E0E4CFDA01E0912028CB
:10458000F0E0FE2FEE27E60FF71F90E0982F882728
:10459000A901BD018E0F9F1F0C94841E8F929F92C4
:1045A000AF92BF92CF92DF92EF92FF920F931F9341
:1045B000CF93DF93CDB7DEB76097CDBFDEBF7C0171
:1045C00090918029992371F108E0933309F404E074
:1045D0005B01CE0101960E943B1889819A810E945D
:1045E000DB0C9E012F5F3F4F6901490110E0812FD5
:1045F0000E94CE21F40181934F018823D9F01F5FDF
:104600000113F5CF00E0F60181916F018D3161F06A
:10461000883151F08A51823038F00F5F1013F3CF98
:104620000E940F0C18E08AC060E170E0802F0E94A9
:104630007921102FC12ED12CF601EE0FFF1FE0596A
:10464000F64D108211828AEF90E00E94080F42E836
:1046500070E060E0812F0E94F8134FEF62E070E09D
:10466000812F0E94F813B501A114B10491F4809137
:1046700003289091042801968115F0EC9F0708F417
:104680006EC0809303289093042860910328709152
:104690000428812F0E94E31386E0EEEDF7EFDE01A0
:1046A000199601900D928A95E1F7F70183818F7732
:1046B0008C8784818D8785818E87A7014E5F5F4FB0
:1046C00024E030E06CE070E0812F0E94BD13B50162
:1046D000812F0E94CE1326E030E0AE01475F5F4F8E
:1046E00066E070E0812F0E94BD1361E070E0812FD1
:1046F0000E94792127E02C9DC0012D9D900D112451
:104700009C01285C364D7901F9011082118222E06A
:1047100030E0AE01415F5F4F68E270E0812F0E94A0
:10472000BD228F859889982789279827F70182834A
:1047300093831682148215820E940F0C812F60963B
:10474000CDBFDEBFDF91CF911F910F91FF90EF9012
:10475000DF90CF90BF90AF909F908F90089580E0B2
:1047600090EC8FCFCF92DF92EF92FF920F931F9337
:10477000CF93DF93CDB7DEB72697CDBFDEBF8C01D9
:104780006B017A01FC01808D883010F40E94A52114
:1047900080E49AEF89839A83F60182819381A481D0
:1047A000B5818B839C83AD83BE83B701CE01019617
:1047B0000E94CE22F801808F883088F4E486F58646
:1047C000118E128E81E02696CDBFDEBFDF91CF9194
:1047D0001F910F91FF90EF90DF90CF90089580E0B0
:1047E000F2CF7F928F929F92AF92BF92CF92DF9241
:1047F000EF92FF920F931F93CF93DF9300D0CDB72B
:10480000DEB7782E8B014A01590122E030E0AE017B
:104810004F5F5F4F64E270E00E94BD22E980FA8042
:10482000FE24EF24FE24E00EF11E97013770409124
:104830008029072D10E0433309F042C0085F1F4F65
:10484000102F0027110F110F110FC901800F911F99
:104850004733C9F1A9014A0D5B1D4130584098F119
:1048600060E078E06B01C21AD30AA601B4010E948D
:10487000F212A5014C195D09B4016C0D7D1DC80132
:104880000E94F212EA0CFB1CF982EA8222E030E07C
:10489000AE014F5F5F4F64E270E0872D0E94BD1351
:1048A0000F900F90DF91CF911F910F91FF90EF909C
:1048B000DF90CF90BF90AF909F908F907F900895A2
:1048C000005F1F4FBDCFA501B401DACFEF92FF9279
:1048D0001F93CF93DF9300D0CDB7DEB7182F22E020
:1048E00030E0AE014F5F5F4F60E270E00E94BD229A
:1048F000E980FA80FE24EF24FE2422E030E0AE01BD
:104900004F5F5F4F60E270E0812F0E94BD2289817E
:104910009A81982789279827E816F90689F487E06D
:10492000189FF0011124E85CF64DE482F582C7017E
:104930000F900F90DF91CF911F91FF90EF9008950E
:104940007C01DBCFFF920F931F93CF93DF9300D0B7
:10495000CDB7DEB7F82ECE0101960E943B188981B3
:104960009A810E94DB0C8F2D0E9466248C018F2D72
:104970000E94CE21F82E0E940F0C87E1F81629F034
:104980008CE1F81611F010E000E0C8010F900F90D4
:10499000DF91CF911F910F91FF900895CF93DF93F7
:1049A000EC018C85883060F40E94D221873111F0AF
:1049B0008C3131F48C850E94A2248115984088F3B3
:1049C000DF91CF910895FC0124A1283018F4489676
:1049D0000C94CE240895FC018485883010F40C9446
:1049E000A22490E080E00895AF92BF92CF92DF9230
:1049F000EF92FF920F931F93CF93DF9300D0CDB729
:104A0000DEB7F82E6B018A014130584010F000E00B
:104A100018E0CE0101960E943B1889819A810E947C
:104A2000DB0C8F2D0E9466245C018F2D0E94CE210D
:104A3000E82E0E940F0C87E1E81619F08CE1E812CD
:104A400035C0A016B10628F3CE0101960E943B188E
:104A500089819A810E94DB0C9801A60170E060E0D8
:104A60008F2D0E94F12360E270E08F2D0E9479214A
:104A700062E070E08F2D0E946B2184FD25C08F2D98
:104A80000E94CE21811115C00E940F0C10E000E0A1
:104A9000C8010F900F90DF91CF911F910F91FF9060
:104AA000EF90DF90CF90BF90AF90089510E000E0BE
:104AB000CBCF0E940F0CCE0101960E943B1889813A
:104AC0009A810E94DB0CD4CF40E162E070E08F2D30
:104AD0000E94F8130E940F0CDBCF0F931F93CF930C
:104AE000DF938C01EA01FC018485883048F40E9440
:104AF000F424892B39F481E090E0F80182839383D8
:104B0000D0E0C0E0CE01DF91CF911F910F910895C9
:104B10007F928F929F92AF92BF92CF92DF92EF924D
:104B2000FF920F931F93CF93DF9300D0CDB7DEB7E3
:104B30007C014B01742EC52EFC01A688B788D08C51
:104B4000CE0101960E943B1889819A810E94DB0C5C
:104B50008D2D0E946624072D1C2D8017910708F4C7
:104B60008C019801A401B5018D2D0E94F1230E94B2
:104B70000F0CF70186899789800F911F868B978B81
:104B8000C8010F900F90DF91CF911F910F91FF906F
:104B9000EF90DF90CF90BF90AF909F908F907F90DD
:104BA0000895FF920F931F93CF93DF9300D0CDB75B
:104BB000DEB7F82E22E030E0AE014F5F5F4F66E2D5
:104BC00070E00E94BD2209811A8110270127102759
:104BD00022E030E0AE014F5F5F4F66E270E08F2D64
:104BE0000E94BD2289819A819827892798270817D2
:104BF000190749F4C8010F900F90DF91CF911F91D1
:104C00000F91FF9008958C01E3CFEF92FF920F93E5
:104C10001F93CF93DF9300D0CDB7DEB7182F87E077
:104C2000189F90011124F901E85CF64D7F01808105
:104C300091810097B1F4CE0101960E943B188981C1
:104C40009A810E94DB0C812F0E94D1258C010E9449
:104C50000F0CF70186819801281B3109C9012083B7
:104C600031830F900F90DF91CF911F910F91FF90A3
:104C7000EF9008959F92AF92BF92CF92DF92EF9202
:104C8000FF920F931F93CF93DF93EC017B018091F1
:104C90008029811121C01A821B8288EE93E0A0E056
:104CA000B0E08C839D83AE83BF838EE09AEF8883D0
:104CB000998388E08C8788EE93E08D879E87CE016C
:104CC000DF91CF911F910F91FF90EF90DF90CF90E8
:104CD000BF90AF909F90089534E0932E833311F0EE
:104CE00028E0922E80E7C82E89E2D82E10E098E0C6
:104CF000B92EA12CD6012D913D916D01F701848132
:104D000095812817390791F4812F0E94D221082F0D
:104D1000873111F08C3139F5812F0E940526892BBE
:104D200059F50C3119F4812F0E9489211F5F9112CE
:104D3000E1CFA11008C0D701ED91FC910084F1856D
:104D4000E02DC70109951A821B8288EE93E0A0E04E
:104D5000B0E08C839D83AE83BF838EE09AEF88831F
:104D60009983BC86A8CF843149F08111DFCFF60149
:104D7000329710821182DACFB12ED8CFAA24A39411
:104D8000D5CF8F929F92AF92BF92CF92DF92EF9248
:104D9000FF920F931F93CF93DF93CDB7DEB72F977B
:104DA000CDBFDEBF5C014B017A0180918029882351
:104DB000B1F104E0833309F008E0B501CE010196BA
:104DC0000E943A2680E7C82E89E2D82E10E0F6012C
:104DD000219131916F01F50184819581281739075F
:104DE00051F4812F0E94D221873129F4A701B40107
:104DF000812F0E94F4241F5F0113E9CFC7012F9672
:104E0000CDBFDEBFDF91CF911F910F91FF90EF904B
:104E1000DF90CF90BF90AF909F908F900895F12C2E
:104E2000E12CECCFEF92FF920F931F93CF93DF9380
:104E3000CDB7DEB72F97CDBFDEBF8C017C0188E1F7
:104E4000E80EF11CF80184A1883030F5C7010E94FA
:104E50001A2281111DC0C7010E943C221B821C82A4
:104E600088EE93E0A0E0B0E08D839E83AF83B887A7
:104E70008EE09AEF89839A8388E08D8788EE93E0AD
:104E80008E879F87BE016F5F7F4FC7010E94BF144F
:104E9000F80184A1883068F0F80166897789CE012D
:104EA00001960E943A26BE016F5F7F4FC7010E94A4
:104EB000BF14F80184A1883038F40E94840FF801EF
:104EC00065A776A787A790AB2F96CDBFDEBFDF91F2
:104ED000CF911F910F91FF90EF900895CF93DF93A3
:104EE000EC010E941227CE0148962CA1283020F414
:104EF000DF91CF910C94471F8FEF9FEFDF91CF9100
:104F00000895FC018485883010F40C94052690E007
:104F100080E00895EF92FF920F931F93CF93DF935A
:104F2000CDB7DEB72F97CDBFDEBFFC01268937890D
:104F3000232B61F490E080E02F96CDBFDEBFDF91A0
:104F4000CF911F910F91FF90EF9008958C010E94D7
:104F500012277801F8E1EF0EF11CF80184A18830E6
:104F600060F066897789CE0101960E943A26BE01DB
:104F70006F5F7F4FC7010E94BF14F80184A1883082
:104F8000C8F6C7010E948127D7CF4F925F927F92C8
:104F90008F929F92AF92BF92CF92DF92EF92FF9249
:104FA0000F931F93CF93DF9300D0CDB7DEB7782E4A
:104FB0006B014A01A82EB12C27E0829FC001112469
:104FC000FC01E85CF64D7F0100811181CE01019664
:104FD0000E943B1889819A810E94DB0C08151905F3
:104FE00054F4872D0E94D125F70126818C01021BE4
:104FF0001109008311830115110529F5872D0E94E0
:10500000CE21843159F0882349F001E010E08C3141
:1050100011F410E000E01195019511090E940F0CA8
:10502000C8010F900F90DF91CF911F910F91FF90CA
:10503000EF90DF90CF90BF90AF909F908F907F9038
:105040005F904F900895801691060CF4840187E0DC
:105050008A9DF0018B9DF00D1124E85CF64DE280F5
:10506000F380C114D10451F12701F7E05F22872DAD
:105070000E94AF13840D951D20918029273309F4D8
:1050800053C09801240D351D2130384008F44CC020
:1050900020E038E0490184189508A401B6010E9477
:1050A000841E2601480C591C6801C818D908872D90
:1050B0000E94AF13A601B2010E94841EE00EF11EF1
:1050C00087E08A9DF0018B9DF00D1124E85CF64D80
:1050D000E282F38220813181201B310B20833183D6
:1050E0008681800F912F911D8A3F910510F4232B0B
:1050F000F1F487E08A9DF0018B9DF00D1124E85CAE
:10510000F64D1682F982EA8222E030E0AE014F5F6E
:105110005F4F68E270E0872D0E94BD1360E470E08D
:10512000872D0E9479217ACFA801B601C5CF868349
:1051300075CFCF93DF93FC01218D328D2115310581
:1051400029F48FEF9FEFDF91CF910895EC01808DCF
:105150004217530708F0A9010E94C527181619061F
:1051600084F7298D3A8D281B390B298F3A8FEBCF85
:105170000F931F93CF93DF931F92CDB7DEB7FC0140
:10518000218D328D232B41F48FEF9FEF0F90DF9114
:10519000CF911F910F9108958C0141E050E0BE0125
:1051A0006F5F7F4FFC01808D0E94C527181619067E
:1051B0005CF7F801818D928D0197818F928F8981A3
:1051C00090E0E4CFCF93DF931F92CDB7DEB741E0FD
:1051D00050E0BE016F5F7F4FFC0184850E94C527B0
:1051E0001816190634F4898190E00F90DF91CF9161
:1051F00008958FEF9FEFF9CFCF93DF93EC010E94DB
:105200001227CE0148962CA1283020F4DF91CF91AF
:105210000C94E2288FEF9FEFDF91CF910895FC016E
:105220008485883010F40C94C52790E080E00895C0
:105230008F929F92BF92CF92DF92EF92FF920F9345
:105240001F93CF93DF93CDB7DEB72A97CDBFDEBFD5
:1052500090918029992379F108E0933309F404E0CF
:105260006B01B82ECE0101960E943B1889819A816C
:105270000E94DB0C9E012F5F3F4F7901490110E036
:10528000812F0E94CE21F40181934F018823D9F010
:105290001F5F0113F5CF00E0F70191917F019D3170
:1052A00061F0983151F09A51923038F00F5F10133D
:1052B000F3CF0E940F0C18E060C060E170E0802F17
:1052C0000E947921102FE12EF12CF701EE0FFF1F24
:1052D000E059F64D108211828AEF90E00E94080F8B
:1052E0004B2D70E060E0812F0E94F8134FEF62E0D9
:1052F00070E0812F0E94F813B601CD2891F48091BF
:1053000003289091042801968115F0EC9F0708F47A
:1053100044C08093032890930428609103287091DF
:105320000428812F0E94E31361E070E0812F0E9426
:10533000792127E02E9DC0012F9D900D11249C0105
:10534000285C364D7901F9011082118222E030E0AB
:10535000AE01475F5F4F68E270E0812F0E94BD227F
:1053600089859A85982789279827F70182839383CF
:105370001682148215820E940F0C812F2A96CDBFAF
:10538000DEBFDF91CF911F910F91FF90EF90DF90E3
:10539000CF90BF909F908F90089580E090ECB9CF10
:1053A0000F931F93CF93DF93EC018B01888D88308F
:1053B00010F40E94A521B80182E00E941829888F6C
:1053C000883050F40C871D87198E1A8E81E0DF918A
:1053D000CF911F910F91089580E0F9CFEF92FF9246
:1053E0001F93CF93DF9300D0CDB7DEB77C01FC01D4
:1053F0006481758181E20E941829182F883090F409
:10540000CE0101960E943B1889819A810E94DB0C93
:10541000812F0E94CE21833169F00E940F0C812FD1
:105420000E9489210F900F90DF91CF911F91FF90E3
:10543000EF90089562E070E0812F0E9479210E9430
:105440000F0CF70184819581E12FF0E0EE0FFF1F33
:10545000E059F64D80839183E5CFAF92BF92CF9212
:10546000DF92EF92FF920F931F93CF93DF9300D0C1
:10547000CDB7DEB78C016B015A01FC018485883001
:1054800058F40E94D221882321F0F80184850E94DB
:10549000892188E0F8018487F60182819381A481C3
:1054A000B5810097A105B10579F490E080E00F90F7
:1054B0000F90DF91CF911F910F91FF90EF90DF90B0
:1054C000CF90BF90AF9008958F3F9F4FAF4FBF4F8A
:1054D00061F370E060E081E20E941829F82EF80183
:1054E0008487F7E0F81708F3CE0101960E943B1875
:1054F00089819A810E94DB0CA6014E5F5F4F24E0F8
:1055000030E06CE070E08F2D0E94BD13B5018F2D4F
:105510000E94CE1364E070E08F2D0E9479210E94DA
:105520000F0C0E94840F6B017C01F80184850E949E
:10553000D221873129F18C3119F1882309F4B5CFB3
:105540000E94840FAB01BC014C195D096E097F09F3
:10555000F80185859685B0E0A0E084179507A60739
:10556000B70738F061E070E080E090E00E94540FEF
:10557000DCCF84850E94A52188E0F801848795CF3F
:1055800081E090E094CF0F931F93CF93DF9300D0EF
:10559000CDB7DEB7FC01248510E000E02830D8F458
:1055A0008C01CE0101960E943B1889819A810E944C
:1055B000DB0C22E030E0AE014F5F5F4F60E170E056
:1055C000F80184850E94BD2209811A8110270127D4
:1055D00010270E940F0CC8010F900F90DF91CF9100
:1055E0001F910F9108950F931F93CF93DF9300D0D6
:1055F000CDB7DEB7FC01248510E000E02830D8F4F8
:105600008C01CE0101960E943B1889819A810E94EB
:10561000DB0C22E030E0AE014F5F5F4F64E070E0F2
:10562000F80184850E94BD2209811A811027012773
:1056300010270E940F0CC8010F900F90DF91CF919F
:105640001F910F9108950F931F93CF93DF9300D075
:10565000CDB7DEB78C0180E49AEFF80180839183A7
:105660001282138214821582CE0101960E943B1889
:1056700089819A810E94DB0CB8016E5F7F4F44E004
:1056800050E08FE090E00E94841E0E940F0CC80141
:105690000F900F90DF91CF911F910F910895E1E846
:1056A000F9E280E8DF011D928A95E9F710922A2934
:1056B0000895CF93C82FE82FF0E0E058F64D808191
:1056C0008F3319F481E08093042A8091082B823073
:1056D00059F480915F2B813039F041E060910B2BC0
:1056E00080910A2B0E945E196C2F81E899E20E943A
:1056F000A2198091032A9091082B9230B9F481115C
:1057000017C00E9449198091582B82FF04C086E778
:1057100097E10E94A41D8091022A81110E94E81D38
:105720000E944F2B1092012ACF910895882359F39C
:105730001092032AE8CFEF92FF920F931F93CF931B
:10574000DF93E1E8F9E290E0AC01425051099F019A
:1057500021583942241735071CF422812193F7CFB1
:10576000FC01E158F64D10828058964DFC011082E4
:105770008091022A882321F084E69BE20E94021C89
:1057800080918129882379F18D3069F18A3059F12E
:105790006CED7AEF81E899E20E94AE56EC0182ED61
:1057A000E82E88EFF82E10E000E0BE01F7018081BE
:1057B00091810E94355B892B49F10F5F1F4FF6E005
:1057C000EF0EF11C0C32110581F70E949C1C0BC0DE
:1057D00009900020E9F70480F581E02D8881882375
:1057E00091F0CE0109950E944F2B1092012A8091D1
:1057F000022A882349F1DF91CF911F910F91FF90E9
:10580000EF900C94E81D90E080E0ECCF86E0809F64
:10581000F001819FF00D1124EE52F7402091082BEA
:1058200030E08281938128233923232B89F60E943B
:105830009C1C8091022A8823B1F26AE477E184E615
:105840009BE20E948A1CCFCFDF91CF911F910F91D5
:10585000FF90EF900895DC0180E49AEF8D939D9383
:1058600084E0FB0101900D928A95E1F70895EF9293
:10587000FF920F931F93CF93DF9300D000D0CDB74B
:10588000DEB78C017B01FB0184858830A0F080E4C9
:105890009AEFF80180839183128213821482158219
:1058A000C8012496CDBFDEBFDF91CF911F910F912C
:1058B000FF90EF900895CE0101960E943B188981D8
:1058C0009A810E94DB0C24E030E0AE014F5F5F4F15
:1058D0006CE070E0F70184850E94BD220E940F0CED
:1058E000BE016F5F7F4FC8010E942B2CD9CF7F92E2
:1058F0008F929F92AF92BF92CF92DF92EF92FF92E0
:105900000F931F93CF93DF93CDB7DEB7A697CDBF8D
:10591000DEBF8C01762E942E852E20E2A22ECE01A3
:1059200001967C01DC01EA2D1D92EA95E9F76801F8
:10593000F3E4CF0ED11C80E49AEF89A39AA38FEFF2
:105940008BA38CA38DA38EA343E450E0BE016F5DB7
:105950007F4FC6010E944118019609F4BFC081E043
:1059600089838A8386E0B82EBB821C82D801149674
:105970006D917D918D919C9117970E94225A6D8314
:105980007E838F83988789869A8680E890E08B87CC
:105990009C874CE150E0B701C6010E948825FE01BA
:1059A00037968AE1DF011D928A95E9F74801B8E050
:1059B0008B0E911CF401D70101900D92BA94E1F77E
:1059C00040E150E0B701C6010E948825F70111921D
:1059D000AA94E9F796E0A92EB12C40E250E0B70175
:1059E000C6010E948825F1E0AF1AB108B1F783E63D
:1059F000898392E89A8393E59B838C8385E38D83E7
:105A000081E08E837F829DE3988797E099878A87DC
:105A100086E0F401DE011B9601900D928A95E1F774
:105A20008CE0898B8A8B61E67AEFCE0143960E94E7
:105A3000515BD8011B966C91CE0149960E94CB0D0B
:105A4000F8016485CE014B960E94CB0DD8011D96BE
:105A50006C91CE014D960E94CB0D4EE150E0B70106
:105A6000C6010E948825B3E07B121EC082E38983B1
:105A700084E08A83F80196859B8397859C8390892F
:105A80009D8391899E8396E39F838887828D8987F2
:105A9000838D8A87848D8B87858D8C874CE050E041
:105AA000B701C6010E94882587E3898386E08A833F
:105AB00091E09B8393E09C838D838FE08E838AE3C8
:105AC0008F838BE388878FEF898749E050E0B701A8
:105AD000C6010E948825C6010E947522A696CDBFE8
:105AE000DEBFDF91CF911F910F91FF90EF90DF907C
:105AF000CF90BF90AF909F908F907F9008950F931D
:105B00001F93CF93DF93CDB7DEB72897CDBFDEBF0E
:105B10008C01D80159964D915C915A9741155105C8
:105B200051F0ED91FC91028CF38DE02D70E060E07E
:105B3000C8010995EECFF801808D0E940526892BBA
:105B400099F148E050E0BE016F5F7F4FD801589651
:105B50008C910E94C52718161906F4F4D8015096A6
:105B600084E0FE01319601900D928A95E1F78D81D6
:105B700090E0982F88272E81820F911DF801848B49
:105B8000958B8F81282F30E0322F22278885820F36
:105B9000932F911D818F928F2896CDBFDEBFDF910D
:105BA000CF911F910F91089590E080E0F5CF4F9233
:105BB0005F926F927F928F929F92AF92BF92CF929D
:105BC000DF92EF92FF920F931F93CF93DF93CDB7A6
:105BD000DEB76397CDBFDEBF7C016B013A01FB01ED
:105BE00020E090E080E06AE03191332309F461C065
:105BF00040ED430F4A3008F04DC0689FA001699FF7
:105C0000500D1124CA01C097830F911D37FD9A953D
:105C10008F3F910549F340F3F7014281538164813D
:105C200075818091482A9091492AA0914A2AB09181
:105C30004B2A481759076A077B0709F40AC28701EC
:105C4000085F1F4F0E94840F6F7077277C5FC80129
:105C50000E94D029813009F001C280E49AEF898343
:105C60009A83F70182819381A481B5818B839C8380
:105C7000AD83BE8345E350E0BE016F5F7F4FC80137
:105C80000E944118892B91F5D12CC12CC8010E948A
:105C9000C12117C03E3209F0BFCF233009F4BCCF79
:105CA000D301A20FB11D12968C932F5F90E080E07C
:105CB0009BCF233009F0B0CFF3018583CC24C3946C
:105CC000D12CC6016396CDBFDEBFDF91CF911F916E
:105CD0000F91FF90EF90DF90CF90BF90AF909F908B
