:100200000C94AD0B0C94D50B0C94D50B0C94D50B16
:100210000C94D50B0C94D50B0C94D50B0C94D50BDE
:100220000C94D50B0C94D50B0C94D50B0C94D50BCE
:100230000C94D50B0C94D50B0C94793A0C941C3B74
:100240000C94D50B0C944B3A0C94253A0C94D50B8A
:100250000C94D50B0C94D50B0C94D50B0C94D50B9E
:100260000C94D50B0C94FD390C94D50B0C94D50B38
:100270000C94D50B0C94D50B0C94D50B0C94D50B7E
:100280000C94D50B0C94D50B0C94D50B0C94D50B6E
:100290000C94D50B0C94D50B0C94D50B0C94D50B5E
:1002A0006364696E6F70737578585B003F202D2012
:1002B0004D656E750032202D20536574206465668F
:1002C00061756C7420696E737472756D656E7420DF
:1002D000616464726573730031202D20536574204E
:1002E00049502061646472657373000A436F6D6DD9
:1002F000616E642061626F727465642E000A496EDB
:1003000076616C696420495020616464726573731E
:1003100020666F726D61742E00596F752077696C5D
:100320006C206E65656420746F207265626F6F74F7
:10033000206E6F772E000A49502041646472657305
:10034000732077696C6C2062652073657420746F0C
:100350003A2000456E746572207468652064657388
:10036000697265642049502061646472657373200A
:1003700028302E302E302E30206D65616E733A207D
:100380007573652044484350293A200076696120FE
:10039000444843502E00436F6E666967757265640A
:1003A00020495020416464726573733A20000A4307
:1003B000757272656E742049502041646472657371
:1003C000733A20000A436F6D6D616E642061626F45
:1003D000727465642E000A496E76616C69642069E6
:1003E0006E737472756D656E74206164647265738A
:1003F000732E00596F752077696C6C206E6565648B
:1004000020746F207265626F6F74206E6F772E009C
:100410000A44656661756C7420496E737472756DFB
:10042000656E7420616464726573732077696C6CA7
:100430002062652073657420746F3A2000456E74E5
:1004400065722074686520646573697265642064F0
:10045000656661756C7420696E737472756D656E16
:100460007420616464726573732028302D333029E1
:100470002C20776974682030206265696E6720746B
:10048000686520676174657761793A20000A437571
:100490007272656E742064656661756C7420696E35
:1004A000737472756D656E742061646472657373C4
:1004B0003A20002D205352414D206C6566743A203D
:1004C000002121204E6F2076616C69642049502004
:1004D000616464726573732061737369676E6564C8
:1004E0002E20506C6561736520636865636B2079AD
:1004F0006F7572206E6574776F726B20736574749C
:10050000696E67732E00495020416464726573738D
:100510003A20004D6178696D756D206E756D62656C
:1005200072206F6620636861726163746572732004
:100530006973207265616368656420696E2061205B
:10054000636F6D6D616E642074657874000053652F
:1005500074757020636F6D706C6574652E005374D4
:10056000617274696E672053657269616C204D65B4
:100570006E752E2E2E005374617274696E6720574B
:10058000656220736572766572206F6E20706F727F
:10059000742038302E2E2E005658492D31312073BC
:1005A000657276657273207374617274656400534A
:1005B00074617274696E67205658492D313120700C
:1005C0006F7274206D617070657273206F6E20544D
:1005D000435020616E6420554450206F6E20706F30
:1005E0007274203131312E2E2E0053746172746971
:1005F0006E67205658492D313120544350205250B7
:100600004320736572766572206F6E20706F72740E
:1006100020393031302E2E2E0057616974696E6793
:1006200020666F7220444843502E2E2E0054686579
:1006300020646576696365732773206465666175F8
:100640006C74206164647265737320706F696E747A
:100650007320746F2047504942206164647265734F
:10066000732000436F6E6669677572696E672061FB
:100670006E64205374617274696E672047504942FA
:10068000206275732E2E2E004D414320416464720A
:100690006573733A200045746865726E65743247FD
:1006A00050494220476174657761792076322E3255
:1006B000202841523438382076302E35332E3339C5
:1006C000290A00202D3E2063616E63656C6C6174A5
:1006D000696F6E202100202D3E2063616E63656C82
:1006E0006C6174696F6E202100202D3E20746F6F45
:1006F000206D616E7920617267756D656E7473200F
:100700002120286F6E652063686172616374657271
:10071000206F6E6C79290000202D3E204E6F2063E3
:100720006F6D6D616E6420636F6465206D617463CD
:1007300068696E67202100202D3E20746F6F206D48
:10074000616E7920617267756D656E74732021200A
:10075000286F6E6520636861726163746572206FD3
:100760006E6C7929002C20506C6561736520696E70
:10077000666F726D20796F757220636C69656E7437
:10078000732100495020416464726573732068616D
:1007900073206368616E67656420746F2000495040
:1007A00020416464726573732068617320626565BB
:1007B0006E2061737369676E65643A2000457468E2
:1007C00065726E6574206C696E6B206973204F4B87
:1007D000206E6F7700526573657474696E6720616F
:1007E0006C6C20636C69656E7420636F6E6E6563FC
:1007F00074696F6E732E2E2E002069732077726FCE
:100800006E672E20506C6561736520636865636B4D
:10081000204448435021004950204164647265736C
:1008200073200045746865726E6574206C696E6B28
:10083000206973204F4646003C2F6F7074696F6EBD
:100840003E00223E003C6F7074696F6E2076616CD2
:1008500075653D22003C2F626F64793E3C2F6874C1
:100860006D6C3E0A0A003C2F73656C6563743E3CF8
:100870002F74643E3C2F74723E3C74723E3C746430
:1008800020636F6C7370616E3D2232223E3C627554
:1008900074746F6E2069643D22657822206F6E63E8
:1008A0006C69636B3D226578283029223E5175655D
:1008B00072793C2F627574746F6E3E266E6273702F
:1008C0003B266E6273703B3C627574746F6E206F72
:1008D0006E636C69636B3D22657828312922207331
:1008E00074796C653D226261636B67726F756E64CB
:1008F0002D636F6C6F723A20233838383B223E5399
:10090000656E643C2F627574746F6E3E203C627538
:1009100074746F6E206F6E636C69636B3D226578D3
:1009200028322922207374796C653D226261636BE1
:1009300067726F756E642D636F6C6F723A20233827
:1009400038383B223E526561643C2F627574746F87
:100950006E3E203C2F74643E3C2F74723E3C747299
:100960003E3C746820636F6C7370616E3D2232226E
:100970003E486973746F72793C2F74683E3C2F74E3
:10098000723E3C74723E3C746420636F6C737061A1
:100990006E3D2232223E3C7465787461726561203E
:1009A00069643D22722220726F77733D22313022BA
:1009B00020636F6C733D2238302220726561646F52
:1009C0006E6C793E3C2F74657874617265613E3C53
:1009D0006272202F3E203C627574746F6E206F6EC1
:1009E000636C69636B3D2273656C662E722E766153
:1009F0006C75653D27273B207363726F6C6C2829EB
:100A0000223E436C65617220686973746F72793C31
:100A10002F627574746F6E3E3C2F74643E3C2F746D
:100A2000723E3C2F7461626C653E0A3C736372696E
:100A300070743E0A66756E6374696F6E20746963C4
:100A40006B2829207B20666574636828222F636EDB
:100A5000782229202E7468656E2828726573706F5D
:100A60006E736529203D3E207B2069662028217217
:100A70006573706F6E73652E6F6B29207B207265B6
:100A80007475726E20223F223B207D207265747542
:100A9000726E20726573706F6E73652E74657874F4
:100AA00028293B207D29202E7468656E28286461E2
:100AB000746129203D3E207B2073656C662E636E39
:100AC000782E696E6E657248544D4C203D206461ED
:100AD00074613B207D293B207D0A736574496E74E7
:100AE000657276616C287469636B2C203530303008
:100AF000293B66756E6374696F6E2066696E642843
:100B000029207B20666574636828222F666E642224
:100B100029202E7468656E2828726573706F6E7355
:100B20006529203D3E207B2069662028217265735F
:100B3000706F6E73652E6F6B29207B207468726FE7
:100B400077206E6577204572726F72282245525267
:100B50003A2022202B20726573706F6E73652E739E
:100B6000746174757354657874293B207D207265B7
:100B70007475726E20726573706F6E73652E746516
:100B8000787428293B207D29202E7468656E2828DA
:100B90006461746129203D3E207B2073656C662E64
:100BA000696E73742E696E6E657248544D4C203DAB
:100BB00020646174613B207D293B207D3B0A667582
:100BC0006E6374696F6E206578287429207B2063BA
:100BD0006F6E737420696E7374203D2073656C664C
:100BE0002E696E73742E76616C75653B20636F6E33
:100BF000737420636D64203D2073656C662E636D95
:100C0000642E76616C75653B0A69662028696E738F
:100C100074203D3D3D20222229207B20616C65729D
:100C2000742822506C656173652073656C6563740C
:100C300020616E20696E737472756D656E74222901
:100C40003B2072657475726E3B207D0A766172205E
:100C50006D203D20222F657822202B20742E746F6A
:100C6000537472696E672829202B20222F22202B93
:100C700020696E7374202B20222F223B0A69662084
:100C80002874203C203229207B2069662028636D4F
:100C900064203D3D3D20222229207B20616C65722D
:100CA000742822506C6561736520656E74657220CE
:100CB0006120636F6D6D616E6422293B20726574E3
:100CC00075726E3B207D206D202B3D20636D643B53
:100CD000207D0A73656C662E722E76616C756520B8
:100CE0003D20225C6E22202B2073656C662E722EB6
:100CF00076616C75653B20646F63756D656E742EEF
:100D0000626F64792E7374796C652E637572736F7C
:100D100072203D202777616974273B20646F6375DB
:100D20006D656E742E676574456C656D656E744295
:100D30007949642822657822292E7374796C652E8E
:100D4000637572736F72203D202777616974273B4A
:100D5000206665746368286D29202E7468656E2886
:100D600028726573706F6E736529203D3E207B206D
:100D7000646F63756D656E742E626F64792E737423
:100D8000796C652E637572736F72203D20276465E0
:100D90006661756C74273B20646F63756D656E7456
:100DA0002E676574456C656D656E7442794964287B
:100DB00022657822292E7374796C652E637572739F
:100DC0006F72203D202764656661756C74273B2037
:100DD0006966202821726573706F6E73652E6F6B64
:100DE00029207B207468726F77206E6577204572AA
:100DF000726F7228224552523A2022202B207265AF
:100E000073706F6E73652E73746174757354657847
:100E100074293B207D2072657475726E2072657333
:100E2000706F6E73652E7465787428293B207D2958
:100E30000A2E7468656E28286461746129203D3E1D
:100E4000207B20696620282874203D3D3D203229E2
:100E50007C7C282874203D3D3D20302926262864AE
:100E600061746120213D3D202222292929207B20F7
:100E700073656C662E722E76616C7565203D20223E
:100E80003C3D2022202B20696E7374202B20223AB7
:100E90002022202B20646174612E7472696D2829D0
:100EA000202B20225C6E22202B2073656C662E7214
:100EB0002E76616C75653B207D0A6966202874205A
:100EC0003C203229207B2073656C662E722E766161
:100ED0006C7565203D20223D3E2022202B20696E2E
:100EE0007374202B20223A2022202B20636D642053
:100EF0002B20225C6E22202B2073656C662E722EB6
:100F000076616C75653B207D0A7363726F6C6C282B
:100F1000293B207D293B207D3B0A66756E63746901
:100F20006F6E207363726F6C6C2829207B20736551
:100F30006C662E722E7363726F6C6C546F70203DF2
:100F400020303B207D0A646F63756D656E742E7171
:100F50007565727953656C6563746F7228222363BB
:100F60006D6422292E6164644576656E744C6973E4
:100F700074656E657228226B65797570222C206508
:100F800076656E74203D3E207B2069662865766517
:100F90006E742E6B657920213D3D2022456E74656F
:100FA0007222292072657475726E3B20646F6375BE
:100FB0006D656E742E717565727953656C656374B9
:100FC0006F72282223657822292E636C69636B284F
:100FD000293B206576656E742E70726576656E7439
:100FE00044656661756C7428293B207D293B0A3C69
:100FF0002F7363726970743E0A003C68323E496E1A
:1010000074657261637469766520494F3C2F68325C
:101010003E3C7461626C653E3C74723E3C7464207C
:10102000636F6C7370616E3D2233223E53656E6454
:101030002072656D6F74652070726F6772616D6D7F
:10104000696E672028534350492920636F6D6D6195
:101050006E647320616E64207175657269657320BA
:10106000746F2074686520696E737472756D656E37
:101070007420616E642076696577207468652072DB
:101080006573706F6E7365732072657475726E65CB
:10109000642062792074686520696E737472756D5E
:1010A000656E742E3C6272202F3E3C2F74643E3C71
:1010B0002F74723E203C74723E3C74683E496E73DD
:1010C0007472756D656E74733C2F74683E3C746801
:1010D00020636F6C7370616E3D2232223E436F6DF0
:1010E0006D616E643C2F74683E3C2F74723E203CF0
:1010F00074723E3C746420726F777370616E3D222F
:1011000034223E3C73656C6563742069643D2269DA
:101110006E7374222073697A653D223422207374C1
:10112000796C653D2277696474683A203863683B5E
:10113000206F766572666C6F772D793A20617574D1
:101140006F3B223E3C2F73656C6563743E3C62725C
:10115000202F3E3C627574746F6E206F6E636C69F5
:10116000636B3D2266696E642829223E46696E647F
:101170003C2F627574746F6E3E3C2F74643E3C74F9
:10118000642077696474683D22383025223E3C69CA
:101190006E70757420747970653D22746578742260
:1011A0002069643D22636D6422206D61786C656EF8
:1011B0006774683D3130302076616C75653D222260
:1011C000202F3E3C2F74643E3C74643E3C62757438
:1011D000746F6E206F6E636C69636B3D2273656C18
:1011E000662E636D642E76616C75653D73656C6605
:1011F0002E7072652E76616C7565223E266C743B8E
:101200003C2F627574746F6E3E3C73656C656374DD
:101210002069643D22707265223E003A3A67706927
:10122000622C3C693E4E3C2F693E3A3A494E53543B
:10123000523C2F623E206F72203C623E2E2E2E3A90
:101240003A696E73743C693E4E3C2F693E3A3A49A6
:101250004E5354523C2F623E2C20776865726520B5
:101260003C693E4E3C2F693E206973207468656975
:10127000722061646472657373206F6E2074686598
:101280002047504942206275732028312E2E33307A
:10129000293C2F74643E3C2F74723E3C2F74616273
:1012A0006C653E003A3A494E5354523C2F623E2000
:1012B00028756E6C65737320796F7520686176652B
:1012C00020736574207468652064656661756C744C
:1012D00020696E737472756D656E742061646472DA
:1012E00065737320746F20736F6D657468696E67C2
:1012F00020656C7365207468616E2030293C2F7402
:10130000643E3C2F74723E3C74723E3C74643E49B1
:101310006E737472756D656E74733A3C2F74643EAF
:101320003C74643E3C623E54435049503A3A003C5F
:1013300068323E5658492D31312C205649534120B0
:10134000636F6E6E656374696F6E20737472696E1D
:1013500067733C2F68323E3C7461626C653E3C743E
:10136000723E3C74643E436F6E74726F6C6C657257
:101370003A3C2F74643E3C74643E3C623E5443509D
:1013800049503A3A003C2F7370616E3E3C2F703EDC
:101390000A003C21444F43545950452068746D6CF9
:1013A0003E3C68746D6C206C616E673D22656E22F8
:1013B0003E3C686561643E3C6D65746120636861B4
:1013C000727365743D225554462D3822202F3E20DD
:1013D0003C6D657461206E616D653D22766965774F
:1013E000706F72742220636F6E74656E743D227725
:1013F000696474683D6465766963652D77696474B2
:10140000682C20696E697469616C2D7363616C6509
:101410003D312E3022202F3E203C7469746C653E95
:1014200045746865726E657432475049423C2F744A
:1014300069746C653E3C7374796C653E20626F64C0
:1014400079207B20666F6E742D66616D696C793AC8
:1014500020417269616C2C2073616E732D7365720B
:1014600069663B207D207461626C65207B20746519
:1014700078742D616C69676E3A206C6566743B20E8
:10148000626F726465722D636F6C6C617073653A24
:1014900020636F6C6C617073653B207D2074682CD9
:1014A000207464207B2070616464696E673A203226
:1014B0007078203870783B2077686974652D737078
:1014C0006163653A206E6F777261703B207665725A
:1014D000746963616C2D616C69676E3A20746F701A
:1014E0003B207D207468207B2070616464696E6796
:1014F0002D746F703A203870783B207D20627574AF
:10150000746F6E207B206D617267696E3A20307057
:1015100078203270783B20636F6C6F723A20776866
:101520006974653B206261636B67726F756E642DD1
:10153000636F6C6F723A20233636363B20706164DD
:1015400064696E673A2032707820313270783B20BF
:10155000626F726465722D7261646975733A2034CA
:1015600070783B20626F726465723A203170782027
:10157000736F6C696420233838383B20637572734D
:101580006F723A20706F696E7465723B207D2074B3
:1015900065787461726561207B2077696474683A4C
:1015A00020313030253B207D20696E707574207BA2
:1015B0002077696474683A20313030253B207D20E3
:1015C0006832207B20626F726465722D626F747462
:1015D0006F6D3A2032707820736F6C696420677287
:1015E00065793B207D3C2F7374796C653E3C2F6898
:1015F0006561643E3C626F64793E3C68313E45748F
:101600006865726E6574324750494220476174655F
:101610007761792076322E322028415234383820B2
:1016200076302E35332E3339290A3C2F68313E3C33
:10163000703E4E756D626572206F6620636C6965E1
:101640006E7420636F6E6E656374696F6E733A209B
:101650003C7370616E2069643D22636E78223E00A7
:10166000485454502F312E3120323030204F4B0A05
:10167000436F6E74656E742D547970653A2074658D
:1016800078742F68746D6C0A436F6E6E656374694D
:101690006F6E3A20636C6F73650A0A0048545450A9
:1016A0002F312E3120343034204E6F7420466F7528
:1016B0006E640A00485454502F312E31203230309D
:1016C000204F4B0A436F6E74656E742D54797065AC
:1016D0003A20746578742F706C61696E0A436F6E7E
:1016E0006E656374696F6E3A20636C6F73650A0A86
:1016F000003C2F6F7074696F6E3E00223E003C6F9D
:101700007074696F6E2076616C75653D2200496E5C
:1017100074657266616365206D697374616B6520C1
:1017200077697468206C696272617279205365729E
:1017300069616C53657269616C4D656E75436D646A
:10174000004E6F204D656E7520696E206D656D6F62
:101750007279003E0000103CF33B11241FBECFEF16
:10176000CDBFDFE3DEBF18E2A0E0B8E2E1E4FCEACF
:1017700002C005900D92AE31B107D9F726E3AEE174
:10178000B8E201C01D92A231B207E1F71BE0CCEA3A
:10179000DBE004C02197FE010E949F50CB3AD107A5
:1017A000C9F70E94E13D0C94F7540C940001FC0130
:1017B000BC01695A7F4F8FEF9FEF2191322F39275C
:1017C000232F22952F702327422F50E0382FCA0154
:1017D000982F88279295907F28273927CA01B5E04E
:1017E000880F991FBA95E1F7822793276E177F0715
:1017F00021F708958F929F92AF92BF92CF92DF927E
:10180000EF92FF920F93CF93DF938091AD328823B5
:1018100019F081FF0DC07894DF91CF910F91FF9067
:10182000EF90DF90CF90BF90AF909F908F900895F2
:1018300080FFF2CF8090AF329090B032A090B13262
:10184000B090B232C12CD12C7601E0E09401A50118
:10185000B601C701A0E00E94935091F1217030E0E1
:1018600040E050E060E070E080E090E00E94935043
:10187000D1F0B0E0A0E0E03370F4AE2FA695A695CD
:10188000A69580E2A89FD0011124A05FBB4F8E2FA8
:101890008770A80FB11DCE2FD0E0C955DD4C8889C7
:1018A0009C91892B8C939401A501B601C70101E09D
:1018B0000E94785049015A016B017C01EF5FC6CF4D
:1018C0008090B3329090B432A090B532B090B632DE
:1018D000C12CD12C7601E0E29401A501B601C7012B
:1018E000A0E00E94935009F497CF217030E040E0CF
:1018F00050E060E070E080E090E00E949350D1F012
:10190000B0E0A0E0E03370F4AE2FA695A695A695C2
:1019100080E2A89FD0011124A05FBB4F8E2F87705B
:10192000A80FB11DCE2FD0E0C955DD4C88899C9100
:10193000892B8C939401A501B601C70101E00E9497
:10194000785049015A016B017C01EF5FC5CF00005F
:101950008093C4088091C30887FFFCCF8091C4089E
:1019600008950F931F93CF93DF93EC018C01060F23
:10197000171FC017D10729F088810E94A70C8993EF
:10198000F8CFDF91CF911F910F9108958F929F9281
:10199000AF92BF92CF92DF92EF92FF920F931F937D
:1019A000CF93DF93182FF92F8091AD32882319F050
:1019B00081FF12C0F8941093C008F093C108DF9122
:1019C000CF911F910F91FF90EF90DF90CF90BF903C
:1019D000AF909F908F90089580FFEDCF8090AF32B1
:1019E0009090B032A090B132B090B232C12CD12CD4
:1019F0007601E0E09401A501B601C701A0E00E94D4
:101A00009350A9F1217030E040E050E060E070E0D8
:101A100080E090E00E949350E9F0D0E0C0E0E03335
:101A200070F4CE2FC695C695C69580E2C89FE0019A
:101A30001124C05FDB4F8E2F8770C80FD11D8E2FF2
:101A400090E0288189559D4CDC0150962C9388812B
:101A5000887F88839401A501B601C70101E00E9437
:101A6000785049015A016B017C01EF5FC3CF809030
:101A7000B3329090B432A090B532B090B632C12C4F
:101A8000D12C7601E0E29401A501B601C701A0E0E6
:101A90000E94935009F48FCF217030E040E050E075
:101AA00060E070E080E090E00E949350E9F0D0E0C8
:101AB000C0E0E03370F4CE2FC695C695C695B0E26F
:101AC000CB9FE0011124C05FDB4F8E2F8770C80FC2
:101AD000D11D8E2F90E0288189559D4CDC015096B8
:101AE0002C938881887F88839401A501B601C70162
:101AF00001E00E94785049015A016B017C01EF5FBF
:101B0000C2CF20E3FC0120833296862F82958F700E
:101B10006F706A3030F4605D6293682F8111F5CF89
:101B20000895695CF9CFFC01818D928D0895089527
:101B3000CF93DF9390E0FC01E556F54120812F3FE4
:101B400061F0FC01EE58F541E08130E2E39FF001E5
:101B50001124FC5F613021F42183DF91CF9108953E
:101B6000875B9541EC01A881AF3F69F0CF014096BA
:101B7000A80FB92FB11D9FB7F89422838C9188606C
:101B80008C939FBFEACFB0E0A0E0F5CF90E0FC01DE
:101B9000E05EF541E081EE2319F1E13021F000F142
:101BA000E630A8F00895875B9541FC012081233041
:101BB00008F02F5F3091010A81E090E001C0880FAA
:101BC0002A95EAF7809583238093010A089580E19E
:101BD000E89FF0011124E05AF54F81818F7E8183C7
:101BE00008950F931F93CF93DF93C82FD0E0FE018A
:101BF000E556F54100810F3FA1F0162F893210F410
:101C00000E94C60DFE01EE58F541E08180E2E89F9A
:101C1000F0011124FC5F8081802351F0111106C076
:101C20000683DF91CF911F910F9108950583F9CF1E
:101C3000C75BD5418881309771F08F3F61F0709616
:101C4000E80FF11D9FB7F8948081111107C0877FBD
:101C500080839FBFE6CFF0E0E0E0F4CF8860F8CF6C
:101C60000F931F93CF93082F10E0F801E556F5412D
:101C7000C081CF3F79F00E94C60DF801EE58F541C2
:101C8000E08180E2E89FF0011124FC5F8085C82399
:101C900081E009F480E0CF911F910F91089589327E
:101CA00010F40C94F10D0895EF92FF920F931F938F
:101CB000CF93DF93E82EF12CF701E75BF54100812C
:101CC0000F3FD9F1EB01182F61E00E94980D20978A
:101CD00051F460E0812FDF91CF911F910F91FF9020
:101CE000EF900C944F0ECF3FD10511F461E0F2CF8D
:101CF000F701E05EF541E081E13039F010F0E630C7
:101D000030F1C038D10594F7E4CFE02FF0E0EE0FCA
:101D1000FF1F0330C8F0ED5DF54F0F5F8FB7F894EC
:101D2000C0838FBF8091010A21E030E001C0220F03
:101D30000A95EAF7822B8093010ADF91CF911F91D8
:101D40000F91FF90EF900895E85DF54FE7CF80E1A8
:101D5000E89FF0011124E05AF54F8FB7F89494856D
:101D60009487C5878FBF818180618183E6CF000022
:101D70000000000000009C0127503109880F991FC6
:101D8000880F991F820F931F0197F1F708956FB77E
:101D9000F89420919631309197314091983150913B
:101DA00099318091AA0A9091AB0A7091A60A70FFAE
:101DB00008C02F5F3F4F4F4F5F4F8091AA0A90910D
:101DC000AB0A6FBFE92FFF27BC01A4E076956795AA
:101DD000AA95E1F7E60FF71FBC01B6E07695679587
:101DE000BA95E1F7E61BF70B892F9927869586951B
:101DF000E81BF90BA8EEB3E00E941C506E0F7F1F8A
:101E0000811D911D08958F929F92AF92BF92CF92A4
:101E1000DF92EF92FF924B015C010E94C70E6B01B3
:101E20007C01A8EEB3E0A50194010E941C50C60EEF
:101E3000D71EE81EF91EC616D706E806F90618F4DE
:101E40000E94C70EF8CF0E94C70E6C157D058E0547
:101E50009F05C8F3FF90EF90DF90CF90BF90AF90B9
:101E60009F908F9008952FB7F8946091963170915C
:101E7000973180919831909199312FBF089521E049
:101E8000FC018485883008F020E0822F089520E846
:101E90003BEEFC0120833183FB014089518962893B
:101EA0007389FC0142835383648375830895FC0125
:101EB0008489958908958091362890913728891BC7
:101EC000990B08954F925F926F927F92AF92BF925B
:101ED000CF92DF92EF92FF920F931F93CF93DF93F6
:101EE000EC016B017B01E40EF51E8B015801AC186F
:101EF000BD080E151F0511F10E94330F6887798701
:101F00008A879B87E881F9810284F385E02DCE01E1
:101F1000099597FF23C00E94330F488459846A842F
:101F20007B8464197509860997094C805D806E80F1
:101F30007F80641575058605970520F3C501DF913F
:101F4000CF911F910F91FF90EF90DF90CF90BF90B6
:101F5000AF907F906F905F904F900895F8018193BC
:101F60008F01C4CFDC01ED91FC910190F081E02D57
:101F70000994EF92FF920F931F93CF93DF938C01FD
:101F80007B01D0E0C0E0F701EC0FFD1F64916623F8
:101F900061F0D801ED91FC910190F081E02DC80134
:101FA0000995892B11F02196EECFCE01DF91CF91CB
:101FB0001F910F91FF90EF900895AF92BF92CF9233
:101FC000DF92EF92FF920F931F93CF93DF936C01F9
:101FD0007B018B01040F151FEB015E01AE18BF08DA
:101FE000C017D10759F06991D601ED91FC9101908C
:101FF000F081E02DC6010995892B79F7C501DF91A4
:10200000CF911F910F91FF90EF90DF90CF90BF90F5
:10201000AF900895FC01508D418D252F30E0842F25
:1020200090E0821B930B541710F0CF960895019700
:102030000895FC0196898789981761F0A789AE0FEA
:10204000BF2FB11D5D968C9197899F5F9F73978B72
:1020500090E008958FEF9FEF0895FC01968987899E
:10206000981731F08789E80FF11D858D90E008956C
:102070008FEF9FEF0895FC0196892789892F90E0C3
:10208000805C9F4F821B91098F73992708958EEE74
:1020900092E30E943B1021E0892B09F420E0822F7B
:1020A0000895CF93DF93EC01E881F9810680F781F1
:1020B000E02D0995EC85FD8586818F738683EC85FF
:1020C000FD8585818F7585838F898E8B1D8ADF9134
:1020D000CF910895AF92BF92CF92DF92EF92FF928D
:1020E0000F931F93CF93DF93EC016A017B01A22E24
:1020F0008D89882339F0E881F9810688F789E02DF8
:10210000CE0109950C8910E0BFB6F89460E078E63E
:1021100089E899E0A70196010E94DB4F69017A01E5
:102120008FEFC81AD80AE80AF80AF694E794D79409
:10213000C794EC85FD8586818D7F8683EC85FD8542
:10214000868186831D8AA09125110A2E000CBB0B67
:10215000A70196010E94275020E034E040E050E0C3
:102160000E94FD4FEC85FD85C20ED31EE41EF51EB8
:10217000C086D186EC85FD85A782EC85FD858681AC
:10218000806C8683EC85FD85858180688583909150
:10219000E2058B89809589237801EE0CFF1CF701FD
:1021A000E00FF11FEC0FFD1F9089892B8093E20552
:1021B0008685893218F462E00E94980D0E0D1F1D6D
:1021C000C00FD11F61E08F850E944F0E8F8589322D
:1021D00018F461E00E94980DBFBEDF91CF911F916E
:1021E0000F91FF90EF90DF90CF90BF90AF90089548
:1021F000FC01613019F4648B81E00895148A662330
:10220000D9F380E00895DC0154961C9254975496BB
:102210008C9154978230A0F4282F30E0F901EE0F12
:10222000FF1FE20FF31FEA0FFB1F9785961303C0F2
:102230009685941749F08F5F54968C935497E7CF07
:1022400054961C9280E0089581E00895CF93DF9327
:10225000FC01908D818DC485D585981306C08D8134
:102260008F7D8D83DF91CF910895A18DAE0FBF2F0C
:10227000B11DA35ABF4F2C91818D90E001968F73B1
:102280009927818F80E48C83A485B58512962C9341
:10229000908D818D9813E6CFA485B58515968C9188
:1022A00015978F7D15968C93838D8823D9F2848D15
:1022B00080931301138ED6CFDC011C96ED91FC9117
:1022C0000FB607FE03C0258125FD04C0248125FD2E
:1022D0000C9426110895EF92FF920F931F93CF93C2
:1022E000DF93EC0181E08D8B988D898D98131CC054
:1022F000AC85BD8514968C91149785FF15C01296F8
:102300006C93AC85BD8580E414968C93EC85FD853B
:1023100085818F7D858381E090E0DF91CF911F9152
:102320000F91FF90EF9008958091110180FF08C0F8
:10233000809113018C8F8A8D8093130181E08B8FA4
:10234000F62E088D10E00F5F1F4F0F731127E02E40
:10235000898D8E1104C0CE010E945C11F9CFE88DE9
:10236000EC0FFD2FF11DE35AFF4FF082088FEC8533
:10237000FD8585818062CECF682F8EEE92E30C942E
:102380006B11CF93DF93FC0125892223C9F0EC0167
:102390008091110180FF08C080911301848F828D8C
:1023A0008093130181E0838FEC85FD85858185FD18
:1023B00003C0848186FD04C0CE010E945C11F4CF6D
:1023C000DF91CF91089580E090E0892B29F00E9461
:1023D000471081110E94000080E090E0892B49F0B5
:1023E00080E090E0892B29F00E94000081110E947A
:1023F000000080E090E0892B49F080E090E0892B9C
:1024000029F00E94000081110E94000080E090E00D
:10241000892B49F080E090E0892B29F00E94000090
:1024200081110C940000089581E008950F9391E0CC
:10243000909378281092312860932F287093302839
:1024400040932E2820932D28109232281092332862
:1024500000932C28880F80932B2893E024E0809110
:102460002E28882331F09093792880912B288E7F15
:1024700009C080912D28882341F0209379288091EC
:102480002B2881608093A70808C080912E28811195
:1024900004C080912D28882331F38091312888232E
:1024A000E1F3809131288330D1F280912D28882367
:1024B00021F0809133280F9108959091312881E087
:1024C0009130C9F780E0F7CFE0EAF8E091859066B7
:1024D000918792E090937928809325281092242860
:1024E000089581E0809324281092252893E090930A
:1024F000AA089091AB0891FF0BC010922928F0E038
:10250000E0E009958093282885E080937928089554
:1025100010922A288093272886E0F7CFE091372869
:1025200080913628E81730F4F0E0E85CF74D8081C0
:1025300090E008958FEF9FEF089590913728809154
:1025400036282FEF3FEF981748F4E92FF0E0E85CCA
:10255000F74D208130E09F5F90933728C90108959F
:10256000CF92DF92EF92FF920F931F93CF93DF935F
:102570007C018A01EB016B01C40ED51ECC15DD0573
:1025800051F06991D701ED91FC910190F081E02D1E
:10259000C7010995F3CFC801DF91CF911F910F912A
:1025A000FF90EF90DF90CF9008952091BA282034CB
:1025B00040F021E030E0FC012283338390E080E0B2
:1025C00008958091BB28E82FF0E0E658F74D60832E
:1025D0008F5F8093BB288093BA2881E090E00895B4
:1025E000CF93DF93EC018C819D81DC01ED91FC9117
:1025F0000480F581E02D09952A853B85009739F403
:1026000088859985821B930BDF91CF910895821B5A
:10261000930B97FFF9CF90E080E0F6CFCF93DF9355
:10262000DC011A964D915C914115510599F1EC012F
:102630008C819D816E817F81DC01ED91FC91028016
:10264000F381E02D09952A853B85281B390B2A87C4
:102650003B87232BA9F0009799F030E020E04A85D2
:102660005B852417350760F4EE81FF81E20FF31FCD
:10267000DF01A80FB91F4C9140832F5F3F4FEFCF71
:10268000EC81FD8182819381892B21F081E090E0B2
:102690008A839B83DF91CF910895AF92BF92CF92AF
:1026A000DF92EF92FF920F931F93CF93DF938C01F2
:1026B0006B015A017B01D0E0C0E0CA15DB05B9F11E
:1026C000D8011A968D919C911B97892B09F5A5012C
:1026D0004C1B5D0B18968D919C91199748175907C3
:1026E000B8F014968D919C91B6016C0F7D1FDC01A2
:1026F000ED91FC910280F381E02DDF91CF911F914C
:102700000F91FF90EF90DF90CF90BF90AF90099422
:10271000F70161917F01D801ED91FC910190F08169
:10272000E02DC8010995892B11F02196C6CFCE0165
:10273000DF91CF911F910F91FF90EF90DF90CF909D
:10274000BF90AF900895FC01A681B78182859385E3
:102750009C012F5F3F4F22873387A80FB91F6C93CF
:1027600022853385808591852817390741F4CF016B
:102770000190F081E02D0680F781E02D099581E040
:1027800090E00895E0912028F09121288081909197
:102790001F28892B80830895E0912028F09121281B
:1027A000908180911F288095892380830895AF921E
:1027B000BF92CF92DF92EF92FF920F931F93CF932E
:1027C000DF93CDB7DEB72897CDBFDEBF8C017B018D
:1027D0006A018091E2318333E1F45801A40EB51E01
:1027E000A016B10609F46FC00E94CC1380EF0E94BE
:1027F000A70C812F0E94A70C802F0E94A70C0F5FAF
:102800001F4FF70181917F010E94A70C0E94C21304
:10281000E7CF5B01A40EB51E8433C1F40E94CC1334
:1028200019830A838D2D80688B83CC8264E070E0ED
:10283000CE0101960E94B10CAE14BF0409F441C050
:10284000F70181917F010E94A70CF6CF0E94CC1363
:102850000F3F110509F028F419820A8384E08B8365
:102860000CC017FD17C019820A8333E0169507952F
:102870003A95E1F7007E0C600B8386E0C816D10420
:1028800088F5F701DE011496EA15FB0599F08191B0
:102890008D93FACFC80126E0969587952A95E1F7A2
:1028A000807E19830A830115104C10F48461D7CF00
:1028B0008C61D5CFB6016D5F7F4FCE0101960E942E
:1028C000B10C0E94C213C6012896CDBFDEBFDF91B6
:1028D000CF911F910F91FF90EF90DF90CF90BF901D
:1028E000AF90089563E070E0CE0101960E94B10CB4
:1028F000F70181917F010E94A70CAE14BF04C1F7BC
:10290000E0CFCF93DF931F92CDB7DEB7898341E04D
:1029100050E0BE016F5F7F4F90E080E00E94D713D0
:102920000F90DF91CF91089590E02091E231233311
:1029300039F40C96982F990F990F990F80E008950C
:102940004896F8CFDA01E0912228F0E0FE2FEE273A
:10295000E60FF71F90E0982F8827A901BD018E0F81
:102960009F1F0C94D713CF93DF9300D0CDB7DEB762
:1029700079836A8322E030E0AE014F5F5F4F60E110
:1029800070E00E94A2140F900F90DF91CF910895F4
:10299000CF93DF9300D0CDB7DEB779836A8322E08F
:1029A00030E0AE014F5F5F4F64E070E00E94A21420
:1029B0000F900F90DF91CF910895CF93DF931F92E7
:1029C000CDB7DEB72091222830E0322F2227260F04
:1029D000371F90E0982F8827498341E050E0BE01DF
:1029E0006F5F7F4F820F931F0E94D7130F90DF916D
:1029F000CF910895CF93DF931F92CDB7DEB7698350
:102A0000DC01ED91FC910280F381E02D41E050E08A
:102A1000BE016F5F7F4F09950F90DF91CF910895B1
:102A2000CF93DF931F92CDB7DEB76983DC01ED91C1
:102A3000FC910280F381E02D41E050E0BE016F5F28
:102A40007F4F09950F90DF91CF910895FC019485F8
:102A5000FB018485981303C081E0983008F080E082
:102A60000895CF93DF931F92CDB7DEB76983DC0162
:102A7000ED91FC910280F381E02D41E050E0BE0138
:102A80006F5F7F4F09950F90DF91CF91089544E0DC
:102A900050E0BC018FE090E00C94D71344E050E08C
:102AA000BC0185E090E00C94D71344E050E0BC01F9
:102AB00081E090E00C94D7130F931F93CF93DF9393
:102AC000EC0122968C0106581F4FE881F981008C99
:102AD000F18DE02DCE010995882351F02F96C01776
:102AE000D10799F780E0DF91CF911F910F91089561
:102AF00081E0F9CFFC01108A118A089590E080E00E
:102B0000089560E08DE00E94F10D61E087E20E948F
:102B1000F10D61E086E20C94F10DFC0182818111DE
:102B20000CC08381811109C08481811106C081E0BC
:102B30009581911103C080E0089581E00895FC0122
:102B400060817181828193810E946F500895FC01A0
:102B5000CB01BA010E946F5060837183828393839B
:102B60000895CF92DF92EF92FF920F931F93CF932E
:102B7000DF9300D000D0CDB7DEB797E6E92E92E321
:102B8000F92E07E012E3811106C08BE2E82E82E302
:102B9000F82E07EE11E3C7010C960E949F15603ACC
:102BA00076488140910541F5C70144960E949F15E2
:102BB000633071058105910509F04DC0E090D33473
:102BC000F090D434C7010E945C15882309F44BC0EF
:102BD000F701E857FF4FC080D180E280F38040E0EA
:102BE00050E0BA01C114D104E104F10461F444E0FD
:102BF00050E060E070E007C0C12CD12C760141E0CC
:102C000050E060E070E0CE0101960E94A715898136
:102C10009A81AB81BC81F801848B958BA68BB78B95
:102C2000B701A601CE0101960E94A71589819A815C
:102C3000AB81BC81F801808F918FA28FB38F2496D6
:102C4000CDBFDEBFDF91CF911F910F91FF90EF902D
:102C5000DF90CF900895C12CD12C760143E050E055
:102C600060E070E0D0CFC12CD12C7601C0CF0F93A3
:102C70001F93CF93DF9300D000D0CDB7DEB78C0188
:102C8000CE0101960E94A71589819A81AB81BC81F2
:102C9000F80180839183A283B38380E090E0A0E079
:102CA000B1E084839583A683B7831086118612864C
:102CB00013861486158616861786108A118A128A3C
:102CC000138A2496CDBFDEBFDF91CF911F910F9164
:102CD0000895AF92BF92CF92DF92EF92FF920F933F
:102CE0001F93CF93DF9300D000D0CDB7DEB78C0118
:102CF0006A017B0183E59DE20E949F15AB01BC0147
:102D000087E299E20E943716560184E0A80EB11CB2
:102D1000D701C60183709927AA27BB27892B8A2B45
:102D20008B2B51F0AFEFCA1ADA0AEA0AFA0AF60157
:102D3000ED5DF64D1382E8CFB701A6017068CE01B4
:102D400001960E94A71589819A81AB81BC818093ED
:102D5000232990932429A0932529B0932629D801CB
:102D6000ED91FC910480F581E02DC8010995892B36
:102D7000B1F3D801ED91FC910280F381E02DA50122
:102D800063E279E2C8010995D801ED91FC910680D2
:102D9000F781E02DC80109952496CDBFDEBFDF91F4
:102DA000CF911F910F91FF90EF90DF90CF90BF9048
:102DB000AF90089508950895CF92DF92EF92FF9219
:102DC0000F931F93CF93DF937C016A018B01D0E0B7
:102DD000C0E0CC15DD0579F0D8016D918D01D701EA
:102DE000ED91FC910190F081E02DC70109950197CB
:102DF00011F42196EECFCE01DF91CF911F910F916B
:102E0000FF90EF90DF90CF900895FC0120893189E9
:102E1000868597852817390770F484859585A901DB
:102E20004F5F5F4F408B518BFC01E20FF31F6083BC
:102E300081E090E0089581E0828B90E080E0089549
:102E4000FC01848595850895DC01ED91FC91028C4F
:102E5000F38DE02D0994FC01DB0112968D919C917C
:102E600013978283938314964D915D916D917C911C
:102E70001797448355836683778318964D915D91A8
:102E80006D917C911B9740875187628773871C9651
:102E90008C911C9784871D968D919C918587968730
:102EA000CF010895FC01658776870895DC01ED91D7
:102EB000FC9102A0F3A1E02D099591E089270895E6
:102EC000862F089581E0862708950895282F2F7171
:102ED000229530E0A901559547955595479543733F
:102EE000220F331F220F331F422B50E0282F30E0D8
:102EF000B90175956795CA01959587958575440FB4
:102F0000551F4A7A482B842F869586958695220FE1
:102F1000331F220F331F2078962F9072292B607455
:102F2000262B822B0895CF93DF93D62F0E9466170E
:102F3000C82F8D2F0E946617E0E4F4E02481982FBB
:102F4000909592238C23892B8483DF91CF910895D0
:102F5000FC014089862F90E09C0153E0220F331F33
:102F60005A95E1F72870242B208B41899C01220F70
:102F7000331F220F331F2870242B218B42899C0181
:102F8000220F331F2870242B228B23896870622B19
:102F9000638B44899C01359527952870242B248BBD
:102FA00045899C0135952795359527952870242BC3
:102FB000258B46899C0163E0359527956A95E1F755
:102FC0002870242B268B278974E0959587957A9510
:102FD000E1F78870822B878B0895CF93DF93D62FEC
:102FE0000E946617C82F8D2F0E946617E0E4F4E058
:102FF0009081A82FA0959A232C2F2823922B908381
:1030000090893189428953892489D589B689E7898C
:1030100093FB992790F9632F70E0759567957595E7
:10302000679562707727692B5870652B50E055952E
:10303000479544705527642B30E0220F331F2071D1
:103040003327622B94E0D99F9001112420723327FB
:10305000622B98E0B99F9001112420743327622BD2
:1030600090E1E99FF0011124E078FF276E2B6A239D
:10307000C0958C23682B80E494E0DF91CF910C9471
:10308000A817FC0180819181FC01FF2790FD06C0FB
:1030900080E094E1E82BF92B8081089580E093E1B2
:1030A000F9CF0F931F93CF93DF9300D0CDB7DEB747
:1030B0008C0119821A82CE0101960E944118F801F2
:1030C000808381E090E089839A83CE0101960E94FB
:1030D0004118F8018183C8010F900F90DF91CF91C3
:1030E0001F910F910895FC01FF2790FD12C080E011
:1030F00094E1E82BF92B60838FB7F8949DE923E0E6
:1031000094BF209300108FBF8091021081FDFCCFEF
:10311000089580E093E1EDCFBF92CF92DF92EF92DE
:10312000FF920F931F93CF93DF9300D0CDB7DEB7FD
:103130006C017C0102E010E0F701B1907F0109838E
:103140001A83CE0101960E944118B81621F06B2D0A
:10315000C8010E9473180F5F1F4F0935110561F7F1
:10316000C6010E94D70B8C0119821A82CE010196EA
:103170000E944118081729F0602F90E080E00E941B
:10318000731881E090E089839A83CE0101960E94B2
:103190004118181781F0612F81E090E00F900F9097
:1031A000DF91CF911F910F91FF90EF90DF90CF9023
:1031B000BF900C9473180F900F90DF91CF911F91D7
:1031C0000F91FF90EF90DF90CF90BF900895DC01BA
:1031D000ED91FC910488F589E02D23E030E009941D
:1031E0000C947E4B0C947E4BE0E6F4E080811082E0
:1031F0006FEF80E694E00E94A8176EE186E00E94DF
:10320000ED1766E089EF0C9493178F929F92AF921F
:10321000BF92CF92DF92EF92FF920F931F93CF93C3
:10322000DF93D82F162F0E94330F4B015C016F5F85
:103230007F4F8F4F9F4FC090B133D090B233F12C5E
:10324000E12CC0E00FEFD095681979098A099B0934
:103250006C157D058E059F0508F061C08091AA332D
:10326000813029F582E10E94300E811114C00E9444
:10327000F41888E08093FF33C2E08C2FDF91CF9168
:103280001F910F91FF90EF90DF90CF90BF90AF9084
:103290009F908F90089584E10E94300E811107C0A5
:1032A0000E94F41888E08093FF33C3E0E6CFC11199
:1032B00017C081E10E94300E81112CC080E10E9474
:1032C000300EC7E0813031F58091600400936004D6
:1032D000D09364048091A93381110BC068E00CC0C5
:1032E000C73061F3C83081F3C93049F0CA3061F0AA
:1032F00011C068E1112391F380E00E94931780E1EF
:103300000E94300E811109C081E10E94300E81308F
:1033100049F0CAE00E94330F97CFC9E0FBCFC1301C
:1033200009F0ABCF8091A933811103C068E088E038
:1033300004C068E188E11123C9F30E9493178091CA
:1033400060048FEF8093600480936404C1E095CFA4
:10335000E0E6F4E0808180838FEF84836EE188E192
:103360000E94ED1768E188E10C9493171092FF33E7
:103370006FEF80E00E94ED17E0E6F4E080811082BC
:103380006FEF80E694E00C94A817CF93C82F80913C
:10339000FF33833049F00E94A81960E880E00E9462
:1033A000931783E08093FF3360E08C2F0E94051910
:1033B00091E0813009F490E0892FCF9108958EE15A
:1033C00090E00E94B70E8FE50E94C519882311F086
:1033D00081E008958FE30E94C5198111F9CF109201
:1033E00001340895CF93DF938F3120F081E0DF9196
:1033F000CF910895D62FC82F8FE30E94C519811150
:10340000F5CF8FE50E94C5198111F0CFD23049F474
:1034100080E48C0F0E94C5198111E8CFD09301344C
:10342000E6CF80E28C0F0E94C5198111DFCF91E0B9
:1034300090930134DCCFAF92BF92CF92DF92EF92A4
:10344000FF920F931F93CF93DF938C01E62ED42F1F
:103450008091AE33813030F0C1E0833020F0C0E0A5
:10346000833009F0C2E08091AA338230F9F40E94DF
:10347000A81960E880E80E94931784E08093FF33E6
:10348000680110E000E0F12C570181E0A81AB108B2
:103490000E151F0544F5F60181916F019091A93336
:1034A000992311F0CC2331F060E008C00E94A819E4
:1034B00089E0E4CF61E0A016B106B1F70E940519DA
:1034C000813001F50F5F1F4FE3CF60E08DE00E9478
:1034D00005196091A9338AE013C00E94ED1787E0B7
:1034E0008093FF331FC0CC2369F08091AE338230CC
:1034F00081F3833039F0813041F76091A9338DE059
:103500000E940519DD2371F0C091AA336EE180E0BD
:10351000C23019F70E94ED1760E880E80E94931707
:10352000C093FF33DF91CF911F910F91FF90EF90E8
:10353000DF90CF90BF90AF900895EF92FF920F93DE
:103540001F93CF93DF937A01122F6115710531F428
:103550006091AB3370E06115710581F18091AC33FE
:103560008617170689F0862F6093AC339FEF9093F0
:10357000AD3390910134992321F09091FF3398302D
:1035800019F061E00E94F219D091A933C091AE33D5
:10359000011105C01092A93383E08093AE33402F10
:1035A000612FC7010E941B1A01110FC0D093A933CC
:1035B00081E0C11101C080E08093AE33DF91CF91F3
:1035C0001F910F91FF90EF9008950E94DF198FEFE8
:1035D0008093AC33F3CF3F924F925F926F927F9282
:1035E0008F929F92AF92BF92CF92DF92EF92FF9213
:1035F0000F931F93CF93DF937C018B018091A833AE
:10360000D0E0C0E0882339F091E080E0672B09F436
:1036100090E0C92FD82F109200348091AA338230C5
:1036200059F50E94F41860E880E80E94931785E03D
:103630008093FF3384E10E94300E811121C00E94EB
:10364000330F2091B1333091B2334B015C01820EC4
:10365000931EA11CB11C84E10E94300E811110C088
:103660000E94330F86169706A806B90648F084E133
:1036700090E00E94B70EEFCF0E94F41888E0D8CFF8
:10368000312CC0900034C110B6C084E10E94300ECD
:10369000882309F4B2C00E94330F4B015C016F5FB5
:1036A0007F4F8F4F9F4F4090B1335090B233712C6A
:1036B000612CD12C681979098A099B096415750553
:1036C0008605970508F068C08091AA33813069F4B7
:1036D00082E10E94300E882309F462C084E10E94D6
:1036E000300E811102C0C2E05CC0D11048C064E05D
:1036F00084E00E9493178FE00E94300E94E0D92E50
:10370000811144C064E00E9493178EE00E94300E45
:10371000811102C0CC24C39430906804309462E0DC
:1037200082E00E9493178FE00E94300E813089F56D
:1037300062E080E00E949317632DC7010E94B20FE0
:103740002196CC2089F1C4E08091A833882329F008
:103750006091B333C7010E94B20FC73069F1D091B5
:10376000AA336EE180E0D23009F03FC00E94ED172D
:1037700060E880E80E949317D093FF331EC084E076
:10378000D81609F4B8CF86E0D81669F20E94330F34
:1037900091CF86E0D82EFACF82E0C8E0D81201C0DF
:1037A000C3E0C110D1CFDBCF0115110509F469CFFA
:1037B000C017D10708F465CFC7E0809100348111AC
:1037C000109200348C2FDF91CF911F910F91FF90B9
:1037D000EF90DF90CF90BF90AF909F908F907F90B1
:1037E0006F905F904F903F9008950E94ED1787E093
:1037F0008093FF33E2CFC1E0B2CFC2E0B0CFEF920F
:10380000FF920F931F93CF93DF93CDB7DEB7AD97A2
:10381000CDBFDEBF8A0179016115710541F5609167
:10382000AB3370E06115710511F58DE2E4E9FBEE53
:10383000DE01119601900D928A95E1F7DA01ED9182
:10384000FC910280F381E02D4CE250E0BE016F5FFD
:103850007F4FC801099582E090E0AD96CDBFDEBFF5
:10386000DF91CF911F910F91FF90EF90089580917C
:10387000AC338617170689F0862F6093AC339FEF21
:103880009093AD3390910134992321F09091FF33BF
:10389000993019F062E00E94F219B701C8010E9444
:1038A000EB1A182F81E090E01730B9F20E94DF196F
:1038B0008FEF8093AC33143071F2155085E090E0B7
:1038C000123058F683E090E0C8CF24E0FC01218359
:1038D00021E320830895DF92EF92FF920F931F93CD
:1038E000CF93DF9300D0CDB7DEB7FB01DC01569656
:1038F0001D921C9257972281211109C02381211109
:1039000006C02481211103C02581222359F14115CC
:10391000510541F17A018F01FC01D08CCE01019655
:103920000E94651C89819A810E94C60CA8014E5F85
:103930005F4F24E030E06CE070E08D2D0E94A21417
:10394000B7018D2D0E94B3140E94FA0B81E090E024
:103950000F900F90DF91CF911F910F91FF90EF90FB
:10396000DF90089580E0F3CFFB0101900020E9F79C
:103970003197AF01461B570BDC01ED91FC910280A2
:10398000F381E02D09948F929F92AF92BF92EF92B4
:10399000FF920F931F93CF93DF93CDB7DEB7A1971D
:1039A000CDBFDEBF7C01FA01CB0119A2223008F4A1
:1039B0002AE08E010F5D1F4F822E912CB12CA12C7D
:1039C000BF01A50194010E94DB4FF901CA016A30D1
:1039D000F4F4605DD8016E938D01232B242B252BED
:1039E00079F790E080E0109721F0BD01C7010E94B7
:1039F000B41CA196CDBFDEBFDF91CF911F910F9177
:103A0000FF90EF90BF90AF909F908F900895695C6A
:103A1000E1CFCF92DF92EF92FF920F931F93CF935C
:103A2000DF936B01770FEE08FF08F7FE1BC0EC0178
:103A30006DE20E94B20F8C0144275527BA014C1940
:103A40005D096E097F092AE0CE010E94C31C800F28
:103A5000911FDF91CF911F910F91FF90EF90DF9019
:103A6000CF9008952AE0B701A601DF91CF911F9171
:103A70000F91FF90EF90DF90CF900C94C31CCF93E9
:103A8000DF9300D0CDB7DEB763EB74E08EEE92E348
:103A90000E94B90F80910E3690910F36009711F465
:103AA00082E196E3BE016F5F7F4F681B790B8EEE5C
:103AB00092E30E94091D0F900F90DF91CF9108951E
:103AC0008F929F92AF92BF92CF92DF92EF92FF922E
:103AD0000F931F93CF93DF937C018B016C0182E0E6
:103AE000C80ED11C4701E5E08E0E911CD0E0C0E06D
:103AF000F60141916F0150E070E060E02AE0C801FA
:103B00000E94C31C5C016EE2C8010E94B20F8A0DC4
:103B10009B1DC80FD91FC814D90451F7F70145815F
:103B200050E070E060E02AE0C8010E94C31C8C0FE6
:103B30009D1FDF91CF911F910F91FF90EF90DF902C
:103B4000CF90BF90AF909F908F9008959C01CB0134
:103B5000B9010C94601D0F931F93CF93DF93EC0179
:103B60008B016EEF76E10E94B90FB801CE010E9481
:103B7000B41C6BEF76E1CE010E94B90FB801CE0103
:103B80000E94B41C61EF76E1CE01DF91CF911F91CD
:103B90000F910C94B90F61EC7BEE0C94B41C0F9355
:103BA0001F93CF93DF93EC010E94A61D8C01CE01E1
:103BB0000E94CB1D800F911FDF91CF911F910F911C
:103BC00008950F931F93CF93DF93EC010E94B41CD1
:103BD0008C01CE010E94CB1D800F911FDF91CF91F0
:103BE0001F910F9108950F931F93CF93DF93EC01D3
:103BF000FB014481558160817181E881F9810280F6
:103C0000F381E02D09958C01CE010E94CB1D800F20
:103C1000911FDF91CF911F910F9108950F931F93E3
:103C2000CF93DF93EC010E94B90F8C01CE010E946B
:103C3000CB1D800F911FDF91CF911F910F910895A0
:103C4000CF93DF93CDB7DEB7C054D109CDBFDEBF70
:103C500065E577E18EEE92E30E940E1E6091A63339
:103C60007091A73340E450E0CE0101960E94F94CD8
:103C7000BE016F5F7F4F8EEE92E30E94B41C63E53E
:103C800077E18EEE92E30E94B90FC05CDF4FCDBFAB
:103C9000DEBFDF91CF9108950F931F93CF93DF93F2
:103CA000CDB7DEB7C054D109CDBFDEBF63EC7BEE2C
:103CB0008EEE92E30E94E11D63EC7BEE8EEE92E3CA
:103CC0000E94E11D8091A53310E005E0811115C02F
:103CD00061E477E18EEE92E30E940E1E6EE077E1E2
:103CE0008EEE92E30E940E1EC05CDF4FCDBFDEBFA2
:103CF000DF91CF911F910F9108958091A5331817EF
:103D000098F7E091A333F091A433109FE00DF11DDB
:103D100011246081718140E450E0CE0101960E943F
:103D2000F94CBE016F5F7F4F8EEE92E30E94E11D62
:103D30001F5FE3CF0E944C1E0C94201EAF92BF92D7
:103D4000CF92DF92EF92FF920F931F93CF93DF9367
:103D500000D000D0CDB7DEB78C016B017A01809125
:103D6000E2318333E9F45B016801C40ED51EC0164D
:103D7000D10691F10E94CC138FE00E94A70C812FF5
:103D80000E94A70C802F0E94A70C0F5F1F4F80E09E
:103D90000E94A70CF50181935F010E94C213E7CF37
:103DA000843349F50E94CC1319830A838F2D8F77B2
:103DB0008B83EC8264E070E0CE0101960E94B10C2E
:103DC000A70170E060E0C6010E948951B701C601F9
:103DD0000E94B10C0E94C213C7012496CDBFDEBF62
:103DE000DF91CF911F910F91FF90EF90DF90CF90D7
:103DF000BF90AF9008950E94CC130F3F110509F0BA
:103E000030F419820A831B8263E070E0D5CF17FD7E
:103E10000BC019820A8333E0169507953A95E1F7AE
:103E2000007E08600B83F0CFC80126E09695879549
:103E30002A95E1F7807E19830A830115104C18F446
:103E400080618B83E1CF8861FCCF1F93CF93DF9399
:103E500000D0CDB7DEB7182FCE0101960E94651CA9
:103E600089819A810E94C60C812F0E94941427E0B8
:103E7000129FF0011124E656FE4C228133813770E7
:103E800041E050E0BE016F5F7F4F820F931F0E94A1
:103E90009E1E0E94FA0B89810F900F90DF91CF91A7
:103EA0001F910895FC01808D883040F4218D328D62
:103EB000232B21F00E94251F90E008958FEF9FEFA4
:103EC0000895CF93DF93FC012485283028F08FEFED
:103ED0009FEFDF91CF910895EC010190F081E02DEB
:103EE0000084F185E02D0995892B89F38C850E944A
:103EF000251F90E0EECFCF93DF931F92CDB7DEB7B3
:103F000041E050E0BE016F5F7F4F0E949E1E89819D
:103F10000F90DF91CF91089590E080E00C947B1F8B
:103F2000CF93DF93C4E1D0E00E948C1F882361F01F
:103F300061E070E080E090E00E94030F2197A1F71C
:103F400080E0DF91CF91089581E0FBCF1F93CF9365
:103F5000DF9300D01F92CDB7DEB780912328811167
:103F600039C160E372E080E090E00E94030F80912D
:103F7000AC32811117C01092AD321092AE32109255
:103F8000AF321092B0321092B1321092B23210921F
:103F9000B3321092B4321092B5321092B63281E040
:103FA0008093AC328091E3058C7F9091AB32892B6A
:103FB0008093E30591118BC061E084E00E94980D2D
:103FC00061E086E00E94980D8091C1088460809332
:103FD000C1088091C00881628093C0089091E63248
:103FE0008091E7329093C0088093C10880910028A7
:103FF000893208F07FC0E82FF0E0EE58F5412081CB
:10400000263008F077C090E2299F900111243C5F90
:104010002C5F3F4F20932028309321289FEF893237
:1040200028F4E82FF0E0E556F541908190931F28A1
:10403000893218F461E00E94980D0E94C213CE01EB
:1040400001960E94651C89819A810E94C60C84E3B6
:104050008093E23180E80E9481140E94901F88239F
:1040600009F44BC088E00E9481140E948C1F8830A4
:1040700009F043C080E10E9481140E948C1F8031AE
:10408000E1F580E00E9481140E948C1F182F81119D
:1040900034C08FE190E00E947B1F833071F580E493
:1040A0008093222842E06EE170E0812F0E94DD14AF
:1040B00042E06FE170E0812F0E94DD141F5F183035
:1040C00089F70E94FA0B81E0809323287CC091300D
:1040D00039F461E08EE00E94980D61E080E172CFDA
:1040E000923009F071CF61E08EE10E94980D61E09D
:1040F00080E268CF30E020E08BCF87E38093E2312D
:1041000080E80E9481140E94901F8823F9F088E0C3
:104110000E9481140E948C1F8830C1F480E10E94AB
:1041200081140E948C1F182F803181F480E00E943E
:1041300081140E948C1F811109C089E390E00E94C4
:104140007B1F843019F410932228BBCF83E3809324
:10415000E23180E80E9481140E94901F882371F14F
:1041600080E10E9481140E948C1F803139F582E128
:104170000E9481140E948C1F823101F580E00E9410
:1041800081140E948C1F811119C084E08093222821
:1041900015E51B8341E050E0BE016D5F7F4F8BE171
:1041A00090E00E94D713198341E050E0BE016F5F99
:1041B0007F4F8AE190E00E94D71383CF1092E231C3
:1041C0000E94FA0B80E02396CDBFDEBFDF91CF9136
:1041D0001F91089581E0F7CFEF92FF921F93CF9345
:1041E000DF93CDB7DEB7C454D109CDBFDEBF7C01AC
:1041F000FB0182819381A481B58123968CAF9DAF11
:10420000AEAFBFAF239711E023961FAF239723963E
:104210004CAD5DAD6EAD7FAD239749AF5AAF6BAF7F
:104220007CAF8DA79EA7AFA7B8AB18AB4DA55EA579
:104230006FA578A94B8F5C8F6D8F7E8F1CAF49ADBA
:104240005AAD6BAD7CAD49A35AA36BA37CA320E808
:104250003BEE29833A834FEF4B834C834D831E8281
:104260002F8338871E8F4B8D5C8D6D8D7E8D49879A
:104270005A876B877C871CA349A15AA16BA17CA19B
:104280004F87588B698B7A8B2B8B3C8B8D8B9E8BBE
:10429000AF8BB88F0E94A61F882369F1CE018D5B7A
:1042A0009F4F0E94651C25968EAD9FAD25970E945D
:1042B000C60C46E050E0B70189E090E00E94D713B9
:1042C000CE0145960E944715CE0109960E945515CC
:1042D000CE0103960E944E150E94FA0B1A8B8F8511
:1042E0009889A989BA898093993390939A33A09336
:1042F0009B33B0939C33CC5BDF4FCDBFDEBFDF91F0
:10430000CF911F91FF90EF9008952091222830E0E7
:10431000322F2227620F731F90E0982F8827860F75
:10432000971F0C947B1FCF93C82F462F61E070E03E
:104330000E94DD1461E070E08C2F0E9485218111C4
:10434000F9CFCF9108951F93CF93DF9300D0CDB7CE
:10435000DEB7182FCE0101960E94651C89819A81D3
:104360000E94C60C68E070E0812F0E9493210E9499
:10437000FA0B0F900F90DF91CF911F9108951F932B
:10438000CF93DF9300D0CDB7DEB7182FCE010196C3
:104390000E94651C89819A810E94C60C60E170E0D0
:1043A000812F0E9493210E94FA0B0F900F90DF91B2
:1043B000CF911F910895CF93DF93EC01888D8830C2
:1043C00020F40E94BF2188E0888FDF91CF9108956B
:1043D00063E070E00C9485211F93CF93DF9300D0AE
:1043E000CDB7DEB7182FCE0101960E94651C8981DA
:1043F0009A810E94C60C812F0E94E821182F0E94EA
:10440000FA0B812F0F900F90DF91CF911F9108959C
:10441000EF92FF920F931F93CF93DF937C018091D4
:10442000E231D4E0833309F0D8E002ED11E3C0E0DB
:10443000F801219131918F01F7018481958128172D
:10444000390729F0CF5FDC13F3CF80E006C08C2F53
:104450000E94EC218431B1F781E0DF91CF911F916F
:104460000F91FF90EF900895AF92BF92CF92DF929D
:10447000EF92FF920F931F93CF93DF93EC016B01A9
:104480008091E231811120C01A821B8288EE93E074
:10449000A0E0B0E08C839D83AE83BF838EE49BEE6F
:1044A0008883998388E08C8788EE93E08D879E8748
:1044B000CE01DF91CF911F910F91FF90EF90DF9090
:1044C000CF90BF90AF90089524E0A22E833311F0D7
:1044D00098E0A92E82EDE82E81E3F82E10E008E0A6
:1044E000B12CD7012D913D917D01F60184819581FB
:1044F0002817390771F4812F0E94EC21083031F51B
:10450000873111F08C3111F5F70132971082118249
:10451000012F1F5FA112E5CFB11008C0D601ED91A8
:10452000FC910084F185E02DC60109951A821B8259
:1045300088EE93E0A0E0B0E08C839D83AE83BF83E0
:104540008EE49BEE888399830C87AECF843139F05B
:104550008111DFCFF701329710821182DACFBB24AD
:10456000B394D7CFCF93DF93EC018C858830D0F410
:104570000E94EC21843189F0882379F0883169F038
:1045800021E08C3159F4E881F9810084F185E02D36
:10459000CE01099521E0892B09F420E0822FDF91DB
:1045A000CF91089580E0FBCFCF92DF92EF92FF9200
:1045B000CF93DF93EC018C85883068F40E94A321AF
:1045C0000E94330F6B017C018C850E94EC218111CC
:1045D00009C088E08C87DF91CF91FF90EF90DF904A
:1045E000CF90089561E070E080E090E00E94030FBA
:1045F0000E94330FAB01BC014C195D096E097F09A4
:104600008D859E85B0E0A0E0481759076A077B07B3
:10461000D8F28C850E94BF21DCCF1F93CF93DF930C
:1046200000D0CDB7DEB7FC01108DCE0101960E94FF
:10463000651C89819A810E94C60C60E270E0812F1E
:104640000E94932162E070E0812F0E94852184FD09
:1046500022C062E070E0812F0E94852183FF10C09C
:1046600048E162E070E0812F0E94DD140E94FA0BA5
:1046700080E090E00F900F90DF91CF911F9108950F
:104680000E94FA0BCE0101960E94651C89819A81D5
:104690000E94C60CD7CF40E162E070E0812F0E94FB
:1046A000DD140E94FA0B81E0E4CFDA01E0912228C8
:1046B000F0E0FE2FEE27E60FF71F90E0982F8827F7
:1046C000A901BD018E0F9F1F0C949E1E8F929F9279
:1046D000AF92BF92CF92DF92EF92FF920F931F9310
:1046E000CF93DF93CDB7DEB76097CDBFDEBF7C0140
:1046F0009091E231992371F108E0933309F404E0D9
:104700005B01CE0101960E94651C89819A810E94FD
:10471000C60C9E012F5F3F4F6901490110E0812FB8
:104720000E94E821F40181934F018823D9F01F5F93
:104730000113F5CF00E0F60181916F018D3161F039
:10474000883151F08A51823038F00F5F1013F3CF67
:104750000E94FA0B18E08AC060E170E0802F0E948E
:104760009321102FC12ED12CF601EE0FFF1FEE5218
:10477000FE4C108211828AEF90E00E94B70E42E850
:1047800070E060E0812F0E94DD144FEF62E070E086
:10479000812F0E94DD14B501A114B10491F4809120
:1047A00003289091042801968115F0EC9F0708F4E6
:1047B0006EC0809303289093042860910328709121
:1047C0000428812F0E94C81486E0E8E0FAEEDE019A
:1047D000199601900D928A95E1F7F70183818F7701
:1047E0008C8784818D8785818E87A7014E5F5F4F7F
:1047F00024E030E06CE070E0812F0E94A214B5014B
:10480000812F0E94B31426E030E0AE01475F5F4F76
:1048100066E070E0812F0E94A21461E070E0812FB9
:104820000E94932127E02C9DC0012D9D900D112405
:104830009C0126563E4C7901F9011082118222E03A
:1048400030E0AE01415F5F4F68E270E0812F0E946F
:1048500055238F859889982789279827F701828380
:1048600093831682148215820E94FA0B812F609620
:10487000CDBFDEBFDF91CF911F910F91FF90EF90E1
:10488000DF90CF90BF90AF909F908F90089580E081
:1048900090EC8FCFCF92DF92EF92FF920F931F9306
:1048A000CF93DF93CDB7DEB72697CDBFDEBF8C01A8
:1048B0006B017A01FC01808D883010F40E94BF21C9
:1048C00080E89BEE89839A83F60182819381A4819B
:1048D000B5818B839C83AD83BE83B701CE010196E6
:1048E0000E946623F801808F883088F4E486F5867C
:1048F000118E128E81E02696CDBFDEBFDF91CF9163
:104900001F910F91FF90EF90DF90CF90089580E07E
:10491000F2CF7F928F929F92AF92BF92CF92DF920F
:10492000EF92FF920F931F93CF93DF9300D0CDB7F9
:10493000DEB7782E8B014A01590122E030E0AE014A
:104940004F5F5F4F64E270E00E945523E980FA8078
:10495000FE24EF24FE24E00EF11E970137704091F3
:10496000E231072D10E0433309F042C0085F1F4FCA
:10497000102F0027110F110F110FC901800F911F68
:104980004733C9F1A9014A0D5B1D4130584098F1E8
:1049900060E078E06B01C21AD30AA601B4010E945C
:1049A000D713A5014C195D09B4016C0D7D1DC8011B
:1049B0000E94D713EA0CFB1CF982EA8222E030E065
:1049C000AE014F5F5F4F64E270E0872D0E94A2143A
:1049D0000F900F90DF91CF911F910F91FF90EF906B
:1049E000DF90CF90BF90AF909F908F907F90089571
:1049F000005F1F4FBDCFA501B401DACFEF92FF9248
:104A00001F93CF93DF9300D0CDB7DEB7182F22E0EE
:104A100030E0AE014F5F5F4F60E270E00E945523CF
:104A2000E980FA80FE24EF24FE2422E030E0AE018B
:104A30004F5F5F4F60E270E0812F0E9455238981B4
:104A40009A81982789279827E816F90689F487E03C
:104A5000189FF0011124E656FE4CE482F582C7014E
:104A60000F900F90DF91CF911F91FF90EF900895DD
:104A70007C01DBCFFF920F931F93CF93DF9300D086
:104A8000CDB7DEB7F82ECE0101960E94651C898154
:104A90009A810E94C60C8F2D0E94FE248C018F2DBE
:104AA0000E94E821F82E0E94FA0B87E1F81629F0FF
:104AB0008CE1F81611F010E000E0C8010F900F90A3
:104AC000DF91CF911F910F91FF900895CF93DF93C6
:104AD000EC018C85883060F40E94EC21873111F064
:104AE0008C3131F48C850E943A258115984088F3E9
:104AF000DF91CF910895FC0124A1283018F4489645
:104B00000C9466250895FC018485883010F40C947B
:104B10003A2590E080E00895AF92BF92CF92DF9265
:104B2000EF92FF920F931F93CF93DF9300D0CDB7F7
:104B3000DEB7F82E6B018A014130584010F000E0DA
:104B400018E0CE0101960E94651C89819A810E941D
:104B5000C60C8F2D0E94FE245C018F2D0E94E8213F
:104B6000E82E0E94FA0B87E1E81619F08CE1E812B2
:104B700035C0A016B10628F3CE0101960E94651C2F
:104B800089819A810E94C60C9801A60170E060E0BC
:104B90008F2D0E94892460E270E08F2D0E94932166
:104BA00062E070E08F2D0E94852184FD25C08F2D4D
:104BB0000E94E821811115C00E94FA0B10E000E06C
:104BC000C8010F900F90DF91CF911F910F91FF902F
:104BD000EF90DF90CF90BF90AF90089510E000E08D
:104BE000CBCF0E94FA0BCE0101960E94651C8981F1
:104BF0009A810E94C60CD4CF40E162E070E08F2D14
:104C00000E94DD140E94FA0BDBCF0F931F93CF930A
:104C1000DF938C01EA01FC018485883048F40E940E
:104C20008C25892B39F481E090E0F801828393830D
:104C3000D0E0C0E0CE01DF91CF911F910F91089598
:104C40007F928F929F92AF92BF92CF92DF92EF921C
:104C5000FF920F931F93CF93DF9300D0CDB7DEB7B2
:104C60007C014B01742EC52EFC01A688B788D08C20
:104C7000CE0101960E94651C89819A810E94C60C12
:104C80008D2D0E94FE24072D1C2D8017910708F4FE
:104C90008C019801A401B5018D2D0E9489240E94E8
:104CA000FA0BF70186899789800F911F868B978B66
:104CB000C8010F900F90DF91CF911F910F91FF903E
:104CC000EF90DF90CF90BF90AF909F908F907F90AC
:104CD0000895FF920F931F93CF93DF9300D0CDB72A
:104CE000DEB7F82E22E030E0AE014F5F5F4F66E2A4
:104CF00070E00E94552309811A811027012710278F
:104D000022E030E0AE014F5F5F4F66E270E08F2D32
:104D10000E94552389819A81982789279827081707
:104D2000190749F4C8010F900F90DF91CF911F919F
:104D30000F91FF9008958C01E3CFEF92FF920F93B4
:104D40001F93CF93DF9300D0CDB7DEB7182F87E046
:104D5000189F90011124F901E656FE4C7F018081D5
:104D600091810097B1F4CE0101960E94651C898162
:104D70009A810E94C60C812F0E9469268C010E9494
:104D8000FA0BF70186819801281B3109C90120839C
:104D900031830F900F90DF91CF911F910F91FF9072
:104DA000EF9008959F92AF92BF92CF92DF92EF92D1
:104DB000FF920F931F93CF93DF93EC017B018091C0
:104DC000E231811121C01A821B8288EE93E0A0E0BB
:104DD000B0E08C839D83AE83BF838EE49BEE88839B
:104DE000998388E08C8788EE93E08D879E87CE013B
:104DF000DF91CF911F910F91FF90EF90DF90CF90B7
:104E0000BF90AF909F90089534E0932E833311F0BC
:104E100028E0922E82EDC82E81E3D82E10E098E093
:104E2000B92EA12CD6012D913D916D01F701848100
:104E300095812817390791F4812F0E94EC21082FC2
:104E4000873111F08C3139F5812F0E949D26892BF5
:104E500059F50C3119F4812F0E94A3211F5F911283
:104E6000E1CFA11008C0D701ED91FC910084F1853C
:104E7000E02DC70109951A821B8288EE93E0A0E01D
:104E8000B0E08C839D83AE83BF838EE49BEE8883EA
:104E90009983BC86A8CF843149F08111DFCFF60118
:104EA000329710821182DACFB12ED8CFAA24A394E0
:104EB000D5CF8F929F92AF92BF92CF92DF92EF9217
:104EC000FF920F931F93CF93DF93CDB7DEB72F974A
:104ED000CDBFDEBF5C014B017A018091E2318823B6
:104EE000B1F104E0833309F008E0B501CE01019689
:104EF0000E94D22682EDC82E81E3D82E10E0F60162
:104F0000219131916F01F50184819581281739072D
:104F100051F4812F0E94EC21873129F4A701B401BB
:104F2000812F0E948C251F5F0113E9CFC7012F96A7
:104F3000CDBFDEBFDF91CF911F910F91FF90EF901A
:104F4000DF90CF90BF90AF909F908F900895F12CFD
:104F5000E12CECCFEF92FF920F931F93CF93DF934F
:104F6000CDB7DEB72F97CDBFDEBF8C017C0188E1C6
:104F7000E80EF11CF80184A1883030F5C7010E94C9
:104F8000B22281111DC0C7010E94D4221B821C8243
:104F900088EE93E0A0E0B0E08D839E83AF83B88776
:104FA0008EE49BEE89839A8388E08D8788EE93E078
:104FB0008E879F87BE016F5F7F4FC7010E942B17AF
:104FC000F80184A1883068F0F80166897789CE01FC
:104FD00001960E94D226BE016F5F7F4FC7010E94DB
:104FE0002B17F80184A1883038F40E94330FF801A0
:104FF00065A776A787A790AB2F96CDBFDEBFDF91C1
:10500000CF911F910F91FF90EF900895CF93DF9371
:10501000EC010E94AA27CE0148962CA1283020F44A
:10502000DF91CF910C94611F8FEF9FEFDF91CF91B4
:105030000895FC018485883010F40C949D2690E03E
:1050400080E00895EF92FF920F931F93CF93DF9329
:10505000CDB7DEB72F97CDBFDEBFFC0126893789DC
:10506000232B61F490E080E02F96CDBFDEBFDF916F
:10507000CF911F910F91FF90EF9008958C010E94A6
:10508000AA277801F8E1EF0EF11CF80184A188301D
:1050900060F066897789CE0101960E94D226BE0112
:1050A0006F5F7F4FC7010E942B17F80184A18830E2
:1050B000C8F6C7010E941928D7CF4F925F927F92FE
:1050C0008F929F92AF92BF92CF92DF92EF92FF9218
:1050D0000F931F93CF93DF9300D0CDB7DEB7782E19
:1050E0006B014A01A82EB12C27E0829FC001112438
:1050F000FC01E656FE4C7F0100811181CE01019634
:105100000E94651C89819A810E94C60C08151905A8
:1051100054F4872D0E946926F70126818C01021B19
:105120001109008311830115110529F5872D0E94AE
:10513000E821843159F0882349F001E010E08C31F6
:1051400011F410E000E01195019511090E94FA0B8D
:10515000C8010F900F90DF91CF911F910F91FF9099
:10516000EF90DF90CF90BF90AF909F908F907F9007
:105170005F904F900895801691060CF4840187E0AB
:105180008A9DF0018B9DF00D1124E656FE4CE280C5
:10519000F380C114D10451F12701F7E05F22872D7C
:1051A0000E949414840D951D2091E231273309F457
:1051B00053C09801240D351D2130384008F44CC0EF
:1051C00020E038E0490184189508A401B6010E9446
:1051D0009E1E2601480C591C6801C818D908872D45
:1051E0000E949414A601B2010E949E1EE00EF11EC0
:1051F00087E08A9DF0018B9DF00D1124E656FE4C50
:10520000E282F38220813181201B310B20833183A4
:105210008681800F912F911D8A3F910510F4232BD9
:10522000F1F487E08A9DF0018B9DF00D1124E65684
:10523000FE4C1682F982EA8222E030E0AE014F5F36
:105240005F4F68E270E0872D0E94A21460E470E076
:10525000872D0E9493217ACFA801B601C5CF8683FE
:1052600075CFCF93DF93FC01218D328D2115310550
:1052700029F48FEF9FEFDF91CF910895EC01808D9E
:105280004217530708F0A9010E945D281816190655
:1052900084F7298D3A8D281B390B298F3A8FEBCF54
:1052A0000F931F93CF93DF931F92CDB7DEB7FC010F
:1052B000218D328D232B41F48FEF9FEF0F90DF91E3
:1052C000CF911F910F9108958C0141E050E0BE01F4
:1052D0006F5F7F4FFC01808D0E945D2818161906B4
:1052E0005CF7F801818D928D0197818F928F898172
:1052F00090E0E4CFCF93DF931F92CDB7DEB741E0CC
:1053000050E0BE016F5F7F4FFC0184850E945D28E5
:105310001816190634F4898190E00F90DF91CF912F
:1053200008958FEF9FEFF9CFCF93DF93EC010E94A9
:10533000AA27CE0148962CA1283020F4DF91CF91E6
:105340000C947A298FEF9FEFDF91CF910895FC01A4
:105350008485883010F40C945D2890E080E00895F6
:105360008F929F92BF92CF92DF92EF92FF920F9314
:105370001F93CF93DF93CDB7DEB72A97CDBFDEBFA4
:105380009091E231992379F108E0933309F404E034
:105390006B01B82ECE0101960E94651C89819A810D
:1053A0000E94C60C9E012F5F3F4F7901490110E01A
:1053B000812F0E94E821F40181934F018823D9F0C5
:1053C0001F5F0113F5CF00E0F70191917F019D313F
:1053D00061F0983151F09A51923038F00F5F10130C
:1053E000F3CF0E94FA0B18E060C060E170E0802FFC
:1053F0000E949321102FE12EF12CF701EE0FFF1FD9
:10540000EE52FE4C108211828AEF90E00E94B70E9D
:105410004B2D70E060E0812F0E94DD144FEF62E0C1
:1054200070E0812F0E94DD14B601CD2891F48091A7
:1054300003289091042801968115F0EC9F0708F449
:1054400044C08093032890930428609103287091AE
:105450000428812F0E94C81461E070E0812F0E940F
:10546000932127E02E9DC0012F9D900D11249C01BA
:1054700026563E4C7901F9011082118222E030E07B
:10548000AE01475F5F4F68E270E0812F0E945523B5
:1054900089859A85982789279827F701828393839E
:1054A0001682148215820E94FA0B812F2A96CDBF94
:1054B000DEBFDF91CF911F910F91FF90EF90DF90B2
:1054C000CF90BF909F908F90089580E090ECB9CFDF
:1054D0000F931F93CF93DF93EC018B01888D88305E
:1054E00010F40E94BF21B80182E00E94B029888F89
:1054F000883050F40C871D87198E1A8E81E0DF9159
:10550000CF911F910F91089580E0F9CFEF92FF9214
:105510001F93CF93DF9300D0CDB7DEB77C01FC01A2
:105520006481758181E20E94B029182F883090F43F
:10553000CE0101960E94651C89819A810E94C60C49
:10554000812F0E94E821833169F00E94FA0B812F9C
:105550000E94A3210F900F90DF91CF911F91FF9098
:10556000EF90089562E070E0812F0E9493210E94E5
:10557000FA0BF70184819581E12FF0E0EE0FFF1F18
:10558000EE52FE4C80839183E5CFAF92BF92CF92D3
:10559000DF92EF92FF920F931F93CF93DF9300D090
:1055A000CDB7DEB78C016B015A01FC0184858830D0
:1055B00058F40E94EC21882321F0F80184850E9490
:1055C000A32188E0F8018487F60182819381A48178
:1055D000B5810097A105B10579F490E080E00F90C6
:1055E0000F90DF91CF911F910F91FF90EF90DF907F
:1055F000CF90BF90AF9008958F3F9F4FAF4FBF4F59
:1056000061F370E060E081E20E94B029F82EF801B9
:105610008487F7E0F81708F3CE0101960E94651C15
:1056200089819A810E94C60CA6014E5F5F4F24E0DB
:1056300030E06CE070E08F2D0E94A214B5018F2D38
:105640000E94B31464E070E08F2D0E9493210E94A9
:10565000FA0B0E94330F6B017C01F80184850E94D4
:10566000EC21873129F18C3119F1882309F4B5CF68
:105670000E94330FAB01BC014C195D096E097F0913
:10568000F80185859685B0E0A0E084179507A60708
:10569000B70738F061E070E080E090E00E94030F0F
:1056A000DCCF84850E94BF2188E0F801848795CFF4
:1056B00081E090E094CF0F931F93CF93DF9300D0BE
:1056C000CDB7DEB7FC01248510E000E02830D8F427
:1056D0008C01CE0101960E94651C89819A810E94ED
:1056E000C60C22E030E0AE014F5F5F4F60E170E03A
:1056F000F80184850E94552309811A81102701270A
:1057000010270E94FA0BC8010F900F90DF91CF91E4
:105710001F910F9108950F931F93CF93DF9300D0A4
:10572000CDB7DEB7FC01248510E000E02830D8F4C6
:105730008C01CE0101960E94651C89819A810E948C
:10574000C60C22E030E0AE014F5F5F4F64E070E0D6
:10575000F80184850E94552309811A8110270127A9
:1057600010270E94FA0BC8010F900F90DF91CF9184
:105770001F910F9108950F931F93CF93DF9300D044
:10578000CDB7DEB78C0180E89BEEF8018083918372
:105790001282138214821582CE0101960E94651C2A
:1057A00089819A810E94C60CB8016E5F7F4F44E0E8
:1057B00050E08FE090E00E949E1E0E94FA0BC8010C
:1057C0000F900F90DF91CF911F910F9108952F921D
:1057D0003F924F925F926F927F928F929F92AF9281
:1057E000BF92CF92DF92EF92FF920F931F93CF93CE
:1057F000DF93CDB7DEB7C651D240CDBFDEBF4C017F
:105800008B017A01CD5FDD4F18821982C350D240DF
:1058100088EC9AEECF5FDD4F88839983C150D240E8
:10582000CB5FDD4F88829982C550D240C55FDD4F86
:1058300018821982CB50D240CE010196C95FDD4F4C
:1058400088839983C750D24080E092E0C75FDD4FE4
:1058500088839983C950D240672B09F45DC264ECF8
:105860007BEEC8010E94AE51892B09F083C060E62F
:1058700076E1CE018F5F9D4F0E94B90F62E973E11F
:10588000CE018F5F9D4F0E94B90FB701CE018F5F90
:105890009D4F0E94091D65E873E1CE018F5F9D4F0A
:1058A0000E94B90F6FE273E1CE018F5F9D4F0E949E
:1058B000B90FCE01835F9D4F0E94BB2BBE01635F7A
:1058C0007D4FCE018F5F9D4F0E94A61D64EA72E15D
:1058D000CE018F5F9D4F0E94B90FCE01835F9D4F18
:1058E0000E94BB2BBE01635F7D4FCE018F5F9D4F3A
:1058F0000E94A61D6BE172E1CE018F5F9D4F0E9459
:10590000B90F6AEF7FE0CE018F5F9D4F0E94B90F04
:1059100066EC7BEECE018F5F9D4F0E94AB1D6CEC61
:105920007BEECE018F5F9D4F0E94AB1D61ED7BEE44
:10593000CE018F5F9D4F0E94AB1D67ED7BEECE01C8
:105940008F5F9D4F0E94AB1D6CED7BEECE018F5F94
:105950009D4F0E94AB1D66E678E0CE018F5F9D4FA4
:105960000E94B90F65E578E0CE018F5F9D4F0E94E0
:10597000B90F14C06BEE7BEEC8010E94AE51892BAB
:1059800049F564EB76E1CE018F5F9D4F0E94B90F20
:10599000B701CE018F5F9D4F0E94091DCE018F5F21
:1059A0009D4F0E940E13CA5EDD4FCDBFDEBFDF915B
:1059B000CF911F910F91FF90EF90DF90CF90BF900C
:1059C000AF909F908F907F906F905F904F903F909F
:1059D0002F90089560EF7BEEC8010E94AE517C01CC
:1059E000892B09F09BC064EB76E1CE018F5F9D4F60
:1059F0000E94B90FC090B133D090B23383E290E0EF
:105A00008093B1339093B23310E000E0812C912C5D
:105A1000540122E0322E412C512C320143948091CA
:105A2000AB33801759F161E0802F0E94F219811188
:105A30002AC060E880E80E94931780E496E00E9404
:105A4000B70E81E10E94300E81110EC0D301C20158
:105A5000002E04C0880F991FAA1FBB1F0A94D2F7FB
:105A6000882A992AAA2ABB2A6EE180E00E94ED17B3
:105A700060E880E80E9493173092FF330F5F1F4F5A
:105A80000F31110561F6C092B133D092B2336EE19D
:105A900080E00E94ED1760E880E80E94931782E0A2
:105AA0008093FF33D501C4010E2C04C0B695A79591
:105AB000979587950A94D2F780FF28C065E478E02F
:105AC000CE018F5F9D4F0E94B90FB701CE018F5F4E
:105AD0009D4F0E94091D62E478E0CE018F5F9D4FCB
:105AE0000E94B90F65EF7BEECE018F5F9D4F0E9444
:105AF000B41CB701CE018F5F9D4F0E94091D68E362
:105B000078E0CE018F5F9D4F0E94B90F2FEFE21A10
:105B1000F20A30E2E316F10429F640CF43E050E008
:105B20006BEF7BEEC8010E94BE51892B09F0F4C0D7
:105B30003E018BEE681A8DEF780A8FEF9FEFF3012D
:105B4000808391832E01FDEE4F1AFDEF5F0AF20173
:105B5000808391837E01F3EFEF1AFDEFFF0AF701D7
:105B600080839183FF92EF925F924F927F926F9228
:105B70008FEF9BEE9F938F931F930F930E94EF5194
:105B8000CDBFDEBF029709F0C7C0F7012081318188
:105B9000121613060CF0C0C0F301808191810397A7
:105BA00008F0BAC0F2018081918101974F9708F007
:105BB000B3C0020F131F58017801F7013080332062
:105BC00049F1F5E23F1223C0F70181818823F9F002
:105BD00022802220E1F00E94D43B6C01822D0E94A1
:105BE000D43BD7FC14C097FD12C094E0CC0CDD1C54
:105BF0009A95E1F7C82AF501C082F2E0EF0EF11C98
:105C0000FFEFEF1AFF0A2FEFA21AB20AD6CFF50163
:105C10003082F6CFF501108278010F5F1F4FF70138
:105C20008081082E000C990B0E94F04C892BA1F763
:105C3000F70101900020E9F78F0101501109F801E7
:105C400082916F01082E000C990B0E94F04C892B59
:105C500079F5F801108264EB76E1CE018F5F9D4FFC
:105C60000E94B90FF30180819181029718F5F2012A
:105C7000808191819C01215031092F313105B0F48F
:105C80008093AC339FEF9093AD3361E00E94F219A3
:105C9000F70101900020E9F73197BF016E197F09E4
:105CA00041E0C7010E941B1A0E94DF1981E003C076
:105CB0008601C5CF80E0F30120813181223031059A
:105CC00051F0232B39F5F70101900020E9F73297C5
:105CD00090819F33F9F4CE018F5F9D4F0E940E1388
