:100200000C94D60B0C94FE0B0C94FE0B0C94FE0B72
:100210000C94FE0B0C94FE0B0C94FE0B0C94FE0B3A
:100220000C94FE0B0C94FE0B0C94FE0B0C94FE0B2A
:100230000C94FE0B0C94FE0B0C947E3A0C94213B18
:100240000C94FE0B0C94503A0C942A3A0C94FE0B2E
:100250000C94FE0B0C94FE0B0C94FE0B0C94FE0BFA
:100260000C94FE0B0C94023A0C94FE0B0C94FE0BB7
:100270000C94FE0B0C94FE0B0C94FE0B0C94FE0BDA
:100280000C94FE0B0C94FE0B0C94FE0B0C94FE0BCA
:100290000C94FE0B0C94FE0B0C94FE0B0C94FE0BBA
:1002A0006364696E6F70737578585B003F202D2012
:1002B0004D656E750032202D20536574206465668F
:1002C00061756C7420696E737472756D656E7420DF
:1002D000616464726573730031202D20536574204E
:1002E00049502061646472657373000A436F6D6DD9
:1002F000616E642061626F727465642E000A496EDB
:1003000076616C696420495020616464726573731E
:1003100020666F726D61742E00596F752077696C5D
:100320006C206E65656420746F207265626F6F74F7
:10033000206E6F772E000A49502041646472657305
:10034000732077696C6C2062652073657420746F0C
:100350003A2000456E746572207468652064657388
:10036000697265642049502061646472657373200A
:1003700028302E302E302E30206D65616E733A207D
:100380007573652044484350293A200076696120FE
:10039000444843502E00436F6E666967757265640A
:1003A00020495020416464726573733A20000A4307
:1003B000757272656E742049502041646472657371
:1003C000733A20000A436F6D6D616E642061626F45
:1003D000727465642E000A496E76616C69642069E6
:1003E0006E737472756D656E74206164647265738A
:1003F000732E00596F752077696C6C206E6565648B
:1004000020746F207265626F6F74206E6F772E009C
:100410000A44656661756C7420496E737472756DFB
:10042000656E7420616464726573732077696C6CA7
:100430002062652073657420746F3A2000456E74E5
:1004400065722074686520646573697265642064F0
:10045000656661756C7420696E737472756D656E16
:100460007420616464726573732028302D333029E1
:100470002C20776974682030206265696E6720746B
:10048000686520676174657761793A20000A437571
:100490007272656E742064656661756C7420696E35
:1004A000737472756D656E742061646472657373C4
:1004B0003A20002D205352414D206C6566743A203D
:1004C00000454550524F4D2064617461207365743E
:1004D00020746F2064656661756C742E004352430E
:1004E00020636865636B206661696C65642E2045D6
:1004F000726173696E6720454550524F4D2E2E2E06
:100500002E00454550524F4D206861732064617440
:10051000612E002121204E6F2076616C6964204994
:100520005020616464726573732061737369676ED0
:1005300065642E20506C6561736520636865636B2C
:1005400020796F7572206E6574776F726B2073659A
:100550007474696E67732E0049502041646472653B
:1005600073733A20004D6178696D756D206E756DFD
:10057000626572206F662063686172616374657280
:1005800073206973207265616368656420696E20F9
:100590006120636F6D6D616E642074657874000016
:1005A000536574757020636F6D706C6574652E0093
:1005B0005374617274696E672053657269616C204F
:1005C0004D656E752E2E2E005374617274696E67C0
:1005D0002057656220736572766572206F6E207099
:1005E0006F72742038302E2E2E005658492D31311E
:1005F00020736572766572732073746172746564BA
:10060000005374617274696E67205658492D3131F8
:1006100020706F7274206D617070657273206F6EE0
:100620002054435020616E6420554450206F6E204A
:10063000706F7274203131312E2E2E00537461721E
:1006400074696E67205658492D313120544350202B
:1006500052504320736572766572206F6E20706F02
:10066000727420393031302E2E2E00576169746932
:100670006E6720666F7220444843502E2E2E005421
:1006800068652064657669636573277320646566B1
:1006900061756C74206164647265737320706F6936
:1006A0006E747320746F20475049422061646472F5
:1006B0006573732000436F6E6669677572696E6754
:1006C00020616E64205374617274696E67204750B4
:1006D0004942206275732E2E2E004D414320416405
:1006E00064726573733A200045746865726E657450
:1006F00032475049422047617465776179207631ED
:100700002E32202841523438382076302E35332E80
:100710003033290A00202D3E2063616E63656C6CC6
:100720006174696F6E202100202D3E2063616E632D
:10073000656C6C6174696F6E202100202D3E207401
:100740006F6F206D616E7920617267756D656E7473
:1007500073202120286F6E65206368617261637465
:100760006572206F6E6C79290000202D3E204E6F3F
:1007700020636F6D6D616E6420636F6465206D61D1
:10078000746368696E67202100202D3E20746F6FAE
:10079000206D616E7920617267756D656E7473206E
:1007A0002120286F6E6520636861726163746572D1
:1007B000206F6E6C7929002C20506C656173652068
:1007C000696E666F726D20796F757220636C6965F2
:1007D0006E74732100495020416464726573732004
:1007E000686173206368616E67656420746F2000C0
:1007F000495020416464726573732068617320629C
:1008000065656E2061737369676E65643A200045A3
:10081000746865726E6574206C696E6B20697320F4
:100820004F4B206E6F7700526573657474696E6705
:1008300020616C6C20636C69656E7420636F6E6EF2
:10084000656374696F6E732E2E2E00206973207796
:10085000726F6E672E20506C6561736520636865EA
:10086000636B204448435021004950204164647226
:10087000657373200045746865726E6574206C69D9
:100880006E6B206973204F4646003C2F6F70746971
:100890006F6E3E00223E003C6F7074696F6E207672
:1008A000616C75653D22003C2F626F64793E3C2F80
:1008B00068746D6C3E0A0A003C2F73656C65637446
:1008C0003E3C2F74643E3C2F74723E3C74723E3C3E
:1008D000746420636F6C7370616E3D2232223E3C03
:1008E000627574746F6E2069643D22657822206F92
:1008F0006E636C69636B3D226578283029223E5116
:10090000756572793C2F627574746F6E3E266E62E7
:1009100073703B266E6273703B3C627574746F6ECD
:10092000206F6E636C69636B3D22657828312922E4
:10093000207374796C653D226261636B67726F75B9
:100940006E642D636F6C6F723A20233838383B2207
:100950003E53656E643C2F627574746F6E3E203C2E
:10096000627574746F6E206F6E636C69636B3D2289
:10097000657828322922207374796C653D22626182
:10098000636B67726F756E642D636F6C6F723A2064
:10099000233838383B223E526561643C2F627574BF
:1009A000746F6E3E203C2F74643E3C2F74723E3C4C
:1009B00074723E3C746820636F6C7370616E3D228C
:1009C00032223E486973746F72793C2F74683E3CE2
:1009D0002F74723E3C74723E3C746420636F6C737F
:1009E00070616E3D2232223E3C746578746172659E
:1009F000612069643D22722220726F77733D22313B
:100A0000302220636F6C733D223830222072656182
:100A1000646F6E6C793E3C2F7465787461726561A9
:100A20003E3C6272202F3E203C627574746F6E20D3
:100A30006F6E636C69636B3D2273656C662E722EFC
:100A400076616C75653D27273B207363726F6C6C14
:100A50002829223E436C65617220686973746F7245
:100A6000793C2F627574746F6E3E3C2F74643E3C0B
:100A70002F74723E3C2F7461626C653E0A3C736356
:100A8000726970743E0A66756E6374696F6E207465
:100A900069636B2829207B20666574636828222F90
:100AA000636E782229202E7468656E28287265731B
:100AB000706F6E736529203D3E207B20696620287B
:100AC00021726573706F6E73652E6F6B29207B20AA
:100AD00072657475726E20223F223B207D20726504
:100AE0007475726E20726573706F6E73652E7465A7
:100AF000787428293B207D29202E7468656E28286B
:100B00006461746129203D3E207B2073656C662EF4
:100B1000636E782E696E6E657248544D4C203D2090
:100B2000646174613B207D293B207D0A73657449B3
:100B30006E74657276616C287469636B2C20353035
:100B40003030293B66756E6374696F6E2066696E1E
:100B5000642829207B20666574636828222F666ECE
:100B6000642229202E7468656E2828726573706F60
:100B70006E736529203D3E207B2069662028217206
:100B80006573706F6E73652E6F6B29207B207468A0
:100B9000726F77206E6577204572726F72282245DA
:100BA00052523A2022202B20726573706F6E73654B
:100BB0002E73746174757354657874293B207D209D
:100BC00072657475726E20726573706F6E73652EC8
:100BD0007465787428293B207D29202E7468656E01
:100BE00028286461746129203D3E207B2073656C58
:100BF000662E696E73742E696E6E657248544D4C24
:100C0000203D20646174613B207D293B207D3B0AAF
:100C100066756E6374696F6E206578287429207B11
:100C200020636F6E737420696E7374203D2073654A
:100C30006C662E696E73742E76616C75653B2063ED
:100C40006F6E737420636D64203D2073656C662E37
:100C5000636D642E76616C75653B0A696620286950
:100C60006E7374203D3D3D20222229207B20616C43
:100C70006572742822506C656173652073656C65BC
:100C8000637420616E20696E737472756D656E7425
:100C900022293B2072657475726E3B207D0A766155
:100CA00072206D203D20222F657822202B20742E6B
:100CB000746F537472696E672829202B20222F22AB
:100CC000202B20696E7374202B20222F223B0A696F
:100CD00066202874203C203229207B206966202849
:100CE000636D64203D3D3D20222229207B20616CE4
:100CF0006572742822506C6561736520656E746539
:100D000072206120636F6D6D616E6422293B2072D9
:100D1000657475726E3B207D206D202B3D20636DC8
:100D2000643B207D0A73656C662E722E76616C754D
:100D300065203D20225C6E22202B2073656C662E80
:100D4000722E76616C75653B20646F63756D656EA0
:100D5000742E626F64792E7374796C652E6375726C
:100D6000736F72203D202777616974273B20646F81
:100D700063756D656E742E676574456C656D656E23
:100D800074427949642822657822292E7374796C1B
:100D9000652E637572736F72203D202777616974C9
:100DA000273B206665746368286D29202E7468656A
:100DB0006E2828726573706F6E736529203D3E2022
:100DC0007B20646F63756D656E742E626F64792E1F
:100DD0007374796C652E637572736F72203D202772
:100DE00064656661756C74273B20646F63756D651F
:100DF0006E742E676574456C656D656E74427949D5
:100E0000642822657822292E7374796C652E6375A7
:100E100072736F72203D202764656661756C74275C
:100E20003B206966202821726573706F6E73652E92
:100E30006F6B29207B207468726F77206E65772036
:100E40004572726F7228224552523A2022202B207E
:100E5000726573706F6E73652E73746174757354FD
:100E6000657874293B207D2072657475726E2072DE
:100E70006573706F6E73652E7465787428293B20D6
:100E80007D290A2E7468656E2828646174612920A2
:100E90003D3E207B20696620282874203D3D3D2072
:100EA00032297C7C282874203D3D3D20302926268F
:100EB000286461746120213D3D20222229292920B6
:100EC0007B2073656C662E722E76616C7565203D95
:100ED00020223C3D2022202B20696E7374202B2081
:100EE000223A2022202B20646174612E7472696D75
:100EF0002829202B20225C6E22202B2073656C6613
:100F00002E722E76616C75653B207D0A69662028FD
:100F100074203C203229207B2073656C662E722E53
:100F200076616C7565203D20223D3E2022202B20DD
:100F3000696E7374202B20223A2022202B20636DAF
:100F400064202B20225C6E22202B2073656C662E81
:100F5000722E76616C75653B207D0A7363726F6CCF
:100F60006C28293B207D293B207D3B0A66756E63FA
:100F700074696F6E207363726F6C6C2829207B20FC
:100F800073656C662E722E7363726F6C6C546F7027
:100F9000203D20303B207D0A646F63756D656E7463
:100FA0002E717565727953656C6563746F72282252
:100FB00023636D6422292E6164644576656E744CEA
:100FC000697374656E657228226B65797570222C61
:100FD000206576656E74203D3E207B20696628651D
:100FE00076656E742E6B657920213D3D2022456E1D
:100FF00074657222292072657475726E3B20646F6D
:1010000063756D656E742E717565727953656C6567
:1010100063746F72282223657822292E636C6963BA
:101020006B28293B206576656E742E707265766537
:101030006E7444656661756C7428293B207D293B7C
:101040000A3C2F7363726970743E0A003C68323E3A
:10105000496E74657261637469766520494F3C2FEF
:1010600068323E3C7461626C653E3C74723E3C7416
:101070006420636F6C7370616E3D2233223E536552
:101080006E642072656D6F74652070726F67726137
:101090006D6D696E672028534350492920636F6D39
:1010A0006D616E647320616E64207175657269652F
:1010B0007320746F2074686520696E737472756D27
:1010C000656E7420616E642076696577207468654A
:1010D00020726573706F6E736573207265747572BC
:1010E0006E65642062792074686520696E7374721D
:1010F000756D656E742E3C6272202F3E3C2F7464B9
:101100003E3C2F74723E203C74723E3C74683E49F3
:101110006E737472756D656E74733C2F74683E3CAB
:10112000746820636F6C7370616E3D2232223E439F
:101130006F6D6D616E643C2F74683E3C2F74723E1F
:10114000203C74723E3C746420726F777370616EE1
:101150003D2234223E3C73656C6563742069643DB6
:1011600022696E7374222073697A653D22342220CD
:101170007374796C653D2277696474683A203863CA
:10118000683B206F766572666C6F772D793A2061C7
:1011900075746F3B223E3C2F73656C6563743E3CF7
:1011A0006272202F3E3C627574746F6E206F6E63A6
:1011B0006C69636B3D2266696E642829223E46692C
:1011C0006E643C2F627574746F6E3E3C2F74643E87
:1011D0003C74642077696474683D22383025223E6F
:1011E0003C696E70757420747970653D2274657801
:1011F00074222069643D22636D6422206D61786CE5
:10120000656E6774683D3130302076616C75653D80
:101210002222202F3E3C2F74643E3C74643E3C628C
:101220007574746F6E206F6E636C69636B3D2273AF
:10123000656C662E636D642E76616C75653D7365B5
:101240006C662E7072652E76616C7565223E266C1A
:10125000743B3C2F627574746F6E3E3C73656C65B5
:1012600063742069643D22707265223E003A3A67D9
:101270007069622C3C693E4E3C2F693E3A3A494EB9
:101280005354523C2F623E206F72203C623E2E2E01
:101290002E3A3A696E73743C693E4E3C2F693E3A71
:1012A0003A494E5354523C2F623E2C207768657267
:1012B00065203C693E4E3C2F693E2069732074686E
:1012C0006569722061646472657373206F6E207447
:1012D00068652047504942206275732028312E2EC0
:1012E0003330293C2F74643E3C2F74723E3C2F7483
:1012F00061626C653E003A3A494E5354523C2F624B
:101300003E2028756E6C65737320796F7520686157
:101310007665207365742074686520646566617500
:101320006C7420696E737472756D656E742061647F
:10133000647265737320746F20736F6D6574686970
:101340006E6720656C7365207468616E2030293C7F
:101350002F74643E3C2F74723E3C74723E3C746445
:101360003E496E737472756D656E74733A3C2F747A
:10137000643E3C74643E3C623E54435049503A3AA9
:10138000003C68323E5658492D31312C2056495385
:101390004120636F6E6E656374696F6E2073747243
:1013A000696E67733C2F68323E3C7461626C653EC7
:1013B0003C74723E3C74643E436F6E74726F6C6C2E
:1013C00065723A3C2F74643E3C74643E3C623E5409
:1013D000435049503A3A003C2F7370616E3E3C2FA7
:1013E000703E0A003C21444F4354595045206874D4
:1013F0006D6C3E3C68746D6C206C616E673D22655F
:101400006E223E3C686561643E3C6D65746120639C
:101410006861727365743D225554462D3822202F21
:101420003E203C6D657461206E616D653D2276697C
:101430006577706F72742220636F6E74656E743D91
:101440002277696474683D6465766963652D7769A0
:101450006474682C20696E697469616C2D736361B2
:101460006C653D312E3022202F3E203C7469746C17
:10147000653E45746865726E657432475049423CFA
:101480002F7469746C653E3C7374796C653E2062A0
:101490006F6479207B20666F6E742D66616D696C58
:1014A000793A20417269616C2C2073616E732D73DF
:1014B000657269663B207D207461626C65207B20CB
:1014C000746578742D616C69676E3A206C6566741A
:1014D0003B20626F726465722D636F6C6C61707318
:1014E000653A20636F6C6C617073653B207D20747E
:1014F000682C207464207B2070616464696E673A94
:1015000020327078203870783B2077686974652DB8
:1015100073706163653A206E6F777261703B2076FD
:101520006572746963616C2D616C69676E3A2074D1
:101530006F703B207D207468207B2070616464693B
:101540006E672D746F703A203870783B207D206272
:101550007574746F6E207B206D617267696E3A20BE
:10156000307078203270783B20636F6C6F723A2055
:1015700077686974653B206261636B67726F756E33
:10158000642D636F6C6F723A20233636363B2070C1
:10159000616464696E673A20327078203132707805
:1015A0003B20626F726465722D7261646975733A73
:1015B000203470783B20626F726465723A2031701B
:1015C0007820736F6C696420233838383B2063754A
:1015D00072736F723A20706F696E7465723B207D12
:1015E000207465787461726561207B20776964740A
:1015F000683A20313030253B207D20696E7075744B
:10160000207B2077696474683A20313030253B2094
:101610007D206832207B20626F726465722D626F5C
:1016200074746F6D3A2032707820736F6C69642027
:10163000677265793B207D3C2F7374796C653E3C05
:101640002F686561643E3C626F64793E3C68313E60
:1016500045746865726E657432475049422047612F
:1016600074657761792076312E32202841523438E2
:10167000382076302E35332E3033290A3C2F68310E
:101680003E3C703E4E756D626572206F6620636CE5
:1016900069656E7420636F6E6E656374696F6E73D7
:1016A0003A203C7370616E2069643D22636E78223B
:1016B0003E00485454502F312E3120323030204FCC
:1016C0004B0A436F6E74656E742D547970653A20C1
:1016D000746578742F68746D6C0A436F6E6E656301
:1016E00074696F6E3A20636C6F73650A0A00485420
:1016F00054502F312E3120343034204E6F74204618
:101700006F756E640A00485454502F312E312032C8
:101710003030204F4B0A436F6E74656E742D5479D0
:1017200070653A20746578742F706C61696E0A4335
:101730006F6E6E656374696F6E3A20636C6F73656C
:101740000A0A003C2F6F7074696F6E3E00223E00E3
:101750003C6F7074696F6E2076616C75653D220018
:10176000496E74657266616365206D697374616B3F
:10177000652077697468206C6962726172792053A0
:10178000657269616C53657269616C4D656E754314
:101790006D64004E6F204D656E7520696E206D651D
:1017A0006D6F7279003E0000153CF83B11241FBE9E
:1017B000CFEFCDBFDFE3DEBF18E2A0E0B8E2E7E5A0
:1017C000FCEA02C005900D92AE31B107D9F726E3CD
:1017D000AEE1B8E201C01D92A131B207E1F71BE012
:1017E000C5EDDBE004C02197FE010E94AA50C43D74
:1017F000D107C9F70E94E63D0C9402550C940001F4
:10180000FC01BC01695A7F4F8FEF9FEF2191322F6E
:101810003927232F22952F702327422F50E0382F6E
:10182000CA01982F88279295907F28273927CA01C7
:10183000B5E0880F991FBA95E1F7822793276E17B5
:101840007F0721F708958F929F92AF92BF92CF9218
:10185000DF92EF92FF920F93CF93DF938091AD329F
:10186000882319F081FF0DC07894DF91CF910F91FB
:10187000FF90EF90DF90CF90BF90AF909F908F90B0
:10188000089580FFF2CF8090AF329090B032A09058
:10189000B132B090B232C12CD12C7601E0E094018B
:1018A000A501B601C701A0E00E949E5091F12170F0
:1018B00030E040E050E060E070E080E090E00E94C6
:1018C0009E50D1F0B0E0A0E0E03370F4AE2FA695CA
:1018D000A695A69580E2A89FD0011124A05FBB4FDA
:1018E0008E2F8770A80FB11DCE2FD0E0C955DD4CCB
:1018F00088899C91892B8C939401A501B601C7011D
:1019000001E00E94835049015A016B017C01EF5FA5
:10191000C6CF8090B3329090B432A090B532B090E0
:10192000B632C12CD12C7601E0E29401A501B601BA
:10193000C701A0E00E949E5009F497CF217030E0CB
:1019400040E050E060E070E080E090E00E949E5057
:10195000D1F0B0E0A0E0E03370F4AE2FA695A695EC
:10196000A69580E2A89FD0011124A05FBB4F8E2FC7
:101970008770A80FB11DCE2FD0E0C955DD4C8889E6
:101980009C91892B8C939401A501B601C70101E0BC
:101990000E94835049015A016B017C01EF5FC5CF62
:1019A00000008093C4088091C30887FFFCCF80911A
:1019B000C40808950F931F93CF93DF93EC018C011C
:1019C000060F171FC017D10729F088810E94D00C7D
:1019D0008993F8CFDF91CF911F910F9108958F9246
:1019E0009F92AF92BF92CF92DF92EF92FF920F93AE
:1019F0001F93CF93DF93182FF92F8091AD32882357
:101A000019F081FF12C0F8941093C008F093C10838
:101A1000DF91CF911F910F91FF90EF90DF90CF90CA
:101A2000BF90AF909F908F90089580FFEDCF8090F2
:101A3000AF329090B032A090B132B090B232C12C9F
:101A4000D12C7601E0E09401A501B601C701A0E028
:101A50000E949E50A9F1217030E040E050E060E02B
:101A600070E080E090E00E949E50E9F0D0E0C0E09D
:101A7000E03370F4CE2FC695C695C69580E2C89F18
:101A8000E0011124C05FDB4F8E2F8770C80FD11D7E
:101A90008E2F90E0288189559D4CDC0150962C9327
:101AA0008881887F88839401A501B601C70101E080
:101AB0000E94835049015A016B017C01EF5FC3CF43
:101AC0008090B3329090B432A090B532B090B632DC
:101AD000C12CD12C7601E0E29401A501B601C70129
:101AE000A0E00E949E5009F48FCF217030E040E0CA
:101AF00050E060E070E080E090E00E949E50E9F0ED
:101B0000D0E0C0E0E03370F4CE2FC695C695C69500
:101B1000B0E2CB9FE0011124C05FDB4F8E2F8770B6
:101B2000C80FD11D8E2F90E0288189559D4CDC0176
:101B300050962C938881887F88839401A501B601F3
:101B4000C70101E00E94835049015A016B017C01E9
:101B5000EF5FC2CF20E3FC0120833296862F82956F
:101B60008F706F706A3030F4605D6293682F8111FE
:101B7000F5CF0895695CF9CFFC01818D928D0895B0
:101B80000895CF93DF9390E0FC01EF54F54120815D
:101B90002F3F61F0FC01E857F541E08130E2E39F1F
:101BA000F0011124FC5F613021F42183DF91CF919A
:101BB0000895815A9541EC01A881AF3F69F0CF01AA
:101BC0004096A80FB92FB11D9FB7F89422838C912E
:101BD00088608C939FBFEACFB0E0A0E0F5CF90E0A3
:101BE000FC01EA5CF541E081EE2319F1E13021F0DE
:101BF00000F1E630A8F00895815A9541FC0120815A
:101C0000233008F02F5F3091010A81E090E001C09D
:101C1000880F2A95EAF7809583238093010A089517
:101C200080E1E89FF0011124E05AF54F81818F7E19
:101C3000818308950F931F93CF93DF93C82FD0E034
:101C4000FE01EF54F54100810F3FA1F0162F8932BC
:101C500010F40E94EF0DFE01E857F541E08180E2AB
:101C6000E89FF0011124FC5F8081802351F0111165
:101C700006C00683DF91CF911F910F9108950583D0
:101C8000F9CFC15AD5418881309771F08F3F61F00B
:101C90007096E80FF11D9FB7F8948081111107C06D
:101CA000877F80839FBFE6CFF0E0E0E0F4CF8860DD
:101CB000F8CF0F931F93CF93082F10E0F801EF5444
:101CC000F541C081CF3F79F00E94EF0DF801E85750
:101CD000F541E08180E2E89FF0011124FC5F8085FE
:101CE000C82381E009F480E0CF911F910F910895FE
:101CF000893210F40C941A0E0895EF92FF920F930C
:101D00001F93CF93DF93E82EF12CF701E15AF541B1
:101D100000810F3FD9F1EB01182F61E00E94C10D46
:101D2000209751F460E0812FDF91CF911F910F91A7
:101D3000FF90EF900C94780ECF3FD10511F461E045
:101D4000F2CFF701EA5CF541E081E13039F010F0C3
:101D5000E63030F1C038D10594F7E4CFE02FF0E061
:101D6000EE0FFF1F0330C8F0ED5DF54F0F5F8FB72B
:101D7000F894C0838FBF8091010A21E030E001C058
:101D8000220F0A95EAF7822B8093010ADF91CF9107
:101D90001F910F91FF90EF900895E85DF54FE7CF09
:101DA00080E1E89FF0011124E05AF54F8FB7F894D5
:101DB00094859487C5878FBF818180618183E6CFB9
:101DC00000000000000000009C0127503109880F2E
:101DD000991F880F991F820F931F0197F1F708959C
:101DE0006FB7F894209196313091973140919831A6
:101DF000509199318091AA0A9091AB0A7091A60AEC
:101E000070FF08C02F5F3F4F4F4F5F4F8091AA0A6E
:101E10009091AB0A6FBFE92FFF27BC01A4E0769534
:101E20006795AA95E1F7E60FF71FBC01B6E0769536
:101E30006795BA95E1F7E61BF70B892F99278695E9
:101E40008695E81BF90BA8EEB3E00E9427506E0FB1
:101E50007F1F811D911D08958F929F92AF92BF9217
:101E6000CF92DF92EF92FF924B015C010E94F00E45
:101E70006B017C01A8EEB3E0A50194010E942750FC
:101E8000C60ED71EE81EF91EC616D706E806F906C6
:101E900018F40E94F00EF8CF0E94F00E6C157D052C
:101EA0008E059F05C8F3FF90EF90DF90CF90BF9015
:101EB000AF909F908F9008952FB7F89460919631CE
:101EC0007091973180919831909199312FBF0895F9
:101ED00021E0FC018485883008F020E0822F0895FD
:101EE00026E93BEEFC0120833183FB0140895189C7
:101EF00062897389FC0142835383648375830895E7
:101F0000FC0184899589089580913628909137281D
:101F1000891B990B08954F925F926F927F92AF92B7
:101F2000BF92CF92DF92EF92FF920F931F93CF93C6
:101F3000DF93EC016B017B01E40EF51E8B01580170
:101F4000AC18BD080E151F0511F10E945C0F6887C3
:101F500079878A879B87E881F9810284F385E02D60
:101F6000CE01099597FF23C00E945C0F48845984D5
:101F70006A847B8464197509860997094C805D80A1
:101F80006E807F80641575058605970520F3C50171
:101F9000DF91CF911F910F91FF90EF90DF90CF9045
:101FA000BF90AF907F906F905F904F900895F80131
:101FB00081938F01C4CFDC01ED91FC910190F08100
:101FC000E02D0994EF92FF920F931F93CF93DF932D
:101FD0008C017B01D0E0C0E0F701EC0FFD1F6491A4
:101FE000662361F0D801ED91FC910190F081E02D24
:101FF000C8010995892B11F02196EECFCE01DF9112
:10200000CF911F910F91FF90EF900895AF92BF92E3
:10201000CF92DF92EF92FF920F931F93CF93DF93B4
:102020006C017B018B01040F151FEB015E01AE18E3
:10203000BF08C017D10759F06991D601ED91FC9105
:102040000190F081E02DC6010995892B79F7C50132
:10205000DF91CF911F910F91FF90EF90DF90CF9084
:10206000BF90AF900895FC01508D418D252F30E039
:10207000842F90E0821B930B541710F0CF96089595
:1020800001970895FC0196898789981761F0A789BF
:10209000AE0FBF2FB11D5D968C9197899F5F9F7387
:1020A000978B90E008958FEF9FEF0895FC0196893C
:1020B0008789981731F08789E80FF11D858D90E0A9
:1020C00008958FEF9FEF0895FC0196892789892F46
:1020D00090E0805C9F4F821B91098F739927089530
:1020E0008EEE92E30E94641021E0892B09F420E037
:1020F000822F0895CF93DF93EC01E881F981068068
:10210000F781E02D0995EC85FD8586818F738683A7
:10211000EC85FD8585818F7585838F898E8B1D8AE2
:10212000DF91CF910895AF92BF92CF92DF92EF925D
:10213000FF920F931F93CF93DF93EC016A017B0112
:10214000A22E8D89882339F0E881F9810688F789E4
:10215000E02DCE0109950C8910E0BFB6F89460E03F
:1021600078E689E899E0A70196010E94E64F6901A7
:102170007A018FEFC81AD80AE80AF80AF694E794A9
:10218000D794C794EC85FD8586818D7F8683EC8509
:10219000FD85868186831D8AA09125110A2E000C5B
:1021A000BB0BA70196010E94325020E034E040E0D2
:1021B00050E00E940850EC85FD85C20ED31EE41E3F
:1021C000F51EC086D186EC85FD85A782EC85FD8550
:1021D0008681806C8683EC85FD858581806885831A
:1021E0009091E2058B89809589237801EE0CFF1C84
:1021F000F701E00FF11FEC0FFD1F9089892B8093F1
:10220000E2058685893218F462E00E94C10D0E0D48
:102210001F1DC00FD11F61E08F850E94780E8F8532
:10222000893218F461E00E94C10DBFBEDF91CF91E9
:102230001F910F91FF90EF90DF90CF90BF90AF90E4
:102240000895FC01613019F4648B81E00895148ACB
:102250006623D9F380E00895DC0154961C925497CC
:1022600054968C9154978230A0F4282F30E0F901D5
:10227000EE0FFF1FE20FF31FEA0FFB1F9785961368
:1022800003C09685941749F08F5F54968C935497AA
:10229000E7CF54961C9280E0089581E00895CF9393
:1022A000DF93FC01908D818DC485D585981306C080
:1022B0008D818F7D8D83DF91CF910895A18DAE0F9C
:1022C000BF2FB11DA35ABF4F2C91818D90E0019675
:1022D0008F739927818F80E48C83A485B5851296AE
:1022E0002C93908D818D9813E6CFA485B585159696
:1022F0008C9115978F7D15968C93838D8823D9F2B9
:10230000848D80931301138ED6CFDC011C96ED9142
:10231000FC910FB607FE03C0258125FD04C0248172
:1023200025FD0C944F110895EF92FF920F931F9388
:10233000CF93DF93EC0181E08D8B988D898D98137D
:102340001CC0AC85BD8514968C91149785FF15C073
:1023500012966C93AC85BD8580E414968C93EC85C5
:10236000FD8585818F7D858381E090E0DF91CF9130
:102370001F910F91FF90EF9008958091110180FFC0
:1023800008C0809113018C8F8A8D8093130181E0A6
:102390008B8FF62E088D10E00F5F1F4F0F731127E4
:1023A000E02E898D8E1104C0CE010E948511F9CFD7
:1023B000E88DEC0FFD2FF11DE35AFF4FF082088FDF
:1023C000EC85FD8585818062CECF682F8EEE92E30D
:1023D0000C949411CF93DF93FC0125892223C9F03B
:1023E000EC018091110180FF08C080911301848F5E
:1023F000828D8093130181E0838FEC85FD8585813B
:1024000085FD03C0848186FD04C0CE010E94851134
:10241000F4CFDF91CF91089580E090E0892B29F0EF
:102420000E94701081110E94000080E090E0892BD2
:1024300049F080E090E0892B29F00E940000811192
:102440000E94000080E090E0892B49F080E090E05D
:10245000892B29F00E94000081110E94000080E079
:1024600090E0892B49F080E090E0892B29F00E94D0
:10247000000081110C940000089581E008950F93ED
:1024800091E0909378281092312860932F287093D0
:10249000302840932E2820932D2810923228109215
:1024A000332800932C28880F80932B2893E024E076
:1024B00080912E28882331F09093792880912B28C1
:1024C0008E7F09C080912D28882341F020937928A0
:1024D00080912B2881608093A70808C080912E28C6
:1024E000811104C080912D28882331F380913128F7
:1024F0008823E1F3809131288330D1F280912D2817
:10250000882321F0809133280F91089590913128EC
:1025100081E09130C9F780E0F7CFE0EAF8E09185FB
:102520009066918792E09093792880932528109265
:102530002428089581E0809324281092252893E090
:102540009093AA089091AB0891FF0BC01092292894
:10255000F0E0E0E009958093282885E080937928D1
:10256000089510922A288093272886E0F7CFE091DB
:10257000372880913628E81730F4F0E0E85CF74D12
:10258000808190E008958FEF9FEF08959091372814
:10259000809136282FEF3FEF981748F4E92FF0E0AD
:1025A000E85CF74D208130E09F5F90933728C901A8
:1025B0000895CF92DF92EF92FF920F931F93CF93E4
:1025C000DF937C018A01EB016B01C40ED51ECC1593
:1025D000DD0551F06991D701ED91FC910190F081F9
:1025E000E02DC7010995F3CFC801DF91CF911F916D
:1025F0000F91FF90EF90DF90CF9008952091BA282F
:10260000203440F021E030E0FC012283338390E06D
:1026100080E008958091BB28E82FF0E0E658F74D60
:1026200060838F5F8093BB288093BA2881E090E01D
:102630000895CF93DF93EC018C819D81DC01ED91B6
:10264000FC910480F581E02D09952A853B85009752
:1026500039F488859985821B930BDF91CF9108957A
:10266000821B930B97FFF9CF90E080E0F6CFCF93DA
:10267000DF93DC011A964D915C914115510599F15A
:10268000EC018C819D816E817F81DC01ED91FC915B
:102690000280F381E02D09952A853B85281B390BA3
:1026A0002A873B87232BA9F0009799F030E020E0A0
:1026B0004A855B852417350760F4EE81FF81E20FC0
:1026C000F31FDF01A80FB91F4C9140832F5F3F4FCD
:1026D000EFCFEC81FD8182819381892B21F081E014
:1026E00090E08A839B83DF91CF910895AF92BF9250
:1026F000CF92DF92EF92FF920F931F93CF93DF93CE
:102700008C016B015A017B01D0E0C0E0CA15DB05EA
:10271000B9F1D8011A968D919C911B97892B09F5D7
:10272000A5014C1B5D0B18968D919C91199748172C
:102730005907B8F014968D919C91B6016C0F7D1FCE
:10274000DC01ED91FC910280F381E02DDF91CF91CE
:102750001F910F91FF90EF90DF90CF90BF90AF90BF
:102760000994F70161917F01D801ED91FC910190ED
:10277000F081E02DC8010995892B11F02196C6CF73
:10278000CE01DF91CF911F910F91FF90EF90DF90DD
:10279000CF90BF90AF900895FC01A681B78182854C
:1027A00093859C012F5F3F4F22873387A80FB91F66
:1027B0006C9322853385808591852817390741F4EC
:1027C000CF010190F081E02D0680F781E02D099581
:1027D00081E090E00895E0912028F0912128808107
:1027E00090911F28892B80830895E0912028F091F3
:1027F0002128908180911F288095892380830895C6
:10280000AF92BF92CF92DF92EF92FF920F931F93FE
:10281000CF93DF93CDB7DEB72897CDBFDEBF8C0156
:102820007B016A018091E2318333E1F45801A40E07
:10283000B51EA016B10609F46FC00E94F51380EF13
:102840000E94D00C812F0E94D00C802F0E94D00CAF
:102850000F5F1F4FF70181917F010E94D00C0E94F2
:10286000EB13E7CF5B01A40EB51E8433C1F40E94C5
:10287000F51319830A838D2D80688B83CC8264E0E5
:1028800070E0CE0101960E94DA0CAE14BF0409F488
:1028900041C0F70181917F010E94D00CF6CF0E94C8
:1028A000F5130F3F110509F028F419820A8384E01B
:1028B0008B830CC017FD17C019820A8333E016956D
:1028C00007953A95E1F7007E0C600B8386E0C81609
:1028D000D10488F5F701DE011496EA15FB0599F09D
:1028E00081918D93FACFC80126E0969587952A9518
:1028F000E1F7807E19830A830115104C10F484617E
:10290000D7CF8C61D5CFB6016D5F7F4FCE010196D9
:102910000E94DA0C0E94EB13C6012896CDBFDEBFE1
:10292000DF91CF911F910F91FF90EF90DF90CF90AB
:10293000BF90AF90089563E070E0CE0101960E94D1
:10294000DA0CF70181917F010E94D00CAE14BF0414
:10295000C1F7E0CFCF93DF931F92CDB7DEB7898366
:1029600041E050E0BE016F5F7F4F90E080E00E9449
:1029700000140F90DF91CF91089590E02091E23103
:10298000233339F40C96982F990F990F990F80E003
:1029900008954896F8CFDA01E0912228F0E0FE2F62
:1029A000EE27E60FF71F90E0982F8827A901BD01B9
:1029B0008E0F9F1F0C940014CF93DF9300D0CDB7E0
:1029C000DEB779836A8322E030E0AE014F5F5F4F6C
:1029D00060E170E00E94CB140F900F90DF91CF91D7
:1029E0000895CF93DF9300D0CDB7DEB779836A83A4
:1029F00022E030E0AE014F5F5F4F64E070E00E9484
:102A0000CB140F900F90DF91CF910895CF93DF9368
:102A10001F92CDB7DEB72091222830E0322F222737
:102A2000260F371F90E0982F8827498341E050E018
:102A3000BE016F5F7F4F820F931F0E9400140F90A3
:102A4000DF91CF910895CF93DF931F92CDB7DEB77B
:102A50006983DC01ED91FC910280F381E02D41E07E
:102A600050E0BE016F5F7F4F09950F90DF91CF91CE
:102A70000895CF93DF931F92CDB7DEB76983DC0152
:102A8000ED91FC910280F381E02D41E050E0BE0128
:102A90006F5F7F4F09950F90DF91CF910895FC01F3
:102AA0009485FB018485981303C081E0983008F079
:102AB00080E00895CF93DF931F92CDB7DEB769838F
:102AC000DC01ED91FC910280F381E02D41E050E0CA
:102AD000BE016F5F7F4F09950F90DF91CF910895F1
:102AE00044E050E0BC018FE090E00C94001444E01E
:102AF00050E0BC0185E090E00C94001444E050E00C
:102B0000BC0181E090E00C9400140F931F93CF93CD
:102B1000DF93EC0122968C0106581F4FE881F98162
:102B2000008CF18DE02DCE010995882351F02F9670
:102B3000C017D10799F780E0DF91CF911F910F91D6
:102B4000089581E0F9CFFC01108A118A089590E080
:102B500080E0089560E08DE00E941A0E61E087E257
:102B60000E941A0E61E086E20C941A0EFC0182812A
:102B700081110CC08381811109C08481811106C03B
:102B800081E09581911103C080E0089581E008956E
:102B9000FC0160817181828193810E947A50089545
:102BA000FC01CB01BA010E947A5060837183828359
:102BB00093830895CF92DF92EF92FF920F931F932A
:102BC000CF93DF9300D000D0CDB7DEB797E6E92EE4
:102BD00092E3F92E07E012E3811106C08BE2E82EA2
:102BE00082E3F82E07EE11E3C7010C960E94C81588
:102BF000603A76488140910541F5C70144960E94AC
:102C0000C815633071058105910509F04DC0E0904C
:102C1000D234F090D334C7010E948515882309F47B
:102C20004BC0F701E857FF4FC080D180E280F380AE
:102C300040E050E0BA01C114D104E104F10461F4B0
:102C400044E050E060E070E007C0C12CD12C760178
:102C500041E050E060E070E0CE0101960E94D015A6
:102C600089819A81AB81BC81F801848B958BA68B7D
:102C7000B78BB701A601CE0101960E94D0158981BC
:102C80009A81AB81BC81F801808F918FA28FB38F25
:102C90002496CDBFDEBFDF91CF911F910F91FF90A2
:102CA000EF90DF90CF900895C12CD12C760143E0B6
:102CB00050E060E070E0D0CFC12CD12C7601C0CFC5
:102CC0000F931F93CF93DF9300D000D0CDB7DEB723
:102CD0008C01CE0101960E94D01589819A81AB8129
:102CE000BC81F80180839183A283B38380E090E06C
:102CF000A0E0B1E084839583A683B7831086118614
:102D0000128613861486158616861786108A118AEF
:102D1000128A138A2496CDBFDEBFDF91CF911F9117
:102D20000F910895AF92BF92CF92DF92EF92FF92F0
:102D30000F931F93CF93DF9300D000D0CDB7DEB7B2
:102D40008C016A017B0183E59DE20E94C815AB01FD
:102D5000BC0187E299E20E946016560184E0A80E49
:102D6000B11CD701C60183709927AA27BB27892BDD
:102D70008A2B8B2B51F0AFEFCA1ADA0AEA0AFA0A49
:102D8000F601ED5DF64D1382E8CFB701A60170683C
:102D9000CE0101960E94D01589819A81AB81BC81B8
:102DA0008093232990932429A0932529B093262941
:102DB000D801ED91FC910480F581E02DC8010995C1
:102DC000892BB1F3D801ED91FC910280F381E02DC4
:102DD000A50163E279E2C8010995D801ED91FC9162
:102DE0000680F781E02DC80109952496CDBFDEBF8E
:102DF000DF91CF911F910F91FF90EF90DF90CF90D7
:102E0000BF90AF90089508950895CF92DF92EF920A
:102E1000FF920F931F93CF93DF937C016A018B0185
:102E2000D0E0C0E0CC15DD0579F0D8016D918D01C1
:102E3000D701ED91FC910190F081E02DC70109953A
:102E4000019711F42196EECFCE01DF91CF911F9122
:102E50000F91FF90EF90DF90CF900895FC012089B3
:102E60003189868597852817390770F4848595857B
:102E7000A9014F5F5F4F408B518BFC01E20FF31FA5
:102E8000608381E090E0089581E0828B90E080E0B3
:102E90000895FC01848595850895DC01ED91FC91F0
:102EA000028CF38DE02D0994FC01DB0112968D91CB
:102EB0009C9113978283938314964D915D916D91AC
:102EC0007C911797448355836683778318964D9139
:102ED0005D916D917C911B974087518762877387C5
:102EE0001C968C911C9784871D968D919C9185874B
:102EF0009687CF010895FC01658776870895DC01E8
:102F0000ED91FC9102A0F3A1E02D099591E08927B4
:102F10000895862F089581E0862708950895CF9219
:102F2000DF92EF92FF920F931F93CF93DF93282F9F
:102F300030E08901000F111F000F111FE901D59525
:102F4000C795E62FF0E06F01CC0CDD1CCC0CDD1C2E
:102F50007F01F594E794DF01D4E0AA0FBB1FDA9557
:102F6000E1F7A0719C2D9870A92B6470A62BBF016E
:102F700075956795759567956270A62BE295E170DA
:102F8000EA2B6C2D6078E62B9E2D9072E92B9E2DFE
:102F90009074E92B9E2F9095B90154E0660F771F2E
:102FA0005A95E1F76071502F5870652B8470682B2B
:102FB000D901B595A795B595A795A2706A2B2295CD
:102FC0002170262B0078202B8C2F8072282BC07428
:102FD0002C2B2E23413079F0809144048923282B17
:102FE00020934404DF91CF911F910F91FF90EF90B8
:102FF000DF90CF900895809140048923282B20935F
:103000004004F0CF40E00C948F1741E00C948F17F0
:10301000E0E6F4E08FEF828388E0808B818B828B07
:10302000838B848B858B868B878B08956EE186E0FE
:103030000E94051866E089EF0C9402187F928F9227
:103040009F92AF92BF92CF92DF92EF92FF920F9337
:103050001F93CF93DF93182F062F0E945C0F4B0115
:103060005C016F5F7F4F8F4F9F4FC090B133D09007
:10307000B233F12CE12CD0E0C0E077247A941095A3
:10308000681979098A099B096C157D058E059F05CC
:1030900008F069C08091AA33813041F582E10E9435
:1030A000590E811116C00E94161888E08093FF33D4
:1030B000C2E0D0E0CE01DF91CF911F910F91FF9040
:1030C000EF90DF90CF90BF90AF909F908F907F90C8
:1030D000089584E10E94590E811108C00E941618BB
:1030E00088E08093FF33C3E0D0E0E4CF2097B1F4D1
:1030F00081E10E94590E811130C080E10E94590E79
:10310000C7E0D0E0813049F5709261041093640407
:103110008091A93381110FC068E010C0C730D1057C
:1031200061F3C830D10581F3C930D10551F0CA30FF
:10313000D10561F012C068E1002371F380E00E94C4
:10314000021880E10E94590E81110AC081E10E949B
:10315000590E813061F0CAE0D0E00E945C0F90CF40
:10316000C9E0D0E0FACFC130D10509F0A3CF8091FA
:10317000A933811103C068E088E004C068E188E1F8
:103180000023C9F30E9402188FEF8093610480939B
:103190006404C1E0D0E08ECFFC0180819181FC010C
:1031A000FF2790FD06C080E094E1E82BF92B808199
:1031B000089580E093E1F9CF0F931F93CF93DF93AE
:1031C00000D0CDB7DEB78C0119821A82CE010196EC
:1031D0000E94CC18F801808381E090E089839A8373
:1031E000CE0101960E94CC18F8018183C8010F908E
:1031F0000F90DF91CF911F910F910895FC01FF2750
:1032000090FD12C080E094E1E82BF92B60838FB72A
:10321000F8949DE923E094BF209300108FBF809124
:10322000021081FDFCCF089580E093E1EDCFBF92C5
:10323000CF92DF92EF92FF920F931F93CF93DF9382
:1032400000D0CDB7DEB76C017C0102E010E0F701E1
:10325000B1907F0109831A83CE0101960E94CC1898
:10326000B81621F06B2DC8010E94FE180F5F1F4F8A
:103270000935110561F7C6010E94000C8C01198205
:103280001A82CE0101960E94CC18081729F0602FEF
:1032900090E080E00E94FE1881E090E089839A83AC
:1032A000CE0101960E94CC18181781F0612F81E0A1
:1032B00090E00F900F90DF91CF911F910F91FF90B1
:1032C000EF90DF90CF90BF900C94FE180F900F906E
:1032D000DF91CF911F910F91FF90EF90DF90CF90F2
:1032E000BF900895DC01ED91FC910488F589E02DF3
:1032F00023E030E009940C94894B0C94894BCF93D4
:10330000C82F8091FF33833079F06EE188E10E940D
:10331000051868E188E10E94021860E880E00E94D8
:10332000021883E08093FF3360E08C2F0E941E1808
:1033300021E0019709F420E0822FCF9108958EE1DA
:1033400090E00E94E00E8FE30E947F19882311F025
:1033500081E008958FE50E947F198111F9CF1092C5
:1033600001340895CF93DF938F3120F081E0DF9116
:10337000CF910895D62FC82F8FE30E947F19811116
:10338000F5CF8FE50E947F198111F0CFD23049F43B
:1033900080E48C0F0E947F198111E8CFD093013413
:1033A000E6CF80E28C0F0E947F198111DFCF91E080
:1033B00090930134DCCFAF92BF92CF92DF92EF9225
:1033C000FF920F931F93CF93DF938C01E62ED42FA0
:1033D0008091AE33813030F0C1E0833020F0C0E026
:1033E000833009F0C2E08091AA33823029F560E889
:1033F00080E80E9402186EE188E10E94051868E1E9
:1034000088E10E94021884E08093FF33680110E095
:1034100000E0F12C570181E0A81AB1080E151F0534
:1034200094F5F60181916F019091A933992311F0E0
:10343000CC2361F060E00EC06EE188E10E940518C7
:1034400068E188E10E94021889E0DECF61E0A01601
:10345000B10681F70E941E18019721F50F5F1F4FDB
:10346000DDCF60E08DE00E941E186091A9338AE0F4
:1034700017C06EE180E00E9405180E94081887E0DE
:103480008093FF331FC0CC2369F08091AE3382302C
:1034900061F3833039F0813021F76091A9338DE0F9
:1034A0000E941E18DD2371F0C091AA33C23009F7C3
:1034B00060E880E80E9402186EE180E00E94051832
:1034C000C093FF33DF91CF911F910F91FF90EF9049
:1034D000DF90CF90BF90AF900895EF92FF920F933F
:1034E0001F93CF93DF937A01122F6115710531F489
:1034F0006091AB3370E06115710581F18091AC335F
:103500008617170689F0862F6093AC339FEF909350
:10351000AD3390910134992321F09091FF3398308D
:1035200019F061E00E94B219D091A933C091AE3375
:10353000011105C01092A93383E08093AE33402F70
:10354000612FC7010E94DB1901110FC0D093A9336D
:1035500081E0C11101C080E08093AE33DF91CF9153
:103560001F910F91FF90EF9008950E949F198FEF88
:103570008093AC33F3CF2F923F924F925F926F9232
:103580007F928F929F92AF92BF92CF92DF92EF92F3
:10359000FF920F931F93CF93DF93CDB7DEB727979B
:1035A000CDBFDEBF7C018B018091A833882329F039
:1035B0001616170614F40150110910920034809168
:1035C000AA33823009F09BC060E880E80E940218AC
:1035D0000E94161885E08093FF330E940818212C62
:1035E000D12CC12C30900034311002C184E10E94F2
:1035F000590E882309F4FFC00E945C0F4B015C0147
:103600002B013C012FEF421A520A620A720A809182
:10361000B1339091B2339C0150E040E029833A836A
:103620004B835C8384E10E94590E8D831E821F822E
:10363000481859086A087B0889819A81AB81BC8146
:10364000481659066A067B0608F08CC08091AA339A
:10365000813009F458C0AE81BF81AB2B09F064C042
:1036600064E084E00E9402188FE00E94590E8111EC
:103670006FC064E00E9402188EE00E94590E8823F9
:1036800009F463C080916804282E209462E082E0EF
:103690000E9402188FE00E94590E813009F05DC02F
:1036A00062E080E00E940218622DC7010E94DB0FD9
:1036B0005FEFC51AD50A332009F45FC054E059837F
:1036C0008091A833882329F06091B333C7010E9409
:1036D000DB0F9981973009F458C0A091AA33AD83CC
:1036E000A23009F073C060E880E80E9402186EE121
:1036F00080E00E940518BD81B093FF3348C00E944E
:10370000161888E068CF82E10E94590E882309F4D8
:1037100067C0BD81B1119FCF84E10E94590E8823FB
:1037200009F499CF32E025C02E813F812430310544
:1037300009F49ACF4E815F814630510509F4AACF32
:103740000E945C0F2B013C0173CF332433949ACF3A
:1037500084E090E08E839F83F3CFA6E0B0E0AE8359
:10376000BF83EECF2E813F812230310509F03DC06D
:1037700033E039833110A4CFB0CF101611060CF00E
:1037800031CFC016D1060CF42DCF47E0498380918C
:10379000003481111092003489812796CDBFDEBF9D
:1037A000DF91CF911F910F91FF90EF90DF90CF901D
:1037B000BF90AF909F908F907F906F905F904F9051
:1037C0003F902F90089583E089837ACF6EE180E067
:1037D0000E9405180E94081887E08093FF33D7CF16
:1037E0003110F1CF23E0298378CF48E04983C2CF5D
:1037F00051E0598372CF82E089836FCFEF92FF92BD
:103800000F931F93CF93DF93CDB7DEB7AD97CDBFA7
:10381000DEBF8A0179016115710541F56091AB3315
:1038200070E06115710511F58DE2EAEAFBEEDE014B
:10383000119601900D928A95E1F7DA01ED91FC91D4
:103840000280F381E02D4CE250E0BE016F5F7F4FBC
:10385000C801099582E090E0AD96CDBFDEBFDF9153
:10386000CF911F910F91FF90EF9008958091AC330D
:103870008617170689F0862F6093AC339FEF9093DD
:10388000AD3390910134992321F09091FF33993019
:1038900019F062E00E94B219B701C8010E94BB1A78
:1038A000182F81E090E01730B9F20E949F198FEF36
:1038B0008093AC33143071F28BEF810F823038F08B
:1038C00085E090E0183041F690E080E0C5CF83E0DD
:1038D00090E0C2CF24E0FC01218321E320830895FE
:1038E000DF92EF92FF920F931F93CF93DF9300D05D
:1038F000CDB7DEB7FB01DC0156961D921C9257979F
:103900002281211109C02381211106C024812111A6
:1039100003C02581222359F14115510541F17A0156
:103920008F01FC01D08CCE0101960E946A1C898116
:103930009A810E94EF0CA8014E5F5F4F24E030E0B7
:103940006CE070E08D2D0E94CB14B7018D2D0E948C
:10395000DC140E94230C81E090E00F900F90DF9127
:10396000CF911F910F91FF90EF90DF90089580E02D
:10397000F3CFFB0101900020E9F73197AF01461B1F
:10398000570BDC01ED91FC910280F381E02D09944D
:103990008F929F92AF92BF92EF92FF920F931F93DD
:1039A000CF93DF93CDB7DEB7A197CDBFDEBF7C014C
:1039B000FA01CB0119A2223008F42AE08E010F5D32
:1039C0001F4F822E912CB12CA12CBF01A501940177
:1039D0000E94E64FF901CA016A30F4F4605DD80133
:1039E0006E938D01232B242B252B79F790E080E01B
:1039F000109721F0BD01C7010E94B91CA196CDBF4F
:103A0000DEBFDF91CF911F910F91FF90EF90BF909C
:103A1000AF909F908F900895695CE1CFCF92DF9235
:103A2000EF92FF920F931F93CF93DF936B01770F6A
:103A3000EE08FF08F7FE1BC0EC016DE20E94DB0FF1
:103A40008C0144275527BA014C195D096E097F097D
:103A50002AE0CE010E94C81C800F911FDF91CF91F8
:103A60001F910F91FF90EF90DF90CF9008952AE083
:103A7000B701A601DF91CF911F910F91FF90EF90B9
:103A8000DF90CF900C94C81CCF93DF9300D0CDB7BC
:103A9000DEB763EB74E08EEE92E30E94E20F80915A
:103AA0000D3690910E36009711F481E196E3BE0138
:103AB0006F5F7F4F681B790B8EEE92E30E940E1DA5
:103AC0000F900F90DF91CF9108958F929F92AF92B8
:103AD000BF92CF92DF92EF92FF920F931F93CF93FB
:103AE000DF937C018B016C0182E0C80ED11C470181
:103AF000E5E08E0E911CD0E0C0E0F60141916F012F
:103B000050E070E060E02AE0C8010E94C81C5C013F
:103B10006EE2C8010E94DB0F8A0D9B1DC80FD91FE2
:103B2000C814D90451F7F701458150E070E060E016
:103B30002AE0C8010E94C81C8C0F9D1FDF91CF9105
:103B40001F910F91FF90EF90DF90CF90BF90AF90BB
:103B50009F908F9008959C01CB01B9010C94651D35
:103B60000F931F93CF93DF93EC018B0160E577E117
:103B70000E94E20FB801CE010E94B91C6DE477E10A
:103B8000CE010E94E20FB801CE010E94B91C63E48D
:103B900077E1CE01DF91CF911F910F910C94E20F4D
:103BA00067ED7BEE0C94B91C0F931F93CF93DF93BB
:103BB000EC010E94AB1D8C01CE010E94D01D800F34
:103BC000911FDF91CF911F910F9108950F931F9334
:103BD000CF93DF93EC010E94B91C8C01CE010E94AF
:103BE000D01D800F911FDF91CF911F910F910895EC
:103BF0000F931F93CF93DF93EC01FB014481558119
:103C000060817181E881F9810280F381E02D09955D
:103C10008C01CE010E94D01D800F911FDF91CF91AA
:103C20001F910F9108950F931F93CF93DF93EC0192
:103C30000E94E20F8C01CE010E94D01D800F911FC7
:103C4000DF91CF911F910F910895CF93DF93CDB75F
:103C5000DEB7C054D109CDBFDEBF67EA77E18EEE93
:103C600092E30E94131E6091A6337091A73340E443
:103C700050E0CE0101960E94044DBE016F5F7F4F60
:103C80008EEE92E30E94B91C65EA77E18EEE92E334
:103C90000E94E20FC05CDF4FCDBFDEBFDF91CF914E
:103CA00008950F931F93CF93DF93CDB7DEB7C05422
:103CB000D109CDBFDEBF69ED7BEE8EEE92E30E94AF
:103CC000E61D69ED7BEE8EEE92E30E94E61D80918B
:103CD000A53310E005E0811115C063E977E18EEEB0
:103CE00092E30E94131E60E677E18EEE92E30E945B
:103CF000131EC05CDF4FCDBFDEBFDF91CF911F91A0
:103D00000F9108958091A533181798F7E091A33388
:103D1000F091A433109FE00DF11D11246081718199
:103D200040E450E0CE0101960E94044DBE016F5F59
:103D30007F4F8EEE92E30E94E61D1F5FE3CF0E944D
:103D4000511E0C94251EAF92BF92CF92DF92EF923C
:103D5000FF920F931F93CF93DF9300D000D0CDB786
:103D6000DEB78C016B017A018091E2318333E9F493
:103D70005B016801C40ED51EC016D10691F10E94E8
:103D8000F5138FE00E94D00C812F0E94D00C802F61
:103D90000E94D00C0F5F1F4F80E00E94D00CF501F5
:103DA00081935F010E94EB13E7CF843349F50E94B2
:103DB000F51319830A838F2D8F778B83EC8264E050
:103DC00070E0CE0101960E94DA0CA70170E060E07D
:103DD000C6010E949451B701C6010E94DA0C0E94EC
:103DE000EB13C7012496CDBFDEBFDF91CF911F91AA
:103DF0000F91FF90EF90DF90CF90BF90AF9008951C
:103E00000E94F5130F3F110509F030F419820A835F
:103E10001B8263E070E0D5CF17FD0BC019820A83C7
:103E200033E0169507953A95E1F7007E08600B831D
:103E3000F0CFC80126E0969587952A95E1F7807E18
:103E400019830A830115104C18F480618B83E1CF2C
:103E50008861FCCF1F93CF93DF9300D0CDB7DEB73F
:103E6000182FCE0101960E946A1C89819A810E94B6
:103E7000EF0C812F0E94BD1427E0129FF001112446
:103E8000E656FE4C22813381377041E050E0BE019E
:103E90006F5F7F4F820F931F0E94A31E0E94230C0F
:103EA00089810F900F90DF91CF911F910895FC01B0
:103EB000808D883040F4218D328D232B21F00E949B
:103EC0002A1F90E008958FEF9FEF0895CF93DF931F
:103ED000FC012485283028F08FEF9FEFDF91CF91F0
:103EE0000895EC010190F081E02D0084F185E02D32
:103EF0000995892B89F38C850E942A1F90E0EECFCB
:103F0000CF93DF931F92CDB7DEB741E050E0BE0103
:103F10006F5F7F4F0E94A31E89810F90DF91CF9129
:103F2000089590E080E00C94801FCF93DF93C4E16C
:103F3000D0E00E94911F882361F061E070E080E092
:103F400090E00E942C0F2197A1F780E0DF91CF91A4
:103F5000089581E0FBCF1F93CF93DF9300D01F9292
:103F6000CDB7DEB780912328811139C160E372E0BB
:103F700080E090E00E942C0F8091AC32811117C03C
:103F80001092AD321092AE321092AF321092B03227
:103F90001092B1321092B2321092B3321092B43207
:103FA0001092B5321092B63281E08093AC3280919B
:103FB000E3058C7F9091AB32892B8093E3059111BF
:103FC0008BC061E084E00E94C10D61E086E00E9448
:103FD000C10D8091C10884608093C1088091C008A0
:103FE00081628093C0089091E6328091E73290938D
:103FF000C0088093C10880910028893208F07FC0F2
:10400000E82FF0E0E857F5412081263008F077C02E
:1040100090E2299F900111243C5F2C5F3F4F209339
:104020002028309321289FEF893228F4E82FF0E0F0
:10403000EF54F541908190931F28893218F461E084
:104040000E94C10D0E94EB13CE0101960E946A1CD2
:1040500089819A810E94EF0C84E38093E23180E8A9
:104060000E94AA140E94951F882309F44BC088E07F
:104070000E94AA140E94911F883009F043C080E179
:104080000E94AA140E94911F8031E1F580E00E94F5
:10409000AA140E94911F182F811134C08FE190E063
:1040A0000E94801F833071F580E48093222842E0D3
:1040B0006EE170E0812F0E94061542E06FE170E032
:1040C000812F0E9406151F5F183089F70E94230C6C
:1040D00081E0809323287CC0913039F461E08EE048
:1040E0000E94C10D61E080E172CF923009F071CF82
:1040F00061E08EE10E94C10D61E080E268CF30E0B6
:1041000020E08BCF87E38093E23180E80E94AA14FD
:104110000E94951F8823F9F088E00E94AA140E944B
:10412000911F8830C1F480E10E94AA140E94911F5F
:10413000182F803181F480E00E94AA140E94911F00
:10414000811109C089E390E00E94801F843019F436
:1041500010932228BBCF83E38093E23180E80E9452
:10416000AA140E94951F882371F180E10E94AA146D
:104170000E94911F803139F582E10E94AA140E94A9
:10418000911F823101F580E00E94AA140E94911FC4
:10419000811119C084E08093222815E51B8341E03A
:1041A00050E0BE016D5F7F4F8BE190E00E940014F4
:1041B000198341E050E0BE016F5F7F4F8AE190E0DC
:1041C0000E94001483CF1092E2310E94230C80E001
:1041D0002396CDBFDEBFDF91CF911F91089581E07F
:1041E000F7CFEF92FF921F93CF93DF93CDB7DEB758
:1041F000C454D109CDBFDEBF7C01FB018281938114
:10420000A481B58123968CAF9DAFAEAFBFAF23978E
:1042100011E023961FAF239723964CAD5DAD6EAD95
:104220007FAD239749AF5AAF6BAF7CAF8DA79EA7E9
:10423000AFA7B8AB18AB4DA55EA56FA578A94B8FFE
:104240005C8F6D8F7E8F1CAF49AD5AAD6BAD7CAD71
:1042500049A35AA36BA37CA326E93BEE29833A83A7
:104260004FEF4B834C834D831E822F8338871E8FE5
:104270004B8D5C8D6D8D7E8D49875A876B877C87D2
:104280001CA349A15AA16BA17CA14F87588B698BB4
:104290007A8B2B8B3C8B8D8B9E8BAF8BB88F0E9438
:1042A000AB1F882369F1CE018D5B9F4F0E946A1C72
:1042B00025968EAD9FAD25970E94EF0C46E050E00D
:1042C000B70189E090E00E940014CE0145960E945B
:1042D0007015CE0109960E947E15CE0103960E94AC
:1042E00077150E94230C1A8B8F859889A989BA8922
:1042F0008093993390939A33A0939B33B0939C33DC
:10430000CC5BDF4FCDBFDEBFDF91CF911F91FF9020
:10431000EF9008952091222830E0322F2227620F5B
:10432000731F90E0982F8827860F971F0C94801F8B
:10433000CF93C82F462F61E070E00E94061561E020
:1043400070E08C2F0E948A218111F9CFCF910895BE
:104350001F93CF93DF9300D0CDB7DEB7182FCE01D8
:1043600001960E946A1C89819A810E94EF0C68E084
:1043700070E0812F0E9498210E94230C0F900F90D3
:10438000DF91CF911F9108951F93CF93DF9300D0BA
:10439000CDB7DEB7182FCE0101960E946A1C898125
:1043A0009A810E94EF0C60E170E0812F0E949821B9
:1043B0000E94230C0F900F90DF91CF911F910895D1
:1043C000CF93DF93EC01888D883020F40E94C421C4
:1043D00088E0888FDF91CF91089563E070E00C94BE
:1043E0008A211F93CF93DF9300D0CDB7DEB7182F6C
:1043F000CE0101960E946A1C89819A810E94EF0C6D
:10440000812F0E94ED21182F0E94230C812F0F90E5
:104410000F90DF91CF911F910895EF92FF920F932C
:104420001F93CF93DF937C018091E231D4E08333FB
:1044300009F0D8E002ED11E3C0E0F80121913191DB
:104440008F01F701848195812817390729F0CF5F03
:10445000DC13F3CF80E006C08C2F0E94F121843161
:10446000B1F781E0DF91CF911F910F91FF90EF9015
:104470000895AF92BF92CF92DF92EF92FF920F9387
:104480001F93CF93DF93EC016B018091E231811197
:1044900020C01A821B8288EE93E0A0E0B0E08C83FB
:1044A0009D83AE83BF8384E69BEE8883998388E0F7
:1044B0008C8788EE93E08D879E87CE01DF91CF9128
:1044C0001F910F91FF90EF90DF90CF90BF90AF9032
:1044D000089524E0A22E833311F098E0A92E82EDF6
:1044E000E82E81E3F82E10E008E0B12CD7012D91E1
:1044F0003D917D01F601848195812817390771F47A
:10450000812F0E94F121083031F5873111F08C3173
:1045100011F5F701329710821182012F1F5FA1124E
:10452000E5CFB11008C0D601ED91FC910084F18572
:10453000E02DC60109951A821B8288EE93E0A0E067
:10454000B0E08C839D83AE83BF8384E69BEE88833B
:1045500099830C87AECF843139F08111DFCFF70119
:10456000329710821182DACFBB24B394D7CFCF9386
:10457000DF93EC018C858830D0F40E94F1218431E6
:1045800089F0882379F0883169F021E08C3159F481
:10459000E881F9810084F185E02DCE01099521E0C3
:1045A000892B09F420E0822FDF91CF91089580E0DC
:1045B000FBCFCF92DF92EF92FF92CF93DF93EC018C
:1045C0008C85883068F40E94A8210E945C0F6B01E2
:1045D0007C018C850E94F121811109C088E08C87C3
:1045E000DF91CF91FF90EF90DF90CF90089561E041
:1045F00070E080E090E00E942C0F0E945C0FAB0105
:10460000BC014C195D096E097F098D859E85B0E05E
:10461000A0E0481759076A077B07D8F28C850E94EB
:10462000C421DCCF1F93CF93DF9300D0CDB7DEB78B
:10463000FC01108DCE0101960E946A1C89819A812D
:104640000E94EF0C60E270E0812F0E94982162E0EE
:1046500070E0812F0E948A2184FD22C062E070E018
:10466000812F0E948A2183FF10C048E162E070E040
:10467000812F0E9406150E94230C80E090E00F908D
:104680000F90DF91CF911F9108950E94230CCE01CE
:1046900001960E946A1C89819A810E94EF0CD7CFF3
:1046A00040E162E070E0812F0E9406150E94230C19
:1046B00081E0E4CFDA01E0912228F0E0FE2FEE273E
:1046C000E60FF71F90E0982F8827A901BD018E0FF4
:1046D0009F1F0C94A31E8F929F92AF92BF92CF9276
:1046E000DF92EF92FF920F931F93CF93DF93CDB79B
:1046F000DEB76097CDBFDEBF7C019091E231992398
:1047000071F108E0933309F404E05B01CE010196F6
:104710000E946A1C89819A810E94EF0C9E012F5F82
:104720003F4F6901490110E0812F0E94ED21F40102
:1047300081934F018823D9F01F5F0113F5CF00E06B
:10474000F60181916F018D3161F0883151F08A510C
:10475000823038F00F5F1013F3CF0E94230C18E063
:104760008AC060E170E0802F0E949821102FC12E36
:10477000D12CF601EE0FFF1FEE52FE4C108211827B
:104780008AEF90E00E94E00E42E870E060E0812F46
:104790000E9406154FEF62E070E0812F0E9406151F
:1047A000B501A114B10491F48091032890910428DB
:1047B00001968115F0EC9F0708F46EC080930328E2
:1047C000909304286091032870910428812F0E94FF
:1047D000F11486E0EEE1FAEEDE01199601900D92F9
:1047E0008A95E1F7F70183818F778C8784818D87A4
:1047F00085818E87A7014E5F5F4F24E030E06CE03B
:1048000070E0812F0E94CB14B501812F0E94DC142F
:1048100026E030E0AE01475F5F4F66E070E0812F39
:104820000E94CB1461E070E0812F0E94982127E064
:104830002C9DC0012D9D900D11249C0126563E4CAF
:104840007901F9011082118222E030E0AE01415F6E
:104850005F4F68E270E0812F0E945A238F8598890C
:10486000982789279827F7018283938316821482D9
:1048700015820E94230C812F6096CDBFDEBFDF9191
:10488000CF911F910F91FF90EF90DF90CF90BF904D
:10489000AF909F908F90089580E090EC8FCFCF9253
:1048A000DF92EF92FF920F931F93CF93DF93CDB7D9
:1048B000DEB72697CDBFDEBF8C016B017A01FC010C
:1048C000808D883010F40E94C42186E99BEE898394
:1048D0009A83F60182819381A481B5818B839C8325
:1048E000AD83BE83B701CE0101960E946B23F80110
:1048F000808F883088F4E486F586118E128E81E0F0
:104900002696CDBFDEBFDF91CF911F910F91FF9013
:10491000EF90DF90CF90089580E0F2CF7F928F925A
:104920009F92AF92BF92CF92DF92EF92FF920F933E
:104930001F93CF93DF9300D0CDB7DEB7782E8B01D6
:104940004A01590122E030E0AE014F5F5F4F64E25F
:1049500070E00E945A23E980FA80FE24EF24FE24AE
:10496000E00EF11E970137704091E231072D10E003
:10497000433309F042C0085F1F4F102F0027110F6B
:10498000110F110FC901800F911F4733C9F1A90100
:104990004A0D5B1D4130584098F160E078E06B01B2
:1049A000C21AD30AA601B4010E940014A5014C1931
:1049B0005D09B4016C0D7D1DC8010E940014EA0C54
:1049C000FB1CF982EA8222E030E0AE014F5F5F4FCC
:1049D00064E270E0872D0E94CB140F900F90DF915E
:1049E000CF911F910F91FF90EF90DF90CF90BF90EC
:1049F000AF909F908F907F900895005F1F4FBDCF25
:104A0000A501B401DACFEF92FF921F93CF93DF930A
:104A100000D0CDB7DEB7182F22E030E0AE014F5FF7
:104A20005F4F60E270E00E945A23E980FA80FE2422
:104A3000EF24FE2422E030E0AE014F5F5F4F60E2E2
:104A400070E0812F0E945A2389819A8198278927B3
:104A50009827E816F90689F487E0189FF0011124D9
:104A6000E656FE4CE482F582C7010F900F90DF916D
:104A7000CF911F91FF90EF9008957C01DBCFFF92C3
:104A80000F931F93CF93DF9300D0CDB7DEB7F82EEF
:104A9000CE0101960E946A1C89819A810E94EF0CC6
:104AA0008F2D0E9403258C018F2D0E94ED21F82E61
:104AB0000E94230C87E1F81629F08CE1F81611F01A
:104AC00010E000E0C8010F900F90DF91CF911F918F
:104AD0000F91FF900895CF93DF93EC018C85883080
:104AE00060F40E94F121873111F08C3131F48C8512
:104AF0000E943F258115984088F3DF91CF9108955A
:104B0000FC0124A1283018F448960C946B250895D4
:104B1000FC018485883010F40C943F2590E080E0FF
:104B20000895AF92BF92CF92DF92EF92FF920F93D0
:104B30001F93CF93DF9300D0CDB7DEB7F82E6B0174
:104B40008A014130584010F000E018E0CE01019693
:104B50000E946A1C89819A810E94EF0C8F2D0E940D
:104B600003255C018F2D0E94ED21E82E0E94230C6D
:104B700087E1E81619F08CE1E81235C0A016B106FD
:104B800028F3CE0101960E946A1C89819A810E94B5
:104B9000EF0C9801A60170E060E08F2D0E948E243A
:104BA00060E270E08F2D0E94982162E070E08F2D0E
:104BB0000E948A2184FD25C08F2D0E94ED21811144
:104BC00015C00E94230C10E000E0C8010F900F9068
:104BD000DF91CF911F910F91FF90EF90DF90CF90D9
:104BE000BF90AF90089510E000E0CBCF0E94230C5F
:104BF000CE0101960E946A1C89819A810E94EF0C65
:104C0000D4CF40E162E070E08F2D0E9406150E9433
:104C1000230CDBCF0F931F93CF93DF938C01EA011B
:104C2000FC018485883048F40E949125892B39F451
:104C300081E090E0F80182839383D0E0C0E0CE0170
:104C4000DF91CF911F910F9108957F928F929F9244
:104C5000AF92BF92CF92DF92EF92FF920F931F938A
:104C6000CF93DF9300D0CDB7DEB77C014B01742E1C
:104C7000C52EFC01A688B788D08CCE0101960E9473
:104C80006A1C89819A810E94EF0C8D2D0E94032558
:104C9000072D1C2D8017910708F48C019801A401A1
:104CA000B5018D2D0E948E240E94230CF701868968
:104CB0009789800F911F868B978BC8010F900F905B
:104CC000DF91CF911F910F91FF90EF90DF90CF90E8
:104CD000BF90AF909F908F907F900895FF920F9319
:104CE0001F93CF93DF9300D0CDB7DEB7F82E22E02D
:104CF00030E0AE014F5F5F4F66E270E00E945A23E2
:104D000009811A8110270127102722E030E0AE0127
:104D10004F5F5F4F66E270E08F2D0E945A238981BA
:104D20009A819827892798270817190749F4C801F5
:104D30000F900F90DF91CF911F910F91FF900895E9
:104D40008C01E3CFEF92FF920F931F93CF93DF93EA
:104D500000D0CDB7DEB7182F87E0189F900111243F
:104D6000F901E656FE4C7F01808191810097B1F4F4
:104D7000CE0101960E946A1C89819A810E94EF0CE3
:104D8000812F0E946E268C010E94230CF7018681E0
:104D90009801281B3109C901208331830F900F909E
:104DA000DF91CF911F910F91FF90EF9008959F9207
:104DB000AF92BF92CF92DF92EF92FF920F931F9329
:104DC000CF93DF93EC017B018091E231811121C00F
:104DD0001A821B8288EE93E0A0E0B0E08C839D8372
:104DE000AE83BF8384E69BEE8883998388E08C87BB
:104DF00088EE93E08D879E87CE01DF91CF911F9142
:104E00000F91FF90EF90DF90CF90BF90AF909F9069
:104E1000089534E0932E833311F028E0922E82ED32
:104E2000C82E81E3D82E10E098E0B92EA12CD6012F
:104E30002D913D916D01F7018481958128173907E6
:104E400091F4812F0E94F121082F873111F08C31CC
:104E500039F5812F0E94A226892B59F50C3119F4BE
:104E6000812F0E94A8211F5F9112E1CFA11008C0DD
:104E7000D701ED91FC910084F185E02DC7010995E2
:104E80001A821B8288EE93E0A0E0B0E08C839D83C1
:104E9000AE83BF8384E69BEE88839983BC86A8CFCC
:104EA000843149F08111DFCFF601329710821182EF
:104EB000DACFB12ED8CFAA24A394D5CF8F929F92C8
:104EC000AF92BF92CF92DF92EF92FF920F931F9318
:104ED000CF93DF93CDB7DEB72F97CDBFDEBF5C0199
:104EE0004B017A018091E2318823B1F104E08333F0
:104EF00009F008E0B501CE0101960E94D72682EDA7
:104F0000C82E81E3D82E10E0F601219131916F0176
:104F1000F501848195812817390751F4812F0E946A
:104F2000F121873129F4A701B401812F0E94912535
:104F30001F5F0113E9CFC7012F96CDBFDEBFDF9101
:104F4000CF911F910F91FF90EF90DF90CF90BF9086
:104F5000AF909F908F900895F12CE12CECCFEF92C1
:104F6000FF920F931F93CF93DF93CDB7DEB72F97A9
:104F7000CDBFDEBF8C017C0188E1E80EF11CF80199
:104F800084A1883030F5C7010E94B72281111DC06D
:104F9000C7010E94D9221B821C8288EE93E0A0E008
:104FA000B0E08D839E83AF83B88784E69BEE8983D0
:104FB0009A8388E08D8788EE93E08E879F87BE0175
:104FC0006F5F7F4FC7010E945417F80184A188309A
:104FD00068F0F80166897789CE0101960E94D7268C
:104FE000BE016F5F7F4FC7010E945417F80184A173
:104FF000883038F40E945C0FF80165A776A787A770
:1050000090AB2F96CDBFDEBFDF91CF911F910F9157
:10501000FF90EF900895CF93DF93EC010E94AF27AC
:10502000CE0148962CA1283020F4DF91CF910C942A
:10503000661F8FEF9FEFDF91CF910895FC0184856C
:10504000883010F40C94A22690E080E00895EF924E
:10505000FF920F931F93CF93DF93CDB7DEB72F97B8
:10506000CDBFDEBFFC0126893789232B61F490E098
:1050700080E02F96CDBFDEBFDF91CF911F910F91C2
:10508000FF90EF9008958C010E94AF277801F8E11E
:10509000EF0EF11CF80184A1883060F066897789F1
:1050A000CE0101960E94D726BE016F5F7F4FC701D8
:1050B0000E945417F80184A18830C8F6C7010E94E5
:1050C0001E28D7CF4F925F927F928F929F92AF927E
:1050D000BF92CF92DF92EF92FF920F931F93CF93E5
:1050E000DF9300D0CDB7DEB7782E6B014A01A82E32
:1050F000B12C27E0829FC0011124FC01E656FE4C32
:105100007F0100811181CE0101960E946A1C898174
:105110009A810E94EF0C0815190554F4872D0E94FE
:105120006E26F70126818C01021B11090083118371
:105130000115110529F5872D0E94ED21843159F0C3
:10514000882349F001E010E08C3111F410E000E018
:105150001195019511090E94230CC8010F900F9021
:10516000DF91CF911F910F91FF90EF90DF90CF9043
:10517000BF90AF909F908F907F905F904F900895D9
:10518000801691060CF4840187E08A9DF0018B9DC6
:10519000F00D1124E656FE4CE280F380C114D104D8
:1051A00051F12701F7E05F22872D0E94BD14840D85
:1051B000951D2091E231273309F453C09801240D45
:1051C000351D2130384008F44CC020E038E049015A
:1051D00084189508A401B6010E94A31E2601480C5C
:1051E000591C6801C818D908872D0E94BD14A60152
:1051F000B2010E94A31EE00EF11E87E08A9DF0011D
:105200008B9DF00D1124E656FE4CE282F382208144
:105210003181201B310B208331838681800F912FB8
:10522000911D8A3F910510F4232BF1F487E08A9DAC
:10523000F0018B9DF00D1124E656FE4C1682F9828A
:10524000EA8222E030E0AE014F5F5F4F68E270E03B
:10525000872D0E94CB1460E470E0872D0E94982176
:105260007ACFA801B601C5CF868375CFCF93DF93E0
:10527000FC01218D328D2115310529F48FEF9FEF2F
:10528000DF91CF910895EC01808D4217530708F00C
:10529000A9010E9462281816190684F7298D3A8DF3
:1052A000281B390B298F3A8FEBCF0F931F93CF9386
:1052B000DF931F92CDB7DEB7FC01218D328D232BFA
:1052C00041F48FEF9FEF0F90DF91CF911F910F91DE
:1052D00008958C0141E050E0BE016F5F7F4FFC01FB
:1052E000808D0E946228181619065CF7F801818DDE
:1052F000928D0197818F928F898190E0E4CFCF9337
:10530000DF931F92CDB7DEB741E050E0BE016F5F83
:105310007F4FFC0184850E9462281816190634F418
:10532000898190E00F90DF91CF9108958FEF9FEFEB
:10533000F9CFCF93DF93EC010E94AF27CE014896BF
:105340002CA1283020F4DF91CF910C947F298FEF8E
:105350009FEFDF91CF910895FC018485883010F490
:105360000C94622890E080E008958F929F92BF9203
:10537000CF92DF92EF92FF920F931F93CF93DF9321
:10538000CDB7DEB72A97CDBFDEBF9091E23199232A
:1053900079F108E0933309F404E06B01B82ECE01F3
:1053A00001960E946A1C89819A810E94EF0C9E01DD
:1053B0002F5F3F4F7901490110E0812F0E94ED21BD
:1053C000F40181934F018823D9F01F5F0113F5CFBA
:1053D00000E0F70191917F019D3161F0983151F02A
:1053E0009A51923038F00F5F1013F3CF0E94230CC4
:1053F00018E060C060E170E0802F0E949821102FBB
:10540000E12EF12CF701EE0FFF1FEE52FE4C108241
:1054100011828AEF90E00E94E00E4B2D70E060E078
:10542000812F0E9406154FEF62E070E0812F0E94ED
:105430000615B601CD2891F4809103289091042897
:1054400001968115F0EC9F0708F444C0809303286F
:10545000909304286091032870910428812F0E9462
:10546000F11461E070E0812F0E94982127E02E9DC9
:10547000C0012F9D900D11249C0126563E4C7901B0
:10548000F9011082118222E030E0AE01475F5F4FE8
:1054900068E270E0812F0E945A2389859A859827B7
:1054A00089279827F70182839383168214821582B5
:1054B0000E94230C812F2A96CDBFDEBFDF91CF91B2
:1054C0001F910F91FF90EF90DF90CF90BF909F9032
:1054D0008F90089580E090ECB9CF0F931F93CF93F6
:1054E000DF93EC018B01888D883010F40E94C42179
:1054F000B80182E00E94B529888F883050F40C876B
:105500001D87198E1A8E81E0DF91CF911F910F9127
:10551000089580E0F9CFEF92FF921F93CF93DF932E
:1055200000D0CDB7DEB77C01FC016481758181E2DA
:105530000E94B529182F883090F4CE0101960E9460
:105540006A1C89819A810E94EF0C812F0E94ED21B3
:10555000833169F00E94230C812F0E94A8210F90B3
:105560000F90DF91CF911F91FF90EF90089562E02F
:1055700070E0812F0E9498210E94230CF701848102
:105580009581E12FF0E0EE0FFF1FEE52FE4C80837D
:105590009183E5CFAF92BF92CF92DF92EF92FF92CD
:1055A0000F931F93CF93DF9300D0CDB7DEB78C015D
:1055B0006B015A01FC018485883058F40E94F12166
:1055C000882321F0F80184850E94A82188E0F80151
:1055D0008487F60182819381A481B5810097A1051A
:1055E000B10579F490E080E00F900F90DF91CF91BA
:1055F0001F910F91FF90EF90DF90CF90BF90AF90F1
:1056000008958F3F9F4FAF4FBF4F61F370E060E051
:1056100081E20E94B529F82EF8018487F7E0F81797
:1056200008F3CE0101960E946A1C89819A810E942A
:10563000EF0CA6014E5F5F4F24E030E06CE070E0BD
:105640008F2D0E94CB14B5018F2D0E94DC1464E0D5
:1056500070E08F2D0E9498210E94230C0E945C0F05
:105660006B017C01F80184850E94F121873129F1C9
:105670008C3119F1882309F4B5CF0E945C0FAB017E
:10568000BC014C195D096E097F09F8018585968575
:10569000B0E0A0E084179507A607B70738F061E0EF
:1056A00070E080E090E00E942C0FDCCF84850E94A7
:1056B000C42188E0F801848795CF81E090E094CF01
:1056C0000F931F93CF93DF9300D0CDB7DEB7FC01CC
:1056D000248510E000E02830D8F48C01CE0101963A
:1056E0000E946A1C89819A810E94EF0C22E030E0BE
:1056F000AE014F5F5F4F60E170E0F80184850E946A
:105700005A2309811A811027012710270E94230C90
:10571000C8010F900F90DF91CF911F910F910895C5
:105720000F931F93CF93DF9300D0CDB7DEB7FC016B
:10573000248510E000E02830D8F48C01CE010196D9
:105740000E946A1C89819A810E94EF0C22E030E05D
:10575000AE014F5F5F4F64E070E0F80184850E9406
:105760005A2309811A811027012710270E94230C30
:10577000C8010F900F90DF91CF911F910F91089565
:105780000F931F93CF93DF9300D0CDB7DEB78C017B
:1057900086E99BEEF8018083918312821382148242
:1057A0001582CE0101960E946A1C89819A810E940D
:1057B000EF0CB8016E5F7F4F44E050E08FE090E067
:1057C0000E94A31E0E94230CC8010F900F90DF912E
:1057D000CF911F910F9108952F923F924F925F9218
:1057E0006F927F928F929F92AF92BF92CF92DF92F1
:1057F000EF92FF920F931F93CF93DF93CDB7DEB756
:10580000C651D240CDBFDEBF4C018B017A01CD5FC6
:10581000DD4F18821982C350D2408EED9AEECF5FD1
:10582000DD4F88839983C150D240CB5FDD4F8882A2
:105830009982C550D240C55FDD4F18821982CB5086
:10584000D240CE010196C95FDD4F88839983C7504E
:10585000D24080E092E0C75FDD4F88839983C950D2
:10586000D240672B09F45DC26AED7BEEC8010E944D
:10587000B951892B09F083C062EB76E1CE018F5FCD
:105880009D4F0E94E20F64EE73E1CE018F5F9D4F4A
:105890000E94E20FB701CE018F5F9D4F0E940E1D47
:1058A00067ED73E1CE018F5F9D4F0E94E20F61E8CB
:1058B00073E1CE018F5F9D4F0E94E20FCE01835FA7
:1058C0009D4F0E94C02BBE01635F7D4FCE018F5F55
:1058D0009D4F0E94AB1D66EF72E1CE018F5F9D4F21
:1058E0000E94E20FCE01835F9D4F0E94C02BBE013C
:1058F000635F7D4FCE018F5F9D4F0E94AB1D6DE6B4
:1059000072E1CE018F5F9D4F0E94E20F6CE470E167
:10591000CE018F5F9D4F0E94E20F6CED7BEECE01BA
:105920008F5F9D4F0E94B01D62EE7BEECE018F5FB8
:105930009D4F0E94B01D67EE7BEECE018F5F9D4FA5
:105940000E94B01D6DEE7BEECE018F5F9D4F0E94D9
:10595000B01D62EF7BEECE018F5F9D4F0E94B01DA8
:1059600068EB78E0CE018F5F9D4F0E94E20F67EAFF
:1059700078E0CE018F5F9D4F0E94E20F14C061E07E
:105980007CEEC8010E94B951892B49F566E077E1A8
:10599000CE018F5F9D4F0E94E20FB701CE018F5F56
:1059A0009D4F0E940E1DCE018F5F9D4F0E943713A9
:1059B000CA5EDD4FCDBFDEBFDF91CF911F910F914A
:1059C000FF90EF90DF90CF90BF90AF909F908F901F
:1059D0007F906F905F904F903F902F90089566E07A
:1059E0007CEEC8010E94B9517C01892B09F09BC053
:1059F00066E077E1CE018F5F9D4F0E94E20FC0907D
:105A0000B133D090B23383E290E08093B13390937E
:105A1000B23310E000E0812C912C540122E0322EB0
:105A2000412C512C320143948091AB33801759F1B2
:105A300061E0802F0E94B21981112AC060E880E8DD
:105A40000E94021880E496E00E94E00E81E10E942C
:105A5000590E81110EC0D301C201002E04C0880F5F
:105A6000991FAA1FBB1F0A94D2F7882A992AAA2A2B
:105A7000BB2A60E880E80E9402186EE180E00E9484
:105A800005183092FF330F5F1F4F0F31110561F67C
:105A9000C092B133D092B23360E880E80E9402181D
:105AA0006EE180E00E94051882E08093FF33D5010B
:105AB000C4010E2C04C0B695A795979587950A94B6
:105AC000D2F780FF28C067E978E0CE018F5F9D4F55
:105AD0000E94E20FB701CE018F5F9D4F0E940E1D05
:105AE00064E978E0CE018F5F9D4F0E94E20F6BE08A
:105AF0007CEECE018F5F9D4F0E94B91CB701CE0195
:105B00008F5F9D4F0E940E1D6AE878E0CE018F5F87
:105B10009D4F0E94E20F2FEFE21AF20A30E2E316E5
:105B2000F10429F640CF43E050E061E17CEEC8018A
:105B30000E94C951892B09F0F4C03E018BEE681A0E
:105B40008DEF780A8FEF9FEFF301808391832E0111
:105B5000FDEE4F1AFDEF5F0AF201808391837E0113
:105B6000F3EFEF1AFDEFFF0AF70180839183FF92B5
:105B7000EF925F924F927F926F9285E19CEE9F939E
:105B80008F931F930F930E94FA51CDBFDEBF0297F0
:105B900009F0C7C0F70120813181121613060CF0FD
:105BA000C0C0F30180819181039708F0BAC0F2016F
:105BB0008081918101974F9708F0B3C0020F131FA6
:105BC00058017801F7013080332049F1F5E23F12A6
:105BD00023C0F70181818823F9F022802220E1F09F
:105BE0000E94D93B6C01822D0E94D93BD7FC14C086
:105BF00097FD12C094E0CC0CDD1C9A95E1F7C82A01
:105C0000F501C082F2E0EF0EF11CFFEFEF1AFF0A80
:105C10002FEFA21AB20AD6CFF5013082F6CFF501E6
:105C2000108278010F5F1F4FF7018081082E000C52
:105C3000990B0E94FB4C892BA1F7F70101900020E2
:105C4000E9F78F0101501109F80182916F01082EC7
:105C5000000C990B0E94FB4C892B79F5F8011082FE
:105C600066E077E1CE018F5F9D4F0E94E20FF30166
:105C700080819181029718F5F201808191819C01C8
:105C8000215031092F313105B0F48093AC339FEFAF
:105C90009093AD3361E00E94B219F70101900020AA
:105CA000E9F73197BF016E197F0941E0C7010E94F2
:105CB000DB190E949F1981E003C08601C5CF80E0F7
:105CC000F301208131812230310551F0232B39F548
:105CD000F70101900020E9F7329790819F33F9F4A2
