:100200000C94A4070C94CC070C94CC070C94CC074A
:100210000C94CC070C94CC070C94CC070C94CC0712
:100220000C94CC070C94CC070C94CC070C94CC0702
:100230000C94CC070C94CC070C9497340C943A355E
:100240000C94CC070C9469340C9443340C94CC0774
:100250000C94CC070C94CC070C94CC070C94CC07D2
:100260000C94CC070C941B340C94CC070C94CC0746
:100270000C94CC070C94CC070C94CC070C94CC07B2
:100280000C94CC070C94CC070C94CC070C94CC07A2
:100290000C94CC070C94CC070C94CC070C94CC0792
:1002A0006364696E6F70737578585B003F202D2012
:1002B0004D656E750032202D20536574206465668F
:1002C00061756C7420696E737472756D656E7420DF
:1002D000616464726573730031202D20536574204E
:1002E00049502061646472657373000A436F6D6DD9
:1002F000616E642061626F727465642E000A496EDB
:1003000076616C696420495020616464726573731E
:1003100020666F726D61742E00596F752077696C5D
:100320006C206E65656420746F207265626F6F74F7
:10033000206E6F772E000A49502041646472657305
:10034000732077696C6C2062652073657420746F0C
:100350003A2000456E746572207468652064657388
:10036000697265642049502061646472657373200A
:1003700028302E302E302E30206D65616E733A207D
:100380007573652044484350293A200076696120FE
:10039000444843502E00436F6E666967757265640A
:1003A00020495020416464726573733A20000A4307
:1003B000757272656E742049502041646472657371
:1003C000733A20000A436F6D6D616E642061626F45
:1003D000727465642E000A496E76616C69642069E6
:1003E0006E737472756D656E74206164647265738A
:1003F000732E00596F752077696C6C206E6565648B
:1004000020746F207265626F6F74206E6F772E009C
:100410000A44656661756C7420496E737472756DFB
:10042000656E7420616464726573732077696C6CA7
:100430002062652073657420746F3A2000456E74E5
:1004400065722074686520646573697265642064F0
:10045000656661756C7420696E737472756D656E16
:100460007420616464726573732028302D333029E1
:100470002C20776974682030206265696E6720746B
:10048000686520676174657761793A20000A437571
:100490007272656E742064656661756C7420696E35
:1004A000737472756D656E742061646472657373C4
:1004B0003A20002D205352414D206C6566743A203D
:1004C00000454550524F4D2064617461207365743E
:1004D00020746F2064656661756C742E004352430E
:1004E00020636865636B206661696C65642E2045D6
:1004F000726173696E6720454550524F4D2E2E2E06
:100500002E00454550524F4D206861732064617440
:10051000612E002121204E6F2076616C6964204994
:100520005020616464726573732061737369676ED0
:1005300065642E20506C6561736520636865636B2C
:1005400020796F7572206E6574776F726B2073659A
:100550007474696E67732E0049502041646472653B
:1005600073733A20004D6178696D756D206E756DFD
:10057000626572206F662063686172616374657280
:1005800073206973207265616368656420696E20F9
:100590006120636F6D6D616E642074657874000016
:1005A000536574757020636F6D706C6574652E0093
:1005B0005374617274696E672053657269616C204F
:1005C0004D656E752E2E2E005374617274696E67C0
:1005D0002057656220736572766572206F6E207099
:1005E0006F72742038302E2E2E005658492D31311E
:1005F00020736572766572732073746172746564BA
:10060000005374617274696E67205658492D3131F8
:1006100020706F7274206D617070657273206F6EE0
:100620002054435020616E6420554450206F6E204A
:10063000706F7274203131312E2E2E00537461721E
:1006400074696E67205658492D313120544350202B
:1006500052504320736572766572206F6E20706F02
:10066000727420393031302E2E2E00576169746932
:100670006E6720666F7220444843502E2E2E005421
:1006800068652064657669636573277320646566B1
:1006900061756C74206164647265737320706F6936
:1006A0006E747320746F20475049422061646472F5
:1006B0006573732000436F6E6669677572696E6754
:1006C00020616E64205374617274696E67204750B4
:1006D0004942206275732E2E2E004D414320416405
:1006E00064726573733A200045746865726E657450
:1006F00032475049422047617465776179207631ED
:100700002E31202841523438382076302E35332E81
:100710003033290A00544350207061636B657420A4
:100720007265636569766564005544502070616345
:100730006B657420726563656976656400206F6E11
:1007400020706F7274200044455354524F59204C0E
:10075000494E4B204C49443D003B2064617461206C
:100760003D20003B20677069625F6164647265735D
:10077000733D00206F6E20706F72742000575249D5
:1007800054452044415441204C49443D00202D3ED5
:10079000204C49443D0022206F6E20706F727420FF
:1007A00000435245415445204C494E4B20726571DF
:1007B000756573742066726F6D202200496E7661D4
:1007C0006C6964205658492D31312070726F636511
:1007D00064757265202872656365697665642000BA
:1007E0004552524F523A20496E76616C69642070CE
:1007F000726F6772616D20286578706563746564D7
:10080000205658495F31315F434F5245203D2030DB
:100810007836303741463B2072656365697665649A
:10082000203078002066726F6D2072656D6F746580
:1008300020706F72742000206F6620736C6F7420BC
:1008400000436C6F73696E672056584920636F6E62
:100850006E656374696F6E206F6E20706F727420A6
:10086000002066726F6D2072656D6F746520706F09
:100870007274200056584920636F6E6E6563746908
:100880006F6E206C696D6974207265616368656460
:10089000206F6E20706F727420002066726F6D2062
:1008A00072656D6F746520706F7274200020696EC0
:1008B00020736C6F7420004E657720565849206372
:1008C0006F6E6E656374696F6E206F6E20706F72ED
:1008D0007420002066726F6D2072656D6F746520E4
:1008E000706F72742000206F6620736C6F7420002C
:1008F000466F72636520436C6F73696E672056584C
:100900004920636F6E6E656374696F6E206F6E2031
:10091000706F72742000202D3E2063616E63656CE1
:100920006C6174696F6E202100202D3E2063616E22
:1009300063656C6C6174696F6E202100202D3E2010
:10094000746F6F206D616E7920617267756D656E71
:100950007473202120286F6E652063686172616363
:10096000746572206F6E6C79290000202D3E204E38
:100970006F20636F6D6D616E6420636F6465206DC1
:1009800061746368696E67202100202D3E20746FBA
:100990006F206D616E7920617267756D656E74731D
:1009A000202120286F6E6520636861726163746521
:1009B00072206F6E6C792900485454502F312E31BB
:1009C00020343034204E6F7420466F756E640A00F8
:1009D0002066726F6D2072656D6F746520706F7226
:1009E00074200053656E74206461746120616E64CC
:1009F00020436C6F73696E672057656220636F6E6A
:100A00006E656374696F6E206F6620736C6F7420FF
:100A10000022003A202200476F7420636F6D706CD3
:100A20006574652072657175657374206F6E2073CF
:100A30006C6F74200057656220636F6E6E6563741F
:100A4000696F6E206C696D69742072656163686599
:100A5000642066726F6D2072656D6F746520706FB3
:100A6000727420002066726F6D2072656D6F746500
:100A700020706F727420004E657720576562206386
:100A80006F6E6E656374696F6E20696E20736C6F34
:100A90007420002066726F6D2072656D6F74652022
:100AA000706F72742000466F72636520436C6F73C1
:100AB000696E672057656220636F6E6E6563746947
:100AC0006F6E206F6620736C6F7420004950204158
:100AD00064647265737320686173206265656E205B
:100AE00061737369676E65643A2000457468657266
:100AF0006E6574206C696E6B206973204F4B206E9D
:100B00006F770020506C6561736520696E666F7247
:100B10006D20796F757220636C69656E7473210046
:100B200021212049502041646472657373206368F9
:100B3000616E6765643A20002069732077726F6E7A
:100B4000672E20506C6561736520636865636B2058
:100B500044484350210049502041646472657373D6
:100B6000200045746865726E6574206C696E6B2038
:100B70006973204F464600504F52544D41503A2021
:100B800061737369676E656420746F20706F72742F
:100B900020004552524F523A20504F52544D41502E
:100BA000206661696C65643A207678695F73657266
:100BB000766572206E6F7420617661696C61626C1B
:100BC000652E005443500055445000504F52544D30
:100BD000415020636F6D6D616E642072656365695D
:100BE000766564206F6E20004552524F523A20497C
:100BF0006E76616C69642070726F6365647572658E
:100C000020286578706563746564204745545F509B
:100C10004F5254203D20333B2072656365697665F1
:100C20006420004552524F523A20496E76616C69F9
:100C3000642070726F6772616D20286578706563DB
:100C400074656420504F52544D4150203D203078FF
:100C500031383641303B20726563656976656420C2
:100C60003078003B2064617461203D20003B2067A8
:100C70007069625F616464726573733D00206F6EBA
:100C800020706F7274200052454144204441544109
:100C9000204C49443D003A3A677069622C3C693EF9
:100CA0004E3C2F693E3A3A494E5354523C2F623ED5
:100CB000206F72203C623E2E2E2E3A3A696E73747B
:100CC0003C693E4E3C2F693E3A3A494E5354523CA1
:100CD0002F623E2C207768657265203C693E4E3C51
:100CE0002F693E20697320746865697220616464AD
:100CF00072657373206F6E20746865204750494297
:100D0000206275732028312E2E3330293C2F703EFF
:100D1000003A3A494E5354523C2F623E2028756E99
:100D20006C65737320796F752068617665207365D3
:100D300074207468652064656661756C7420696EE2
:100D4000737472756D656E7420616464726573731B
:100D500020746F20736F6D657468696E6720656CB1
:100D60007365207468616E2030293C2F703E3C70A2
:100D70003E496E737472756D656E74733A203C6291
:100D80003E54435049503A3A003C703E5649534114
:100D900020636F6E6E656374696F6E207374726921
:100DA0006E67733A3C2F703E3C703E436F6E7472B8
:100DB0006F6C6C65723A203C623E54435049503A25
:100DC0003A003C68323E5658492D3131204574680E
:100DD00065726E6574205365727665723C2F683259
:100DE0003E003C2F703E003C703E4E756D62657259
:100DF000206F6620636F6E6E656374696F6E733A01
:100E000020003C68313E45746865726E65743247F7
:100E100050494220476174657761792076312E31DF
:100E2000202841523438382076302E35332E303356
:100E3000290A3C2F68313E003C21444F435459500D
:100E4000452048544D4C3E0A3C68746D6C3E3C68ED
:100E50006561643E3C7469746C653E457468657296
:100E60006E657432475049423C2F7469746C653E1C
:100E70003C7374796C653E626F6479207B20666F89
:100E80006E742D66616D696C793A20417269616C8E
:100E90002C2073616E732D73657269663B207D3CF7
:100EA0002F7374796C653E3C2F686561643E3C62CB
:100EB0006F64793E00485454502F312E3120323027
:100EC00030204F4B0A436F6E74656E742D547970E9
:100ED000653A20746578742F68746D6C0A436F6E80
:100EE0006E656374696F6E3A20636C6F73650A5246
:100EF0006566726573683A20350A0A00496E746542
:100F00007266616365206D697374616B65207769D2
:100F10007468206C696272617279205365726961CC
:100F20006C53657269616C4D656E75436D64004EFE
:100F30006F204D656E7520696E206D656D6F7279DD
:100F4000003E0000BA369D3611241FBECFEFCDBF44
:100F5000DFE3DEBF18E2A0E0B8E2ECE2F4EA02C0B0
:100F600005900D92AC31B107D9F72EE2ACE1B8E2B1
:100F700001C01D92A93AB207E1F717E0C3EAD7E032
:100F800004C02197FE010E94B64CC23AD107C9F7AE
:100F90000E948A380C94F3500C940001FC01BC01AF
:100FA000695A7F4F8FEF9FEF2191322F3927232FDF
:100FB00022952F702327422F50E0382FCA01982FF7
:100FC00088279295907F28273927CA01B5E0880F96
:100FD000991FBA95E1F7822793276E177F0721F7AC
:100FE00008958F929F92AF92BF92CF92DF92EF922D
:100FF000FF920F93CF93DF9380913C2C882319F0BD
:1010000081FF0DC07894DF91CF910F91FF90EF9009
:10101000DF90CF90BF90AF909F908F90089580FF0A
:10102000F2CF80903E2C90903F2CA090402CB0901E
:10103000412CC12CD12C7601E0E09401A501B60130
:10104000C701A0E00E94AA4C91F1217030E040E07D
:1010500050E060E070E080E090E00E94AA4CD1F0A7
:10106000B0E0A0E0E03370F4AE2FA695A695A6956B
:1010700080E2A89FD0011124A05FBB4F8E2F877004
:10108000A80FB11DCE2FD0E0CA5CD34D88899C91AA
:10109000892B8C939401A501B601C70101E00E9440
:1010A0008F4C49015A016B017C01EF5FC6CF8090E4
:1010B000422C9090432CA090442CB090452CC12CF5
:1010C000D12C7601E0E29401A501B601C701A0E0B0
:1010D0000E94AA4C09F497CF217030E040E050E024
:1010E00060E070E080E090E00E94AA4CD1F0B0E0B7
:1010F000A0E0E03370F4AE2FA695A695A69580E209
:10110000A89FD0011124A05FBB4F8E2F8770A80F1E
:10111000B11DCE2FD0E0CA5CD34D88899C91892B1C
:101120008C939401A501B601C70101E00E948F4C88
:1011300049015A016B017C01EF5FC5CF000080932C
:10114000C4088091C30887FFFCCF8091C40808952C
:101150000F931F93CF93DF93EC018C01060F171FA2
:10116000C017D10729F088810E949E088993F8CF83
:10117000DF91CF911F910F9108958F929F92AF921F
:10118000BF92CF92DF92EF92FF920F931F93CF9374
:10119000DF93182FF92F80913C2C882319F081FFC1
:1011A00012C0F8941093C008F093C108DF91CF915A
:1011B0001F910F91FF90EF90DF90CF90BF90AF9075
:1011C0009F908F90089580FFEDCF80903E2C90905F
:1011D0003F2CA090402CB090412CC12CD12C7601FA
:1011E000E0E09401A501B601C701A0E00E94AA4C6D
:1011F000A9F1217030E040E050E060E070E080E074
:1012000090E00E94AA4CE9F0D0E0C0E0E03370F436
:10121000CE2FC695C695C69580E2C89FE0011124E1
:10122000C05FDB4F8E2F8770C80FD11D8E2F90E0CF
:1012300028818A5C934DDC0150962C938881887FAD
:1012400088839401A501B601C70101E00E948F4C7B
:1012500049015A016B017C01EF5FC3CF8090422CA2
:101260009090432CA090442CB090452CC12CD12CB4
:101270007601E0E29401A501B601C701A0E00E9459
:10128000AA4C09F48FCF217030E040E050E060E0DC
:1012900070E080E090E00E94AA4CE9F0D0E0C0E06D
:1012A000E03370F4CE2FC695C695C695B0E2CB9FBD
:1012B000E0011124C05FDB4F8E2F8770C80FD11D56
:1012C0008E2F90E028818A5C934DDC0150962C9300
:1012D0008881887F88839401A501B601C70101E058
:1012E0000E948F4C49015A016B017C01EF5FC2CF14
:1012F00020E3FC0120833296862F82958F706F70D9
:101300006A3030F4605D6293682F8111F5CF0895E3
:10131000695CF9CFFC01818D928D08950895CF937A
:10132000DF9390E0FC01ED56FD4120812F3F61F0FD
:10133000FC01E659FD41E08130E2E39FF001112418
:10134000FC5F613021F42183DF91CF9108958F5BA1
:101350009D41EC01A881AF3F69F0CF014096A80FF5
:10136000B92FB11D9FB7F89422838C9188608C931C
:101370009FBFEACFB0E0A0E0F5CF90E0FC01E85ECF
:10138000FD41E081EE2319F1E13021F000F1E6307A
:10139000A8F008958F5B9D41FC012081233008F067
:1013A0002F5F3091010A81E090E001C0880F2A95FB
:1013B000EAF7809583238093010A089580E1E89FEE
:1013C000F0011124E05AF54F81818F7E81830895C9
:1013D0000F931F93CF93DF93C82FD0E0FE01ED56FC
:1013E000FD4100810F3FA1F0162F893210F40E94B9
:1013F000BD09FE01E659FD41E08180E2E89FF00170
:101400001124FC5F8081802351F0111106C00683F6
:10141000DF91CF911F910F9108950583F9CFCF5B95
:10142000DD418881309771F08F3F61F07096E80F51
:10143000F11D9FB7F8948081111107C0877F8083C9
:101440009FBFE6CFF0E0E0E0F4CF8860F8CF0F93E5
:101450001F93CF93082F10E0F801ED56FD41C08196
:10146000CF3F79F00E94BD09F801E659FD41E081C6
:1014700080E2E89FF0011124FC5F8085C82381E0B1
:1014800009F480E0CF911F910F910895893210F4F3
:101490000C94E8090895EF92FF920F931F93CF9356
:1014A000DF93E82EF12CF701EF5BFD4100810F3F48
:1014B000D9F1EB01182F61E00E948F09209751F4B8
:1014C00060E0812FDF91CF911F910F91FF90EF90FE
:1014D0000C94460ACF3FD10511F461E0F2CFF70139
:1014E000E85EFD41E081E13039F010F0E63030F1A6
:1014F000C038D10594F7E4CFE02FF0E0EE0FFF1FE6
:101500000330C8F0ED5DF54F0F5F8FB7F894C083DF
:101510008FBF8091010A21E030E001C0220F0A95BF
:10152000EAF7822B8093010ADF91CF911F910F91EF
:10153000FF90EF900895E85DF54FE7CF80E1E89FD9
:10154000F0011124E05AF54F8FB7F89494859487F1
:10155000C5878FBF818180618183E6CF0000000055
:10156000000000009C0127503109880F991F880F47
:10157000991F820F931F0197F1F708956FB7F894A1
:101580002091292A30912A2A40912B2A50912C2AE5
:101590008091AA0A9091AB0A7091A60A70FF08C0C8
:1015A0002F5F3F4F4F4F5F4F8091AA0A9091AB0A38
:1015B0006FBFE92FFF27BC01A4E076956795AA9538
:1015C000E1F7E60FF71FBC01B6E076956795BA958F
:1015D000E1F7E61BF70B892F992786958695E81B7F
:1015E000F90BA8EEB3E00E94334C6E0F7F1F811DF4
:1015F000911D08958F929F92AF92BF92CF92DF92EA
:10160000EF92FF924B015C010E94BE0A6B017C01CC
:10161000A8EEB3E0A50194010E94334CC60ED71E7C
:10162000E81EF91EC616D706E806F90618F40E9449
:10163000BE0AF8CF0E94BE0A6C157D058E059F0577
:10164000C8F3FF90EF90DF90CF90BF90AF909F9046
:101650008F9008952FB7F8946091292A70912A2AC3
:1016600080912B2A90912C2A2FBF089521E0FC0114
:101670008485883008F020E0822F089528E733EE33
:10168000FC0120833183FB01408951896289738980
:10169000FC0142835383648375830895FC0184892C
:1016A000958908958091342890913528891B990B4C
:1016B00008954F925F926F927F92AF92BF92CF92B6
:1016C000DF92EF92FF920F931F93CF93DF93EC0182
:1016D0006B017B01E40EF51E8B015801AC18BD08AF
:1016E0000E151F0511F10E942A0B688779878A87DA
:1016F0009B87E881F9810284F385E02DCE0109956D
:1017000097FF23C00E942A0B488459846A847B84F3
:1017100064197509860997094C805D806E807F8009
:10172000641575058605970520F3C501DF91CF91F6
:101730001F910F91FF90EF90DF90CF90BF90AF90EF
:101740007F906F905F904F900895F80181938F0183
:10175000C4CFFB01A485B585ED91FC911197019053
:10176000F081E02D682FCD01099590E080E008958B
:10177000DC01ED91FC910190F081E02D0994EF9254
:10178000FF920F931F93CF93DF938C017B01D0E0E7
:10179000C0E0F701EC0FFD1F6491662361F0D801F2
:1017A000ED91FC910190F081E02DC8010995892B04
:1017B00011F02196EECFCE01DF91CF911F910F91C5
:1017C000FF90EF900895AF92BF92CF92DF92EF9289
:1017D000FF920F931F93CF93DF936C017B018B01DB
:1017E000040F151FEB015E01AE18BF08C017D1072B
:1017F00059F06991D601ED91FC910190F081E02DB5
:10180000C6010995892B79F7C501DF91CF911F9109
:101810000F91FF90EF90DF90CF90BF90AF90089521
:10182000FC01508D418D252F30E0842F90E0821BEC
:10183000930B541710F0CF96089501970895FC016B
:1018400096898789981761F0A789AE0FBF2FB11DC0
:101850005D968C9197899F5F9F73978B90E0089519
:101860008FEF9FEF0895FC0196898789981731F0D3
:101870008789E80FF11D858D90E008958FEF9FEF28
:101880000895FC0196892789892F90E0805C9F4FFD
:10189000821B91098F73992708958DE79CE20E941E
:1018A000410C21E0892B09F420E0822F0895CF9389
:1018B000DF93EC01E881F9810680F781E02D09953D
:1018C000EC85FD8586818F738683EC85FD8585811A
:1018D0008F7585838F898E8B1D8ADF91CF910895B7
:1018E000AF92BF92CF92DF92EF92FF920F931F932E
:1018F000CF93DF93EC016A017B01A22E8D898823AF
:1019000039F0E881F9810688F789E02DCE01099543
:101910000C8910E0BFB6F89460E078E689E899E0B9
:10192000A70196010E94F24B69017A018FEFC81A54
:10193000D80AE80AF80AF694E794D794C794EC8595
:10194000FD8586818D7F8683EC85FD8586818683F6
:101950001D8AA09125110A2E000CBB0BA701960130
:101960000E943E4C20E034E040E050E00E94144CE5
:10197000EC85FD85C20ED31EE41EF51EC086D18601
:10198000EC85FD85A782EC85FD858681806C86834C
:10199000EC85FD858581806885839091E2058B8942
:1019A000809589237801EE0CFF1CF701E00FF11FF1
:1019B000EC0FFD1F9089892B8093E2058685893283
:1019C00018F462E00E948F090E0D1F1DC00FD11F79
:1019D00061E08F850E94460A8F85893218F461E0A4
:1019E0000E948F09BFBEDF91CF911F910F91FF9091
:1019F000EF90DF90CF90BF90AF900895FC016130E1
:101A000019F4648B81E00895148A6623D9F380E089
:101A10000895DC0154961C92549754968C915497D7
:101A20008230A0F4282F30E0F901EE0FFF1FE20F03
:101A3000F31FEA0FFB1F9785961303C09685941733
:101A400049F08F5F54968C935497E7CF54961C922D
:101A500080E0089581E00895CF93DF93FC01908D9D
:101A6000818DC485D585981306C08D818F7D8D832A
:101A7000DF91CF910895A18DAE0FBF2FB11DA35A55
:101A8000BF4F2C91818D90E001968F739927818FA4
:101A900080E48C83A485B58512962C93908D818DDE
:101AA0009813E6CFA485B58515968C9115978F7DF3
:101AB00015968C93838D8823D9F2848D809313019E
:101AC000138ED6CFDC011C96ED91FC910FB607FE6C
:101AD00003C0258125FD04C0248125FD0C942C0D17
:101AE0000895EF92FF920F931F93CF93DF93EC0132
:101AF00081E08D8B988D898D98131CC0AC85BD8538
:101B000014968C91149785FF15C012966C93AC8532
:101B1000BD8580E414968C93EC85FD8585818F7D51
:101B2000858381E090E0DF91CF911F910F91FF902D
:101B3000EF9008958091110180FF08C080911301FA
:101B40008C8F8A8D8093130181E08B8FF62E088D08
:101B500010E00F5F1F4F0F731127E02E898D8E113C
:101B600004C0CE010E94620DF9CFE88DEC0FFD2F6D
:101B7000F11DE35AFF4FF082088FEC85FD858581CA
:101B80008062CECF682F8DE79CE20C94710DCF93CD
:101B9000DF93FC0125892223C9F0EC01809111011A
:101BA00080FF08C080911301848F828D8093130180
:101BB00081E0838FEC85FD85858185FD03C084816F
:101BC00086FD04C0CE010E94620DF4CFDF91CF915B
:101BD000089580E090E0892B29F00E944D0C81113E
:101BE0000E94000080E090E0892B49F080E090E0C6
:101BF000892B29F00E94000081110E94000080E0E2
:101C000090E0892B49F080E090E0892B29F00E9438
:101C1000000081110E94000080E090E0892B49F0D3
:101C200080E090E0892B29F00E94000081110C9443
:101C30000000089581E008950F9391E09093762835
:101C400010922F2860932D2870932E2840932C28D3
:101C500020932B28109230281092312800932A28A4
:101C6000880F8093292893E024E080912C288823F2
:101C700031F090937728809129288E7F09C0809138
:101C80002B28882341F02093772880912928816090
:101C90008093A70808C080912C28811104C08091EE
:101CA0002B28882331F380912F288823E1F380911A
:101CB0002F288330D1F280912B28882321F0809126
:101CC00031280F91089590912F2881E09130C9F724
:101CD00080E0F7CFE0EAF8E091859066918792E0A6
:101CE000909377288093232810922228089581E0EA
:101CF000809322281092232893E09093AA08909131
:101D0000AB0891FF0BC010922728F0E0E0E00995A6
:101D10008093262885E080937728089510922828BC
:101D20008093252886E0F7CFE091352880913428EC
:101D3000E81730F4F0E0EA5CF74D808190E0089518
:101D40008FEF9FEF089590913528809134282FEFE1
:101D50003FEF981748F4E92FF0E0EA5CF74D208157
:101D600030E09F5F90933528C9010895CF92DF92AC
:101D7000EF92FF920F931F93CF93DF937C018A0121
:101D8000EB016B01C40ED51ECC15DD0551F0699138
:101D9000D701ED91FC910190F081E02DC7010995EB
:101DA000F3CFC801DF91CF911F910F91FF90EF907A
:101DB000DF90CF9008952091B828203440F021E0A2
:101DC00030E0FC012283338390E080E0089580912D
:101DD000B928E82FF0E0E858F74D60838F5F8093D3
:101DE000B9288093B82881E090E00895CF93DF93DD
:101DF000EC018C819D81DC01ED91FC910480F581E9
:101E0000E02D09952A853B85009739F488859985C9
:101E1000821B930BDF91CF910895821B930B97FF49
:101E2000F9CF90E080E0F6CFCF93DF93DC011A96F4
:101E30004D915C914115510599F1EC018C819D8189
:101E40006E817F81DC01ED91FC910280F381E02DB8
:101E500009952A853B85281B390B2A873B87232B2D
:101E6000A9F0009799F030E020E04A855B852417BF
:101E7000350760F4EE81FF81E20FF31FDF01A80F49
:101E8000B91F4C9140832F5F3F4FEFCFEC81FD8115
:101E900082819381892B21F081E090E08A839B836A
:101EA000DF91CF910895AF92BF92CF92DF92EF92E0
:101EB000FF920F931F93CF93DF938C016B015A0115
:101EC0007B01D0E0C0E0CA15DB05B9F1D8011A9654
:101ED0008D919C911B97892B09F5A5014C1B5D0BDE
:101EE00018968D919C91199748175907B8F0149638
:101EF0008D919C91B6016C0F7D1FDC01ED91FC91E1
:101F00000280F381E02DDF91CF911F910F91FF901F
:101F1000EF90DF90CF90BF90AF900994F70161915F
:101F20007F01D801ED91FC910190F081E02DC80175
:101F30000995892B11F02196C6CFCE01DF91CF9163
:101F40001F910F91FF90EF90DF90CF90BF90AF90D7
:101F50000895FC01A681B781828593859C012F5F3E
:101F60003F4F22873387A80FB91F6C932285338593
:101F7000808591852817390741F4CF010190F081C0
:101F8000E02D0680F781E02D099581E090E008952D
:101F9000E0911E28F0911F28808190911D28892BA7
:101FA00080830895E0911E28F0911F2890818091F0
:101FB0001D288095892380830895AF92BF92CF9288
:101FC000DF92EF92FF920F931F93CF93DF93CDB7E2
:101FD000DEB72897CDBFDEBF8C017B016A018091FF
:101FE000752A8333E1F45801A40EB51EA016B1067C
:101FF00009F46FC00E94D20F80EF0E949E08812FCB
:102000000E949E08802F0E949E080F5F1F4FF701BD
:1020100081917F010E949E080E94C80FE7CF5B015B
:10202000A40EB51E8433C1F40E94D20F19830A8313
:102030008D2D80688B83CC8264E070E0CE010196A8
:102040000E94A808AE14BF0409F441C0F7018191B1
:102050007F010E949E08F6CF0E94D20F0F3F11050C
:1020600009F028F419820A8384E08B830CC017FDE1
:1020700017C019820A8333E0169507953A95E1F760
:10208000007E0C600B8386E0C816D10488F5F7014A
:10209000DE011496EA15FB0599F081918D93FACF34
:1020A000C80126E0969587952A95E1F7807E1983E9
:1020B0000A830115104C10F48461D7CF8C61D5CF01
:1020C000B6016D5F7F4FCE0101960E94A8080E9465
:1020D000C80FC6012896CDBFDEBFDF91CF911F91FB
:1020E0000F91FF90EF90DF90CF90BF90AF90089549
:1020F00063E070E0CE0101960E94A808F70181918B
:102100007F010E949E08AE14BF04C1F7E0CFCF93B9
:10211000DF931F92CDB7DEB7898341E050E0BE0167
:102120006F5F7F4F90E080E00E94DD0F0F90DF91A6
:10213000CF91089590E02091752A233339F40C96BD
:10214000982F990F990F990F80E008954896F8CF2E
:10215000DA01E0912028F0E0FE2FEE27E60FF71FCE
:1021600090E0982F8827A901BD018E0F9F1F0C9426
:10217000DD0FCF93DF9300D0CDB7DEB779836A83CD
:1021800022E030E0AE014F5F5F4F60E170E00E94FF
:10219000A8100F900F90DF91CF910895CF93DF9308
:1021A00000D0CDB7DEB779836A8322E030E0AE019C
:1021B0004F5F5F4F64E070E00E94A8100F900F9097
:1021C000DF91CF910895CF93DF931F92CDB7DEB704
:1021D0002091202830E0322F2227260F371F90E051
:1021E000982F8827498341E050E0BE016F5F7F4F01
:1021F000820F931F0E94DD0F0F90DF91CF91089502
:10220000CF93DF931F92CDB7DEB76983DC01ED91E9
:10221000FC910280F381E02D41E050E0BE016F5F50
:102220007F4F09950F90DF91CF910895CF93DF9362
:102230001F92CDB7DEB76983DC01ED91FC9102807E
:10224000F381E02D41E050E0BE016F5F7F4F0995C3
:102250000F90DF91CF910895FC019485FB01848557
:10226000981303C081E0983008F080E00895CF9380
:10227000DF931F92CDB7DEB76983DC01ED91FC914E
:102280000280F381E02D41E050E0BE016F5F7F4F9F
:1022900009950F90DF91CF91089544E050E0BC0183
:1022A0008FE090E00C94DD0F44E050E0BC0185E04D
:1022B00090E00C94DD0F44E050E0BC0181E090E040
:1022C0000C94DD0F0F931F93CF93DF93EC012396B4
:1022D0008C0105581F4FE881F981008CF18DE02DAC
:1022E000CE010995882351F02F96C017D10799F791
:1022F00080E0DF91CF911F910F91089581E0F9CF98
:1023000060E08DE00E94E80961E087E20E94E80950
:1023100061E086E20C94E809FC01828181110CC025
:102320008381811109C08481811106C081E095817A
:10233000911103C080E0089581E00895FC0160815F
:102340007181828193810E94864C0895FC01CB01AA
:10235000BA010E94864C60837183828393830895BF
:102360000F931F93CF93DF9300D000D0CDB7DEB78C
:102370008C01CE0101960E94A61189819A81AB81C0
:10238000BC81F80180839183A283B38380E090E0D5
:10239000A0E0B1E084839583A683B783108611867D
:1023A000128613861486158616861786108A118A59
:1023B000128A138A2496CDBFDEBFDF91CF911F9181
:1023C0000F910895AF92BF92CF92DF92EF92FF925A
:1023D0000F931F93CF93DF9300D000D0CDB7DEB71C
:1023E0008C016A017B0185E299E20E949E11AB019A
:1023F000BC018AE39BE20E94B011560184E0A80E62
:10240000B11CD701C60183709927AA27BB27892B46
:102410008A2B8B2B51F0AFEFCA1ADA0AEA0AFA0AB2
:10242000F601EA5CF44D1382E8CFB701A6017068AB
:10243000CE0101960E94A61189819A81AB81BC814F
:102440008093362B9093372BA093382BB093392B56
:10245000D801ED91FC910480F581E02DC80109952A
:10246000892BB1F3D801ED91FC910280F381E02D2D
:10247000A50166E37BE2C8010995D801ED91FC91C5
:102480000680F781E02DC80109952496CDBFDEBFF7
:10249000DF91CF911F910F91FF90EF90DF90CF9040
:1024A000BF90AF90089508950895FC01108A118A95
:1024B000089590E080E00895FC01208931898685A7
:1024C00097852817390770F484859585A9014F5F92
:1024D0005F4F408B518BFC01E20FF31F608381E063
:1024E00090E0089590E080E00895FC018485958552
:1024F0000895DC01ED91FC91028CF38DE02D09949F
:10250000FC01DB0112968D919C911397828393833A
:1025100014964D915D916D917C91179744835583ED
:102520006683778318964D915D916D917C911B9791
:1025300040875187628773871C968C911C9784878C
:102540001D968D919C9185879687CF010895FC01FA
:10255000658776870895DC01ED91FC9102A0F3A1D7
:10256000E02D099591E089270895862F089581E04F
:10257000862708950895CF92DF92EF92FF920F93EE
:102580001F93CF93DF93282F30E08901000F111F95
:10259000000F111FE901D595C795E62FF0E06F01F7
:1025A000CC0CDD1CCC0CDD1C7F01F594E794DF0125
:1025B000D4E0AA0FBB1FDA95E1F7A0719C2D9870AB
:1025C000A92B6470A62BBF017595679575956795C6
:1025D0006270A62BE295E170EA2B6C2D6078E62BF9
:1025E0009E2D9072E92B9E2D9074E92B9E2F909535
:1025F000B90154E0660F771F5A95E1F76071502FCB
:102600005870652B8470682BD901B595A795B59541
:10261000A795A2706A2B22952170262B0078202B7B
:102620008C2F8072282BC0742C2B2E23413079F0F4
:10263000809144048923282B20934404DF91CF9177
:102640001F910F91FF90EF90DF90CF9008958091B0
:1026500040048923282B20934004F0CF40E00C94C1
:10266000BB1241E00C94BB12E0E6F4E08FEF8283F2
:1026700088E0808B818B828B838B848B858B868B90
:10268000878B08956EE186E00E94311366E089EF42
:102690000C942E137F928F929F92AF92BF92CF9203
:1026A000DF92EF92FF920F931F93CF93DF93182F38
:1026B000062F0E942A0B4B015C016F5F7F4F8F4FEB
:1026C0009F4FC090402DD090412DF12CE12CD0E0B7
:1026D000C0E077247A941095681979098A099B09D2
:1026E0006C157D058E059F0508F069C08091392D18
:1026F000813041F582E10E94270A811116C00E94B3
:10270000421388E080938E2DC2E0D0E0CE01DF91AD
:10271000CF911F910F91FF90EF90DF90CF90BF90DE
:10272000AF909F908F907F90089584E10E94270A38
:10273000811108C00E94421388E080938E2DC3E06F
:10274000D0E0E4CF2097B1F481E10E94270A811103
:1027500030C080E10E94270AC7E0D0E0813049F50F
:1027600070926104109364048091382D81110FC020
:1027700068E010C0C730D10561F3C830D10581F3DE
:10278000C930D10551F0CA30D10561F012C068E1FD
:10279000002371F380E00E942E1380E10E94270A3B
:1027A00081110AC081E10E94270A813061F0CAE0EC
:1027B000D0E00E942A0B90CFC9E0D0E0FACFC13020
:1027C000D10509F0A3CF8091382D811103C068E0B5
:1027D00088E004C068E188E10023C9F30E942E1359
:1027E0008FEF8093610480936404C1E0D0E08ECFCA
:1027F000FC0180819181FC01FF2790FD06C080E0F3
:1028000094E1E82BF92B8081089580E093E1F9CFE2
:102810000F931F93CF93DF9300D0CDB7DEB78C011A
:1028200019821A82CE0101960E94F813F801808362
:1028300081E090E089839A83CE0101960E94F8138B
:10284000F8018183C8010F900F90DF91CF911F9104
:102850000F910895FC01FF2790FD12C080E094E1E4
:10286000E82BF92B60838FB7F8949DE923E094BFA0
:10287000209300108FBF8091021081FDFCCF08953E
:1028800080E093E1EDCFBF92CF92DF92EF92FF9283
:102890000F931F93CF93DF9300D0CDB7DEB76C01BA
:1028A0007C0102E010E0F701B1907F0109831A83F7
:1028B000CE0101960E94F813B81621F06B2DC801C5
:1028C0000E942A140F5F1F4F0935110561F7C601D9
:1028D0000E94CE078C0119821A82CE0101960E94B5
:1028E000F813081729F0602F90E080E00E942A1466
:1028F00081E090E089839A83CE0101960E94F813CB
:10290000181781F0612F81E090E00F900F90DF9118
:10291000CF911F910F91FF90EF90DF90CF90BF90DC
:102920000C942A140F900F90DF91CF911F910F916B
:10293000FF90EF90DF90CF90BF900895DC01ED9174
:10294000FC910488F589E02D23E030E009940C9493
:10295000BC470C94BC47CF93C82F80918E2D8330F9
:1029600079F06EE188E10E94311368E188E10E940C
:102970002E1360E880E00E942E1383E080938E2D5A
:1029800060E08C2F0E944A1321E0019709F420E0B7
:10299000822FCF9108958EE190E00E94AE0A8FE3DE
:1029A0000E94AB14882311F081E008958FE50E9406
:1029B000AB148111F9CF1092902D089524E0FC0101
:1029C000218321E320830895DF92EF92FF920F93FA
:1029D0001F93CF93DF9300D0CDB7DEB7FB01DC01AF
:1029E00056961D921C9257972281211109C023816E
:1029F000211106C02481211103C02581222359F110
:102A00004115510541F17A018F01FC01D08CCE01B5
:102A100001960E94DE1489819A810E94BD08A80156
:102A20004E5F5F4F24E030E06CE070E08D2D0E943F
:102A3000A810B7018D2D0E94B9100E94F10781E006
:102A400090E00F900F90DF91CF911F910F91FF9029
:102A5000EF90DF90089580E0F3CFAF92BF92CF92D6
:102A6000DF92EF92FF920F931F93CF938A01790128
:102A70006115710539F460913A2D70E061157105A9
:102A800009F4A2C0C62F60933B2D8FEF80933C2D9D
:102A90008091902D811115C06F3198F48FE30E94C1
:102AA000AB1481110EC08FE50E94AB14811109C0D7
:102AB00080E28C0F0E94AB14811103C081E08093EF
:102AC000902D80913D2D813030F0C1E0833020F099
:102AD000C0E0833009F0C2E08091392D823029F5C1
:102AE00060E880E80E942E136EE188E10E943113B5
:102AF00068E188E10E942E1384E080938E2D6801A6
:102B000010E000E0FF24570181E0A81AB1080E157B
:102B10001F0594F5F60181916F019091382D99234D
:102B200011F0CC2361F060E00EC06EE188E10E94FC
:102B3000311368E188E10E942E1389E0DECF61E065
:102B4000A016B10681F70E944A13019721F50F5F85
:102B50001F4FDDCF60E08DE00E944A136091382D59
:102B60008AE017C06EE180E00E9431130E943413A6
:102B700087E080938E2D1DC0CC2369F080913D2D80
:102B8000823061F3833039F0813021F76091382D44
:102B90008DE00E944A13C091392DC23019F760E8C8
:102BA00080E80E942E136EE180E00E943113C093F2
:102BB0008E2DCF911F910F91FF90EF90DF90CF90CE
:102BC000BF90AF900C94CB14CF911F910F91FF90B9
:102BD000EF90DF90CF90BF90AF900895FB010190F0
:102BE0000020E9F73197AF01461B570BDC01ED914F
:102BF000FC910280F381E02D09948F929F92AF9215
:102C0000BF92EF92FF920F931F93CF93DF93CDB7B5
:102C1000DEB7A197CDBFDEBF7C01FA01CB0119A2BF
:102C2000223008F42AE08E010F5D1F4F822E912C76
:102C3000B12CA12CBF01A50194010E94F24BF90116
:102C4000CA016A30F4F4605DD8016E938D01232BC4
:102C5000242B252B79F790E080E0109721F0BD011F
:102C6000C7010E94EE15A196CDBFDEBFDF91CF91C7
:102C70001F910F91FF90EF90BF90AF909F908F901A
:102C80000895695CE1CFCF92DF92EF92FF920F93AC
:102C90001F93CF93DF936B01770FEE08FF084A3045
:102CA0005105F1F42AE0F7FE1CC0EC016DE20E9430
:102CB000B80B8C0144275527BA014C195D096E09E0
:102CC0007F092AE0CE010E94FD15800F911FDF9140
:102CD000CF911F910F91FF90EF90DF90CF900895CB
:102CE000242FB701A601DF91CF911F910F91FF9083
:102CF000EF90DF90CF900C94FD158F929F92AF9242
:102D0000BF92CF92DF92EF92FF920F931F93CF93D8
:102D1000DF937C018B016C0182E0C80ED11C47015E
:102D2000E5E08E0E911CD0E0C0E0F60141916F010C
:102D300050E070E060E02AE0C8010E94FD155C01EF
:102D40006EE2C8010E94B80B8A0D9B1DC80FD91FE7
:102D5000C814D90451F7F701458150E070E060E0F4
:102D60002AE0C8010E94FD158C0F9D1FDF91CF91B5
:102D70001F910F91FF90EF90DF90CF90BF90AF9099
:102D80009F908F9008959C01CB01B9010C947D1602
:102D90006CE873EE0C94EE150F931F93CF93DF93B3
:102DA000EC01AB0170E060E02AE00E94FD158C01AF
:102DB000CE010E94C816800F911FDF91CF911F9105
:102DC0000F9108950F931F93CF93DF93EC010E940F
:102DD000C3168C01CE010E94C816800F911FDF918F
:102DE000CF911F910F9108950F931F93CF93DF936E
:102DF000EC010E94EE158C01CE010E94C816800FD6
:102E0000911FDF91CF911F910F9108950F931F9301
:102E1000CF93DF93EC01FB01448155816081718187
:102E2000E881F9810280F381E02D09958C01CE01C2
:102E30000E94C816800F911FDF91CF911F910F91B3
:102E400008950F931F93CF93DF93EC010E94BF0B64
:102E50008C01CE010E94C816800F911FDF91CF9187
:102E60001F910F9108956115710511F00C94EE15E5
:102E700090E080E00895CF92DF92EF92FF920F935F
:102E80001F93CF93D82EC92F7B016FE873EE8DE788
:102E90009CE20E9433170D2D1C2F6801CE0CDF1C05
:102EA0000C151D0571F1F801C1918F0161E973EEF7
:102EB000CA3041F064E973EECD3021F0C93039F405
:102EC00067E973EE8DE79CE20E943317E9CF80EE4D
:102ED0008C0F8F3580F06AE973EE8DE79CE20E94DB
:102EE00033176C2FCC0F770B40E150E08DE79CE25D
:102EF0000E944316D5CF6C2F8DE79CE20E94B80B41
:102F0000CFCF6DE973EE8DE79CE20E943317A701E6
:102F100070E060E02AE08DE79CE20E94FD156BEE18
:102F200073EE8DE79CE2CF911F910F91FF90EF9090
:102F3000DF90CF900C943317CF93DF93CDB7DEB7EC
:102F4000C054D109CDBFDEBF63E47FE08DE79CE2D2
:102F50000E9421176091352D7091362D40E450E08C
:102F6000CE0101960E943749BE016F5F7F4F8DE70A
:102F70009CE20E94331761E47FE08DE79CE20E94AF
:102F8000BF0BC05CDF4FCDBFDEBFDF91CF91089597
:102F90000F931F93CF93DF93CDB7DEB7C054D10902
:102FA000CDBFDEBF69EB73EE8DE79CE20E94F416A5
:102FB00069EB73EE8DE79CE20E94F4168091342D4C
:102FC00010E005E0811115C06FE27FE08DE79CE223
:102FD0000E9421176CEF7EE08DE79CE20E94211792
:102FE000C05CDF4FCDBFDEBFDF91CF911F910F914E
:102FF00008958091342D181798F7E091322DF091B3
:10300000332D109FE00DF11D11246081718140E48A
:1030100050E0CE0101960E943749BE016F5F7F4F9D
:103020008DE79CE20E94F4161F5FE3CF0E94C81751
:103030000C949C17AF92BF92CF92DF92EF92FF92C7
:103040000F931F93CF93DF9300D000D0CDB7DEB79F
:103050008C016B017A018091752A8333E9F45B015D
:103060006801C40ED51EC016D10691F10E94D20F80
:103070008FE00E949E08812F0E949E08802F0E9450
:103080009E080F5F1F4F80E00E949E08F50181930C
:103090005F010E94C80FE7CF843349F50E94D20F29
:1030A00019830A838F2D8F778B83EC8264E070E025
:1030B000CE0101960E94A808A70170E060E0C60159
:1030C0000E94A04DB701C6010E94A8080E94C80F27
:1030D000C7012496CDBFDEBFDF91CF911F910F9125
:1030E000FF90EF90DF90CF90BF90AF9008950E9437
:1030F000D20F0F3F110509F030F419820A831B82A9
:1031000063E070E0D5CF17FD0BC019820A8333E06E
:10311000169507953A95E1F7007E08600B83F0CF8E
:10312000C80126E0969587952A95E1F7807E198358
:103130000A830115104C18F480618B83E1CF8861FC
:10314000FCCF1F93CF93DF9300D0CDB7DEB7182FFE
:10315000CE0101960E94DE1489819A810E94BD08E9
:10316000812F0E949A1027E0129FF0011124E35D45
:10317000F54D22813381377041E050E0BE016F5F31
:103180007F4F820F931F0E941A180E94F1078981B6
:103190000F900F90DF91CF911F910895FC01808DCA
:1031A000883040F4218D328D232B21F00E94A1180C
:1031B00090E008958FEF9FEF0895CF93DF93FC0188
:1031C0002485283028F08FEF9FEFDF91CF9108956D
:1031D000EC010190F081E02D0084F185E02D09954E
:1031E000892B89F38C850E94A11890E0EECFCF93B4
:1031F000DF931F92CDB7DEB741E050E0BE016F5FB5
:103200007F4F0E941A1889810F90DF91CF91089506
:1032100090E080E00C94F718CF93DF93C4E1D0E006
:103220000E940819882361F061E070E080E090E07E
:103230000E94FA0A2197A1F780E0DF91CF910895CB
:1032400081E0FBCF1F93CF93DF9300D01F92CDB7C8
:10325000DEB780912128811139C160E372E080E0FE
:1032600090E00E94FA0A80913B2C811117C01092C5
:103270003C2C10923D2C10923E2C10923F2C109220
:10328000402C1092412C1092422C1092432C109200
:10329000442C1092452C81E080933B2C8091E305D7
:1032A0008C7F90913A2C892B8093E30591118BC0F0
:1032B00061E084E00E948F0961E086E00E948F094E
:1032C0008091C10884608093C1088091C0088162A8
:1032D0008093C0089091752C8091762C9093C008B3
:1032E0008093C10880910028893208F07FC0E82FC0
:1032F000F0E0E659FD412081263008F077C090E2E9
:10330000299F900111243C5F2C5F3F4F20931E2882
:1033100030931F289FEF893228F4E82FF0E0ED5614
:10332000FD41908190931D28893218F461E00E943C
:103330008F090E94C80FCE0101960E94DE14898178
:103340009A810E94BD0884E38093752A80E80E94D8
:1033500087100E940C19882309F44BC088E00E9452
:1033600087100E940819883009F043C080E10E944C
:1033700087100E9408198031E1F580E00E948710D3
:103380000E940819182F811134C08FE190E00E942B
:10339000F718833071F580E48093202842E06EE1D5
:1033A00070E0812F0E94E31042E06FE170E0812F16
:1033B0000E94E3101F5F183089F70E94F10781E037
:1033C000809321287CC0913039F461E08EE00E9426
:1033D0008F0961E080E172CF923009F071CF61E036
:1033E0008EE10E948F0961E080E268CF30E020E04A
:1033F0008BCF87E38093752A80E80E9487100E9414
:103400000C198823F9F088E00E9487100E9408199F
:103410008830C1F480E10E9487100E940819182F9B
:10342000803181F480E00E9487100E940819811188
:1034300009C089E390E00E94F718843019F41093D2
:103440002028BBCF83E38093752A80E80E948710F1
:103450000E940C19882371F180E10E9487100E945C
:103460000819803139F582E10E9487100E940819FD
:10347000823101F580E00E9487100E9408198111B5
:1034800019C084E08093202815E51B8341E050E0BB
:10349000BE016D5F7F4F8BE190E00E94DD0F1983CD
:1034A00041E050E0BE016F5F7F4F8AE190E00E94F3
:1034B000DD0F83CF1092752A0E94F10780E02396DA
:1034C000CDBFDEBFDF91CF911F91089581E0F7CF8F
:1034D000EF92FF921F93CF93DF93CDB7DEB7C45423
:1034E000D109CDBFDEBF7C01FB0182819381A48124
:1034F000B58123968CAF9DAFAEAFBFAF239711E0E0
:1035000023961FAF239723964CAD5DAD6EAD7FAD77
:10351000239749AF5AAF6BAF7CAF8DA79EA7AFA7DC
:10352000B8AB18AB4DA55EA56FA578A94B8F5C8F86
:103530006D8F7E8F1CAF49AD5AAD6BAD7CAD49A38D
:103540005AA36BA37CA328E733EE29833A834FEF7A
:103550004B834C834D831E822F8338871E8F4B8D68
:103560005C8D6D8D7E8D49875A876B877C871CA308
:1035700049A15AA16BA17CA14F87588B698B7A8B8B
:103580002B8B3C8B8D8B9E8BAF8BB88F0E9422191F
:10359000882369F1CE018D5B9F4F0E94DE14259632
:1035A0008EAD9FAD25970E94BD0846E050E0B70163
:1035B00089E090E00E94DD0FCE0145960E944D11FA
:1035C000CE0109960E945B11CE0103960E94541110
:1035D0000E94F1071A8B8F859889A989BA898093EF
:1035E000282D9093292DA0932A2DB0932B2DCC5BC1
:1035F000DF4FCDBFDEBFDF91CF911F91FF90EF90E6
:1036000008952091202830E0322F2227620F731F67
:1036100090E0982F8827860F971F0C94F718CF9368
:10362000C82F462F61E070E00E94E31061E070E077
:103630008C2F0E94011B8111F9CFCF9108951F9308
:10364000CF93DF9300D0CDB7DEB7182FCE01019610
:103650000E94DE1489819A810E94BD0868E070E0B2
:10366000812F0E940F1B0E94F1070F900F90DF9196
:10367000CF911F9108951F93CF93DF9300D0CDB7C3
:10368000DEB7182FCE0101960E94DE1489819A813F
:103690000E94BD0860E170E0812F0E940F1B0E9414
:1036A000F1070F900F90DF91CF911F910895CF9365
:1036B000DF93EC01888D883020F40E943B1B88E06A
:1036C000888FDF91CF91089563E070E00C94011B27
:1036D0001F93CF93DF9300D0CDB7DEB7182FCE0165
:1036E00001960E94DE1489819A810E94BD08812F73
:1036F0000E94641B182F0E94F107812F0F900F90DA
:10370000DF91CF911F910895EF92FF920F931F9336
:10371000CF93DF937C018091752AD4E0833309F045
:10372000D8E005E61AE2C0E0F801219131918F015D
:10373000F701848195812817390729F0CF5FDC13C1
:10374000F3CF80E006C08C2F0E94681B8431B1F754
:1037500081E0DF91CF911F910F91FF90EF9008953D
:10376000AF92BF92CF92DF92EF92FF920F931F938F
:10377000CF93DF93EC016B018091752A811120C0FA
:103780001A821B8288EE93E0A0E0B0E08C839D83D8
:10379000AE83BF8386E493EE8883998388E08C8729
:1037A00088EE93E08D879E87CE01DF91CF911F91A8
:1037B0000F91FF90EF90DF90CF90BF90AF90089562
:1037C00024E0A22E833311F098E0A92E85E6E82E9E
:1037D0008AE2F82E10E008E0B12CD7012D913D913E
:1037E0007D01F601848195812817390771F4812FB5
:1037F0000E94681B083031F5873111F08C3111F5CA
:10380000F701329710821182012F1F5FA112E5CFBD
:10381000B11008C0D601ED91FC910084F185E02D36
:10382000C60109951A821B8288EE93E0A0E0B0E001
:103830008C839D83AE83BF8386E493EE88839983D4
:103840000C87AECF843139F08111DFCFF701329789
:1038500010821182DACFBB24B394D7CFCF93DF93FA
:10386000EC018C858830D0F40E94681B843189F08B
:10387000882379F0883169F021E08C3159F4E881AE
:10388000F9810084F185E02DCE01099521E0892B95
:1038900009F420E0822FDF91CF91089580E0FBCFE3
:1038A000CF92DF92EF92FF92CF93DF93EC018C8562
:1038B000883068F40E941F1B0E942A0B6B017C0158
:1038C0008C850E94681B811109C088E08C87DF917C
:1038D000CF91FF90EF90DF90CF90089561E070E07E
:1038E00080E090E00E94FA0A0E942A0BAB01BC0122
:1038F0004C195D096E097F098D859E85B0E0A0E0B9
:10390000481759076A077B07D8F28C850E943B1B32
:10391000DCCF1F93CF93DF9300D0CDB7DEB7FC0190
:10392000108DCE0101960E94DE1489819A810E9439
:10393000BD0860E270E0812F0E940F1B62E070E022
:10394000812F0E94011B84FD22C062E070E0812F64
:103950000E94011B83FF10C048E162E070E0812FEC
:103960000E94E3100E94F10780E090E00F900F901A
:10397000DF91CF911F9108950E94F107CE0101962A
:103980000E94DE1489819A810E94BD08D7CF40E150
:1039900062E070E0812F0E94E3100E94F10781E055
:1039A000E4CFDA01E0912028F0E0FE2FEE27E60FC9
:1039B000F71F90E0982F8827A901BD018E0F9F1F48
:1039C0000C941A188F929F92AF92BF92CF92DF926F
:1039D000EF92FF920F931F93CF93DF93CDB7DEB794
:1039E0006097CDBFDEBF7C019091752A992371F15C
:1039F00008E0933309F404E05B01CE0101960E94D4
:103A0000DE1489819A810E94BD089E012F5F3F4F7D
:103A10006901490110E0812F0E94641BF401819328
:103A20004F018823D9F01F5F0113F5CF00E0F601A5
:103A300081916F018D3161F0883151F08A5182306E
:103A400038F00F5F1013F3CF0E94F10718E08AC01F
:103A500060E170E0802F0E940F1B102FC12ED12C2F
:103A6000F601EE0FFF1FEB59F54D108211828AEF20
:103A700090E00E94AE0A42E870E060E0812F0E9470
:103A8000E3104FEF62E070E0812F0E94E310B50178
:103A9000A114B10491F4809101289091022801961B
:103AA0008115F0EC9F0708F46EC080930128909375
:103AB00002286091012870910228812F0E94CE1067
:103AC00086E0E0E0F2EEDE01199601900D928A9513
:103AD000E1F7F70183818F778C8784818D878581DA
:103AE0008E87A7014E5F5F4F24E030E06CE070E00E
:103AF000812F0E94A810B501812F0E94B91026E0E5
:103B000030E0AE01475F5F4F66E070E0812F0E94BA
:103B1000A81061E070E0812F0E940F1B27E02C9D10
:103B2000C0012D9D900D11249C01235D354D79011F
:103B3000F9011082118222E030E0AE01415F5F4F57
:103B400068E270E0812F0E94D11C8F8598899827A8
:103B500089279827F701828393831682148215821E
:103B60000E94F107812F6096CDBFDEBFDF91CF911C
:103B70001F910F91FF90EF90DF90CF90BF90AF908B
:103B80009F908F90089580E090EC8FCFCF92DF923E
:103B9000EF92FF920F931F93CF93DF93CDB7DEB7D2
:103BA0002697CDBFDEBF8C016B017A01FC01808DB1
:103BB000883010F40E943B1B88E793EE89839A8338
:103BC000F60182819381A481B5818B839C83AD832F
:103BD000BE83B701CE0101960E94E21CF801808FDE
:103BE000883088F4E486F586118E128E81E0269660
:103BF000CDBFDEBFDF91CF911F910F91FF90EF906E
:103C0000DF90CF90089580E0F2CF7F928F929F92C5
:103C1000AF92BF92CF92DF92EF92FF920F931F93DA
:103C2000CF93DF9300D0CDB7DEB7782E8B014A015A
:103C3000590122E030E0AE014F5F5F4F64E270E077
:103C40000E94D11CE980FA80FE24EF24FE24E00EBD
:103C5000F11E970137704091752A072D10E043330C
:103C600009F042C0085F1F4F102F0027110F110FDE
:103C7000110FC901800F911F4733C9F1A9014A0DE6
:103C80005B1D4130584098F160E078E06B01C21A4A
:103C9000D30AA601B4010E94DD0FA5014C195D09EC
:103CA000B4016C0D7D1DC8010E94DD0FEA0CFB1CE8
:103CB000F982EA8222E030E0AE014F5F5F4F64E2BA
:103CC00070E0872D0E94A8100F900F90DF91CF9188
:103CD0001F910F91FF90EF90DF90CF90BF90AF902A
:103CE0009F908F907F900895005F1F4FBDCFA501DB
:103CF000B401DACFEF92FF921F93CF93DF9300D0FE
:103D0000CDB7DEB7182F22E030E0AE014F5F5F4F36
:103D100060E270E00E94D11CE980FA80FE24EF246A
:103D2000FE2422E030E0AE014F5F5F4F60E270E0C2
:103D3000812F0E94D11C89819A81982789279827F1
:103D4000E816F90689F487E0189FF0011124E35D75
:103D5000F54DE482F582C7010F900F90DF91CF916E
:103D60001F91FF90EF9008957C01DBCFFF920F939E
:103D70001F93CF93DF9300D0CDB7DEB7F82ECE01DF
:103D800001960E94DE1489819A810E94BD088F2DC0
:103D90000E947A1E8C018F2D0E94641BF82E0E94B7
:103DA000F10787E1F81629F08CE1F81611F010E020
:103DB00000E0C8010F900F90DF91CF911F910F91FC
:103DC000FF900895CF93DF93EC018C85883060F4E9
:103DD0000E94681B873111F08C3131F48C850E9470
:103DE000B61E8115984088F3DF91CF910895FC01AC
:103DF00024A1283018F448960C94E21E0895FC0182
:103E00008485883010F40C94B61E90E080E008950C
:103E1000AF92BF92CF92DF92EF92FF920F931F93D8
:103E2000CF93DF9300D0CDB7DEB7F82E6B018A01B8
:103E30004130584010F000E018E0CE0101960E9499
:103E4000DE1489819A810E94BD088F2D0E947A1EFE
:103E50005C018F2D0E94641BE82E0E94F10787E110
:103E6000E81619F08CE1E81235C0A016B10628F367
:103E7000CE0101960E94DE1489819A810E94BD08BC
:103E80009801A60170E060E08F2D0E94051E60E29F
:103E900070E08F2D0E940F1B62E070E08F2D0E945A
:103EA000011B84FD25C08F2D0E94641B811115C04C
:103EB0000E94F10710E000E0C8010F900F90DF9121
:103EC000CF911F910F91FF90EF90DF90CF90BF9017
:103ED000AF90089510E000E0CBCF0E94F107CE0133
:103EE00001960E94DE1489819A810E94BD08D4CF78
:103EF00040E162E070E08F2D0E94E3100E94F10724
:103F0000DBCF0F931F93CF93DF938C01EA01FC016A
:103F10008485883048F40E94081F892B39F481E099
:103F200090E0F80182839383D0E0C0E0CE01DF917E
:103F3000CF911F910F9108957F928F929F92AF9290
:103F4000BF92CF92DF92EF92FF920F931F93CF9386
:103F5000DF9300D0CDB7DEB77C014B01742EC52EA8
:103F6000FC01A688B788D08CCE0101960E94DE1491
:103F700089819A810E94BD088D2D0E947A1E072D8D
:103F80001C2D8017910708F48C019801A401B5013C
:103F90008D2D0E94051E0E94F107F70186899789E1
:103FA000800F911F868B978BC8010F900F90DF9128
:103FB000CF911F910F91FF90EF90DF90CF90BF9026
:103FC000AF909F908F907F900895FF920F931F93D3
:103FD000CF93DF9300D0CDB7DEB7F82E22E030E0EC
:103FE000AE014F5F5F4F66E270E00E94D11C098115
:103FF0001A8110270127102722E030E0AE014F5F21
:104000005F4F66E270E08F2D0E94D11C89819A81FA
:104010009827892798270817190749F4C8010F908E
:104020000F90DF91CF911F910F91FF9008958C0118
:10403000E3CFEF92FF920F931F93CF93DF9300D0C4
:10404000CDB7DEB7182F87E0189F90011124F90132
:10405000E35DF54D7F01808191810097B1F4CE0140
:1040600001960E94DE1489819A810E94BD08812FE9
:104070000E94E51F8C010E94F107F70186819801DB
:10408000281B3109C901208331830F900F90DF91E4
:10409000CF911F910F91FF90EF9008959F92AF9253
:1040A000BF92CF92DF92EF92FF920F931F93CF9325
:1040B000DF93EC017B018091752A811121C01A8266
:1040C0001B8288EE93E0A0E0B0E08C839D83AE83FA
:1040D000BF8386E493EE8883998388E08C8788EE9B
:1040E00093E08D879E87CE01DF91CF911F910F9135
:1040F000FF90EF90DF90CF90BF90AF909F9008958A
:1041000034E0932E833311F028E0922E85E6C82EFA
:104110008AE2D82E10E098E0B92EA12CD6012D917C
:104120003D916D01F701848195812817390791F43C
:10413000812F0E94681B082F873111F08C3139F5CF
:10414000812F0E941920892B59F50C3119F4812FE8
:104150000E941F1B1F5F9112E1CFA11008C0D70161
:10416000ED91FC910084F185E02DC70109951A823B
:104170001B8288EE93E0A0E0B0E08C839D83AE8349
:10418000BF8386E493EE88839983BC86A8CF84316D
:1041900049F08111DFCFF601329710821182DACF18
:1041A000B12ED8CFAA24A394D5CF8F929F92AF924D
:1041B000BF92CF92DF92EF92FF920F931F93CF9314
:1041C000DF93CDB7DEB72F97CDBFDEBF5C014B01CC
:1041D0007A018091752A8823B1F104E0833309F0D4
:1041E00008E0B501CE0101960E944E2085E6C82E5A
:1041F0008AE2D82E10E0F601219131916F01F5018C
:10420000848195812817390751F4812F0E94681BFA
:10421000873129F4A701B401812F0E94081F1F5F75
:104220000113E9CFC7012F96CDBFDEBFDF91CF913C
:104230001F910F91FF90EF90DF90CF90BF90AF90C4
:104240009F908F900895F12CE12CECCFEF92FF928C
:104250000F931F93CF93DF93CDB7DEB72F97CDBFCB
:10426000DEBF8C017C0188E1E80EF11CF80184A11D
:10427000883030F5C7010E942E1C81111DC0C70176
:104280000E94501C1B821C8288EE93E0A0E0B0E0EC
:104290008D839E83AF83B88786E493EE89839A8368
:1042A00088E08D8788EE93E08E879F87BE016F5FE1
:1042B0007F4FC7010E948012F80184A1883068F006
:1042C000F80166897789CE0101960E944E20BE01D1
:1042D0006F5F7F4FC7010E948012F80184A1883070
:1042E00038F40E942A0BF80165A776A787A790AB40
:1042F0002F96CDBFDEBFDF91CF911F910F91FF9021
:10430000EF900895CF93DF93EC010E942621CE0118
:1043100048962CA1283020F4DF91CF910C94DD1821
:104320008FEF9FEFDF91CF910895FC018485883056
:1043300010F40C94192090E080E00895EF92FF9221
:104340000F931F93CF93DF93CDB7DEB72F97CDBFDA
:10435000DEBFFC0126893789232B61F490E080E0E1
:104360002F96CDBFDEBFDF91CF911F910F91FF90B0
:10437000EF9008958C010E9426217801F8E1EF0E5C
:10438000F11CF80184A1883060F066897789CE013C
:1043900001960E944E20BE016F5F7F4FC7010E94B1
:1043A0008012F80184A18830C8F6C7010E949521C7
:1043B000D7CF4F925F927F928F929F92AF92BF9290
:1043C000CF92DF92EF92FF920F931F93CF93DF93E1
:1043D00000D0CDB7DEB7782E6B014A01A82EB12CE4
:1043E00027E0829FC0011124FC01E35DF54D7F01B0
:1043F00000811181CE0101960E94DE1489819A818B
:104400000E94BD080815190554F4872D0E94E51F68
:10441000F70126818C01021B11090083118301150C
:10442000110529F5872D0E94641B843159F08823DA
:1044300049F001E010E08C3111F410E000E011953A
:10444000019511090E94F107C8010F900F90DF91AB
:10445000CF911F910F91FF90EF90DF90CF90BF9081
:10446000AF909F908F907F905F904F9008958016AF
:1044700091060CF4840187E08A9DF0018B9DF00D7C
:104480001124E35DF54DE280F380C114D10451F1B4
:104490002701F7E05F22872D0E949A10840D951D59
:1044A0002091752A273309F453C09801240D351D36
:1044B0002130384008F44CC020E038E0490184182D
:1044C0009508A401B6010E941A182601480C591C2F
:1044D0006801C818D908872D0E949A10A601B20158
:1044E0000E941A18E00EF11E87E08A9DF0018B9D54
:1044F000F00D1124E35DF54DE282F38220813181DC
:10450000201B310B208331838681800F912F911DD9
:104510008A3F910510F4232BF1F487E08A9DF00186
:104520008B9DF00D1124E35DF54D1682F982EA8230
:1045300022E030E0AE014F5F5F4F68E270E0872D10
:104540000E94A81060E470E0872D0E940F1B7ACFB4
:10455000A801B601C5CF868375CFCF93DF93FC0149
:10456000218D328D2115310529F48FEF9FEFDF91D9
:10457000CF910895EC01808D4217530708F0A901EF
:104580000E94D9211816190684F7298D3A8D281B07
:10459000390B298F3A8FEBCF0F931F93CF93DF9374
:1045A0001F92CDB7DEB7FC01218D328D232B41F454
:1045B0008FEF9FEF0F90DF91CF911F910F91089593
:1045C0008C0141E050E0BE016F5F7F4FFC01808DA8
:1045D0000E94D921181619065CF7F801818D928D79
:1045E0000197818F928F898190E0E4CFCF93DF9301
:1045F0001F92CDB7DEB741E050E0BE016F5F7F4F45
:10460000FC0184850E94D9211816190634F4898189
:1046100090E00F90DF91CF9108958FEF9FEFF9CF4A
:10462000CF93DF93EC010E942621CE0148962CA166
:10463000283020F4DF91CF910C94F6228FEF9FEF7A
:10464000DF91CF910895FC018485883010F40C949B
:10465000D92190E080E008958F929F92BF92CF92EF
:10466000DF92EF92FF920F931F93CF93DF93CDB71B
:10467000DEB72A97CDBFDEBF9091752A992379F1D5
:1046800008E0933309F404E06B01B82ECE010196E3
:104690000E94DE1489819A810E94BD089E012F5FCD
:1046A0003F4F7901490110E0812F0E94641BF40102
:1046B00081934F018823D9F01F5F0113F5CF00E0EC
:1046C000F70191917F019D3161F0983151F09A513C
:1046D000923038F00F5F1013F3CF0E94F10718E00B
:1046E00060C060E170E0802F0E940F1B102FE12E50
:1046F000F12CF701EE0FFF1FEB59F54D10821182DF
:104700008AEF90E00E94AE0A4B2D70E060E0812FAE
:104710000E94E3104FEF62E070E0812F0E94E310EF
:10472000B601CD2891F4809101289091022801963C
:104730008115F0EC9F0708F444C080930128909302
:1047400002286091012870910228812F0E94CE10CA
:1047500061E070E0812F0E940F1B27E02E9DC001B9
:104760002F9D900D11249C01235D354D7901F90198
:104770001082118222E030E0AE01475F5F4F68E2B5
:1047800070E0812F0E94D11C89859A8598278927FE
:104790009827F701828393831682148215820E94E0
:1047A000F107812F2A96CDBFDEBFDF91CF911F91F8
:1047B0000F91FF90EF90DF90CF90BF909F908F90E0
:1047C000089580E090ECB9CF0F931F93CF93DF93C0
:1047D000EC018B01888D883010F40E943B1BB801DE
:1047E00082E00E942C23888F883050F40C871D872C
:1047F000198E1A8E81E0DF91CF911F910F9108954C
:1048000080E0F9CFEF92FF921F93CF93DF9300D018
:10481000CDB7DEB77C01FC016481758181E20E9425
:104820002C23182F883090F4CE0101960E94DE14BC
:1048300089819A810E94BD08812F0E94641B833167
:1048400069F00E94F107812F0E941F1B0F900F90AB
:10485000DF91CF911F91FF90EF90089562E070E09B
:10486000812F0E940F1B0E94F107F701848195811F
:10487000E12FF0E0EE0FFF1FEB59F54D80839183A0
:10488000E5CFAF92BF92CF92DF92EF92FF920F935C
:104890001F93CF93DF9300D0CDB7DEB78C016B01B0
:1048A0005A01FC018485883058F40E94681B8823D3
:1048B00021F0F80184850E941F1B88E0F80184879D
:1048C000F60182819381A481B5810097A105B1058C
:1048D00079F490E080E00F900F90DF91CF911F91DD
:1048E0000F91FF90EF90DF90CF90BF90AF90089521
:1048F0008F3F9F4FAF4FBF4F61F370E060E081E2A9
:104900000E942C23F82EF8018487F7E0F81708F3AB
:10491000CE0101960E94DE1489819A810E94BD0811
:10492000A6014E5F5F4F24E030E06CE070E08F2D19
:104930000E94A810B5018F2D0E94B91064E070E0AC
:104940008F2D0E940F1B0E94F1070E942A0B6B0102
:104950007C01F80184850E94681B873129F18C3124
:1049600019F1882309F4B5CF0E942A0BAB01BC01D1
:104970004C195D096E097F09F80185859685B0E0BF
:10498000A0E084179507A607B70738F061E070E04C
:1049900080E090E00E94FA0ADCCF84850E943B1BF5
:1049A00088E0F801848795CF81E090E094CF0F9361
:1049B0001F93CF93DF9300D0CDB7DEB7FC012485E2
:1049C00010E000E02830D8F48C01CE0101960E945E
:1049D000DE1489819A810E94BD0822E030E0AE0198
:1049E0004F5F5F4F60E170E0F80184850E94D11C49
:1049F00009811A811027012710270E94F107C80199
:104A00000F900F90DF91CF911F910F9108950F9309
:104A10001F93CF93DF9300D0CDB7DEB7FC01248581
:104A200010E000E02830D8F48C01CE0101960E94FD
:104A3000DE1489819A810E94BD0822E030E0AE0137
:104A40004F5F5F4F64E070E0F80184850E94D11CE5
:104A500009811A811027012710270E94F107C80138
:104A60000F900F90DF91CF911F910F9108950F93A9
:104A70001F93CF93DF9300D0CDB7DEB78C0188E7CB
:104A800093EEF8018083918312821382148215823F
:104A9000CE0101960E94DE1489819A810E94BD0890
:104AA000B8016E5F7F4F44E050E08FE090E00E94DD
:104AB0001A180E94F107C8010F900F90DF91CF9153
:104AC0001F910F910895DC0188E793EE8D939D93DC
:104AD00084E0FB0101900D928A95E1F70895EF9231
:104AE000FF920F931F93CF93DF9300D000D0CDB7E9
:104AF000DEB78C017B01FB0184858830A0F088E75C
:104B000093EEF801808391831282138214821582BE
:104B1000C8012496CDBFDEBFDF91CF911F910F91C9
:104B2000FF90EF900895CE0101960E94DE148981D6
:104B30009A810E94BD0824E030E0AE014F5F5F4FD4
:104B40006CE070E0F70184850E94D11C0E94F1079F
:104B5000BE016F5F7F4FC8010E946325D9CF7F924E
:104B60008F929F92AF92BF92CF92DF92EF92FF927D
:104B70000F931F93CF93DF93CDB7DEB7A697CDBF2B
:104B8000DEBF8C01762E942E852E20E2A22ECE0141
:104B900001967C01DC01EA2D1D92EA95E9F7680196
:104BA000F3E4CF0ED11C88E793EE89A39AA38FEF8D
:104BB0008BA38CA38DA38EA343E450E0BE016F5D55
:104BC0007F4FC6010E94E414019609F4BFC081E042
:104BD00089838A8386E0B82EBB821C82D801149612
:104BE0006D917D918D919C9117970E94864C6D835C
:104BF0007E838F83988789869A8680E890E08B876A
:104C00009C874CE150E0B701C6010E949C1FFE0149
:104C100037968AE1DF011D928A95E9F74801B8E0ED
:104C20008B0E911CF401D70101900D92BA94E1F71B
:104C300040E150E0B701C6010E949C1FF7011192AC
:104C4000AA94E9F796E0A92EB12C40E250E0B70112
:104C5000C6010E949C1FF1E0AF1AB108B1F783E6CC
:104C6000898392E89A8393E59B838C8385E38D8384
:104C700081E08E837F829DE3988797E099878A877A
:104C800086E0F401DE011B9601900D928A95E1F712
:104C90008CE0898B8A8B6AEB73EECE0143960E947F
:104CA000B24DD8011B966C91CE0149960E947809AD
:104CB000F8016485CE014B960E947809D8011D96B3
:104CC0006C91CE014D960E9478094EE150E0B701FB
:104CD000C6010E949C1FB3E07B121EC082E3898341
:104CE00084E08A83F80196859B8397859C839089CD
:104CF0009D8391899E8396E39F838887828D898790
:104D0000838D8A87848D8B87858D8C874CE050E0DE
:104D1000B701C6010E949C1F87E3898386E08A83CE
:104D200091E09B8393E09C838D838FE08E838AE365
:104D30008F838BE388878FEF898749E050E0B70145
:104D4000C6010E949C1FC6010E94891CA696CDBF69
:104D5000DEBFDF91CF911F910F91FF90EF90DF9019
:104D6000CF90BF90AF909F908F907F9008950F93BA
:104D70001F93CF93DF93CDB7DEB72897CDBFDEBFAC
:104D80008C01D80159964D915C915A974115510566
:104D900051F0ED91FC91028CF38DE02D70E060E01C
:104DA000C8010995EECFF801808D0E941920892B4A
:104DB00099F148E050E0BE016F5F7F4FD8015896EF
:104DC0008C910E94D92118161906F4F4D801509636
:104DD00084E0FE01319601900D928A95E1F78D8174
:104DE00090E0982F88272E81820F911DF801848BE7
:104DF000958B8F81282F30E0322F22278885820FD4
:104E0000932F911D818F928F2896CDBFDEBFDF91AA
:104E1000CF911F910F91089590E080E0F5CF4F92D0
:104E20005F926F927F928F929F92AF92BF92CF923A
:104E3000DF92EF92FF920F931F93CF93DF93CDB743
:104E4000DEB76397CDBFDEBF7C016B013A01FB018A
:104E500020E090E080E06AE03191332309F461C002
:104E600040ED430F4A3008F04DC0689FA001699F94
:104E7000500D1124CA01C097830F911D37FD9A95DB
:104E80008F3F910549F340F3F701428153816481DB
:104E900075818091792C90917A2CA0917B2CB09186
:104EA0007C2C481759076A077B0709F40AC2870157
:104EB000085F1F4F0E942A0B6F7077277C5FC80125
:104EC0000E94E423813009F001C288E793EE8983D0
:104ED0009A83F70182819381A481B5818B839C831E
:104EE000AD83BE8345E350E0BE016F5F7F4FC801D5
:104EF0000E94E414892B91F5D12CC12CC8010E9489
:104F0000571B17C03E3209F0BFCF233009F4BCCF86
:104F1000D301A20FB11D12968C932F5F90E080E019
:104F20009BCF233009F0B0CFF3018583CC24C39409
:104F3000D12CC6016396CDBFDEBFDF91CF911F910B
:104F40000F91FF90EF90DF90CF90BF90AF909F9028
:104F50008F907F906F905F904F9008950E942A0BE2
:104F6000F7016683778342E050E0B7016A5F7F4FC5
:104F7000C8010E949C1F81E090E089839A8342E0EF
:104F800050E0BE016F5F7F4FC8010E949C1F80E010
:104F900091E089839A8342E050E0BE016F5F7F4FCA
:104FA000C8010E949C1F19821A8242E050E0BE0193
:104FB0006F5F7F4FC8010E949C1F42E050E0BE011E
:104FC0006F5F7F4FC8010E949C1F42E050E0BE010E
:104FD0006F5F7F4FC8010E949C1F5601F6018081C0
:104FE000882301F16501F60181912F01882311F0D9
:104FF0008E32B1F446018A189B081814190474F40F
:105000008D8641E050E0BE01635F7F4FC8010E9482
:105010009C1FA401B501C8010E949C1F5201DECF54
:105020006201E1CF1D8641E050E0BE01635F7F4F2A
:10503000C8010E949C1FC12CDD24D394C982DA824E
:1050400042E050E0BE016F5F7F4FC8010E949C1F8D
:10505000C982DA8242E050E0BE016F5F7F4FC80133
:105060000E949C1FC8010E94891C892B09F444CF0F
:10507000F3E0AF2EB12C230122E0420E511CD4C02C
:10508000F7014281538164817581808D918DA28D5C
:10509000B38D481759076A077B0709F008C1848D4B
:1050A000958DC59709F003C181A192A15DEFC52E31
:1050B000DD24DA940C970CF4ADC04CE050E0BE0156
:1050C0006F5F7F4FC8010E94AD228B819C81982722
:1050D00089279827898B9A8BF701468157812981E7
:1050E0003A814217530709F0E7C097FFE5C08F7078
:1050F00092703BEFC32EDD24DA94892B09F08AC02D
:105100006F8078847624672476242AEFC22EDD24EB
:10511000DA946114710409F47DC0D12CC12C8D8105
:105120009E81982789279827C816D906F8F441E068
:1051300050E0BE01635F7F4FC8010E94AD224D85E4
:10514000442331F050E070E060E0C8010E94AD22DD
:105150008D858111ECCF44E050E070E060E0C80143
:105160000E94AD22FFEFCF1ADF0AD9CF912C812CFC
:1051700041E050E0BE016D5E7F4FC8010E94AD224C
:105180004B89842F807C09F06CC0442331F050E0BF
:1051900070E060E0C8010E94AD228B898111E8CFE8
:1051A00042E050E0BE01615F7F4FC8010E94AD2226
:1051B00042E050E0BE01635F7F4FC8010E94AD2214
:1051C00044E050E070E060E0C8010E94AD2242E09F
:1051D00050E0BE016F5E7F4FC8010E94AD228F85F7
:1051E000988949895A898115914009F043C0CD8435
:1051F000DE84DC24CD24DC2481E0C816D104D1F582
:105200004115544009F04AC044E050E0B201C801E1
:105210000E94AD2221E0A21AB10809F46FCEFFEF7F
:10522000CF16DF0609F06ACE0E942A0B3B014C0123
:10523000C8010E94B726181619060CF421CF0E9447
:105240002A0B66197709880999096938734181051C
:10525000910548F562E370E080E090E00E94FA0A70
:10526000E7CF41E050E070E060E0C8010E94AD226D
:105270001B8A93CF54274527542770E060E0C8016C
:105280000E94AD22FFEF8F1A9F0A6814790409F07B
:105290006FCF96EFC92EDD24DA94BCCFE7EFCE2E88
:1052A000DD24DA94B7CFCC24CA94DC2CB3CF6EEFD4
:1052B000C62EDD24DA94AECF4CEFC42EDD24DA9472
:1052C000A9CF8EEFC82EDD24DA9433CED12CC12C99
:1052D00030CECF92DF92EF92FF920F931F93CF9336
:1052E000DF93CDB7DEB7AF97CDBFDEBF7C016A01DC
:1052F00008E713EE09831A831B861C8688EE93E069
:10530000A0E0B0E08D879E87AF87B88B8CEF92EEE0
:1053100089879A870F8B188F198E1A8E1B8E1C8E79
:1053200088E089A30AA71BA71CA61DA61EA61FA668
:105330008091282D9091292DA0912A2DB0912B2D6F
:105340008EA39FA3A8A7B9A78B839C83AD83BE839D
:105350001F821886AE01465D5F4FCE0101960E9406
:105360000F2781309105B1F4D701ED91FC910288AE
:10537000F389E02D0CA31DA38CA59DA5AEA5BFA50B
:105380008EA39FA3A8A7B9A7A601BE016C5D7F4FFE
:10539000C7010995AF96CDBFDEBFDF91CF911F91B9
:1053A0000F91FF90EF90DF90CF900895CF92DF9212
:1053B000EF92FF920F931F93CF93DF93CDB7DEB79A
:1053C000AF97CDBFDEBF8C016B017A0188E793EE0A
:1053D00089839A831B821C821D821E821B861C86E7
:1053E00048EE53E060E070E04D875E876F87788B12
:1053F0002CEF32EE29873A878F8B988F198E1A8E71
:105400001B8E1C8E28E029A38AA79BA71CA61DA67D
:105410001EA61FA6D8011C968C91883060F40E94AD
:10542000681B882321F0F80184850E941F1B88E0F7
:10543000D8011C968C938091282D9091292DA091B4
:105440002A2DB0912B2D8EA39FA3A8A7B9A78B833C
:105450009C83AD83BE831F821886AE01465D5F4F7D
:10546000B601CE0101960E940F270097C1F0D80126
:10547000ED91FC910684F785E02D88E793EE8CA3EF
:105480009DA38CA59DA5AEA5BFA58EA39FA3A8A7F0
:10549000B9A7A701BE016C5D7F4FC8010995AF9602
:1054A000CDBFDEBFDF91CF911F910F91FF90EF90A5
:1054B000DF90CF900895DC0114968D919C91159703
:1054C0006817790750F4ED91FC911197E60FF71FDB
:1054D00014966D937C931597108208952F923F92A6
:1054E0004F925F926F927F928F929F92AF92BF92F4
:1054F000CF92DF92EF92FF920F931F93CF93DF93A0
:10550000CDB7DEB76597CDBFDEBF7A012C8B3D8B63
:10551000A8016115710569F560913A2D70E061157A
:10552000710539F561EC73EEC7010E94B94DF701C1
:1055300001900020E9F73197EE19FF09AC89BD8988
:10554000ED93FC9381E06596CDBFDEBFDF91CF91F7
:105550001F910F91FF90EF90DF90CF90BF90AF9091
:105560009F908F907F906F905F904F903F902F9083
:1055700008951B821C8288EE93E0A0E0B0E08D834A
:105580009E83AF83B8878AE092EE89839A83ED8603
:10559000FE864F87588B198A1A8A162F60933B2DE7
:1055A0008FEF80933C2D6F3198F48FE30E94AB1402
:1055B00081110EC08FE50E94AB14811109C080E4F7
:1055C000810F0E94AB14811103C082E08093902D63
:1055D00010928F2D8091392D823009F07AC060E8C9
:1055E00080E80E942E130E94421385E080938E2D46
:1055F0000E943413312CB0918F2DBB8BB1117DC023
:1056000084E10E94270A882309F477C00E942A0BAC
:105610002B013C017C016B01EFEFCE1ADE0AEE0A92
:10562000FE0A8090402D9090412DB12CA12C84E158
:105630000E94270A282E10E000E0C418D508E608CA
:10564000F708C814D904EA04FB0408F085C0809167
:10565000392D813009F441C00115110509F069C0E7
:1056600064E084E00E942E138FE00E94270A04E089
:1056700010E0811166C064E00E942E138EE00E944B
:10568000270A882309F462C030906804309462E0ED
:1056900082E00E942E138FE00E94270A813009F0D9
:1056A00058C062E080E00E942E13632DCE01019667
:1056B0000E94B80B8B89882309F49DCF8091372DE8
:1056C0008823D9F06091422DCE0101960E94B80B3B
:1056D00014C00E94421388E089CF82E10E94270A09
:1056E000882341F02110B8CF84E10E94270A882343
:1056F00009F4B2CFAB89A111E1CF1091392D12304D
:1057000081F560E880E80E942E136EE180E00E943F
:10571000311310938E2D80918F2D811110928F2D2A
:105720000E94CB1489899A89EC89FD8980839183B1
:1057300009CF0430110509F497CF0630110509F49B
:10574000AACF0E942A0B6B017C0177CFF1E0FB8B83
:105750009BCF06E010E0F5CF0130110509F4A5CF8D
:10576000C9CF6EE180E00E9431130E94341387E0BC
:1057700080938E2DD0CF0F931F93CF93DF93EC01A7
:1057800088819981009759F02A813B812617370734
:1057900030F081E0DF91CF911F910F9108958B013F
:1057A0006F5F7F4F0E94BC4C009759F088839983AC
:1057B0000A831B832C813D81232B59F7FC01108226
:1057C000E8CF80E0E7CFCF93DF93EC0170E060E0BB
:1057D0000E94BB2B2881398181110FC02115310511
:1057E00019F0C9010E94BC47188219821C821D82CF
:1057F0001A821B82DF91CF9108951C821D8269EB72
:1058000073EEC901DF91CF910C94B24DEF92FF92EC
:105810000F931F93CF93DF93EC017B01FB0101906A
:105820000020E9F731978F01061B170BB8010E9482
:10583000BB2B28813981811113C02115310519F045
:10584000C9010E94BC47188219821C821D821A82DB
:105850001B82DF91CF911F910F91FF90EF900895E0
:105860000C831D83B701C901DF91CF911F910F9167
:10587000FF90EF900C94B24DEF92FF920F931F9315
:10588000CF93DF9300D0CDB7DEB78C0169831A8246
:10589000FC01E480F580FFEFEF1AFF0AB7010E94D8
:1058A000BB2B882381F0F80120813181848195818F
:1058B000BE016F5F7F4F820F931F0E94B24DF801B0
:1058C000E482F58281E00F900F90DF91CF911F91DC
:1058D0000F91FF90EF9008958F929F92AF92BF9299
:1058E000EF92FF921F93CF93DF93FC0124A1283006
:1058F00028F5162FEC017C01F7E2EF0EF11CC70131
:105900000E943C2C0E942A0B4B015C014BA55CA51C
:105910001A3021F0411584E0580768F06FA178A58E
:10592000CE0148960E94811FC7010E94E32B8DAAD9
:105930009EAAAFAAB8AE81E090E002C090E080E0FD
:10594000DF91CF911F91FF90EF90BF90AF909F900C
:105950008F900895CF93DF93CDB7DEB72E97CDBF4D
:10596000DEBF89EA9BE089879A871B861C8682E0D6
:105970008C838B899C898D879E87AE01495E5F4FA2
:105980006D897E89CE0101960E9471492E96CDBF08
:10599000DEBFDF91CF910895AF92BF92CF92DF9299
:1059A000EF92FF920F931F93CF93DF93CDB7DEB7A4
:1059B000C650D140CDBFDEBF7C015B01CB5FDE4F67
:1059C00018821982C550D1408091602E9091612E2D
:1059D0009B01225B314D6901D9016C9170E0DC01C2
:1059E000ED91FC910680F781E02D00E011E09E0131
:1059F0002B5F3E4FAE014F5F5F4F09958091D32DD6
:105A0000882309F44BC067E87CE08DE79CE20E94A4
:105A1000BF0B4AE050E0B5018DE79CE20E944316BF
:105A20006DE77CE08DE79CE20E94BF0B80915F2ECA
:105A30008F9380915E2E8F9380915D2E8F938091B6
:105A40005C2E8F938EEE93EE9F938F938DE79CE267
:105A50009F938F930E94AA2C6DE67CE08DE79CE2D9
:105A60000E94BF0BF601408150E070E060E02AE048
:105A70008DE79CE20E94FD1563E67CE08DE79CE2E9
:105A80000E94BF0BCB5FDE4F68817981C550D1404A
:105A9000CE0101960E943B17CDBFDEBF10924E2B68
:105AA00010924F2B1092502B1092512B1092522B80
:105AB0001092532B1092542B1092552B80E090E0B3
:105AC000A0E0B4E08093562B9093572BA093582BD3
:105AD000B093592BCB5FDE4F48815981C550D140DF
:105AE00070E060E0CE018F5F9E4F0E94A611CF5FF5
:105AF000DE4F88819981AA81BB81C150D1408093BA
:105B00005A2B90935B2BA0935C2BB0935D2BBE0123
:105B10006F5F7F4F8EE59BE20E94B24DCB5FDE4F01
:105B200048815981C550D1404C5D5F4F70E060E0C5
:105B3000C7010E94E211CA5FDE4FCDBFDEBFDF9119
:105B4000CF911F910F91FF90EF90DF90CF90BF907A
:105B5000AF900895AF92BF92CF92DF92EF92FF92F3
:105B60000F931F93CF93DF9300D000D0CDB7DEB754
:105B7000E82E9AEBC92E9AE2D92E0AE71AE2882378
:105B800031F086EFC82E8AE2D82E06E91AE25601D5
:105B90002CE0A20EB11CC5010E949E11F090622E55
:105BA000603A76488140910509F44CC0FF20C9F065
:105BB00063E27CE08DE79CE20E94BF0BC5010E947E
:105BC0009E119F938F937F936F9381EF93EE9F939B
:105BD0008F938DE79CE29F938F930E94AA2CCDBF59
:105BE000DEBFC12CD12C760141E050E060E070E0D6
:105BF000CE0101960E94A61189819A81AB81BC8158
:105C0000F801848B958BA68BB78BB701A601CE01CB
:105C100001960E94A61189819A81AB81BC81F8010D
:105C2000808F918FA28FB38F2496CDBFDEBFDF917F
:105C3000CF911F910F91FF90EF90DF90CF90BF9089
:105C4000AF90089594E1C90ED11CC6010E949E1127
:105C5000633071058105910519F1FF20C9F068EEE7
:105C60007BE08DE79CE20E94BF0BC6010E949E1163
:105C70009F938F937F936F9388EF93EE9F938F9370
:105C80008DE79CE29F938F930E94AA2CCDBFDEBF2D
:105C9000C12CD12C760143E050E060E070E0A8CF49
:105CA000FF2081F06BEC7BE08DE79CE20E94BF0B54
:105CB00067EC7BE0E11002C063EC7BE08DE79CE2E7
:105CC0000E942117E090632EF090642EC7010E947D
:105CD00062119091622E882361F0F701E757FF4F20
